{
  "address": "0xa513E6E4b8f2a923D98304ec87F64353C4D5C853",
  "abi": [
    {
      "inputs": [],
      "name": "NotContract",
      "type": "error"
    },
    {
      "inputs": [
        {
          "internalType": "address",
          "name": "owner",
          "type": "address"
        }
      ],
      "name": "OwnableInvalidOwner",
      "type": "error"
    },
    {
      "inputs": [
        {
          "internalType": "address",
          "name": "account",
          "type": "address"
        }
      ],
      "name": "OwnableUnauthorizedAccount",
      "type": "error"
    },
    {
      "inputs": [],
      "name": "TokenAlreadyAdded",
      "type": "error"
    },
    {
      "inputs": [],
      "name": "ZeroAddress",
      "type": "error"
    },
    {
      "anonymous": false,
      "inputs": [
        {
          "indexed": false,
          "internalType": "address",
          "name": "_collTokenAddress",
          "type": "address"
        }
      ],
      "name": "CollTokenAdded",
      "type": "event"
    },
    {
      "anonymous": false,
      "inputs": [
        {
          "indexed": false,
          "internalType": "address",
          "name": "_priceFeedAddress",
          "type": "address"
        }
      ],
      "name": "CollTokenManagerInitialized",
      "type": "event"
    },
    {
      "anonymous": false,
      "inputs": [
        {
          "indexed": true,
          "internalType": "address",
          "name": "previousOwner",
          "type": "address"
        },
        {
          "indexed": true,
          "internalType": "address",
          "name": "newOwner",
          "type": "address"
        }
      ],
      "name": "OwnershipTransferred",
      "type": "event"
    },
    {
      "inputs": [],
      "name": "NAME",
      "outputs": [
        {
          "internalType": "string",
          "name": "",
          "type": "string"
        }
      ],
      "stateMutability": "view",
      "type": "function"
    },
    {
      "inputs": [
        {
          "internalType": "address",
          "name": "_tokenAddress",
          "type": "address"
        }
      ],
      "name": "addCollToken",
      "outputs": [],
      "stateMutability": "nonpayable",
      "type": "function"
    },
    {
      "inputs": [
        {
          "internalType": "uint256",
          "name": "",
          "type": "uint256"
        }
      ],
      "name": "collTokenAddresses",
      "outputs": [
        {
          "internalType": "address",
          "name": "",
          "type": "address"
        }
      ],
      "stateMutability": "view",
      "type": "function"
    },
    {
      "inputs": [],
      "name": "getCollTokenAddresses",
      "outputs": [
        {
          "internalType": "address[]",
          "name": "",
          "type": "address[]"
        }
      ],
      "stateMutability": "view",
      "type": "function"
    },
    {
      "inputs": [],
      "name": "owner",
      "outputs": [
        {
          "internalType": "address",
          "name": "",
          "type": "address"
        }
      ],
      "stateMutability": "view",
      "type": "function"
    },
    {
      "inputs": [],
      "name": "priceFeedAddress",
      "outputs": [
        {
          "internalType": "address",
          "name": "",
          "type": "address"
        }
      ],
      "stateMutability": "view",
      "type": "function"
    },
    {
      "inputs": [],
      "name": "renounceOwnership",
      "outputs": [],
      "stateMutability": "nonpayable",
      "type": "function"
    },
    {
      "inputs": [
        {
          "internalType": "address",
          "name": "_priceFeedAddress",
          "type": "address"
        }
      ],
      "name": "setAddresses",
      "outputs": [],
      "stateMutability": "nonpayable",
      "type": "function"
    },
    {
      "inputs": [
        {
          "internalType": "address",
          "name": "newOwner",
          "type": "address"
        }
      ],
      "name": "transferOwnership",
      "outputs": [],
      "stateMutability": "nonpayable",
      "type": "function"
    }
  ],
  "transactionHash": "0x3bda928a2cbc34622d503db8976dbee59d1934ed801d83fcb9b9570fbf37fa92",
  "args": [],
  "numDeployments": 1,
  "solcInputHash": "a6d55ae1f6eb61d657352227caab6412",
  "bytecode": "0x608060405234801561001057600080fd5b50338061003757604051631e4fbdf760e01b81526000600482015260240160405180910390fd5b61004081610046565b50610096565b600080546001600160a01b038381166001600160a01b0319831681178455604051919092169283917f8be0079c531659141344cd1fd0a4f28419497f9722a3daafe3b4186f6b6457e09190a35050565b6105e2806100a56000396000f3fe608060405234801561001057600080fd5b50600436106100935760003560e01c80638da5cb5b116100665780638da5cb5b146100f8578063a3f4df7e14610109578063e0abca0b14610145578063efc5f8c514610158578063f2fde38b1461016d57600080fd5b8063381f287f14610098578063715018a6146100ad57806371a9d418146100b557806381d3c435146100e5575b600080fd5b6100ab6100a636600461048b565b610180565b005b6100ab61027d565b6100c86100c33660046104bb565b610291565b6040516001600160a01b0390911681526020015b60405180910390f35b6100ab6100f336600461048b565b6102bb565b6000546001600160a01b03166100c8565b6101386040518060400160405280601081526020016f21b7b6362a37b5b2b726b0b730b3b2b960811b81525081565b6040516100dc91906104d4565b6001546100c8906001600160a01b031681565b61016061031a565b6040516100dc9190610522565b6100ab61017b36600461048b565b61037c565b6101886103bf565b60005b6002548110156101f757816001600160a01b0316600282815481106101b2576101b261056f565b6000918252602090912001546001600160a01b0316036101e55760405163630b374b60e01b815260040160405180910390fd5b806101ef81610585565b91505061018b565b50600280546001810182556000919091527f405787fa12a823e0f2b7631cc41b3ba8828b3321ca811111fa75cd3aa3bb5ace0180546001600160a01b0319166001600160a01b0383169081179091556040519081527fc3fea9aec2d8ccb53beebc6f984b992bd0d00455252e7a16da014ddc4a1b141a906020015b60405180910390a150565b6102856103bf565b61028f60006103ec565b565b600281815481106102a157600080fd5b6000918252602090912001546001600160a01b0316905081565b6102c36103bf565b6102cc8161043c565b600180546001600160a01b0319166001600160a01b0383169081179091556040519081527f8194d5cdd3c919bb084fc429e4f51aaa8995b9d2f5853089cd7c8af7ed0cbcc790602001610272565b6060600280548060200260200160405190810160405280929190818152602001828054801561037257602002820191906000526020600020905b81546001600160a01b03168152600190910190602001808311610354575b5050505050905090565b6103846103bf565b6001600160a01b0381166103b357604051631e4fbdf760e01b8152600060048201526024015b60405180910390fd5b6103bc816103ec565b50565b6000546001600160a01b0316331461028f5760405163118cdaa760e01b81523360048201526024016103aa565b600080546001600160a01b038381166001600160a01b0319831681178455604051919092169283917f8be0079c531659141344cd1fd0a4f28419497f9722a3daafe3b4186f6b6457e09190a35050565b6001600160a01b0381166104635760405163d92e233d60e01b815260040160405180910390fd5b803b600081900361048757604051636f7c43f160e01b815260040160405180910390fd5b5050565b60006020828403121561049d57600080fd5b81356001600160a01b03811681146104b457600080fd5b9392505050565b6000602082840312156104cd57600080fd5b5035919050565b600060208083528351808285015260005b81811015610501578581018301518582016040015282016104e5565b506000604082860101526040601f19601f8301168501019250505092915050565b6020808252825182820181905260009190848201906040850190845b818110156105635783516001600160a01b03168352928401929184019160010161053e565b50909695505050505050565b634e487b7160e01b600052603260045260246000fd5b6000600182016105a557634e487b7160e01b600052601160045260246000fd5b506001019056fea2646970667358221220e17ed598458cdd5186e3ad6dca7f98c51938b753ffc822c16a7f68039eb4490364736f6c63430008140033",
  "devdoc": {
    "errors": {
      "OwnableInvalidOwner(address)": [
        {
          "details": "The owner is not a valid owner account. (eg. `address(0)`)"
        }
      ],
      "OwnableUnauthorizedAccount(address)": [
        {
          "details": "The caller account is not authorized to perform an operation."
        }
      ]
    },
    "kind": "dev",
    "methods": {
      "owner()": {
        "details": "Returns the address of the current owner."
      },
      "renounceOwnership()": {
        "details": "Leaves the contract without owner. It will not be possible to call `onlyOwner` functions. Can only be called by the current owner. NOTE: Renouncing ownership will leave the contract without an owner, thereby disabling any functionality that is only available to the owner."
      },
      "transferOwnership(address)": {
        "details": "Transfers ownership of the contract to a new account (`newOwner`). Can only be called by the current owner."
      }
    },
    "version": 1
  },
  "userdoc": {
    "kind": "user",
    "methods": {},
    "version": 1
  },
  "storageLayout": {
    "storage": [
      {
        "astId": 8,
        "contract": "contracts/CollTokenManager.sol:CollTokenManager",
        "label": "_owner",
        "offset": 0,
        "slot": "0",
        "type": "t_address"
      },
      {
        "astId": 5565,
        "contract": "contracts/CollTokenManager.sol:CollTokenManager",
        "label": "priceFeedAddress",
        "offset": 0,
        "slot": "1",
        "type": "t_address"
      },
      {
        "astId": 5568,
        "contract": "contracts/CollTokenManager.sol:CollTokenManager",
        "label": "collTokenAddresses",
        "offset": 0,
        "slot": "2",
        "type": "t_array(t_address)dyn_storage"
      }
    ],
    "types": {
      "t_address": {
        "encoding": "inplace",
        "label": "address",
        "numberOfBytes": "20"
      },
      "t_array(t_address)dyn_storage": {
        "base": "t_address",
        "encoding": "dynamic_array",
        "label": "address[]",
        "numberOfBytes": "32"
      }
    }
  }
}