{
  "address": "0xA51c1fc2f0D1a1b8494Ed1FE312d7C3a78Ed91C0",
  "abi": [
    {
      "inputs": [],
      "name": "FeeExceedMaxPercentage",
      "type": "error"
    },
    {
      "inputs": [],
      "name": "NotContract",
      "type": "error"
    },
    {
      "inputs": [],
      "name": "NotFromProtocol",
      "type": "error"
    },
    {
      "inputs": [
        {
          "internalType": "address",
          "name": "owner",
          "type": "address"
        }
      ],
      "name": "OwnableInvalidOwner",
      "type": "error"
    },
    {
      "inputs": [
        {
          "internalType": "address",
          "name": "account",
          "type": "address"
        }
      ],
      "name": "OwnableUnauthorizedAccount",
      "type": "error"
    },
    {
      "inputs": [],
      "name": "ZeroAddress",
      "type": "error"
    },
    {
      "anonymous": false,
      "inputs": [
        {
          "indexed": true,
          "internalType": "address",
          "name": "_account",
          "type": "address"
        },
        {
          "components": [
            {
              "internalType": "address",
              "name": "tokenAddress",
              "type": "address"
            },
            {
              "internalType": "uint256",
              "name": "amount",
              "type": "uint256"
            }
          ],
          "indexed": false,
          "internalType": "struct IBase.TokenAmount[]",
          "name": "_collSurplus",
          "type": "tuple[]"
        }
      ],
      "name": "CollBalanceUpdated",
      "type": "event"
    },
    {
      "anonymous": false,
      "inputs": [
        {
          "indexed": false,
          "internalType": "address",
          "name": "_to",
          "type": "address"
        }
      ],
      "name": "CollClaimed",
      "type": "event"
    },
    {
      "anonymous": false,
      "inputs": [
        {
          "indexed": false,
          "internalType": "address",
          "name": "_liquidationOperationsAddress",
          "type": "address"
        },
        {
          "indexed": false,
          "internalType": "address",
          "name": "_borrowerOperationsAddress",
          "type": "address"
        }
      ],
      "name": "CollSurplusPoolInitialized",
      "type": "event"
    },
    {
      "anonymous": false,
      "inputs": [
        {
          "indexed": true,
          "internalType": "address",
          "name": "previousOwner",
          "type": "address"
        },
        {
          "indexed": true,
          "internalType": "address",
          "name": "newOwner",
          "type": "address"
        }
      ],
      "name": "OwnershipTransferred",
      "type": "event"
    },
    {
      "inputs": [],
      "name": "BORROWING_FEE_FLOOR",
      "outputs": [
        {
          "internalType": "uint256",
          "name": "",
          "type": "uint256"
        }
      ],
      "stateMutability": "view",
      "type": "function"
    },
    {
      "inputs": [],
      "name": "CCR",
      "outputs": [
        {
          "internalType": "uint256",
          "name": "",
          "type": "uint256"
        }
      ],
      "stateMutability": "view",
      "type": "function"
    },
    {
      "inputs": [],
      "name": "GOV_STAKING_ADDRESS",
      "outputs": [
        {
          "internalType": "address",
          "name": "",
          "type": "address"
        }
      ],
      "stateMutability": "view",
      "type": "function"
    },
    {
      "inputs": [],
      "name": "GOV_SWAP_FEE",
      "outputs": [
        {
          "internalType": "uint32",
          "name": "",
          "type": "uint32"
        }
      ],
      "stateMutability": "view",
      "type": "function"
    },
    {
      "inputs": [],
      "name": "MAX_BORROWING_FEE",
      "outputs": [
        {
          "internalType": "uint256",
          "name": "",
          "type": "uint256"
        }
      ],
      "stateMutability": "view",
      "type": "function"
    },
    {
      "inputs": [],
      "name": "MCR",
      "outputs": [
        {
          "internalType": "uint256",
          "name": "",
          "type": "uint256"
        }
      ],
      "stateMutability": "view",
      "type": "function"
    },
    {
      "inputs": [],
      "name": "NAME",
      "outputs": [
        {
          "internalType": "string",
          "name": "",
          "type": "string"
        }
      ],
      "stateMutability": "view",
      "type": "function"
    },
    {
      "inputs": [],
      "name": "PERCENT_DIVISOR",
      "outputs": [
        {
          "internalType": "uint256",
          "name": "",
          "type": "uint256"
        }
      ],
      "stateMutability": "view",
      "type": "function"
    },
    {
      "inputs": [],
      "name": "REDEMPTION_FEE_FLOOR",
      "outputs": [
        {
          "internalType": "uint256",
          "name": "",
          "type": "uint256"
        }
      ],
      "stateMutability": "view",
      "type": "function"
    },
    {
      "inputs": [],
      "name": "STABLE_COIN_GAS_COMPENSATION",
      "outputs": [
        {
          "internalType": "uint256",
          "name": "",
          "type": "uint256"
        }
      ],
      "stateMutability": "view",
      "type": "function"
    },
    {
      "inputs": [],
      "name": "SWAP_BASE_FEE",
      "outputs": [
        {
          "internalType": "uint32",
          "name": "",
          "type": "uint32"
        }
      ],
      "stateMutability": "view",
      "type": "function"
    },
    {
      "inputs": [],
      "name": "SWAP_FEE_PRECISION",
      "outputs": [
        {
          "internalType": "uint32",
          "name": "",
          "type": "uint32"
        }
      ],
      "stateMutability": "view",
      "type": "function"
    },
    {
      "inputs": [],
      "name": "_100pct",
      "outputs": [
        {
          "internalType": "uint256",
          "name": "",
          "type": "uint256"
        }
      ],
      "stateMutability": "view",
      "type": "function"
    },
    {
      "inputs": [
        {
          "internalType": "address",
          "name": "_account",
          "type": "address"
        },
        {
          "components": [
            {
              "internalType": "address",
              "name": "tokenAddress",
              "type": "address"
            },
            {
              "internalType": "bool",
              "name": "isColl",
              "type": "bool"
            },
            {
              "internalType": "uint256",
              "name": "amount",
              "type": "uint256"
            },
            {
              "internalType": "uint256",
              "name": "pendingReward",
              "type": "uint256"
            },
            {
              "internalType": "uint256",
              "name": "gasCompensation",
              "type": "uint256"
            },
            {
              "internalType": "uint256",
              "name": "toLiquidate",
              "type": "uint256"
            },
            {
              "internalType": "uint256",
              "name": "toRedistribute",
              "type": "uint256"
            },
            {
              "internalType": "uint256",
              "name": "toOffset",
              "type": "uint256"
            },
            {
              "internalType": "uint256",
              "name": "collSurplus",
              "type": "uint256"
            }
          ],
          "internalType": "struct IBase.RAmount[]",
          "name": "_collSurplus",
          "type": "tuple[]"
        }
      ],
      "name": "accountSurplus",
      "outputs": [],
      "stateMutability": "nonpayable",
      "type": "function"
    },
    {
      "inputs": [],
      "name": "borrowerOperationsAddress",
      "outputs": [
        {
          "internalType": "address",
          "name": "",
          "type": "address"
        }
      ],
      "stateMutability": "view",
      "type": "function"
    },
    {
      "inputs": [
        {
          "internalType": "address",
          "name": "_account",
          "type": "address"
        }
      ],
      "name": "claimColl",
      "outputs": [],
      "stateMutability": "nonpayable",
      "type": "function"
    },
    {
      "inputs": [
        {
          "internalType": "address",
          "name": "_account",
          "type": "address"
        }
      ],
      "name": "getCollateral",
      "outputs": [
        {
          "components": [
            {
              "internalType": "address",
              "name": "tokenAddress",
              "type": "address"
            },
            {
              "internalType": "uint256",
              "name": "amount",
              "type": "uint256"
            }
          ],
          "internalType": "struct IBase.TokenAmount[]",
          "name": "",
          "type": "tuple[]"
        }
      ],
      "stateMutability": "view",
      "type": "function"
    },
    {
      "inputs": [],
      "name": "liquidationOperationsAddress",
      "outputs": [
        {
          "internalType": "address",
          "name": "",
          "type": "address"
        }
      ],
      "stateMutability": "view",
      "type": "function"
    },
    {
      "inputs": [],
      "name": "owner",
      "outputs": [
        {
          "internalType": "address",
          "name": "",
          "type": "address"
        }
      ],
      "stateMutability": "view",
      "type": "function"
    },
    {
      "inputs": [],
      "name": "renounceOwnership",
      "outputs": [],
      "stateMutability": "nonpayable",
      "type": "function"
    },
    {
      "inputs": [
        {
          "internalType": "address",
          "name": "_liquidationOperationsAddress",
          "type": "address"
        },
        {
          "internalType": "address",
          "name": "_borrowerOperationsAddress",
          "type": "address"
        }
      ],
      "name": "setAddresses",
      "outputs": [],
      "stateMutability": "nonpayable",
      "type": "function"
    },
    {
      "inputs": [
        {
          "internalType": "address",
          "name": "newOwner",
          "type": "address"
        }
      ],
      "name": "transferOwnership",
      "outputs": [],
      "stateMutability": "nonpayable",
      "type": "function"
    }
  ],
  "transactionHash": "0xdf774eb61b7c2f4f70b5fca9d28837e902c0cbf7464f1666b3c9bce88b8fbcff",
  "args": [],
  "numDeployments": 1,
  "solcInputHash": "6cd4b693370de6782d041c6552000a4d",
  "bytecode": "0x608060405234801561001057600080fd5b50338061003757604051631e4fbdf760e01b81526000600482015260240160405180910390fd5b61004081610046565b50610096565b600080546001600160a01b038381166001600160a01b0319831681178455604051919092169283917f8be0079c531659141344cd1fd0a4f28419497f9722a3daafe3b4186f6b6457e09190a35050565b610d1e806100a56000396000f3fe608060405234801561001057600080fd5b50600436106101425760003560e01c806390107afe116100b8578063dc3f87831161007c578063dc3f8783146102bb578063e67729e3146102ce578063e8537534146102d8578063ec671c83146102eb578063f2fde38b146102f5578063f92d34331461019b57600080fd5b806390107afe146102275780639b56d6c91461023a578063a3f4df7e1461025a578063b32beb5b14610295578063b7f8cf9b146102a857600080fd5b80635733d58f1161010a5780635733d58f146101cf578063715018a6146101de57806372fe25aa146101e8578063794e5724146101f75780638d63c665146102065780638da5cb5b1461021657600080fd5b806309230ad314610147578063240926691461017f57806328d28b5b1461019b5780634870dd9a146101a9578063502afb04146101b1575b600080fd5b61016273f39fd6e51aad88f6f4ce6ab8827279cfffb9226681565b6040516001600160a01b0390911681526020015b60405180910390f35b61018d66b1a2bc2ec5000081565b604051908152602001610176565b61018d6611c37937e0800081565b61018d60c881565b6101ba610bb881565b60405163ffffffff9091168152602001610176565b61018d6714d1120d7b16000081565b6101e6610308565b005b61018d670de0b6b3a764000081565b61018d670f43fc2c04ee000081565b61018d680ad78ebc5ac620000081565b6000546001600160a01b0316610162565b6101e6610235366004610962565b61031c565b61024d610248366004610995565b6103ac565b60405161017691906109b7565b6102886040518060400160405280600f81526020016e10dbdb1b14dd5c9c1b1d5cd41bdbdb608a1b81525081565b6040516101769190610a0f565b6101e66102a3366004610995565b610437565b600254610162906001600160a01b031681565b6101e66102c9366004610ae7565b6105f1565b6101ba620f424081565b600154610162906001600160a01b031681565b6101ba6207a12081565b6101e6610303366004610995565b6107b2565b6103106107f5565b61031a6000610822565b565b6103246107f5565b61032d81610872565b61033682610872565b600280546001600160a01b038381166001600160a01b03199283168117909355600180549186169190921681179091556040805191825260208201929092527f79c895870f67643ccdecfa7526dcc8a9fa4afa05cd1cdd44890c197903b88c49910160405180910390a16103a8610308565b5050565b6001600160a01b0381166000908152600360209081526040808320805482518185028101850190935280835260609492939192909184015b8282101561042c576000848152602090819020604080518082019091526002850290910180546001600160a01b031682526001908101548284015290835290920191016103e4565b505050509050919050565b61043f6108bd565b6001600160a01b038116600090815260036020908152604080832080548251818502810185019093528083529192909190849084015b828210156104bd576000848152602090819020604080518082019091526002850290910180546001600160a01b03168252600190810154828401529083529092019101610475565b50505050905060005b815181101561058f5760008282815181106104e3576104e3610c1a565b6020026020010151905080602001516000036104ff575061057d565b8051602082015160405163a9059cbb60e01b81526001600160a01b038781166004830152602482019290925291169063a9059cbb906044016020604051808303816000875af1158015610556573d6000803e3d6000fd5b505050506040513d601f19601f8201168201806040525081019061057a9190610c30565b50505b8061058781610c63565b9150506104c6565b506001600160a01b03821660009081526003602052604081206105b191610900565b6040516001600160a01b03831681527f4bd6489fd0d3d88624af90625786074e9b20f0738d92644aa61552ccab30a1609060200160405180910390a15050565b6105f96108bd565b6001600160a01b0382166000908152600360205260408120905b825181101561076b57600083828151811061063057610630610c1a565b6020026020010151905080610100015160000361064d5750610759565b6000805b84548110156106f25782600001516001600160a01b031685828154811061067a5761067a610c1a565b60009182526020909120600290910201546001600160a01b0316036106e0578261010001518582815481106106b1576106b1610c1a565b906000526020600020906002020160010160008282546106d19190610c7c565b90915550600192506106f29050565b806106ea81610c63565b915050610651565b5080610756576040805180820190915282516001600160a01b0390811682526101008401516020808401918252875460018082018a5560008a8152929092209451600290910290940180546001600160a01b03191694909316939093178255519101555b50505b8061076381610c63565b915050610613565b50826001600160a01b03167f0301f1116dc5f16138f0d7a5bc9347cadb1ac9e97e82dd24b4246ccfcc0c5bcf826040516107a59190610c95565b60405180910390a2505050565b6107ba6107f5565b6001600160a01b0381166107e957604051631e4fbdf760e01b8152600060048201526024015b60405180910390fd5b6107f281610822565b50565b6000546001600160a01b0316331461031a5760405163118cdaa760e01b81523360048201526024016107e0565b600080546001600160a01b038381166001600160a01b0319831681178455604051919092169283917f8be0079c531659141344cd1fd0a4f28419497f9722a3daafe3b4186f6b6457e09190a35050565b6001600160a01b0381166108995760405163d92e233d60e01b815260040160405180910390fd5b803b60008190036103a857604051636f7c43f160e01b815260040160405180910390fd5b6001546001600160a01b031633148015906108e357506002546001600160a01b03163314155b1561031a57604051620bdf2560ea1b815260040160405180910390fd5b50805460008255600202906000526020600020908101906107f291905b808211156109425780546001600160a01b03191681556000600182015560020161091d565b5090565b80356001600160a01b038116811461095d57600080fd5b919050565b6000806040838503121561097557600080fd5b61097e83610946565b915061098c60208401610946565b90509250929050565b6000602082840312156109a757600080fd5b6109b082610946565b9392505050565b602080825282518282018190526000919060409081850190868401855b82811015610a0257815180516001600160a01b031685528601518685015292840192908501906001016109d4565b5091979650505050505050565b600060208083528351808285015260005b81811015610a3c57858101830151858201604001528201610a20565b506000604082860101526040601f19601f8301168501019250505092915050565b634e487b7160e01b600052604160045260246000fd5b604051610120810167ffffffffffffffff81118282101715610a9757610a97610a5d565b60405290565b604051601f8201601f1916810167ffffffffffffffff81118282101715610ac657610ac6610a5d565b604052919050565b80151581146107f257600080fd5b803561095d81610ace565b6000806040808486031215610afb57600080fd5b610b0484610946565b925060208085013567ffffffffffffffff80821115610b2257600080fd5b818701915087601f830112610b3657600080fd5b813581811115610b4857610b48610a5d565b610b56848260051b01610a9d565b818152848101925061012091820284018501918a831115610b7657600080fd5b938501935b82851015610c095780858c031215610b935760008081fd5b610b9b610a73565b610ba486610946565b8152610bb1878701610adc565b818801528588013588820152606080870135908201526080808701359082015260a0808701359082015260c0808701359082015260e08087013590820152610100808701359082015284529384019392850192610b7b565b508096505050505050509250929050565b634e487b7160e01b600052603260045260246000fd5b600060208284031215610c4257600080fd5b81516109b081610ace565b634e487b7160e01b600052601160045260246000fd5b600060018201610c7557610c75610c4d565b5060010190565b80820180821115610c8f57610c8f610c4d565b92915050565b60006020808301818452808554808352604092508286019150866000528360002060005b82811015610a025781546001600160a01b03168452600182810154878601529385019360029092019101610cb956fea264697066735822122065aa2249a1a7a498028addd7badcd78fdb185c332d1f8d0e5c8ab376301192b464736f6c63430008140033",
  "devdoc": {
    "errors": {
      "OwnableInvalidOwner(address)": [
        {
          "details": "The owner is not a valid owner account. (eg. `address(0)`)"
        }
      ],
      "OwnableUnauthorizedAccount(address)": [
        {
          "details": "The caller account is not authorized to perform an operation."
        }
      ]
    },
    "kind": "dev",
    "methods": {
      "owner()": {
        "details": "Returns the address of the current owner."
      },
      "renounceOwnership()": {
        "details": "Leaves the contract without owner. It will not be possible to call `onlyOwner` functions. Can only be called by the current owner. NOTE: Renouncing ownership will leave the contract without an owner, thereby disabling any functionality that is only available to the owner."
      },
      "transferOwnership(address)": {
        "details": "Transfers ownership of the contract to a new account (`newOwner`). Can only be called by the current owner."
      }
    },
    "version": 1
  },
  "userdoc": {
    "kind": "user",
    "methods": {},
    "version": 1
  },
  "storageLayout": {
    "storage": [
      {
        "astId": 8,
        "contract": "contracts/CollSurplusPool.sol:CollSurplusPool",
        "label": "_owner",
        "offset": 0,
        "slot": "0",
        "type": "t_address"
      },
      {
        "astId": 6677,
        "contract": "contracts/CollSurplusPool.sol:CollSurplusPool",
        "label": "liquidationOperationsAddress",
        "offset": 0,
        "slot": "1",
        "type": "t_address"
      },
      {
        "astId": 6679,
        "contract": "contracts/CollSurplusPool.sol:CollSurplusPool",
        "label": "borrowerOperationsAddress",
        "offset": 0,
        "slot": "2",
        "type": "t_address"
      },
      {
        "astId": 6685,
        "contract": "contracts/CollSurplusPool.sol:CollSurplusPool",
        "label": "balances",
        "offset": 0,
        "slot": "3",
        "type": "t_mapping(t_address,t_array(t_struct(TokenAmount)9608_storage)dyn_storage)"
      }
    ],
    "types": {
      "t_address": {
        "encoding": "inplace",
        "label": "address",
        "numberOfBytes": "20"
      },
      "t_array(t_struct(TokenAmount)9608_storage)dyn_storage": {
        "base": "t_struct(TokenAmount)9608_storage",
        "encoding": "dynamic_array",
        "label": "struct IBase.TokenAmount[]",
        "numberOfBytes": "32"
      },
      "t_mapping(t_address,t_array(t_struct(TokenAmount)9608_storage)dyn_storage)": {
        "encoding": "mapping",
        "key": "t_address",
        "label": "mapping(address => struct IBase.TokenAmount[])",
        "numberOfBytes": "32",
        "value": "t_array(t_struct(TokenAmount)9608_storage)dyn_storage"
      },
      "t_struct(TokenAmount)9608_storage": {
        "encoding": "inplace",
        "label": "struct IBase.TokenAmount",
        "members": [
          {
            "astId": 9605,
            "contract": "contracts/CollSurplusPool.sol:CollSurplusPool",
            "label": "tokenAddress",
            "offset": 0,
            "slot": "0",
            "type": "t_address"
          },
          {
            "astId": 9607,
            "contract": "contracts/CollSurplusPool.sol:CollSurplusPool",
            "label": "amount",
            "offset": 0,
            "slot": "1",
            "type": "t_uint256"
          }
        ],
        "numberOfBytes": "64"
      },
      "t_uint256": {
        "encoding": "inplace",
        "label": "uint256",
        "numberOfBytes": "32"
      }
    }
  }
}