{
  "address": "0x2279B7A0a67DB372996a5FaB50D91eAA73d2eBe6",
  "abi": [
    {
      "inputs": [],
      "name": "InvalidDebtToken",
      "type": "error"
    },
    {
      "inputs": [],
      "name": "NotContract",
      "type": "error"
    },
    {
      "inputs": [
        {
          "internalType": "address",
          "name": "owner",
          "type": "address"
        }
      ],
      "name": "OwnableInvalidOwner",
      "type": "error"
    },
    {
      "inputs": [
        {
          "internalType": "address",
          "name": "account",
          "type": "address"
        }
      ],
      "name": "OwnableUnauthorizedAccount",
      "type": "error"
    },
    {
      "inputs": [],
      "name": "StableCoinAlreadyExists",
      "type": "error"
    },
    {
      "inputs": [],
      "name": "SymbolAlreadyExists",
      "type": "error"
    },
    {
      "inputs": [],
      "name": "ZeroAddress",
      "type": "error"
    },
    {
      "anonymous": false,
      "inputs": [
        {
          "indexed": false,
          "internalType": "address",
          "name": "_debtTokenAddress",
          "type": "address"
        }
      ],
      "name": "DebtTokenAdded",
      "type": "event"
    },
    {
      "anonymous": false,
      "inputs": [
        {
          "indexed": false,
          "internalType": "address",
          "name": "_stabilityPoolManagerAddress",
          "type": "address"
        }
      ],
      "name": "DebtTokenManagerInitialized",
      "type": "event"
    },
    {
      "anonymous": false,
      "inputs": [
        {
          "indexed": true,
          "internalType": "address",
          "name": "previousOwner",
          "type": "address"
        },
        {
          "indexed": true,
          "internalType": "address",
          "name": "newOwner",
          "type": "address"
        }
      ],
      "name": "OwnershipTransferred",
      "type": "event"
    },
    {
      "inputs": [],
      "name": "NAME",
      "outputs": [
        {
          "internalType": "string",
          "name": "",
          "type": "string"
        }
      ],
      "stateMutability": "view",
      "type": "function"
    },
    {
      "inputs": [
        {
          "internalType": "address",
          "name": "_debtTokenAddress",
          "type": "address"
        }
      ],
      "name": "addDebtToken",
      "outputs": [],
      "stateMutability": "nonpayable",
      "type": "function"
    },
    {
      "inputs": [
        {
          "internalType": "uint256",
          "name": "",
          "type": "uint256"
        }
      ],
      "name": "debtTokenAddresses",
      "outputs": [
        {
          "internalType": "address",
          "name": "",
          "type": "address"
        }
      ],
      "stateMutability": "view",
      "type": "function"
    },
    {
      "inputs": [
        {
          "internalType": "address",
          "name": "",
          "type": "address"
        }
      ],
      "name": "debtTokens",
      "outputs": [
        {
          "internalType": "contract IDebtToken",
          "name": "",
          "type": "address"
        }
      ],
      "stateMutability": "view",
      "type": "function"
    },
    {
      "inputs": [
        {
          "internalType": "uint256",
          "name": "",
          "type": "uint256"
        }
      ],
      "name": "debtTokensArray",
      "outputs": [
        {
          "internalType": "contract IDebtToken",
          "name": "",
          "type": "address"
        }
      ],
      "stateMutability": "view",
      "type": "function"
    },
    {
      "inputs": [
        {
          "internalType": "address",
          "name": "_address",
          "type": "address"
        }
      ],
      "name": "getDebtToken",
      "outputs": [
        {
          "internalType": "contract IDebtToken",
          "name": "debtToken",
          "type": "address"
        }
      ],
      "stateMutability": "view",
      "type": "function"
    },
    {
      "inputs": [],
      "name": "getDebtTokenAddresses",
      "outputs": [
        {
          "internalType": "address[]",
          "name": "",
          "type": "address[]"
        }
      ],
      "stateMutability": "view",
      "type": "function"
    },
    {
      "inputs": [],
      "name": "getStableCoin",
      "outputs": [
        {
          "internalType": "contract IDebtToken",
          "name": "",
          "type": "address"
        }
      ],
      "stateMutability": "view",
      "type": "function"
    },
    {
      "inputs": [
        {
          "internalType": "address",
          "name": "_address",
          "type": "address"
        }
      ],
      "name": "isDebtToken",
      "outputs": [
        {
          "internalType": "bool",
          "name": "",
          "type": "bool"
        }
      ],
      "stateMutability": "view",
      "type": "function"
    },
    {
      "inputs": [],
      "name": "owner",
      "outputs": [
        {
          "internalType": "address",
          "name": "",
          "type": "address"
        }
      ],
      "stateMutability": "view",
      "type": "function"
    },
    {
      "inputs": [],
      "name": "renounceOwnership",
      "outputs": [],
      "stateMutability": "nonpayable",
      "type": "function"
    },
    {
      "inputs": [
        {
          "internalType": "address",
          "name": "_stabilityPoolManagerAddress",
          "type": "address"
        }
      ],
      "name": "setAddresses",
      "outputs": [],
      "stateMutability": "nonpayable",
      "type": "function"
    },
    {
      "inputs": [],
      "name": "stabilityPoolManager",
      "outputs": [
        {
          "internalType": "contract IStabilityPoolManager",
          "name": "",
          "type": "address"
        }
      ],
      "stateMutability": "view",
      "type": "function"
    },
    {
      "inputs": [],
      "name": "stableCoin",
      "outputs": [
        {
          "internalType": "contract IDebtToken",
          "name": "",
          "type": "address"
        }
      ],
      "stateMutability": "view",
      "type": "function"
    },
    {
      "inputs": [
        {
          "internalType": "address",
          "name": "newOwner",
          "type": "address"
        }
      ],
      "name": "transferOwnership",
      "outputs": [],
      "stateMutability": "nonpayable",
      "type": "function"
    }
  ],
  "transactionHash": "0x3ec186a8a83c1b42976ffc38fd76dadba713ab6f122e9efbe1838172ddb3411d",
  "args": [],
  "numDeployments": 1,
  "solcInputHash": "6cd4b693370de6782d041c6552000a4d",
  "bytecode": "0x608060405234801561001057600080fd5b50338061003757604051631e4fbdf760e01b81526000600482015260240160405180910390fd5b61004081610046565b50610096565b600080546001600160a01b038381166001600160a01b0319831681178455604051919092169283917f8be0079c531659141344cd1fd0a4f28419497f9722a3daafe3b4186f6b6457e09190a35050565b610a4e806100a56000396000f3fe608060405234801561001057600080fd5b50600436106100f55760003560e01c80638da5cb5b11610097578063a3f4df7e11610066578063a3f4df7e1461021a578063a95bbced14610253578063af946f0914610266578063f2fde38b1461027957600080fd5b80638da5cb5b146101ba578063965d598f146101cb578063992642e5146101f4578063a33d8e141461020757600080fd5b80636060b055116100d35780636060b055146101755780636b4f41af1461018a578063715018a61461019f57806381d3c435146101a757600080fd5b80631bd817c9146100fa5780632f2b4e90146101245780633803473914610137575b600080fd5b6005546001600160a01b03165b6040516001600160a01b0390911681526020015b60405180910390f35b600154610107906001600160a01b031681565b610165610145366004610809565b6001600160a01b0390811660009081526002602052604090205416151590565b604051901515815260200161011b565b61017d61028c565b60405161011b9190610839565b61019d610198366004610809565b6102ee565b005b61019d610609565b61019d6101b5366004610809565b61061d565b6000546001600160a01b0316610107565b6101076101d9366004610809565b6002602052600090815260409020546001600160a01b031681565b600554610107906001600160a01b031681565b610107610215366004610886565b610682565b6102466040518060400160405280600d81526020016c222a37b5b2b726b0b730b3b2b960991b81525081565b60405161011b91906108c3565b610107610261366004610809565b6106ac565b610107610274366004610886565b6106ea565b61019d610287366004610809565b6106fa565b606060048054806020026020016040519081016040528092919081815260200182805480156102e457602002820191906000526020600020905b81546001600160a01b031681526001909101906020018083116102c6575b5050505050905090565b6102f661073d565b6102ff8161076a565b60008190506000816001600160a01b031663b55fe4e76040518163ffffffff1660e01b8152600401602060405180830381865afa158015610344573d6000803e3d6000fd5b505050506040513d601f19601f8201168201806040525081019061036891906108f6565b905080801561038157506005546001600160a01b031615155b1561039f5760405163e5dd5cc560e01b815260040160405180910390fd5b6000826001600160a01b03166395d89b416040518163ffffffff1660e01b8152600401600060405180830381865afa1580156103df573d6000803e3d6000fd5b505050506040513d6000823e601f3d908101601f19168201604052610407919081019061092e565b905060005b6003548110156104dc57818051906020012060038281548110610431576104316109db565b6000918252602082200154604080516395d89b4160e01b815290516001600160a01b03909216926395d89b41926004808401938290030181865afa15801561047d573d6000803e3d6000fd5b505050506040513d6000823e601f3d908101601f191682016040526104a5919081019061092e565b80519060200120036104ca57604051630f95fda760e41b815260040160405180910390fd5b806104d4816109f1565b91505061040c565b5060048054600181019091557f8a35acfbc15ff81a39ae7d344fd709f28e8600b4aa8c65c6b64bfe7fe36bd19b0180546001600160a01b03199081166001600160a01b0387811691821790935560009081526002602052604090208054909116918516919091179055811561056757600580546001600160a01b0319166001600160a01b0385161790555b60015460405163de97094b60e01b81526001600160a01b0385811660048301529091169063de97094b90602401600060405180830381600087803b1580156105ae57600080fd5b505af11580156105c2573d6000803e3d6000fd5b50506040516001600160a01b03871681527fad48bee6bbb1b8ece321157ad29afc3c6baa177f8dc043132d65038cc601cdd69250602001905060405180910390a150505050565b61061161073d565b61061b60006107b9565b565b61062561073d565b61062e8161076a565b600180546001600160a01b0319166001600160a01b0383169081179091556040519081527f9d7822dd090555d45f328f4e9207533694f7668b61c4f626cd9403d53018db379060200160405180910390a150565b6004818154811061069257600080fd5b6000918252602090912001546001600160a01b0316905081565b6001600160a01b0380821660009081526002602052604090205416806106e557604051631bf8591b60e01b815260040160405180910390fd5b919050565b6003818154811061069257600080fd5b61070261073d565b6001600160a01b03811661073157604051631e4fbdf760e01b8152600060048201526024015b60405180910390fd5b61073a816107b9565b50565b6000546001600160a01b0316331461061b5760405163118cdaa760e01b8152336004820152602401610728565b6001600160a01b0381166107915760405163d92e233d60e01b815260040160405180910390fd5b803b60008190036107b557604051636f7c43f160e01b815260040160405180910390fd5b5050565b600080546001600160a01b038381166001600160a01b0319831681178455604051919092169283917f8be0079c531659141344cd1fd0a4f28419497f9722a3daafe3b4186f6b6457e09190a35050565b60006020828403121561081b57600080fd5b81356001600160a01b038116811461083257600080fd5b9392505050565b6020808252825182820181905260009190848201906040850190845b8181101561087a5783516001600160a01b031683529284019291840191600101610855565b50909695505050505050565b60006020828403121561089857600080fd5b5035919050565b60005b838110156108ba5781810151838201526020016108a2565b50506000910152565b60208152600082518060208401526108e281604085016020870161089f565b601f01601f19169190910160400192915050565b60006020828403121561090857600080fd5b8151801515811461083257600080fd5b634e487b7160e01b600052604160045260246000fd5b60006020828403121561094057600080fd5b815167ffffffffffffffff8082111561095857600080fd5b818401915084601f83011261096c57600080fd5b81518181111561097e5761097e610918565b604051601f8201601f19908116603f011681019083821181831017156109a6576109a6610918565b816040528281528760208487010111156109bf57600080fd5b6109d083602083016020880161089f565b979650505050505050565b634e487b7160e01b600052603260045260246000fd5b600060018201610a1157634e487b7160e01b600052601160045260246000fd5b506001019056fea2646970667358221220b2259f9aa8cceb568b797720d6f297894e90fe6730bc1cdc61df10c0a367bdb664736f6c63430008140033",
  "devdoc": {
    "errors": {
      "OwnableInvalidOwner(address)": [
        {
          "details": "The owner is not a valid owner account. (eg. `address(0)`)"
        }
      ],
      "OwnableUnauthorizedAccount(address)": [
        {
          "details": "The caller account is not authorized to perform an operation."
        }
      ]
    },
    "kind": "dev",
    "methods": {
      "owner()": {
        "details": "Returns the address of the current owner."
      },
      "renounceOwnership()": {
        "details": "Leaves the contract without owner. It will not be possible to call `onlyOwner` functions. Can only be called by the current owner. NOTE: Renouncing ownership will leave the contract without an owner, thereby disabling any functionality that is only available to the owner."
      },
      "transferOwnership(address)": {
        "details": "Transfers ownership of the contract to a new account (`newOwner`). Can only be called by the current owner."
      }
    },
    "version": 1
  },
  "userdoc": {
    "kind": "user",
    "methods": {},
    "version": 1
  },
  "storageLayout": {
    "storage": [
      {
        "astId": 8,
        "contract": "contracts/DebtTokenManager.sol:DebtTokenManager",
        "label": "_owner",
        "offset": 0,
        "slot": "0",
        "type": "t_address"
      },
      {
        "astId": 7945,
        "contract": "contracts/DebtTokenManager.sol:DebtTokenManager",
        "label": "stabilityPoolManager",
        "offset": 0,
        "slot": "1",
        "type": "t_contract(IStabilityPoolManager)10911"
      },
      {
        "astId": 7950,
        "contract": "contracts/DebtTokenManager.sol:DebtTokenManager",
        "label": "debtTokens",
        "offset": 0,
        "slot": "2",
        "type": "t_mapping(t_address,t_contract(IDebtToken)10082)"
      },
      {
        "astId": 7954,
        "contract": "contracts/DebtTokenManager.sol:DebtTokenManager",
        "label": "debtTokensArray",
        "offset": 0,
        "slot": "3",
        "type": "t_array(t_contract(IDebtToken)10082)dyn_storage"
      },
      {
        "astId": 7957,
        "contract": "contracts/DebtTokenManager.sol:DebtTokenManager",
        "label": "debtTokenAddresses",
        "offset": 0,
        "slot": "4",
        "type": "t_array(t_address)dyn_storage"
      },
      {
        "astId": 7960,
        "contract": "contracts/DebtTokenManager.sol:DebtTokenManager",
        "label": "stableCoin",
        "offset": 0,
        "slot": "5",
        "type": "t_contract(IDebtToken)10082"
      }
    ],
    "types": {
      "t_address": {
        "encoding": "inplace",
        "label": "address",
        "numberOfBytes": "20"
      },
      "t_array(t_address)dyn_storage": {
        "base": "t_address",
        "encoding": "dynamic_array",
        "label": "address[]",
        "numberOfBytes": "32"
      },
      "t_array(t_contract(IDebtToken)10082)dyn_storage": {
        "base": "t_contract(IDebtToken)10082",
        "encoding": "dynamic_array",
        "label": "contract IDebtToken[]",
        "numberOfBytes": "32"
      },
      "t_contract(IDebtToken)10082": {
        "encoding": "inplace",
        "label": "contract IDebtToken",
        "numberOfBytes": "20"
      },
      "t_contract(IStabilityPoolManager)10911": {
        "encoding": "inplace",
        "label": "contract IStabilityPoolManager",
        "numberOfBytes": "20"
      },
      "t_mapping(t_address,t_contract(IDebtToken)10082)": {
        "encoding": "mapping",
        "key": "t_address",
        "label": "mapping(address => contract IDebtToken)",
        "numberOfBytes": "32",
        "value": "t_contract(IDebtToken)10082"
      }
    }
  }
}