{
  "address": "0x0DCd1Bf9A1b36cE34237eEaFef220932846BCD82",
  "abi": [
    {
      "inputs": [],
      "name": "FeeExceedMaxPercentage",
      "type": "error"
    },
    {
      "inputs": [],
      "name": "NotContract",
      "type": "error"
    },
    {
      "inputs": [
        {
          "internalType": "address",
          "name": "owner",
          "type": "address"
        }
      ],
      "name": "OwnableInvalidOwner",
      "type": "error"
    },
    {
      "inputs": [
        {
          "internalType": "address",
          "name": "account",
          "type": "address"
        }
      ],
      "name": "OwnableUnauthorizedAccount",
      "type": "error"
    },
    {
      "inputs": [],
      "name": "ZeroAddress",
      "type": "error"
    },
    {
      "anonymous": false,
      "inputs": [
        {
          "indexed": false,
          "internalType": "address",
          "name": "_sortedTrovesAddress",
          "type": "address"
        },
        {
          "indexed": false,
          "internalType": "address",
          "name": "_troveManagerAddress",
          "type": "address"
        }
      ],
      "name": "HintHelpersInitialized",
      "type": "event"
    },
    {
      "anonymous": false,
      "inputs": [
        {
          "indexed": true,
          "internalType": "address",
          "name": "previousOwner",
          "type": "address"
        },
        {
          "indexed": true,
          "internalType": "address",
          "name": "newOwner",
          "type": "address"
        }
      ],
      "name": "OwnershipTransferred",
      "type": "event"
    },
    {
      "inputs": [],
      "name": "BORROWING_FEE_FLOOR",
      "outputs": [
        {
          "internalType": "uint256",
          "name": "",
          "type": "uint256"
        }
      ],
      "stateMutability": "view",
      "type": "function"
    },
    {
      "inputs": [],
      "name": "CCR",
      "outputs": [
        {
          "internalType": "uint256",
          "name": "",
          "type": "uint256"
        }
      ],
      "stateMutability": "view",
      "type": "function"
    },
    {
      "inputs": [],
      "name": "GOV_STAKING_ADDRESS",
      "outputs": [
        {
          "internalType": "address",
          "name": "",
          "type": "address"
        }
      ],
      "stateMutability": "view",
      "type": "function"
    },
    {
      "inputs": [],
      "name": "GOV_SWAP_FEE",
      "outputs": [
        {
          "internalType": "uint32",
          "name": "",
          "type": "uint32"
        }
      ],
      "stateMutability": "view",
      "type": "function"
    },
    {
      "inputs": [],
      "name": "MAX_BORROWING_FEE",
      "outputs": [
        {
          "internalType": "uint256",
          "name": "",
          "type": "uint256"
        }
      ],
      "stateMutability": "view",
      "type": "function"
    },
    {
      "inputs": [],
      "name": "MCR",
      "outputs": [
        {
          "internalType": "uint256",
          "name": "",
          "type": "uint256"
        }
      ],
      "stateMutability": "view",
      "type": "function"
    },
    {
      "inputs": [],
      "name": "NAME",
      "outputs": [
        {
          "internalType": "string",
          "name": "",
          "type": "string"
        }
      ],
      "stateMutability": "view",
      "type": "function"
    },
    {
      "inputs": [],
      "name": "PERCENT_DIVISOR",
      "outputs": [
        {
          "internalType": "uint256",
          "name": "",
          "type": "uint256"
        }
      ],
      "stateMutability": "view",
      "type": "function"
    },
    {
      "inputs": [],
      "name": "REDEMPTION_FEE_FLOOR",
      "outputs": [
        {
          "internalType": "uint256",
          "name": "",
          "type": "uint256"
        }
      ],
      "stateMutability": "view",
      "type": "function"
    },
    {
      "inputs": [],
      "name": "STABLE_COIN_GAS_COMPENSATION",
      "outputs": [
        {
          "internalType": "uint256",
          "name": "",
          "type": "uint256"
        }
      ],
      "stateMutability": "view",
      "type": "function"
    },
    {
      "inputs": [],
      "name": "SWAP_BASE_FEE",
      "outputs": [
        {
          "internalType": "uint32",
          "name": "",
          "type": "uint32"
        }
      ],
      "stateMutability": "view",
      "type": "function"
    },
    {
      "inputs": [],
      "name": "SWAP_FEE_PRECISION",
      "outputs": [
        {
          "internalType": "uint32",
          "name": "",
          "type": "uint32"
        }
      ],
      "stateMutability": "view",
      "type": "function"
    },
    {
      "inputs": [],
      "name": "_100pct",
      "outputs": [
        {
          "internalType": "uint256",
          "name": "",
          "type": "uint256"
        }
      ],
      "stateMutability": "view",
      "type": "function"
    },
    {
      "inputs": [
        {
          "internalType": "uint256",
          "name": "_CR",
          "type": "uint256"
        },
        {
          "internalType": "uint256",
          "name": "_numTrials",
          "type": "uint256"
        },
        {
          "internalType": "uint256",
          "name": "_inputRandomSeed",
          "type": "uint256"
        }
      ],
      "name": "getApproxHint",
      "outputs": [
        {
          "internalType": "address",
          "name": "hintAddress",
          "type": "address"
        },
        {
          "internalType": "uint256",
          "name": "diff",
          "type": "uint256"
        },
        {
          "internalType": "uint256",
          "name": "latestRandomSeed",
          "type": "uint256"
        }
      ],
      "stateMutability": "view",
      "type": "function"
    },
    {
      "inputs": [],
      "name": "owner",
      "outputs": [
        {
          "internalType": "address",
          "name": "",
          "type": "address"
        }
      ],
      "stateMutability": "view",
      "type": "function"
    },
    {
      "inputs": [],
      "name": "renounceOwnership",
      "outputs": [],
      "stateMutability": "nonpayable",
      "type": "function"
    },
    {
      "inputs": [
        {
          "internalType": "address",
          "name": "_sortedTrovesAddress",
          "type": "address"
        },
        {
          "internalType": "address",
          "name": "_troveManagerAddress",
          "type": "address"
        }
      ],
      "name": "setAddresses",
      "outputs": [],
      "stateMutability": "nonpayable",
      "type": "function"
    },
    {
      "inputs": [],
      "name": "sortedTroves",
      "outputs": [
        {
          "internalType": "contract ISortedTroves",
          "name": "",
          "type": "address"
        }
      ],
      "stateMutability": "view",
      "type": "function"
    },
    {
      "inputs": [
        {
          "internalType": "address",
          "name": "newOwner",
          "type": "address"
        }
      ],
      "name": "transferOwnership",
      "outputs": [],
      "stateMutability": "nonpayable",
      "type": "function"
    },
    {
      "inputs": [],
      "name": "troveManager",
      "outputs": [
        {
          "internalType": "contract ITroveManager",
          "name": "",
          "type": "address"
        }
      ],
      "stateMutability": "view",
      "type": "function"
    }
  ],
  "transactionHash": "0x804221fb7473521969af5372406e7f454e3075078da951e1c213932d0f28f564",
  "args": [],
  "numDeployments": 1,
  "solcInputHash": "6cd4b693370de6782d041c6552000a4d",
  "bytecode": "0x608060405234801561001057600080fd5b50338061003757604051631e4fbdf760e01b81526000600482015260240160405180910390fd5b61004081610046565b50610096565b600080546001600160a01b038381166001600160a01b0319831681178455604051919092169283917f8be0079c531659141344cd1fd0a4f28419497f9722a3daafe3b4186f6b6457e09190a35050565b610924806100a56000396000f3fe608060405234801561001057600080fd5b506004361061012c5760003560e01c80637b41bdbe116100ad578063ae91875411610071578063ae918754146102a6578063e67729e3146102b9578063ec671c83146102c3578063f2fde38b146102cd578063f92d34331461018557600080fd5b80637b41bdbe146102035780638d63c6651461023b5780638da5cb5b1461024b57806390107afe1461025c578063a3f4df7e1461026f57600080fd5b8063502afb04116100f4578063502afb04146101ae5780635733d58f146101cc578063715018a6146101db57806372fe25aa146101e5578063794e5724146101f457600080fd5b806309230ad314610131578063240926691461016957806328d28b5b146101855780633d83908a146101935780634870dd9a146101a6575b600080fd5b61014c73f39fd6e51aad88f6f4ce6ab8827279cfffb9226681565b6040516001600160a01b0390911681526020015b60405180910390f35b61017766b1a2bc2ec5000081565b604051908152602001610160565b6101776611c37937e0800081565b60025461014c906001600160a01b031681565b61017760c881565b6101b7610bb881565b60405163ffffffff9091168152602001610160565b6101776714d1120d7b16000081565b6101e36102e0565b005b610177670de0b6b3a764000081565b610177670f43fc2c04ee000081565b610216610211366004610768565b6102f4565b604080516001600160a01b039094168452602084019290925290820152606001610160565b610177680ad78ebc5ac620000081565b6000546001600160a01b031661014c565b6101e361026a3660046107a9565b6105a1565b6102996040518060400160405280600b81526020016a48696e7448656c7065727360a81b81525081565b60405161016091906107e2565b60015461014c906001600160a01b031681565b6101b7620f424081565b6101b76207a12081565b6101e36102db366004610830565b610631565b6102e8610674565b6102f260006106a1565b565b600080600080600160009054906101000a90046001600160a01b03166001600160a01b031663de8fa4316040518163ffffffff1660e01b8152600401602060405180830381865afa15801561034d573d6000803e3d6000fd5b505050506040513d601f19601f820116820180604052508101906103719190610854565b90508060000361038b576000808693509350935050610598565b600160009054906101000a90046001600160a01b03166001600160a01b0316634d6228316040518163ffffffff1660e01b8152600401602060405180830381865afa1580156103de573d6000803e3d6000fd5b505050506040513d601f19601f82011682018060405250810190610402919061086d565b60015460405163e671bea360e01b81526001600160a01b03808416600483015292965061047d928a92169063e671bea3906024015b602060405180830381865afa158015610454573d6000803e3d6000fd5b505050506040513d601f19601f820116820180604052508101906104789190610854565b6106f1565b925084915060015b868110156105955760408051602081018590520160408051601f198184030181529190528051602090910120925060006104bf838561088a565b600154604051632d883a7360e01b8152600481018390529192506000916001600160a01b0390911690632d883a7390602401602060405180830381865afa15801561050e573d6000803e3d6000fd5b505050506040513d601f19601f82011682018060405250810190610532919061086d565b60015460405163e671bea360e01b81526001600160a01b03808416600483015292935060009261056f928e9291169063e671bea390602401610437565b905086811015610580578096508197505b8361058a816108c2565b945050505050610485565b50505b93509350939050565b6105a9610674565b6105b28261071d565b6105bb8161071d565b600180546001600160a01b038481166001600160a01b03199283168117909355600280549185169190921681179091556040805192835260208301919091527fba8a8483be0c9011895ef8ba30f5e062aceb202f808d754c6f0af98a896118fe910160405180910390a161062d6102e0565b5050565b610639610674565b6001600160a01b03811661066857604051631e4fbdf760e01b8152600060048201526024015b60405180910390fd5b610671816106a1565b50565b6000546001600160a01b031633146102f25760405163118cdaa760e01b815233600482015260240161065f565b600080546001600160a01b038381166001600160a01b0319831681178455604051919092169283917f8be0079c531659141344cd1fd0a4f28419497f9722a3daafe3b4186f6b6457e09190a35050565b60008183101561070a5761070583836108db565b610714565b61071482846108db565b90505b92915050565b6001600160a01b0381166107445760405163d92e233d60e01b815260040160405180910390fd5b803b600081900361062d57604051636f7c43f160e01b815260040160405180910390fd5b60008060006060848603121561077d57600080fd5b505081359360208301359350604090920135919050565b6001600160a01b038116811461067157600080fd5b600080604083850312156107bc57600080fd5b82356107c781610794565b915060208301356107d781610794565b809150509250929050565b600060208083528351808285015260005b8181101561080f578581018301518582016040015282016107f3565b506000604082860101526040601f19601f8301168501019250505092915050565b60006020828403121561084257600080fd5b813561084d81610794565b9392505050565b60006020828403121561086657600080fd5b5051919050565b60006020828403121561087f57600080fd5b815161084d81610794565b6000826108a757634e487b7160e01b600052601260045260246000fd5b500690565b634e487b7160e01b600052601160045260246000fd5b6000600182016108d4576108d46108ac565b5060010190565b81810381811115610717576107176108ac56fea26469706673582212204cb3728171e1bdf18abf73271d4fc1a01013cd289a8664a4cd6978ede8a5e29364736f6c63430008140033",
  "devdoc": {
    "errors": {
      "OwnableInvalidOwner(address)": [
        {
          "details": "The owner is not a valid owner account. (eg. `address(0)`)"
        }
      ],
      "OwnableUnauthorizedAccount(address)": [
        {
          "details": "The caller account is not authorized to perform an operation."
        }
      ]
    },
    "kind": "dev",
    "methods": {
      "owner()": {
        "details": "Returns the address of the current owner."
      },
      "renounceOwnership()": {
        "details": "Leaves the contract without owner. It will not be possible to call `onlyOwner` functions. Can only be called by the current owner. NOTE: Renouncing ownership will leave the contract without an owner, thereby disabling any functionality that is only available to the owner."
      },
      "transferOwnership(address)": {
        "details": "Transfers ownership of the contract to a new account (`newOwner`). Can only be called by the current owner."
      }
    },
    "version": 1
  },
  "userdoc": {
    "kind": "user",
    "methods": {},
    "version": 1
  },
  "storageLayout": {
    "storage": [
      {
        "astId": 8,
        "contract": "contracts/HintHelpers.sol:HintHelpers",
        "label": "_owner",
        "offset": 0,
        "slot": "0",
        "type": "t_address"
      },
      {
        "astId": 9362,
        "contract": "contracts/HintHelpers.sol:HintHelpers",
        "label": "sortedTroves",
        "offset": 0,
        "slot": "1",
        "type": "t_contract(ISortedTroves)10608"
      },
      {
        "astId": 9365,
        "contract": "contracts/HintHelpers.sol:HintHelpers",
        "label": "troveManager",
        "offset": 0,
        "slot": "2",
        "type": "t_contract(ITroveManager)12034"
      }
    ],
    "types": {
      "t_address": {
        "encoding": "inplace",
        "label": "address",
        "numberOfBytes": "20"
      },
      "t_contract(ISortedTroves)10608": {
        "encoding": "inplace",
        "label": "contract ISortedTroves",
        "numberOfBytes": "20"
      },
      "t_contract(ITroveManager)12034": {
        "encoding": "inplace",
        "label": "contract ITroveManager",
        "numberOfBytes": "20"
      }
    }
  }
}