{
  "address": "0x9fE46736679d2D9a65F0992F2272dE9f3c7fa6e0",
  "abi": [
    {
      "inputs": [],
      "name": "EmptyArray",
      "type": "error"
    },
    {
      "inputs": [],
      "name": "FeeExceedMaxPercentage",
      "type": "error"
    },
    {
      "inputs": [],
      "name": "NoLiquidatableTrove",
      "type": "error"
    },
    {
      "inputs": [],
      "name": "NotContract",
      "type": "error"
    },
    {
      "inputs": [
        {
          "internalType": "address",
          "name": "owner",
          "type": "address"
        }
      ],
      "name": "OwnableInvalidOwner",
      "type": "error"
    },
    {
      "inputs": [
        {
          "internalType": "address",
          "name": "account",
          "type": "address"
        }
      ],
      "name": "OwnableUnauthorizedAccount",
      "type": "error"
    },
    {
      "inputs": [],
      "name": "ZeroAddress",
      "type": "error"
    },
    {
      "anonymous": false,
      "inputs": [
        {
          "indexed": false,
          "internalType": "address",
          "name": "_troveManager",
          "type": "address"
        },
        {
          "indexed": false,
          "internalType": "address",
          "name": "_storgePool",
          "type": "address"
        },
        {
          "indexed": false,
          "internalType": "address",
          "name": "_priceFeed",
          "type": "address"
        },
        {
          "indexed": false,
          "internalType": "address",
          "name": "_debtTokenManager",
          "type": "address"
        },
        {
          "indexed": false,
          "internalType": "address",
          "name": "_collTokenManager",
          "type": "address"
        },
        {
          "indexed": false,
          "internalType": "address",
          "name": "_stabilityPoolManager",
          "type": "address"
        },
        {
          "indexed": false,
          "internalType": "address",
          "name": "_collSurplusPool",
          "type": "address"
        }
      ],
      "name": "LiquidationOperationsInitialized",
      "type": "event"
    },
    {
      "anonymous": false,
      "inputs": [
        {
          "components": [
            {
              "internalType": "address",
              "name": "tokenAddress",
              "type": "address"
            },
            {
              "internalType": "uint256",
              "name": "amount",
              "type": "uint256"
            }
          ],
          "indexed": false,
          "internalType": "struct IBase.TokenAmount[]",
          "name": "liquidatedDebt",
          "type": "tuple[]"
        },
        {
          "components": [
            {
              "internalType": "address",
              "name": "tokenAddress",
              "type": "address"
            },
            {
              "internalType": "uint256",
              "name": "amount",
              "type": "uint256"
            }
          ],
          "indexed": false,
          "internalType": "struct IBase.TokenAmount[]",
          "name": "liquidatedColl",
          "type": "tuple[]"
        },
        {
          "indexed": false,
          "internalType": "uint256",
          "name": "totalStableCoinGasCompensation",
          "type": "uint256"
        },
        {
          "components": [
            {
              "internalType": "address",
              "name": "tokenAddress",
              "type": "address"
            },
            {
              "internalType": "uint256",
              "name": "amount",
              "type": "uint256"
            }
          ],
          "indexed": false,
          "internalType": "struct IBase.TokenAmount[]",
          "name": "totalCollGasCompensation",
          "type": "tuple[]"
        }
      ],
      "name": "LiquidationSummary",
      "type": "event"
    },
    {
      "anonymous": false,
      "inputs": [
        {
          "indexed": true,
          "internalType": "address",
          "name": "previousOwner",
          "type": "address"
        },
        {
          "indexed": true,
          "internalType": "address",
          "name": "newOwner",
          "type": "address"
        }
      ],
      "name": "OwnershipTransferred",
      "type": "event"
    },
    {
      "inputs": [],
      "name": "BORROWING_FEE_FLOOR",
      "outputs": [
        {
          "internalType": "uint256",
          "name": "",
          "type": "uint256"
        }
      ],
      "stateMutability": "view",
      "type": "function"
    },
    {
      "inputs": [],
      "name": "CCR",
      "outputs": [
        {
          "internalType": "uint256",
          "name": "",
          "type": "uint256"
        }
      ],
      "stateMutability": "view",
      "type": "function"
    },
    {
      "inputs": [],
      "name": "GOV_STAKING_ADDRESS",
      "outputs": [
        {
          "internalType": "address",
          "name": "",
          "type": "address"
        }
      ],
      "stateMutability": "view",
      "type": "function"
    },
    {
      "inputs": [],
      "name": "GOV_SWAP_FEE",
      "outputs": [
        {
          "internalType": "uint32",
          "name": "",
          "type": "uint32"
        }
      ],
      "stateMutability": "view",
      "type": "function"
    },
    {
      "inputs": [],
      "name": "MAX_BORROWING_FEE",
      "outputs": [
        {
          "internalType": "uint256",
          "name": "",
          "type": "uint256"
        }
      ],
      "stateMutability": "view",
      "type": "function"
    },
    {
      "inputs": [],
      "name": "MCR",
      "outputs": [
        {
          "internalType": "uint256",
          "name": "",
          "type": "uint256"
        }
      ],
      "stateMutability": "view",
      "type": "function"
    },
    {
      "inputs": [],
      "name": "NAME",
      "outputs": [
        {
          "internalType": "string",
          "name": "",
          "type": "string"
        }
      ],
      "stateMutability": "view",
      "type": "function"
    },
    {
      "inputs": [],
      "name": "PERCENT_DIVISOR",
      "outputs": [
        {
          "internalType": "uint256",
          "name": "",
          "type": "uint256"
        }
      ],
      "stateMutability": "view",
      "type": "function"
    },
    {
      "inputs": [],
      "name": "REDEMPTION_FEE_FLOOR",
      "outputs": [
        {
          "internalType": "uint256",
          "name": "",
          "type": "uint256"
        }
      ],
      "stateMutability": "view",
      "type": "function"
    },
    {
      "inputs": [],
      "name": "STABLE_COIN_GAS_COMPENSATION",
      "outputs": [
        {
          "internalType": "uint256",
          "name": "",
          "type": "uint256"
        }
      ],
      "stateMutability": "view",
      "type": "function"
    },
    {
      "inputs": [],
      "name": "SWAP_BASE_FEE",
      "outputs": [
        {
          "internalType": "uint32",
          "name": "",
          "type": "uint32"
        }
      ],
      "stateMutability": "view",
      "type": "function"
    },
    {
      "inputs": [],
      "name": "SWAP_FEE_PRECISION",
      "outputs": [
        {
          "internalType": "uint32",
          "name": "",
          "type": "uint32"
        }
      ],
      "stateMutability": "view",
      "type": "function"
    },
    {
      "inputs": [],
      "name": "_100pct",
      "outputs": [
        {
          "internalType": "uint256",
          "name": "",
          "type": "uint256"
        }
      ],
      "stateMutability": "view",
      "type": "function"
    },
    {
      "inputs": [
        {
          "internalType": "address[]",
          "name": "_troveArray",
          "type": "address[]"
        }
      ],
      "name": "batchLiquidateTroves",
      "outputs": [],
      "stateMutability": "nonpayable",
      "type": "function"
    },
    {
      "inputs": [],
      "name": "collSurplusPool",
      "outputs": [
        {
          "internalType": "contract ICollSurplusPool",
          "name": "",
          "type": "address"
        }
      ],
      "stateMutability": "view",
      "type": "function"
    },
    {
      "inputs": [],
      "name": "collTokenManager",
      "outputs": [
        {
          "internalType": "contract ICollTokenManager",
          "name": "",
          "type": "address"
        }
      ],
      "stateMutability": "view",
      "type": "function"
    },
    {
      "inputs": [],
      "name": "debtTokenManager",
      "outputs": [
        {
          "internalType": "contract IDebtTokenManager",
          "name": "",
          "type": "address"
        }
      ],
      "stateMutability": "view",
      "type": "function"
    },
    {
      "inputs": [
        {
          "internalType": "address",
          "name": "_borrower",
          "type": "address"
        }
      ],
      "name": "liquidate",
      "outputs": [],
      "stateMutability": "nonpayable",
      "type": "function"
    },
    {
      "inputs": [],
      "name": "owner",
      "outputs": [
        {
          "internalType": "address",
          "name": "",
          "type": "address"
        }
      ],
      "stateMutability": "view",
      "type": "function"
    },
    {
      "inputs": [],
      "name": "priceFeed",
      "outputs": [
        {
          "internalType": "contract IPriceFeed",
          "name": "",
          "type": "address"
        }
      ],
      "stateMutability": "view",
      "type": "function"
    },
    {
      "inputs": [],
      "name": "renounceOwnership",
      "outputs": [],
      "stateMutability": "nonpayable",
      "type": "function"
    },
    {
      "inputs": [
        {
          "internalType": "address",
          "name": "_troveManagerAddress",
          "type": "address"
        },
        {
          "internalType": "address",
          "name": "_storagePoolAddress",
          "type": "address"
        },
        {
          "internalType": "address",
          "name": "_priceFeedAddress",
          "type": "address"
        },
        {
          "internalType": "address",
          "name": "_debtTokenManagerAddress",
          "type": "address"
        },
        {
          "internalType": "address",
          "name": "_collTokenManagerAddress",
          "type": "address"
        },
        {
          "internalType": "address",
          "name": "_stabilityPoolManagerAddress",
          "type": "address"
        },
        {
          "internalType": "address",
          "name": "_collSurplusPoolAddress",
          "type": "address"
        }
      ],
      "name": "setAddresses",
      "outputs": [],
      "stateMutability": "nonpayable",
      "type": "function"
    },
    {
      "inputs": [],
      "name": "stabilityPoolManager",
      "outputs": [
        {
          "internalType": "contract IStabilityPoolManager",
          "name": "",
          "type": "address"
        }
      ],
      "stateMutability": "view",
      "type": "function"
    },
    {
      "inputs": [],
      "name": "storagePool",
      "outputs": [
        {
          "internalType": "contract IStoragePool",
          "name": "",
          "type": "address"
        }
      ],
      "stateMutability": "view",
      "type": "function"
    },
    {
      "inputs": [
        {
          "internalType": "address",
          "name": "newOwner",
          "type": "address"
        }
      ],
      "name": "transferOwnership",
      "outputs": [],
      "stateMutability": "nonpayable",
      "type": "function"
    },
    {
      "inputs": [],
      "name": "troveManager",
      "outputs": [
        {
          "internalType": "contract ITroveManager",
          "name": "",
          "type": "address"
        }
      ],
      "stateMutability": "view",
      "type": "function"
    }
  ],
  "transactionHash": "0xb218b76c26fd03b4f208d1c31a3e90f67c5c25e3c439ba0a8339386fa554911b",
  "args": [],
  "numDeployments": 1,
  "solcInputHash": "6cd4b693370de6782d041c6552000a4d",
  "bytecode": "0x60806040523480156200001157600080fd5b5033806200003957604051631e4fbdf760e01b81526000600482015260240160405180910390fd5b62000044816200004b565b506200009b565b600080546001600160a01b038381166001600160a01b0319831681178455604051919092169283917f8be0079c531659141344cd1fd0a4f28419497f9722a3daafe3b4186f6b6457e09190a35050565b612db480620000ab6000396000f3fe608060405234801561001057600080fd5b506004361061018e5760003560e01c8063741bef1a116100de578063cda775f911610097578063eaa8ba7f11610071578063eaa8ba7f14610369578063ec671c831461037c578063f2fde38b14610386578063f92d3433146101fc57600080fd5b8063cda775f914610339578063ddbeb7141461034c578063e67729e31461035f57600080fd5b8063741bef1a146102a2578063794e5724146102b55780638d63c665146102c45780638da5cb5b146102d4578063943ebeae146102e5578063a3f4df7e146102f857600080fd5b80633d83908a1161014b578063522a86fe11610125578063522a86fe146102695780635733d58f1461027c578063715018a61461028b57806372fe25aa1461029357600080fd5b80633d83908a146102305780634870dd9a14610243578063502afb041461024b57600080fd5b806309230ad3146101935780631e8b1c2b146101cb57806324092669146101e057806328d28b5b146101fc5780632f2b4e901461020a5780632f8655681461021d575b600080fd5b6101ae73f39fd6e51aad88f6f4ce6ab8827279cfffb9226681565b6040516001600160a01b0390911681526020015b60405180910390f35b6101de6101d9366004612386565b610399565b005b6101ee66b1a2bc2ec5000081565b6040519081526020016101c2565b6101ee6611c37937e0800081565b6006546101ae906001600160a01b031681565b6101de61022b366004612424565b61096f565b6001546101ae906001600160a01b031681565b6101ee60c881565b610254610bb881565b60405163ffffffff90911681526020016101c2565b6004546101ae906001600160a01b031681565b6101ee6714d1120d7b16000081565b6101de6109d2565b6101ee670de0b6b3a764000081565b6003546101ae906001600160a01b031681565b6101ee670f43fc2c04ee000081565b6101ee680ad78ebc5ac620000081565b6000546001600160a01b03166101ae565b6005546101ae906001600160a01b031681565b61032c604051806040016040528060158152602001744c69717569646174696f6e4f7065726174696f6e7360581b81525081565b6040516101c29190612441565b6007546101ae906001600160a01b031681565b6002546101ae906001600160a01b031681565b610254620f424081565b6101de61037736600461248f565b6109e6565b6102546207a12081565b6101de610394366004612424565b610b13565b80516000036103bb5760405163521299a960e01b815260040160405180910390fd5b6104136040518061014001604052806060815260200160608152602001606081526020016060815260200160008152602001606081526020016000815260200160008152602001600081526020016000151581525090565b600560009054906101000a90046001600160a01b03166001600160a01b031663efc5f8c56040518163ffffffff1660e01b8152600401600060405180830381865afa158015610466573d6000803e3d6000fd5b505050506040513d6000823e601f3d908101601f1916820160405261048e9190810190612535565b8152600254604080516321d0927d60e11b815290516001600160a01b03909216916343a124fa916004808201926080929091908290030181865afa1580156104da573d6000803e3d6000fd5b505050506040513d601f19601f820116820180604052508101906104fe91906125d3565b60e085015260c0840152610100830152151561012082015260065481516040516312fd572560e01b81526001600160a01b03909216916312fd57259161054691600401612654565b600060405180830381865afa158015610563573d6000803e3d6000fd5b505050506040513d6000823e601f3d908101601f1916820160405261058b9190810190612667565b602082015261059981610b56565b6000805b83518110156106fa5760008482815181106105ba576105ba612811565b60209081029190910101516001546040516301b9ad5160e51b81526001600160a01b038084166004830152929350911690633735aa2090602401602060405180830381865afa158015610611573d6000803e3d6000fd5b505050506040513d601f19601f820116820180604052508101906106359190612827565b61063f57506106e8565b60018060009054906101000a90046001600160a01b03166001600160a01b03166349eefeee6040518163ffffffff1660e01b8152600401602060405180830381865afa158015610693573d6000803e3d6000fd5b505050506040513d601f19601f820116820180604052508101906106b79190612842565b116106c257506106e8565b60006106ce8583610ee8565b90508080156106db575083155b156106e557600193505b50505b806106f281612871565b91505061059d565b5080610719576040516321aacc4b60e11b815260040160405180910390fd5b6006546020830151604051639e3c475360e01b81526001600160a01b0390921691639e3c47539161074c916004016128ce565b600060405180830381600087803b15801561076657600080fd5b505af115801561077a573d6000803e3d6000fd5b505060015484516040808701519051632c89c7cd60e11b81526001600160a01b0390931694506359138f9a93506107b39260040161296f565b600060405180830381600087803b1580156107cd57600080fd5b505af11580156107e1573d6000803e3d6000fd5b5050505060005b8260600151518110156108e8578260600151818151811061080b5761080b612811565b602002602001015160200151600003156108d657600254600754606085015180516001600160a01b039384169363b403b997931691908590811061085157610851612811565b602002602001015160000151600160008860600151878151811061087757610877612811565b6020026020010151602001516040518663ffffffff1660e01b81526004016108a3959493929190612a01565b600060405180830381600087803b1580156108bd57600080fd5b505af11580156108d1573d6000803e3d6000fd5b505050505b806108e081612871565b9150506107e8565b5060015460a0830151604051631071929160e01b81526001600160a01b039092169163107192919161091c91600401612a3e565b600060405180830381600087803b15801561093657600080fd5b505af115801561094a573d6000803e3d6000fd5b505050506109613383608001518460a0015161141d565b61096a82611600565b505050565b6040805160018082528183019092526000916020808301908036833701905050905081816000815181106109a5576109a5612811565b60200260200101906001600160a01b031690816001600160a01b0316815250506109ce81610399565b5050565b6109da6118eb565b6109e46000611918565b565b6109ee6118eb565b6109f787611968565b610a0086611968565b610a0985611968565b610a1284611968565b610a1b83611968565b610a2482611968565b610a2d81611968565b600180546001600160a01b038981166001600160a01b03199283168117909355600280548a83169084168117909155600380548a84169085168117909155600480548a85169086168117909155600580548a86169087168117909155600680548a8716908816811790915560078054968a16969097168617909655604080519788526020880194909452928601919091526060850152608084015260a083019190915260c08201527f1669c6fdd5a1a887d7b0630879b829f67186ac0b925d64914815dbe436599b129060e00160405180910390a1610b0a6109d2565b50505050505050565b610b1b6118eb565b6001600160a01b038116610b4a57604051631e4fbdf760e01b8152600060048201526024015b60405180910390fd5b610b5381611918565b50565b6000600460009054906101000a90046001600160a01b03166001600160a01b0316636060b0556040518163ffffffff1660e01b8152600401600060405180830381865afa158015610bab573d6000803e3d6000fd5b505050506040513d6000823e601f3d908101601f19168201604052610bd39190810190612535565b8251518151919250610be491612a51565b6001600160401b03811115610bfb57610bfb61229b565b604051908082528060200260200182016040528015610c4657816020015b6040805160608101825260008082526020808301829052928201528252600019909201910181610c195790505b5060408301528151516001600160401b03811115610c6657610c6661229b565b604051908082528060200260200182016040528015610cab57816020015b6040805180820190915260008082526020820152815260200190600190039081610c845790505b5060a08301528151516001600160401b03811115610ccb57610ccb61229b565b604051908082528060200260200182016040528015610d1057816020015b6040805180820190915260008082526020820152815260200190600190039081610ce95790505b50606083015260005b825151811015610e5657604051806060016040528084600001518381518110610d4457610d44612811565b60200260200101516001600160a01b03168152602001600115158152602001600081525083604001518281518110610d7e57610d7e612811565b6020026020010181905250604051806040016040528084600001518381518110610daa57610daa612811565b60200260200101516001600160a01b0316815260200160008152508360a001518281518110610ddb57610ddb612811565b6020026020010181905250604051806040016040528084600001518381518110610e0757610e07612811565b60200260200101516001600160a01b03168152602001600081525083606001518281518110610e3857610e38612811565b60200260200101819052508080610e4e90612871565b915050610d19565b5060005b815181101561096a576040518060600160405280838381518110610e8057610e80612811565b60200260200101516001600160a01b031681526020016000151581526020016000815250836040015182856000015151610eba9190612a51565b81518110610eca57610eca612811565b60200260200101819052508080610ee090612871565b915050610e5a565b6000610f1c6040518060a0016040528060008152602001606081526020016000815260200160008152602001600081525090565b600154604051632e46be5f60e21b81526001600160a01b0385811660048301529091169063b91af97c90602401600060405180830381865afa158015610f66573d6000803e3d6000fd5b505050506040513d6000823e601f3d908101601f19168201604052610f8e9190810190612a64565b606085015260408401819052608084018290526020840192909252610fb2916119b3565b80825261010085015111610fca576000915050611417565b8051670f43fc2c04ee000011801590610fe65750836101200151155b15610ff5576000915050611417565b61100281602001516119e9565b6001548451604051630609d6b760e11b81526001600160a01b0390921691630c13ad6e91611034918790600401612b88565b600060405180830381600087803b15801561104e57600080fd5b505af1158015611062573d6000803e3d6000fd5b50505050670f43fc2c04ee0000816000015110611102576110958160800151826060015183602001518760200151611aaf565b600754602082015160405163dc3f878360e01b81526001600160a01b039092169163dc3f8783916110cb91879190600401612bb2565b600060405180830381600087803b1580156110e557600080fd5b505af11580156110f9573d6000803e3d6000fd5b50505050611119565b611119816060015182602001518660200151611c4b565b60015484516101208601516001600160a01b0390921691638918b9e191908690611144576003611147565b60045b6040518463ffffffff1660e01b815260040161116593929190612c62565b600060405180830381600087803b15801561117f57600080fd5b505af1158015611193573d6000803e3d6000fd5b505050506111ae81602001518560a001518660600151611ca9565b6111c081602001518560400151611e2e565b680ad78ebc5ac6200000846080018181516111db9190612a51565b90525060005b8160200151518110156113e65760008260200151828151811061120657611206612811565b602090810291909101015160035481516080830151604051637d3b6e7960e11b81526001600160a01b0392831660048201526024810191909152929350169063fa76dcf290604401602060405180830381865afa15801561126b573d6000803e3d6000fd5b505050506040513d601f19601f8201168201806040525081019061128f9190612842565b8660c0018181516112a09190612ca4565b90525060208101511561134257600354815160e0830151604051637d3b6e7960e11b81526001600160a01b039283166004820152602481019190915291169063fa76dcf290604401602060405180830381865afa158015611305573d6000803e3d6000fd5b505050506040513d601f19601f820116820180604052508101906113299190612842565b8660c00181815161133a9190612ca4565b9052506113d3565b600354815160e0830151604051637d3b6e7960e11b81526001600160a01b039283166004820152602481019190915291169063fa76dcf290604401602060405180830381865afa15801561139a573d6000803e3d6000fd5b505050506040513d601f19601f820116820180604052508101906113be9190612842565b8660e0018181516113cf9190612ca4565b9052505b50806113de81612871565b9150506111e1565b506113f98460c001518560e001516119b3565b61010085018190526714d1120d7b1600001161012085015250600190505b92915050565b811561150a576000600460009054906101000a90046001600160a01b03166001600160a01b0316631bd817c96040518163ffffffff1660e01b8152600401602060405180830381865afa158015611478573d6000803e3d6000fd5b505050506040513d601f19601f8201168201806040525081019061149c9190612cb7565b6002805460405163b403b99760e01b81529293506001600160a01b03169163b403b997916114d69188918691600091908a90600401612a01565b600060405180830381600087803b1580156114f057600080fd5b505af1158015611504573d6000803e3d6000fd5b50505050505b60005b81518110156115fa5781818151811061152857611528612811565b602002602001015160200151600003156115e85760025482516001600160a01b039091169063b403b99790869085908590811061156757611567612811565b6020026020010151600001516001600087878151811061158957611589612811565b6020026020010151602001516040518663ffffffff1660e01b81526004016115b5959493929190612a01565b600060405180830381600087803b1580156115cf57600080fd5b505af11580156115e3573d6000803e3d6000fd5b505050505b806115f281612871565b91505061150d565b50505050565b8051516000906001600160401b0381111561161d5761161d61229b565b60405190808252806020026020018201604052801561166257816020015b604080518082019091526000808252602082015281526020019060019003908161163b5790505b50905060005b8251518110156116fe5760405180604001604052808460000151838151811061169357611693612811565b60200260200101516001600160a01b03168152602001846040015183815181106116bf576116bf612811565b6020026020010151604001518152508282815181106116e0576116e0612811565b602002602001018190525080806116f690612871565b915050611668565b5060008260200151516001600160401b0381111561171e5761171e61229b565b60405190808252806020026020018201604052801561176357816020015b604080518082019091526000808252602082015281526020019060019003908161173c5790505b50905060005b8360200151518110156118a05760008460200151828151811061178e5761178e612811565b6020026020010151905060008560400151838760000151516117b09190612a51565b815181106117c0576117c0612811565b6020026020010151604001519050604051806040016040528083602001516001600160a01b031681526020018284606001516117fc9190612a51565b81525084848151811061181157611811612811565b602002602001018190525060005b86515181101561188a578260800151818151811061183f5761183f612811565b60200260200101516020015186828151811061185d5761185d612811565b60200260200101516020018181516118759190612a51565b9052508061188281612871565b91505061181f565b505050808061189890612871565b915050611769565b507f3513495d7fd5aeb5c4a43ca2d5bc1193321fb114b6b970ea7becb0a6ddcce840818385608001518660a001516040516118de9493929190612cd4565b60405180910390a1505050565b6000546001600160a01b031633146109e45760405163118cdaa760e01b8152336004820152602401610b41565b600080546001600160a01b038381166001600160a01b0319831681178455604051919092169283917f8be0079c531659141344cd1fd0a4f28419497f9722a3daafe3b4186f6b6457e09190a35050565b6001600160a01b03811661198f5760405163d92e233d60e01b815260040160405180910390fd5b803b60008190036109ce57604051636f7c43f160e01b815260040160405180910390fd5b600081156119df57816119ce670de0b6b3a764000085612d13565b6119d89190612d2a565b9050611417565b5060001992915050565b60005b81518110156109ce576000828281518110611a0957611a09612811565b602002602001015190508060600151600003611a255750611a9d565b600254815160208301516060840151604051632f5ed88d60e11b81526001600160a01b0390941693635ebdb11a93611a699390929091600191600091600401612d4c565b600060405180830381600087803b158015611a8357600080fd5b505af1158015611a97573d6000803e3d6000fd5b50505050505b80611aa781612871565b9150506119ec565b6000611ac3670f43fc2c04ee000085612d13565b905060005b8351811015611c38576000848281518110611ae557611ae5612811565b602002602001015190508060200151611afe5750611c26565b600354815160a0830151604051637d3b6e7960e11b81526000936001600160a01b03169263fa76dcf292611b48926004016001600160a01b03929092168252602082015260400190565b602060405180830381865afa158015611b65573d6000803e3d6000fd5b505050506040513d601f19601f82011682018060405250810190611b899190612842565b9050600088611b988387612d13565b611ba29190612d2a565b6003548451604051632815899160e21b81526001600160a01b03918216600482015260248101849052929350169063a056264490604401602060405180830381865afa158015611bf6573d6000803e3d6000fd5b505050506040513d601f19601f82011682018060405250810190611c1a9190612842565b60a09093019290925250505b80611c3081612871565b915050611ac8565b50611c44848484611f3f565b5050505050565b60005b8251811015611c9d576000838281518110611c6b57611c6b612811565b60200260200101519050806020015115611c8a5760a081015160c08201525b5080611c9581612871565b915050611c4e565b5061096a838383611f3f565b60005b83518110156115fa576000848281518110611cc957611cc9612811565b602002602001015190508060200151611ce25750611e1c565b608081015115611d7d5760005b8451811015611d7b5781600001516001600160a01b0316858281518110611d1857611d18612811565b6020026020010151600001516001600160a01b031603611d69578160800151858281518110611d4957611d49612811565b6020026020010151602001818151611d619190612a51565b905250611d7b565b80611d7381612871565b915050611cef565b505b61010081015115611e1a5760005b8351811015611e185781600001516001600160a01b0316848281518110611db457611db4612811565b6020026020010151600001516001600160a01b031603611e0657816101000151848281518110611de657611de6612811565b6020026020010151602001818151611dfe9190612a51565b905250611e18565b80611e1081612871565b915050611d8b565b505b505b80611e2681612871565b915050611cac565b60005b825181101561096a576000838281518110611e4e57611e4e612811565b602002602001015190508060c00151600003611e6a5750611f2d565b60005b8351811015611f2a5781600001516001600160a01b0316848281518110611e9657611e96612811565b6020026020010151600001516001600160a01b0316141580611edd575081602001511515848281518110611ecc57611ecc612811565b602002602001015160200151151514155b611f18578160c00151848281518110611ef857611ef8612811565b6020026020010151604001818151611f109190612a51565b905250611f2a565b80611f2281612871565b915050611e6d565b50505b80611f3781612871565b915050611e31565b60005b82518110156115fa576000838281518110611f5f57611f5f612811565b60200260200101519050806020015115611f795750612271565b611fbd6040518060a0016040528060006001600160a01b0316815260200160006001600160a01b031681526020016000815260200160008152602001606081525090565b60005b84518110156120365782600001516001600160a01b0316858281518110611fe957611fe9612811565b6020026020010151602001516001600160a01b0316036120245784818151811061201557612015612811565b60200260200101519150612036565b8061202e81612871565b915050611fc0565b50604081015115612252576120538260a001518260400151612283565b60e0830181905260608201805161206b908390612a51565b90525060e0820151604082018051612084908390612ca4565b905250600354825160e0840151604051637d3b6e7960e11b81526001600160a01b03928316600482015260248101919091526000928992670de0b6b3a76400009291169063fa76dcf290604401602060405180830381865afa1580156120ee573d6000803e3d6000fd5b505050506040513d601f19601f820116820180604052508101906121129190612842565b61211c9190612d13565b6121269190612d2a565b905060005b865181101561224f57600087828151811061214857612148612811565b602002602001015190508060200151612161575061223d565b670de0b6b3a7640000838260a0015161217a9190612d13565b6121849190612d2a565b60e0820181905260c08201805161219c908390612ca4565b90525060005b84608001515181101561223a5781600001516001600160a01b0316856080015182815181106121d3576121d3612811565b6020026020010151600001516001600160a01b031603612228578160e001518560800151828151811061220857612208612811565b60200260200101516020018181516122209190612a51565b90525061223a565b8061223281612871565b9150506121a2565b50505b8061224781612871565b91505061212b565b50505b8160e001518260a001516122669190612ca4565b60c090920191909152505b8061227b81612871565b915050611f42565b60008183106122925781612294565b825b9392505050565b634e487b7160e01b600052604160045260246000fd5b60405160a081016001600160401b03811182821017156122d3576122d361229b565b60405290565b604080519081016001600160401b03811182821017156122d3576122d361229b565b60405161012081016001600160401b03811182821017156122d3576122d361229b565b604051601f8201601f191681016001600160401b03811182821017156123465761234661229b565b604052919050565b60006001600160401b038211156123675761236761229b565b5060051b60200190565b6001600160a01b0381168114610b5357600080fd5b6000602080838503121561239957600080fd5b82356001600160401b038111156123af57600080fd5b8301601f810185136123c057600080fd5b80356123d36123ce8261234e565b61231e565b81815260059190911b820183019083810190878311156123f257600080fd5b928401925b8284101561241957833561240a81612371565b825292840192908401906123f7565b979650505050505050565b60006020828403121561243657600080fd5b813561229481612371565b600060208083528351808285015260005b8181101561246e57858101830151858201604001528201612452565b506000604082860101526040601f19601f8301168501019250505092915050565b600080600080600080600060e0888a0312156124aa57600080fd5b87356124b581612371565b965060208801356124c581612371565b955060408801356124d581612371565b945060608801356124e581612371565b935060808801356124f581612371565b925060a088013561250581612371565b915060c088013561251581612371565b8091505092959891949750929550565b805161253081612371565b919050565b6000602080838503121561254857600080fd5b82516001600160401b0381111561255e57600080fd5b8301601f8101851361256f57600080fd5b805161257d6123ce8261234e565b81815260059190911b8201830190838101908783111561259c57600080fd5b928401925b828410156124195783516125b481612371565b825292840192908401906125a1565b8051801515811461253057600080fd5b600080600080608085870312156125e957600080fd5b6125f2856125c3565b60208601516040870151606090970151919890975090945092505050565b600081518084526020808501945080840160005b838110156126495781516001600160a01b031687529582019590820190600101612624565b509495945050505050565b6020815260006122946020830184612610565b60006020828403121561267957600080fd5b81516001600160401b038082111561269057600080fd5b818401915084601f8301126126a457600080fd5b81516126b26123ce8261234e565b8082825260208201915060208360051b8601019250878311156126d457600080fd5b602085015b83811015612805578051858111156126f057600080fd5b860160a0818b03601f1901121561270657600080fd5b61270e6122b1565b602082015161271c81612371565b8152604082015161272c81612371565b6020820152606082810151604083015260808301519082015260a08201518781111561275757600080fd5b8083019250508a603f83011261276c57600080fd5b602082015161277d6123ce8261234e565b81815260069190911b83016040019060208101908d83111561279e57600080fd5b6040850194505b828510156127ef576040858f0312156127bd57600080fd5b6127c56122d9565b85516127d081612371565b81526020868101518183015290835260409095019491909101906127a5565b60808401525050845250602092830192016126d9565b50979650505050505050565b634e487b7160e01b600052603260045260246000fd5b60006020828403121561283957600080fd5b612294826125c3565b60006020828403121561285457600080fd5b5051919050565b634e487b7160e01b600052601160045260246000fd5b6000600182016128835761288361285b565b5060010190565b600081518084526020808501945080840160005b8381101561264957815180516001600160a01b03168852830151838801526040909601959082019060010161289e565b60006020808301818452808551808352604092508286019150828160051b87010184880160005b8381101561296157888303603f19018552815180516001600160a01b03908116855288820151168885015286810151878501526060808201519085015260809081015160a09185018290529061294d8186018361288a565b9689019694505050908601906001016128f5565b509098975050505050505050565b6000604080835261298281840186612610565b83810360208581019190915285518083528682019282019060005b8181101561296157845180516001600160a01b0316845284810151151585850152860151868401529383019360609092019160010161299d565b634e487b7160e01b600052602160045260246000fd5b600381106129fd576129fd6129d7565b9052565b6001600160a01b03868116825285166020820152831515604082015260a08101612a2e60608301856129ed565b8260808301529695505050505050565b602081526000612294602083018461288a565b808201808211156114175761141761285b565b6000806000806080808688031215612a7b57600080fd5b85516001600160401b03811115612a9157600080fd5b8601601f81018813612aa257600080fd5b80516020612ab26123ce8361234e565b828152610120928302840182019282820191908c851115612ad257600080fd5b948301945b84861015612b655780868e031215612aef5760008081fd5b612af76122fb565b612b0087612525565b8152612b0d8588016125c3565b818601526040878101519082015260608088015190820152878701518882015260a0808801519082015260c0808801519082015260e08088015190820152610100808801519082015283529485019491830191612ad7565b50918a015160408b01516060909b0151929c909b50919850909650505050505050565b604081526000612b9b6040830185612610565b905060018060a01b03831660208301529392505050565b6001600160a01b038381168252604060208084018290528451848301819052600093606092909183870190888301875b82811015612c5257815180518716855285810151151586860152888101518986015287810151888601526080808201519086015260a0808201519086015260c0808201519086015260e0808201519086015261010090810151908501526101209093019290840190600101612be2565b50919a9950505050505050505050565b606081526000612c756060830186612610565b6001600160a01b0385166020840152905060058310612c9657612c966129d7565b826040830152949350505050565b818103818111156114175761141761285b565b600060208284031215612cc957600080fd5b815161229481612371565b608081526000612ce7608083018761288a565b8281036020840152612cf9818761288a565b90508460408401528281036060840152612419818561288a565b80820281158282048414176114175761141761285b565b600082612d4757634e487b7160e01b600052601260045260246000fd5b500490565b6001600160a01b0386168152841515602082015260a08101612d7160408301866129ed565b612a2e60608301856129ed56fea2646970667358221220722b6c14a2c29460f06839ab3feda3c7420a00ca14f699f26442e7a36d2f91b164736f6c63430008140033",
  "devdoc": {
    "errors": {
      "OwnableInvalidOwner(address)": [
        {
          "details": "The owner is not a valid owner account. (eg. `address(0)`)"
        }
      ],
      "OwnableUnauthorizedAccount(address)": [
        {
          "details": "The caller account is not authorized to perform an operation."
        }
      ]
    },
    "kind": "dev",
    "methods": {
      "owner()": {
        "details": "Returns the address of the current owner."
      },
      "renounceOwnership()": {
        "details": "Leaves the contract without owner. It will not be possible to call `onlyOwner` functions. Can only be called by the current owner. NOTE: Renouncing ownership will leave the contract without an owner, thereby disabling any functionality that is only available to the owner."
      },
      "transferOwnership(address)": {
        "details": "Transfers ownership of the contract to a new account (`newOwner`). Can only be called by the current owner."
      }
    },
    "version": 1
  },
  "userdoc": {
    "kind": "user",
    "methods": {},
    "version": 1
  },
  "storageLayout": {
    "storage": [
      {
        "astId": 8,
        "contract": "contracts/LiquidationOperations.sol:LiquidationOperations",
        "label": "_owner",
        "offset": 0,
        "slot": "0",
        "type": "t_address"
      },
      {
        "astId": 12067,
        "contract": "contracts/LiquidationOperations.sol:LiquidationOperations",
        "label": "troveManager",
        "offset": 0,
        "slot": "1",
        "type": "t_contract(ITroveManager)12034"
      },
      {
        "astId": 12070,
        "contract": "contracts/LiquidationOperations.sol:LiquidationOperations",
        "label": "storagePool",
        "offset": 0,
        "slot": "2",
        "type": "t_contract(IStoragePool)11041"
      },
      {
        "astId": 12073,
        "contract": "contracts/LiquidationOperations.sol:LiquidationOperations",
        "label": "priceFeed",
        "offset": 0,
        "slot": "3",
        "type": "t_contract(IPriceFeed)10268"
      },
      {
        "astId": 12076,
        "contract": "contracts/LiquidationOperations.sol:LiquidationOperations",
        "label": "debtTokenManager",
        "offset": 0,
        "slot": "4",
        "type": "t_contract(IDebtTokenManager)10132"
      },
      {
        "astId": 12079,
        "contract": "contracts/LiquidationOperations.sol:LiquidationOperations",
        "label": "collTokenManager",
        "offset": 0,
        "slot": "5",
        "type": "t_contract(ICollTokenManager)9882"
      },
      {
        "astId": 12082,
        "contract": "contracts/LiquidationOperations.sol:LiquidationOperations",
        "label": "stabilityPoolManager",
        "offset": 0,
        "slot": "6",
        "type": "t_contract(IStabilityPoolManager)10911"
      },
      {
        "astId": 12085,
        "contract": "contracts/LiquidationOperations.sol:LiquidationOperations",
        "label": "collSurplusPool",
        "offset": 0,
        "slot": "7",
        "type": "t_contract(ICollSurplusPool)9858"
      }
    ],
    "types": {
      "t_address": {
        "encoding": "inplace",
        "label": "address",
        "numberOfBytes": "20"
      },
      "t_contract(ICollSurplusPool)9858": {
        "encoding": "inplace",
        "label": "contract ICollSurplusPool",
        "numberOfBytes": "20"
      },
      "t_contract(ICollTokenManager)9882": {
        "encoding": "inplace",
        "label": "contract ICollTokenManager",
        "numberOfBytes": "20"
      },
      "t_contract(IDebtTokenManager)10132": {
        "encoding": "inplace",
        "label": "contract IDebtTokenManager",
        "numberOfBytes": "20"
      },
      "t_contract(IPriceFeed)10268": {
        "encoding": "inplace",
        "label": "contract IPriceFeed",
        "numberOfBytes": "20"
      },
      "t_contract(IStabilityPoolManager)10911": {
        "encoding": "inplace",
        "label": "contract IStabilityPoolManager",
        "numberOfBytes": "20"
      },
      "t_contract(IStoragePool)11041": {
        "encoding": "inplace",
        "label": "contract IStoragePool",
        "numberOfBytes": "20"
      },
      "t_contract(ITroveManager)12034": {
        "encoding": "inplace",
        "label": "contract ITroveManager",
        "numberOfBytes": "20"
      }
    }
  }
}