{
  "address": "0x9fE46736679d2D9a65F0992F2272dE9f3c7fa6e0",
  "abi": [
    {
      "inputs": [],
      "name": "EmptyArray",
      "type": "error"
    },
    {
      "inputs": [],
      "name": "FeeExceedMaxPercentage",
      "type": "error"
    },
    {
      "inputs": [],
      "name": "NoLiquidatableTrove",
      "type": "error"
    },
    {
      "inputs": [],
      "name": "NotContract",
      "type": "error"
    },
    {
      "inputs": [
        {
          "internalType": "address",
          "name": "owner",
          "type": "address"
        }
      ],
      "name": "OwnableInvalidOwner",
      "type": "error"
    },
    {
      "inputs": [
        {
          "internalType": "address",
          "name": "account",
          "type": "address"
        }
      ],
      "name": "OwnableUnauthorizedAccount",
      "type": "error"
    },
    {
      "inputs": [],
      "name": "ZeroAddress",
      "type": "error"
    },
    {
      "anonymous": false,
      "inputs": [
        {
          "indexed": false,
          "internalType": "address",
          "name": "_troveManager",
          "type": "address"
        },
        {
          "indexed": false,
          "internalType": "address",
          "name": "_storgePool",
          "type": "address"
        },
        {
          "indexed": false,
          "internalType": "address",
          "name": "_priceFeed",
          "type": "address"
        },
        {
          "indexed": false,
          "internalType": "address",
          "name": "_debtTokenManager",
          "type": "address"
        },
        {
          "indexed": false,
          "internalType": "address",
          "name": "_collTokenManager",
          "type": "address"
        },
        {
          "indexed": false,
          "internalType": "address",
          "name": "_stabilityPoolManager",
          "type": "address"
        }
      ],
      "name": "LiquidationOperationsInitialized",
      "type": "event"
    },
    {
      "anonymous": false,
      "inputs": [
        {
          "components": [
            {
              "internalType": "address",
              "name": "tokenAddress",
              "type": "address"
            },
            {
              "internalType": "uint256",
              "name": "amount",
              "type": "uint256"
            }
          ],
          "indexed": false,
          "internalType": "struct IBase.TokenAmount[]",
          "name": "liquidatedDebt",
          "type": "tuple[]"
        },
        {
          "components": [
            {
              "internalType": "address",
              "name": "tokenAddress",
              "type": "address"
            },
            {
              "internalType": "uint256",
              "name": "amount",
              "type": "uint256"
            }
          ],
          "indexed": false,
          "internalType": "struct IBase.TokenAmount[]",
          "name": "liquidatedColl",
          "type": "tuple[]"
        },
        {
          "indexed": false,
          "internalType": "uint256",
          "name": "totalStableCoinGasCompensation",
          "type": "uint256"
        },
        {
          "components": [
            {
              "internalType": "address",
              "name": "tokenAddress",
              "type": "address"
            },
            {
              "internalType": "uint256",
              "name": "amount",
              "type": "uint256"
            }
          ],
          "indexed": false,
          "internalType": "struct IBase.TokenAmount[]",
          "name": "totalCollGasCompensation",
          "type": "tuple[]"
        }
      ],
      "name": "LiquidationSummary",
      "type": "event"
    },
    {
      "anonymous": false,
      "inputs": [
        {
          "indexed": true,
          "internalType": "address",
          "name": "previousOwner",
          "type": "address"
        },
        {
          "indexed": true,
          "internalType": "address",
          "name": "newOwner",
          "type": "address"
        }
      ],
      "name": "OwnershipTransferred",
      "type": "event"
    },
    {
      "inputs": [],
      "name": "BORROWING_FEE_FLOOR",
      "outputs": [
        {
          "internalType": "uint256",
          "name": "",
          "type": "uint256"
        }
      ],
      "stateMutability": "view",
      "type": "function"
    },
    {
      "inputs": [],
      "name": "CCR",
      "outputs": [
        {
          "internalType": "uint256",
          "name": "",
          "type": "uint256"
        }
      ],
      "stateMutability": "view",
      "type": "function"
    },
    {
      "inputs": [],
      "name": "MAX_BORROWING_FEE",
      "outputs": [
        {
          "internalType": "uint256",
          "name": "",
          "type": "uint256"
        }
      ],
      "stateMutability": "view",
      "type": "function"
    },
    {
      "inputs": [],
      "name": "MCR",
      "outputs": [
        {
          "internalType": "uint256",
          "name": "",
          "type": "uint256"
        }
      ],
      "stateMutability": "view",
      "type": "function"
    },
    {
      "inputs": [],
      "name": "NAME",
      "outputs": [
        {
          "internalType": "string",
          "name": "",
          "type": "string"
        }
      ],
      "stateMutability": "view",
      "type": "function"
    },
    {
      "inputs": [],
      "name": "PERCENT_DIVISOR",
      "outputs": [
        {
          "internalType": "uint256",
          "name": "",
          "type": "uint256"
        }
      ],
      "stateMutability": "view",
      "type": "function"
    },
    {
      "inputs": [],
      "name": "REDEMPTION_FEE_FLOOR",
      "outputs": [
        {
          "internalType": "uint256",
          "name": "",
          "type": "uint256"
        }
      ],
      "stateMutability": "view",
      "type": "function"
    },
    {
      "inputs": [],
      "name": "STABLE_COIN_GAS_COMPENSATION",
      "outputs": [
        {
          "internalType": "uint256",
          "name": "",
          "type": "uint256"
        }
      ],
      "stateMutability": "view",
      "type": "function"
    },
    {
      "inputs": [],
      "name": "SWAP_BASE_FEE",
      "outputs": [
        {
          "internalType": "uint32",
          "name": "",
          "type": "uint32"
        }
      ],
      "stateMutability": "view",
      "type": "function"
    },
    {
      "inputs": [],
      "name": "SWAP_FEE_PRECISION",
      "outputs": [
        {
          "internalType": "uint32",
          "name": "",
          "type": "uint32"
        }
      ],
      "stateMutability": "view",
      "type": "function"
    },
    {
      "inputs": [],
      "name": "_100pct",
      "outputs": [
        {
          "internalType": "uint256",
          "name": "",
          "type": "uint256"
        }
      ],
      "stateMutability": "view",
      "type": "function"
    },
    {
      "inputs": [
        {
          "internalType": "address[]",
          "name": "_troveArray",
          "type": "address[]"
        }
      ],
      "name": "batchLiquidateTroves",
      "outputs": [],
      "stateMutability": "nonpayable",
      "type": "function"
    },
    {
      "inputs": [],
      "name": "collTokenManager",
      "outputs": [
        {
          "internalType": "contract ICollTokenManager",
          "name": "",
          "type": "address"
        }
      ],
      "stateMutability": "view",
      "type": "function"
    },
    {
      "inputs": [],
      "name": "debtTokenManager",
      "outputs": [
        {
          "internalType": "contract IDebtTokenManager",
          "name": "",
          "type": "address"
        }
      ],
      "stateMutability": "view",
      "type": "function"
    },
    {
      "inputs": [
        {
          "internalType": "address",
          "name": "_borrower",
          "type": "address"
        }
      ],
      "name": "liquidate",
      "outputs": [],
      "stateMutability": "nonpayable",
      "type": "function"
    },
    {
      "inputs": [],
      "name": "owner",
      "outputs": [
        {
          "internalType": "address",
          "name": "",
          "type": "address"
        }
      ],
      "stateMutability": "view",
      "type": "function"
    },
    {
      "inputs": [],
      "name": "priceFeed",
      "outputs": [
        {
          "internalType": "contract IPriceFeed",
          "name": "",
          "type": "address"
        }
      ],
      "stateMutability": "view",
      "type": "function"
    },
    {
      "inputs": [],
      "name": "renounceOwnership",
      "outputs": [],
      "stateMutability": "nonpayable",
      "type": "function"
    },
    {
      "inputs": [
        {
          "internalType": "address",
          "name": "_troveManagerAddress",
          "type": "address"
        },
        {
          "internalType": "address",
          "name": "_storagePoolAddress",
          "type": "address"
        },
        {
          "internalType": "address",
          "name": "_priceFeedAddress",
          "type": "address"
        },
        {
          "internalType": "address",
          "name": "_debtTokenManagerAddress",
          "type": "address"
        },
        {
          "internalType": "address",
          "name": "_collTokenManagerAddress",
          "type": "address"
        },
        {
          "internalType": "address",
          "name": "_stabilityPoolManagerAddress",
          "type": "address"
        }
      ],
      "name": "setAddresses",
      "outputs": [],
      "stateMutability": "nonpayable",
      "type": "function"
    },
    {
      "inputs": [],
      "name": "stabilityPoolManager",
      "outputs": [
        {
          "internalType": "contract IStabilityPoolManager",
          "name": "",
          "type": "address"
        }
      ],
      "stateMutability": "view",
      "type": "function"
    },
    {
      "inputs": [],
      "name": "storagePool",
      "outputs": [
        {
          "internalType": "contract IStoragePool",
          "name": "",
          "type": "address"
        }
      ],
      "stateMutability": "view",
      "type": "function"
    },
    {
      "inputs": [
        {
          "internalType": "address",
          "name": "newOwner",
          "type": "address"
        }
      ],
      "name": "transferOwnership",
      "outputs": [],
      "stateMutability": "nonpayable",
      "type": "function"
    },
    {
      "inputs": [],
      "name": "troveManager",
      "outputs": [
        {
          "internalType": "contract ITroveManager",
          "name": "",
          "type": "address"
        }
      ],
      "stateMutability": "view",
      "type": "function"
    }
  ],
  "transactionHash": "0xb6ba1d1b39405f6cbf817f263d022e8d5ffa59b89eb3203bc2b86d61bcd4db57",
  "args": [],
  "numDeployments": 1,
  "solcInputHash": "a1ba766827c404575f799519d1eb71c4",
  "bytecode": "0x60806040523480156200001157600080fd5b5033806200003957604051631e4fbdf760e01b81526000600482015260240160405180910390fd5b62000044816200004b565b506200009b565b600080546001600160a01b038381166001600160a01b0319831681178455604051919092169283917f8be0079c531659141344cd1fd0a4f28419497f9722a3daafe3b4186f6b6457e09190a35050565b612e8b80620000ab6000396000f3fe608060405234801561001057600080fd5b506004361061014d5760003560e01c8063715018a6116100c3578063943ebeae1161007c578063943ebeae1461029c578063a3f4df7e146102af578063ddbeb714146102f0578063e67729e314610303578063f2fde38b1461030d578063f92d34331461018857600080fd5b8063715018a61461024257806372fe25aa1461024a578063741bef1a14610259578063794e57241461026c5780638d63c6651461027b5780638da5cb5b1461028b57600080fd5b80633d83908a116101155780633d83908a146101d45780634870dd9a146101e7578063502afb04146101ef578063522a86fe1461020d5780635733d58f146102205780636cfb6bf91461022f57600080fd5b80631e8b1c2b14610152578063240926691461016757806328d28b5b146101885780632f2b4e90146101965780632f865568146101c1575b600080fd5b610165610160366004612532565b610320565b005b61017566b1a2bc2ec5000081565b6040519081526020015b60405180910390f35b6101756611c37937e0800081565b6006546101a9906001600160a01b031681565b6040516001600160a01b03909116815260200161017f565b6101656101cf3660046125d0565b610695565b6001546101a9906001600160a01b031681565b61017560c881565b6101f8610bb881565b60405163ffffffff909116815260200161017f565b6004546101a9906001600160a01b031681565b6101756714d1120d7b16000081565b61016561023d3660046125ed565b6106f8565b610165610804565b610175670de0b6b3a764000081565b6003546101a9906001600160a01b031681565b610175670f43fc2c04ee000081565b610175680ad78ebc5ac620000081565b6000546001600160a01b03166101a9565b6005546101a9906001600160a01b031681565b6102e3604051806040016040528060158152602001744c69717569646174696f6e4f7065726174696f6e7360581b81525081565b60405161017f919061266f565b6002546101a9906001600160a01b031681565b6101f8620f424081565b61016561031b3660046125d0565b610818565b80516000036103425760405163521299a960e01b815260040160405180910390fd5b6103826040518060e00160405280606081526020016060815260200160608152602001600081526020016060815260200160008152602001600081525090565b600560009054906101000a90046001600160a01b03166001600160a01b031663efc5f8c56040518163ffffffff1660e01b8152600401600060405180830381865afa1580156103d5573d6000803e3d6000fd5b505050506040513d6000823e601f3d908101601f191682016040526103fd91908101906126bd565b8152600254604080516321d0927d60e11b815290516000926001600160a01b0316916343a124fa9160048083019260809291908290030181865afa158015610449573d6000803e3d6000fd5b505050506040513d601f19601f8201168201806040525081019061046d9190612760565b60c086015260a08501525060065483516040516312fd572560e01b81529293506001600160a01b03909116916312fd5725916104ab916004016127e1565b600060405180830381865afa1580156104c8573d6000803e3d6000fd5b505050506040513d6000823e601f3d908101601f191682016040526104f091908101906127f4565b60208301526104fe8261085b565b60008115610517576105108385610b30565b9050610524565b6105218385610c19565b90505b80610542576040516321aacc4b60e11b815260040160405180910390fd5b6006546020840151604051639e3c475360e01b81526001600160a01b0390921691639e3c475391610575916004016129e2565b600060405180830381600087803b15801561058f57600080fd5b505af11580156105a3573d6000803e3d6000fd5b505060015485516040808801519051632c89c7cd60e11b81526001600160a01b0390931694506359138f9a93506105dc92600401612a83565b600060405180830381600087803b1580156105f657600080fd5b505af115801561060a573d6000803e3d6000fd5b50506001546080860151604051631071929160e01b81526001600160a01b0390921693506310719291925061064191600401612aeb565b600060405180830381600087803b15801561065b57600080fd5b505af115801561066f573d6000803e3d6000fd5b505050506106863384606001518560800151610cf6565b61068f83610ed3565b50505050565b6040805160018082528183019092526000916020808301908036833701905050905081816000815181106106cb576106cb612afe565b60200260200101906001600160a01b031690816001600160a01b0316815250506106f481610320565b5050565b6107006111be565b610709866111eb565b610712856111eb565b61071b846111eb565b610724836111eb565b61072d826111eb565b610736816111eb565b600180546001600160a01b038881166001600160a01b0319928316811790935560028054898316908416811790915560038054898416908516811790915560048054898516908616811790915560058054898616908716811790915560068054958916959096168517909555604080519687526020870193909352918501526060840152608083019190915260a08201527f0790df4d7a0f302edbb8a8eee49211c9ddfe6e3b3541fbcd5733df44592662aa9060c00160405180910390a16107fc610804565b505050505050565b61080c6111be565b6108166000611236565b565b6108206111be565b6001600160a01b03811661084f57604051631e4fbdf760e01b8152600060048201526024015b60405180910390fd5b61085881611236565b50565b6000600460009054906101000a90046001600160a01b03166001600160a01b0316636060b0556040518163ffffffff1660e01b8152600401600060405180830381865afa1580156108b0573d6000803e3d6000fd5b505050506040513d6000823e601f3d908101601f191682016040526108d891908101906126bd565b82515181519192506108e991612b2a565b6001600160401b0381111561090057610900612447565b60405190808252806020026020018201604052801561094b57816020015b604080516060810182526000808252602080830182905292820152825260001990920191018161091e5790505b5060408301528151516001600160401b0381111561096b5761096b612447565b6040519080825280602002602001820160405280156109b057816020015b60408051808201909152600080825260208201528152602001906001900390816109895790505b50608083015260005b825151811015610a99576040518060600160405280846000015183815181106109e4576109e4612afe565b60200260200101516001600160a01b03168152602001600115158152602001600081525083604001518281518110610a1e57610a1e612afe565b6020026020010181905250604051806040016040528084600001518381518110610a4a57610a4a612afe565b60200260200101516001600160a01b03168152602001600081525083608001518281518110610a7b57610a7b612afe565b60200260200101819052508080610a9190612b3d565b9150506109b9565b5060005b8151811015610b2b576040518060600160405280838381518110610ac357610ac3612afe565b60200260200101516001600160a01b031681526020016000151581526020016000815250836040015182856000015151610afd9190612b2a565b81518110610b0d57610b0d612afe565b60200260200101819052508080610b2390612b3d565b915050610a9d565b505050565b6000610b3a6123ff565b60008082525b8351811015610c1057838181518110610b5b57610b5b612afe565b60209081029190910101516001600160a01b03908116604084810182905260015490516301b9ad5160e51b8152600481019290925290911690633735aa2090602401602060405180830381865afa158015610bba573d6000803e3d6000fd5b505050506040513d601f19601f82011682018060405250810190610bde9190612b56565b15610bfe576000610bef8684611286565b90508015610bfc57600193505b505b80610c0881612b3d565b915050610b40565b50505b92915050565b6000610c236123ff565b60005b8351811015610c1057838181518110610c4157610c41612afe565b60209081029190910101516001600160a01b03908116604084810182905260015490516301b9ad5160e51b8152600481019290925290911690633735aa2090602401602060405180830381865afa158015610ca0573d6000803e3d6000fd5b505050506040513d601f19601f82011682018060405250810190610cc49190612b56565b15610ce4576000610cd586846116f4565b90508015610ce257600193505b505b80610cee81612b3d565b915050610c26565b8115610de3576000600460009054906101000a90046001600160a01b03166001600160a01b0316631bd817c96040518163ffffffff1660e01b8152600401602060405180830381865afa158015610d51573d6000803e3d6000fd5b505050506040513d601f19601f82011682018060405250810190610d759190612b71565b6002805460405163b403b99760e01b81529293506001600160a01b03169163b403b99791610daf9188918691600091908a90600401612bb8565b600060405180830381600087803b158015610dc957600080fd5b505af1158015610ddd573d6000803e3d6000fd5b50505050505b60005b815181101561068f57818181518110610e0157610e01612afe565b60200260200101516020015160000315610ec15760025482516001600160a01b039091169063b403b997908690859085908110610e4057610e40612afe565b60200260200101516000015160016000878781518110610e6257610e62612afe565b6020026020010151602001516040518663ffffffff1660e01b8152600401610e8e959493929190612bb8565b600060405180830381600087803b158015610ea857600080fd5b505af1158015610ebc573d6000803e3d6000fd5b505050505b80610ecb81612b3d565b915050610de6565b8051516000906001600160401b03811115610ef057610ef0612447565b604051908082528060200260200182016040528015610f3557816020015b6040805180820190915260008082526020820152815260200190600190039081610f0e5790505b50905060005b825151811015610fd157604051806040016040528084600001518381518110610f6657610f66612afe565b60200260200101516001600160a01b0316815260200184604001518381518110610f9257610f92612afe565b602002602001015160400151815250828281518110610fb357610fb3612afe565b60200260200101819052508080610fc990612b3d565b915050610f3b565b5060008260200151516001600160401b03811115610ff157610ff1612447565b60405190808252806020026020018201604052801561103657816020015b604080518082019091526000808252602082015281526020019060019003908161100f5790505b50905060005b8360200151518110156111735760008460200151828151811061106157611061612afe565b6020026020010151905060008560400151838760000151516110839190612b2a565b8151811061109357611093612afe565b6020026020010151604001519050604051806040016040528083602001516001600160a01b031681526020018284606001516110cf9190612b2a565b8152508484815181106110e4576110e4612afe565b602002602001018190525060005b86515181101561115d578260800151818151811061111257611112612afe565b60200260200101516020015186828151811061113057611130612afe565b60200260200101516020018181516111489190612b2a565b9052508061115581612b3d565b9150506110f2565b505050808061116b90612b3d565b91505061103c565b507f3513495d7fd5aeb5c4a43ca2d5bc1193321fb114b6b970ea7becb0a6ddcce8408183856060015186608001516040516111b19493929190612bf5565b60405180910390a1505050565b6000546001600160a01b031633146108165760405163118cdaa760e01b8152336004820152602401610846565b6001600160a01b0381166112125760405163d92e233d60e01b815260040160405180910390fd5b803b60008190036106f457604051636f7c43f160e01b815260040160405180910390fd5b600080546001600160a01b038381166001600160a01b0319831681178455604051919092169283917f8be0079c531659141344cd1fd0a4f28419497f9722a3daafe3b4186f6b6457e09190a35050565b6001546040828101519051632e46be5f60e21b81526001600160a01b039182166004820152600092919091169063b91af97c90602401600060405180830381865afa1580156112d9573d6000803e3d6000fd5b505050506040513d6000823e601f3d908101601f191682016040526113019190810190612c34565b60a08601526080850181905260c085018290526060850192909252611325916117c8565b602083015281516116515760018060009054906101000a90046001600160a01b03166001600160a01b03166349eefeee6040518163ffffffff1660e01b8152600401602060405180830381865afa158015611384573d6000803e3d6000fd5b505050506040513d601f19601f820116820180604052508101906113a89190612d52565b116113b557506000610c13565b670f43fc2c04ee00008260200151101580156113de57506113de836020015183606001516117fe565b156113eb57506000610c13565b60006113ff8460a001518560c001516117c8565b905061142d84602001518560000151856040015186602001518760c001518860a00151878a60600151611902565b60005b8360600151518110156116355760008460600151828151811061145557611455612afe565b602090810291909101015160035481516080830151604051637d3b6e7960e11b81526001600160a01b0392831660048201526024810191909152929350169063fa76dcf290604401602060405180830381865afa1580156114ba573d6000803e3d6000fd5b505050506040513d601f19601f820116820180604052508101906114de9190612d52565b8660a0018181516114ef9190612d6b565b90525060208101511561159157600354815160e0830151604051637d3b6e7960e11b81526001600160a01b039283166004820152602481019190915291169063fa76dcf290604401602060405180830381865afa158015611554573d6000803e3d6000fd5b505050506040513d601f19601f820116820180604052508101906115789190612d52565b8660a0018181516115899190612d6b565b905250611622565b600354815160e0830151604051637d3b6e7960e11b81526001600160a01b039283166004820152602481019190915291169063fa76dcf290604401602060405180830381865afa1580156115e9573d6000803e3d6000fd5b505050506040513d601f19601f8201168201806040525081019061160d9190612d52565b8660c00181815161161e9190612d6b565b9052505b508061162d81612b3d565b915050611430565b506116488460a001518560c00151611bd6565b15835250611694565b8151801561166a5750670f43fc2c04ee00008260200151105b1561168c576116878383604001518460a001518560600151611bf5565b611694565b506000610c13565b8160600151516000036116a957506000610c13565b6116bb82606001518460800151611cd4565b6116cd82606001518460400151611dc2565b680ad78ebc5ac6200000836060018181516116e89190612b2a565b90525060019392505050565b6001546040828101519051632e46be5f60e21b81526001600160a01b039182166004820152600092919091169063b91af97c90602401600060405180830381865afa158015611747573d6000803e3d6000fd5b505050506040513d6000823e601f3d908101601f1916820160405261176f9190810190612c34565b60a08601526080850181905260c085018290526060850192909252611793916117c8565b60208301819052670f43fc2c04ee0000116117b057506000610c13565b6116a98383604001518460a001518560600151611bf5565b600081156117f457816117e3670de0b6b3a764000085612d7e565b6117ed9190612d95565b9050610c13565b5060001992915050565b6000805b82518110156118f857600083828151811061181f5761181f612afe565b6020026020010151905080602001511561183957506118e6565b6000805b86518110156118d15782600001516001600160a01b031687828151811061186657611866612afe565b6020026020010151602001516001600160a01b0316036118bf578260a0015187828151811061189757611897612afe565b60200260200101516040015110156118b6576000945050505050610c13565b600191506118d1565b806118c981612b3d565b91505061183d565b50806118e35760009350505050610c13565b50505b806118f081612b3d565b915050611802565b5060019392505050565b670de0b6b3a76400008511611a335761191a81611ed3565b600154604051630609d6b760e11b81526001600160a01b0390911690630c13ad6e9061194c908a908a90600401612db7565b600060405180830381600087803b15801561196657600080fd5b505af115801561197a573d6000803e3d6000fd5b5050505060005b81518110156119c757600082828151811061199e5761199e612afe565b602090810291909101015160a081015160c09091015250806119bf81612b3d565b915050611981565b50600154604051638918b9e160e01b81526001600160a01b0390911690638918b9e1906119fc908a908a906004908101612de1565b600060405180830381600087803b158015611a1657600080fd5b505af1158015611a2a573d6000803e3d6000fd5b50505050611bcc565b670de0b6b3a764000085118015611a515750670f43fc2c04ee000085105b15611b0257611a5f81611ed3565b600154604051630609d6b760e11b81526001600160a01b0390911690630c13ad6e90611a91908a908a90600401612db7565b600060405180830381600087803b158015611aab57600080fd5b505af1158015611abf573d6000803e3d6000fd5b50505050611ace83828a611f99565b600154604051638918b9e160e01b81526001600160a01b0390911690638918b9e1906119fc908a908a906004908101612de1565b670f43fc2c04ee00008510158015611b1957508185105b15611bcc57611b2781611ed3565b600154604051630609d6b760e11b81526001600160a01b0390911690630c13ad6e90611b59908a908a90600401612db7565b600060405180830381600087803b158015611b7357600080fd5b505af1158015611b87573d6000803e3d6000fd5b50505050611b978484838b611ff7565b600154604051638918b9e160e01b81526001600160a01b0390911690638918b9e1906119fc908a908a90600390600401612de1565b5050505050505050565b600080611be384846117c8565b6714d1120d7b16000011949350505050565b611bfe81611ed3565b6001548451604051630609d6b760e11b81526001600160a01b0390921691630c13ad6e91611c30918790600401612db7565b600060405180830381600087803b158015611c4a57600080fd5b505af1158015611c5e573d6000803e3d6000fd5b50505050611c7182828660200151611f99565b6001548451604051638918b9e160e01b81526001600160a01b0390921691638918b9e191611ca6918790600390600401612de1565b600060405180830381600087803b158015611cc057600080fd5b505af1158015611bcc573d6000803e3d6000fd5b60005b8251811015610b2b576000838281518110611cf457611cf4612afe565b60200260200101519050806080015160001480611d1357508060200151155b15611d1e5750611db0565b60005b8351811015611dad5781600001516001600160a01b0316848281518110611d4a57611d4a612afe565b6020026020010151600001516001600160a01b031603611d9b578160800151848281518110611d7b57611d7b612afe565b6020026020010151602001818151611d939190612b2a565b905250611dad565b80611da581612b3d565b915050611d21565b50505b80611dba81612b3d565b915050611cd7565b60005b8251811015610b2b576000838281518110611de257611de2612afe565b602002602001015190508060c00151600003611dfe5750611ec1565b60005b8351811015611ebe5781600001516001600160a01b0316848281518110611e2a57611e2a612afe565b6020026020010151600001516001600160a01b0316141580611e71575081602001511515848281518110611e6057611e60612afe565b602002602001015160200151151514155b611eac578160c00151848281518110611e8c57611e8c612afe565b6020026020010151604001818151611ea49190612b2a565b905250611ebe565b80611eb681612b3d565b915050611e01565b50505b80611ecb81612b3d565b915050611dc5565b60005b81518110156106f4576000828281518110611ef357611ef3612afe565b602002602001015190508060600151600003611f0f5750611f87565b600254815160208301516060840151604051632f5ed88d60e11b81526001600160a01b0390941693635ebdb11a93611f539390929091600191600091600401612e23565b600060405180830381600087803b158015611f6d57600080fd5b505af1158015611f81573d6000803e3d6000fd5b50505050505b80611f9181612b3d565b915050611ed6565b60005b8251811015611feb576000838281518110611fb957611fb9612afe565b60200260200101519050806020015115611fd85760a081015160c08201525b5080611fe381612b3d565b915050611f9c565b50610b2b8383836120a3565b600061200b670f43fc2c04ee000085612d7e565b905060005b835181101561209057600084828151811061202d5761202d612afe565b602002602001015190508060200151612046575061207e565b6000878260a00151856120599190612d7e565b6120639190612d95565b9050612073818360a001516123e7565b60a090920191909152505b8061208881612b3d565b915050612010565b5061209c8484846120a3565b5050505050565b60005b825181101561068f5760008382815181106120c3576120c3612afe565b602002602001015190508060200151156120dd57506123d5565b6121216040518060a0016040528060006001600160a01b0316815260200160006001600160a01b031681526020016000815260200160008152602001606081525090565b60005b845181101561219a5782600001516001600160a01b031685828151811061214d5761214d612afe565b6020026020010151602001516001600160a01b0316036121885784818151811061217957612179612afe565b6020026020010151915061219a565b8061219281612b3d565b915050612124565b506040810151156123b6576121b78260a0015182604001516123e7565b60e083018190526060820180516121cf908390612b2a565b90525060e08201516040820180516121e8908390612d6b565b905250600354825160e0840151604051637d3b6e7960e11b81526001600160a01b03928316600482015260248101919091526000928992670de0b6b3a76400009291169063fa76dcf290604401602060405180830381865afa158015612252573d6000803e3d6000fd5b505050506040513d601f19601f820116820180604052508101906122769190612d52565b6122809190612d7e565b61228a9190612d95565b905060005b86518110156123b35760008782815181106122ac576122ac612afe565b6020026020010151905080602001516122c557506123a1565b670de0b6b3a7640000838260a001516122de9190612d7e565b6122e89190612d95565b60e0820181905260c082018051612300908390612d6b565b90525060005b84608001515181101561239e5781600001516001600160a01b03168560800151828151811061233757612337612afe565b6020026020010151600001516001600160a01b03160361238c578160e001518560800151828151811061236c5761236c612afe565b60200260200101516020018181516123849190612b2a565b90525061239e565b8061239681612b3d565b915050612306565b50505b806123ab81612b3d565b91505061228f565b50505b8160e001518260a001516123ca9190612d6b565b60c090920191909152505b806123df81612b3d565b9150506120a6565b60008183106123f657816123f8565b825b9392505050565b6040518060e001604052806000151581526020016000815260200160006001600160a01b03168152602001606081526020016000815260200160008152602001600081525090565b634e487b7160e01b600052604160045260246000fd5b60405160a081016001600160401b038111828210171561247f5761247f612447565b60405290565b604080519081016001600160401b038111828210171561247f5761247f612447565b60405161010081016001600160401b038111828210171561247f5761247f612447565b604051601f8201601f191681016001600160401b03811182821017156124f2576124f2612447565b604052919050565b60006001600160401b0382111561251357612513612447565b5060051b60200190565b6001600160a01b038116811461085857600080fd5b6000602080838503121561254557600080fd5b82356001600160401b0381111561255b57600080fd5b8301601f8101851361256c57600080fd5b803561257f61257a826124fa565b6124ca565b81815260059190911b8201830190838101908783111561259e57600080fd5b928401925b828410156125c55783356125b68161251d565b825292840192908401906125a3565b979650505050505050565b6000602082840312156125e257600080fd5b81356123f88161251d565b60008060008060008060c0878903121561260657600080fd5b86356126118161251d565b955060208701356126218161251d565b945060408701356126318161251d565b935060608701356126418161251d565b925060808701356126518161251d565b915060a08701356126618161251d565b809150509295509295509295565b600060208083528351808285015260005b8181101561269c57858101830151858201604001528201612680565b506000604082860101526040601f19601f8301168501019250505092915050565b600060208083850312156126d057600080fd5b82516001600160401b038111156126e657600080fd5b8301601f810185136126f757600080fd5b805161270561257a826124fa565b81815260059190911b8201830190838101908783111561272457600080fd5b928401925b828410156125c557835161273c8161251d565b82529284019290840190612729565b8051801515811461275b57600080fd5b919050565b6000806000806080858703121561277657600080fd5b61277f8561274b565b60208601516040870151606090970151919890975090945092505050565b600081518084526020808501945080840160005b838110156127d65781516001600160a01b0316875295820195908201906001016127b1565b509495945050505050565b6020815260006123f8602083018461279d565b60006020828403121561280657600080fd5b81516001600160401b038082111561281d57600080fd5b818401915084601f83011261283157600080fd5b815161283f61257a826124fa565b8082825260208201915060208360051b86010192508783111561286157600080fd5b602085015b838110156129925780518581111561287d57600080fd5b860160a0818b03601f1901121561289357600080fd5b61289b61245d565b60208201516128a98161251d565b815260408201516128b98161251d565b6020820152606082810151604083015260808301519082015260a0820151878111156128e457600080fd5b8083019250508a603f8301126128f957600080fd5b602082015161290a61257a826124fa565b81815260069190911b83016040019060208101908d83111561292b57600080fd5b6040850194505b8285101561297c576040858f03121561294a57600080fd5b612952612485565b855161295d8161251d565b8152602086810151818301529083526040909501949190910190612932565b6080840152505084525060209283019201612866565b50979650505050505050565b600081518084526020808501945080840160005b838110156127d657815180516001600160a01b0316885283015183880152604090960195908201906001016129b2565b60006020808301818452808551808352604092508286019150828160051b87010184880160005b83811015612a7557888303603f19018552815180516001600160a01b03908116855288820151168885015286810151878501526060808201519085015260809081015160a091850182905290612a618186018361299e565b968901969450505090860190600101612a09565b509098975050505050505050565b60006040808352612a968184018661279d565b83810360208581019190915285518083528682019282019060005b81811015612a7557845180516001600160a01b03168452848101511515858501528601518684015293830193606090920191600101612ab1565b6020815260006123f8602083018461299e565b634e487b7160e01b600052603260045260246000fd5b634e487b7160e01b600052601160045260246000fd5b80820180821115610c1357610c13612b14565b600060018201612b4f57612b4f612b14565b5060010190565b600060208284031215612b6857600080fd5b6123f88261274b565b600060208284031215612b8357600080fd5b81516123f88161251d565b634e487b7160e01b600052602160045260246000fd5b60038110612bb457612bb4612b8e565b9052565b6001600160a01b03868116825285166020820152831515604082015260a08101612be56060830185612ba4565b8260808301529695505050505050565b608081526000612c08608083018761299e565b8281036020840152612c1a818761299e565b905084604084015282810360608401526125c5818561299e565b6000806000806080808688031215612c4b57600080fd5b85516001600160401b03811115612c6157600080fd5b8601601f81018813612c7257600080fd5b80516020612c8261257a836124fa565b82815260089290921b8301810191818101908b841115612ca157600080fd5b938201935b83851015612d3057610100858d031215612cc05760008081fd5b612cc86124a7565b8551612cd38161251d565b8152612ce086850161274b565b818501526040868101519082015260608087015190820152868601518782015260a0808701519082015260c0808701519082015260e0808701519082015282526101009094019390820190612ca6565b918a015160408b01516060909b0151929c909b50919850909650505050505050565b600060208284031215612d6457600080fd5b5051919050565b81810381811115610c1357610c13612b14565b8082028115828204841417610c1357610c13612b14565b600082612db257634e487b7160e01b600052601260045260246000fd5b500490565b604081526000612dca604083018561279d565b905060018060a01b03831660208301529392505050565b606081526000612df4606083018661279d565b6001600160a01b0385166020840152905060058310612e1557612e15612b8e565b826040830152949350505050565b6001600160a01b0386168152841515602082015260a08101612e486040830186612ba4565b612be56060830185612ba456fea2646970667358221220100249ca07f0cd561b00a7c84acf70bd89007e69e24e24ea3c81e8681a0aaf2c64736f6c63430008140033",
  "devdoc": {
    "errors": {
      "OwnableInvalidOwner(address)": [
        {
          "details": "The owner is not a valid owner account. (eg. `address(0)`)"
        }
      ],
      "OwnableUnauthorizedAccount(address)": [
        {
          "details": "The caller account is not authorized to perform an operation."
        }
      ]
    },
    "kind": "dev",
    "methods": {
      "owner()": {
        "details": "Returns the address of the current owner."
      },
      "renounceOwnership()": {
        "details": "Leaves the contract without owner. It will not be possible to call `onlyOwner` functions. Can only be called by the current owner. NOTE: Renouncing ownership will leave the contract without an owner, thereby disabling any functionality that is only available to the owner."
      },
      "transferOwnership(address)": {
        "details": "Transfers ownership of the contract to a new account (`newOwner`). Can only be called by the current owner."
      }
    },
    "version": 1
  },
  "userdoc": {
    "kind": "user",
    "methods": {},
    "version": 1
  },
  "storageLayout": {
    "storage": [
      {
        "astId": 8,
        "contract": "contracts/LiquidationOperations.sol:LiquidationOperations",
        "label": "_owner",
        "offset": 0,
        "slot": "0",
        "type": "t_address"
      },
      {
        "astId": 8774,
        "contract": "contracts/LiquidationOperations.sol:LiquidationOperations",
        "label": "troveManager",
        "offset": 0,
        "slot": "1",
        "type": "t_contract(ITroveManager)8742"
      },
      {
        "astId": 8777,
        "contract": "contracts/LiquidationOperations.sol:LiquidationOperations",
        "label": "storagePool",
        "offset": 0,
        "slot": "2",
        "type": "t_contract(IStoragePool)7863"
      },
      {
        "astId": 8780,
        "contract": "contracts/LiquidationOperations.sol:LiquidationOperations",
        "label": "priceFeed",
        "offset": 0,
        "slot": "3",
        "type": "t_contract(IPriceFeed)7272"
      },
      {
        "astId": 8783,
        "contract": "contracts/LiquidationOperations.sol:LiquidationOperations",
        "label": "debtTokenManager",
        "offset": 0,
        "slot": "4",
        "type": "t_contract(IDebtTokenManager)7138"
      },
      {
        "astId": 8786,
        "contract": "contracts/LiquidationOperations.sol:LiquidationOperations",
        "label": "collTokenManager",
        "offset": 0,
        "slot": "5",
        "type": "t_contract(ICollTokenManager)6894"
      },
      {
        "astId": 8789,
        "contract": "contracts/LiquidationOperations.sol:LiquidationOperations",
        "label": "stabilityPoolManager",
        "offset": 0,
        "slot": "6",
        "type": "t_contract(IStabilityPoolManager)7735"
      }
    ],
    "types": {
      "t_address": {
        "encoding": "inplace",
        "label": "address",
        "numberOfBytes": "20"
      },
      "t_contract(ICollTokenManager)6894": {
        "encoding": "inplace",
        "label": "contract ICollTokenManager",
        "numberOfBytes": "20"
      },
      "t_contract(IDebtTokenManager)7138": {
        "encoding": "inplace",
        "label": "contract IDebtTokenManager",
        "numberOfBytes": "20"
      },
      "t_contract(IPriceFeed)7272": {
        "encoding": "inplace",
        "label": "contract IPriceFeed",
        "numberOfBytes": "20"
      },
      "t_contract(IStabilityPoolManager)7735": {
        "encoding": "inplace",
        "label": "contract IStabilityPoolManager",
        "numberOfBytes": "20"
      },
      "t_contract(IStoragePool)7863": {
        "encoding": "inplace",
        "label": "contract IStoragePool",
        "numberOfBytes": "20"
      },
      "t_contract(ITroveManager)8742": {
        "encoding": "inplace",
        "label": "contract ITroveManager",
        "numberOfBytes": "20"
      }
    }
  }
}