{
  "address": "0x8A791620dd6260079BF849Dc5567aDC3F2FdC318",
  "abi": [
    {
      "inputs": [],
      "name": "FeeExceedMaxPercentage",
      "type": "error"
    },
    {
      "anonymous": false,
      "inputs": [
        {
          "indexed": false,
          "internalType": "address",
          "name": "_token",
          "type": "address"
        },
        {
          "indexed": false,
          "internalType": "uint256",
          "name": "_lastGoodPrice",
          "type": "uint256"
        }
      ],
      "name": "LastGoodPriceUpdated",
      "type": "event"
    },
    {
      "anonymous": false,
      "inputs": [
        {
          "indexed": false,
          "internalType": "address",
          "name": "_token",
          "type": "address"
        },
        {
          "indexed": false,
          "internalType": "enum IPriceFeed.Status",
          "name": "newStatus",
          "type": "uint8"
        }
      ],
      "name": "PriceFeedStatusChanged",
      "type": "event"
    },
    {
      "anonymous": false,
      "inputs": [
        {
          "indexed": false,
          "internalType": "address",
          "name": "_token",
          "type": "address"
        }
      ],
      "name": "TokenPriceChanged",
      "type": "event"
    },
    {
      "inputs": [
        {
          "internalType": "address",
          "name": "_token",
          "type": "address"
        },
        {
          "internalType": "uint256",
          "name": "_usdValue",
          "type": "uint256"
        }
      ],
      "name": "getAmountFromUSDValue",
      "outputs": [
        {
          "internalType": "uint256",
          "name": "amount",
          "type": "uint256"
        }
      ],
      "stateMutability": "view",
      "type": "function"
    },
    {
      "inputs": [
        {
          "internalType": "address",
          "name": "_tokenAddress",
          "type": "address"
        }
      ],
      "name": "getPrice",
      "outputs": [
        {
          "internalType": "uint256",
          "name": "price",
          "type": "uint256"
        }
      ],
      "stateMutability": "view",
      "type": "function"
    },
    {
      "inputs": [
        {
          "internalType": "address",
          "name": "_token",
          "type": "address"
        },
        {
          "internalType": "uint256",
          "name": "_amount",
          "type": "uint256"
        }
      ],
      "name": "getUSDValue",
      "outputs": [
        {
          "internalType": "uint256",
          "name": "usdValue",
          "type": "uint256"
        }
      ],
      "stateMutability": "view",
      "type": "function"
    },
    {
      "inputs": [
        {
          "internalType": "address",
          "name": "tokenAddress",
          "type": "address"
        },
        {
          "internalType": "uint256",
          "name": "price",
          "type": "uint256"
        }
      ],
      "name": "setTokenPrice",
      "outputs": [
        {
          "internalType": "bool",
          "name": "",
          "type": "bool"
        }
      ],
      "stateMutability": "nonpayable",
      "type": "function"
    }
  ],
  "transactionHash": "0xba5ec3eadb5605164e43b70415795ba0d39f24979f177d2225c5bfc216329006",
  "args": [],
  "numDeployments": 1,
  "solcInputHash": "6cd4b693370de6782d041c6552000a4d",
  "bytecode": "0x608060405234801561001057600080fd5b50610454806100206000396000f3fe608060405234801561001057600080fd5b506004361061004c5760003560e01c806341976e0914610051578063431f63c914610077578063a05626441461009a578063fa76dcf2146100ad575b600080fd5b61006461005f36600461026d565b6100c0565b6040519081526020015b60405180910390f35b61008a61008536600461028f565b6100f5565b604051901515815260200161006e565b6100646100a836600461028f565b610119565b6100646100bb36600461028f565b6101bf565b6001600160a01b03811660009081526020819052604081205480156100e55792915050565b50670de0b6b3a764000092915050565b6001600160a01b038216600090815260208190526040902081905560015b92915050565b6001600160a01b03821660008181526020818152604080832054815163313ce56760e01b81529151939490938593919263313ce5679260048083019391928290030181865afa158015610170573d6000803e3d6000fd5b505050506040513d601f19601f8201168201806040525081019061019491906102b9565b9050816101a282600a6103d6565b6101ac90866103e5565b6101b691906103fc565b95945050505050565b6001600160a01b03821660008181526020818152604080832054815163313ce56760e01b81529151939490938593919263313ce5679260048083019391928290030181865afa158015610216573d6000803e3d6000fd5b505050506040513d601f19601f8201168201806040525081019061023a91906102b9565b905061024781600a6103d6565b6101ac85846103e5565b80356001600160a01b038116811461026857600080fd5b919050565b60006020828403121561027f57600080fd5b61028882610251565b9392505050565b600080604083850312156102a257600080fd5b6102ab83610251565b946020939093013593505050565b6000602082840312156102cb57600080fd5b815160ff8116811461028857600080fd5b634e487b7160e01b600052601160045260246000fd5b600181815b8085111561032d578160001904821115610313576103136102dc565b8085161561032057918102915b93841c93908002906102f7565b509250929050565b60008261034457506001610113565b8161035157506000610113565b816001811461036757600281146103715761038d565b6001915050610113565b60ff841115610382576103826102dc565b50506001821b610113565b5060208310610133831016604e8410600b84101617156103b0575081810a610113565b6103ba83836102f2565b80600019048211156103ce576103ce6102dc565b029392505050565b600061028860ff841683610335565b8082028115828204841417610113576101136102dc565b60008261041957634e487b7160e01b600052601260045260246000fd5b50049056fea26469706673582212202e4fab191072c0fc0e62f2aa7d07b06c8c3a3812d47135fab6f07919d7e6841664736f6c63430008140033",
  "devdoc": {
    "kind": "dev",
    "methods": {},
    "version": 1
  },
  "userdoc": {
    "kind": "user",
    "methods": {},
    "version": 1
  },
  "storageLayout": {
    "storage": [
      {
        "astId": 14155,
        "contract": "contracts/Mock/MockPriceFeed.sol:MockPriceFeed",
        "label": "tokenPrices",
        "offset": 0,
        "slot": "0",
        "type": "t_mapping(t_address,t_uint256)"
      }
    ],
    "types": {
      "t_address": {
        "encoding": "inplace",
        "label": "address",
        "numberOfBytes": "20"
      },
      "t_mapping(t_address,t_uint256)": {
        "encoding": "mapping",
        "key": "t_address",
        "label": "mapping(address => uint256)",
        "numberOfBytes": "32",
        "value": "t_uint256"
      },
      "t_uint256": {
        "encoding": "inplace",
        "label": "uint256",
        "numberOfBytes": "32"
      }
    }
  }
}