{
  "address": "0x8A791620dd6260079BF849Dc5567aDC3F2FdC318",
  "abi": [
    {
      "inputs": [],
      "name": "FeeExceedMaxPercentage",
      "type": "error"
    },
    {
      "anonymous": false,
      "inputs": [
        {
          "indexed": false,
          "internalType": "address",
          "name": "_token",
          "type": "address"
        },
        {
          "indexed": false,
          "internalType": "uint256",
          "name": "_lastGoodPrice",
          "type": "uint256"
        }
      ],
      "name": "LastGoodPriceUpdated",
      "type": "event"
    },
    {
      "anonymous": false,
      "inputs": [
        {
          "indexed": false,
          "internalType": "address",
          "name": "_token",
          "type": "address"
        },
        {
          "indexed": false,
          "internalType": "enum IPriceFeed.Status",
          "name": "newStatus",
          "type": "uint8"
        }
      ],
      "name": "PriceFeedStatusChanged",
      "type": "event"
    },
    {
      "anonymous": false,
      "inputs": [
        {
          "indexed": false,
          "internalType": "address",
          "name": "_token",
          "type": "address"
        }
      ],
      "name": "TokenPriceChanged",
      "type": "event"
    },
    {
      "inputs": [
        {
          "internalType": "address",
          "name": "_token",
          "type": "address"
        },
        {
          "internalType": "uint256",
          "name": "_usdValue",
          "type": "uint256"
        }
      ],
      "name": "getAmountFromUSDValue",
      "outputs": [
        {
          "internalType": "uint256",
          "name": "amount",
          "type": "uint256"
        }
      ],
      "stateMutability": "view",
      "type": "function"
    },
    {
      "inputs": [
        {
          "internalType": "address",
          "name": "_tokenAddress",
          "type": "address"
        }
      ],
      "name": "getPrice",
      "outputs": [
        {
          "internalType": "uint256",
          "name": "price",
          "type": "uint256"
        }
      ],
      "stateMutability": "view",
      "type": "function"
    },
    {
      "inputs": [
        {
          "internalType": "address",
          "name": "_token",
          "type": "address"
        },
        {
          "internalType": "uint256",
          "name": "_amount",
          "type": "uint256"
        }
      ],
      "name": "getUSDValue",
      "outputs": [
        {
          "internalType": "uint256",
          "name": "usdValue",
          "type": "uint256"
        }
      ],
      "stateMutability": "view",
      "type": "function"
    },
    {
      "inputs": [
        {
          "internalType": "address",
          "name": "tokenAddress",
          "type": "address"
        },
        {
          "internalType": "uint256",
          "name": "price",
          "type": "uint256"
        }
      ],
      "name": "setTokenPrice",
      "outputs": [
        {
          "internalType": "bool",
          "name": "",
          "type": "bool"
        }
      ],
      "stateMutability": "nonpayable",
      "type": "function"
    }
  ],
  "transactionHash": "0xd482e8147b1b8054ebfc2ba41ce4847ae72fc8b8174e40dd98b8d889afa16f61",
  "args": [],
  "numDeployments": 1,
  "solcInputHash": "a1ba766827c404575f799519d1eb71c4",
  "bytecode": "0x6080604052670de0b6b3a764000060015534801561001c57600080fd5b5061044e8061002c6000396000f3fe608060405234801561001057600080fd5b506004361061004c5760003560e01c806341976e0914610051578063431f63c914610077578063a05626441461009a578063fa76dcf2146100ad575b600080fd5b61006461005f366004610267565b6100c0565b6040519081526020015b60405180910390f35b61008a610085366004610289565b6100ef565b604051901515815260200161006e565b6100646100a8366004610289565b610113565b6100646100bb366004610289565b6101b9565b6001600160a01b03811660009081526020819052604081205480156100e55792915050565b5050600154919050565b6001600160a01b038216600090815260208190526040902081905560015b92915050565b6001600160a01b03821660008181526020818152604080832054815163313ce56760e01b81529151939490938593919263313ce5679260048083019391928290030181865afa15801561016a573d6000803e3d6000fd5b505050506040513d601f19601f8201168201806040525081019061018e91906102b3565b90508161019c82600a6103d0565b6101a690866103df565b6101b091906103f6565b95945050505050565b6001600160a01b03821660008181526020818152604080832054815163313ce56760e01b81529151939490938593919263313ce5679260048083019391928290030181865afa158015610210573d6000803e3d6000fd5b505050506040513d601f19601f8201168201806040525081019061023491906102b3565b905061024181600a6103d0565b6101a685846103df565b80356001600160a01b038116811461026257600080fd5b919050565b60006020828403121561027957600080fd5b6102828261024b565b9392505050565b6000806040838503121561029c57600080fd5b6102a58361024b565b946020939093013593505050565b6000602082840312156102c557600080fd5b815160ff8116811461028257600080fd5b634e487b7160e01b600052601160045260246000fd5b600181815b8085111561032757816000190482111561030d5761030d6102d6565b8085161561031a57918102915b93841c93908002906102f1565b509250929050565b60008261033e5750600161010d565b8161034b5750600061010d565b8160018114610361576002811461036b57610387565b600191505061010d565b60ff84111561037c5761037c6102d6565b50506001821b61010d565b5060208310610133831016604e8410600b84101617156103aa575081810a61010d565b6103b483836102ec565b80600019048211156103c8576103c86102d6565b029392505050565b600061028260ff84168361032f565b808202811582820484141761010d5761010d6102d6565b60008261041357634e487b7160e01b600052601260045260246000fd5b50049056fea26469706673582212207cdd9eb0d13cce0915d4201ced4e643193c72977461149c0039da6fd2ef0f74e64736f6c63430008140033",
  "devdoc": {
    "kind": "dev",
    "methods": {},
    "version": 1
  },
  "userdoc": {
    "kind": "user",
    "methods": {},
    "version": 1
  },
  "storageLayout": {
    "storage": [
      {
        "astId": 11117,
        "contract": "contracts/Mock/MockPriceFeed.sol:MockPriceFeed",
        "label": "tokenPrices",
        "offset": 0,
        "slot": "0",
        "type": "t_mapping(t_address,t_uint256)"
      },
      {
        "astId": 11120,
        "contract": "contracts/Mock/MockPriceFeed.sol:MockPriceFeed",
        "label": "_price",
        "offset": 0,
        "slot": "1",
        "type": "t_uint256"
      }
    ],
    "types": {
      "t_address": {
        "encoding": "inplace",
        "label": "address",
        "numberOfBytes": "20"
      },
      "t_mapping(t_address,t_uint256)": {
        "encoding": "mapping",
        "key": "t_address",
        "label": "mapping(address => uint256)",
        "numberOfBytes": "32",
        "value": "t_uint256"
      },
      "t_uint256": {
        "encoding": "inplace",
        "label": "uint256",
        "numberOfBytes": "32"
      }
    }
  }
}