{
  "address": "0xDc64a140Aa3E981100a9becA4E685f962f0cF6C9",
  "abi": [
    {
      "inputs": [],
      "name": "FeeExceedMaxPercentage",
      "type": "error"
    },
    {
      "inputs": [],
      "name": "NotContract",
      "type": "error"
    },
    {
      "inputs": [],
      "name": "NotFromLiquidationOps",
      "type": "error"
    },
    {
      "inputs": [],
      "name": "NotFromReservePool",
      "type": "error"
    },
    {
      "inputs": [
        {
          "internalType": "address",
          "name": "owner",
          "type": "address"
        }
      ],
      "name": "OwnableInvalidOwner",
      "type": "error"
    },
    {
      "inputs": [
        {
          "internalType": "address",
          "name": "account",
          "type": "address"
        }
      ],
      "name": "OwnableUnauthorizedAccount",
      "type": "error"
    },
    {
      "inputs": [],
      "name": "PoolExist",
      "type": "error"
    },
    {
      "inputs": [],
      "name": "PoolNotExist",
      "type": "error"
    },
    {
      "inputs": [],
      "name": "Unauthorized",
      "type": "error"
    },
    {
      "inputs": [],
      "name": "ZeroAddress",
      "type": "error"
    },
    {
      "anonymous": false,
      "inputs": [
        {
          "indexed": true,
          "internalType": "address",
          "name": "previousOwner",
          "type": "address"
        },
        {
          "indexed": true,
          "internalType": "address",
          "name": "newOwner",
          "type": "address"
        }
      ],
      "name": "OwnershipTransferred",
      "type": "event"
    },
    {
      "anonymous": false,
      "inputs": [
        {
          "indexed": false,
          "internalType": "address",
          "name": "stabilityPoolAddress",
          "type": "address"
        }
      ],
      "name": "StabilityPoolAdded",
      "type": "event"
    },
    {
      "anonymous": false,
      "inputs": [
        {
          "indexed": false,
          "internalType": "address",
          "name": "liquidationOperationsAddress",
          "type": "address"
        },
        {
          "indexed": false,
          "internalType": "address",
          "name": "storgePoolAddress",
          "type": "address"
        },
        {
          "indexed": false,
          "internalType": "address",
          "name": "reservePoolAddress",
          "type": "address"
        },
        {
          "indexed": false,
          "internalType": "address",
          "name": "debtTokenManagerAddress",
          "type": "address"
        },
        {
          "indexed": false,
          "internalType": "address",
          "name": "priceFeedAddress",
          "type": "address"
        }
      ],
      "name": "StabilityPoolManagerInitiated",
      "type": "event"
    },
    {
      "inputs": [],
      "name": "NAME",
      "outputs": [
        {
          "internalType": "string",
          "name": "",
          "type": "string"
        }
      ],
      "stateMutability": "view",
      "type": "function"
    },
    {
      "inputs": [
        {
          "internalType": "contract IDebtToken",
          "name": "_debtToken",
          "type": "address"
        }
      ],
      "name": "addStabilityPool",
      "outputs": [],
      "stateMutability": "nonpayable",
      "type": "function"
    },
    {
      "inputs": [],
      "name": "debtTokenManagerAddress",
      "outputs": [
        {
          "internalType": "address",
          "name": "",
          "type": "address"
        }
      ],
      "stateMutability": "view",
      "type": "function"
    },
    {
      "inputs": [],
      "name": "getCompoundedDeposits",
      "outputs": [
        {
          "components": [
            {
              "internalType": "address",
              "name": "tokenAddress",
              "type": "address"
            },
            {
              "internalType": "uint256",
              "name": "amount",
              "type": "uint256"
            }
          ],
          "internalType": "struct IBase.TokenAmount[]",
          "name": "deposits",
          "type": "tuple[]"
        }
      ],
      "stateMutability": "view",
      "type": "function"
    },
    {
      "inputs": [
        {
          "internalType": "address",
          "name": "_depositor",
          "type": "address"
        },
        {
          "internalType": "address[]",
          "name": "collTokenAddresses",
          "type": "address[]"
        }
      ],
      "name": "getDepositorCollGains",
      "outputs": [
        {
          "components": [
            {
              "internalType": "address",
              "name": "tokenAddress",
              "type": "address"
            },
            {
              "internalType": "uint256",
              "name": "amount",
              "type": "uint256"
            }
          ],
          "internalType": "struct IBase.TokenAmount[]",
          "name": "collGains",
          "type": "tuple[]"
        }
      ],
      "stateMutability": "view",
      "type": "function"
    },
    {
      "inputs": [
        {
          "internalType": "address",
          "name": "_depositor",
          "type": "address"
        },
        {
          "internalType": "address",
          "name": "_debtTokenAddress",
          "type": "address"
        }
      ],
      "name": "getDepositorCompoundedDeposit",
      "outputs": [
        {
          "internalType": "uint256",
          "name": "amount",
          "type": "uint256"
        }
      ],
      "stateMutability": "view",
      "type": "function"
    },
    {
      "inputs": [
        {
          "internalType": "address",
          "name": "_depositor",
          "type": "address"
        }
      ],
      "name": "getDepositorCompoundedDeposits",
      "outputs": [
        {
          "components": [
            {
              "internalType": "address",
              "name": "tokenAddress",
              "type": "address"
            },
            {
              "internalType": "uint256",
              "name": "amount",
              "type": "uint256"
            }
          ],
          "internalType": "struct IBase.TokenAmount[]",
          "name": "deposits",
          "type": "tuple[]"
        }
      ],
      "stateMutability": "view",
      "type": "function"
    },
    {
      "inputs": [
        {
          "internalType": "address",
          "name": "_depositor",
          "type": "address"
        },
        {
          "internalType": "address",
          "name": "_debtTokenAddress",
          "type": "address"
        }
      ],
      "name": "getDepositorDeposit",
      "outputs": [
        {
          "internalType": "uint256",
          "name": "amount",
          "type": "uint256"
        }
      ],
      "stateMutability": "view",
      "type": "function"
    },
    {
      "inputs": [
        {
          "internalType": "address",
          "name": "_depositor",
          "type": "address"
        }
      ],
      "name": "getDepositorDeposits",
      "outputs": [
        {
          "components": [
            {
              "internalType": "address",
              "name": "tokenAddress",
              "type": "address"
            },
            {
              "internalType": "uint256",
              "name": "amount",
              "type": "uint256"
            }
          ],
          "internalType": "struct IBase.TokenAmount[]",
          "name": "deposits",
          "type": "tuple[]"
        }
      ],
      "stateMutability": "view",
      "type": "function"
    },
    {
      "inputs": [
        {
          "internalType": "address[]",
          "name": "collTokenAddresses",
          "type": "address[]"
        }
      ],
      "name": "getRemainingStability",
      "outputs": [
        {
          "components": [
            {
              "internalType": "contract IStabilityPool",
              "name": "stabilityPool",
              "type": "address"
            },
            {
              "internalType": "address",
              "name": "tokenAddress",
              "type": "address"
            },
            {
              "internalType": "uint256",
              "name": "remaining",
              "type": "uint256"
            },
            {
              "internalType": "uint256",
              "name": "debtToOffset",
              "type": "uint256"
            },
            {
              "components": [
                {
                  "internalType": "address",
                  "name": "tokenAddress",
                  "type": "address"
                },
                {
                  "internalType": "uint256",
                  "name": "amount",
                  "type": "uint256"
                }
              ],
              "internalType": "struct IBase.TokenAmount[]",
              "name": "collGained",
              "type": "tuple[]"
            }
          ],
          "internalType": "struct IBBase.RemainingStability[]",
          "name": "",
          "type": "tuple[]"
        }
      ],
      "stateMutability": "view",
      "type": "function"
    },
    {
      "inputs": [
        {
          "internalType": "contract IDebtToken",
          "name": "_debtToken",
          "type": "address"
        }
      ],
      "name": "getStabilityPool",
      "outputs": [
        {
          "internalType": "contract IStabilityPool",
          "name": "",
          "type": "address"
        }
      ],
      "stateMutability": "view",
      "type": "function"
    },
    {
      "inputs": [],
      "name": "getStabilityPools",
      "outputs": [
        {
          "internalType": "contract IStabilityPool[]",
          "name": "",
          "type": "address[]"
        }
      ],
      "stateMutability": "view",
      "type": "function"
    },
    {
      "inputs": [
        {
          "internalType": "address",
          "name": "_debtTokenAddress",
          "type": "address"
        }
      ],
      "name": "getTotalDeposit",
      "outputs": [
        {
          "internalType": "uint256",
          "name": "amount",
          "type": "uint256"
        }
      ],
      "stateMutability": "view",
      "type": "function"
    },
    {
      "inputs": [],
      "name": "getTotalDeposits",
      "outputs": [
        {
          "components": [
            {
              "internalType": "address",
              "name": "tokenAddress",
              "type": "address"
            },
            {
              "internalType": "uint256",
              "name": "amount",
              "type": "uint256"
            }
          ],
          "internalType": "struct IBase.TokenAmount[]",
          "name": "deposits",
          "type": "tuple[]"
        }
      ],
      "stateMutability": "view",
      "type": "function"
    },
    {
      "inputs": [],
      "name": "liquidationOperationsAddress",
      "outputs": [
        {
          "internalType": "address",
          "name": "",
          "type": "address"
        }
      ],
      "stateMutability": "view",
      "type": "function"
    },
    {
      "inputs": [
        {
          "components": [
            {
              "internalType": "contract IStabilityPool",
              "name": "stabilityPool",
              "type": "address"
            },
            {
              "internalType": "address",
              "name": "tokenAddress",
              "type": "address"
            },
            {
              "internalType": "uint256",
              "name": "remaining",
              "type": "uint256"
            },
            {
              "internalType": "uint256",
              "name": "debtToOffset",
              "type": "uint256"
            },
            {
              "components": [
                {
                  "internalType": "address",
                  "name": "tokenAddress",
                  "type": "address"
                },
                {
                  "internalType": "uint256",
                  "name": "amount",
                  "type": "uint256"
                }
              ],
              "internalType": "struct IBase.TokenAmount[]",
              "name": "collGained",
              "type": "tuple[]"
            }
          ],
          "internalType": "struct IBBase.RemainingStability[]",
          "name": "_toOffset",
          "type": "tuple[]"
        }
      ],
      "name": "offset",
      "outputs": [],
      "stateMutability": "nonpayable",
      "type": "function"
    },
    {
      "inputs": [],
      "name": "owner",
      "outputs": [
        {
          "internalType": "address",
          "name": "",
          "type": "address"
        }
      ],
      "stateMutability": "view",
      "type": "function"
    },
    {
      "inputs": [],
      "name": "priceFeed",
      "outputs": [
        {
          "internalType": "contract IPriceFeed",
          "name": "",
          "type": "address"
        }
      ],
      "stateMutability": "view",
      "type": "function"
    },
    {
      "inputs": [
        {
          "components": [
            {
              "internalType": "address",
              "name": "tokenAddress",
              "type": "address"
            },
            {
              "internalType": "uint256",
              "name": "amount",
              "type": "uint256"
            }
          ],
          "internalType": "struct IBase.TokenAmount[]",
          "name": "_debts",
          "type": "tuple[]"
        }
      ],
      "name": "provideStability",
      "outputs": [],
      "stateMutability": "nonpayable",
      "type": "function"
    },
    {
      "inputs": [],
      "name": "renounceOwnership",
      "outputs": [],
      "stateMutability": "nonpayable",
      "type": "function"
    },
    {
      "inputs": [],
      "name": "reservePool",
      "outputs": [
        {
          "internalType": "contract IReservePool",
          "name": "",
          "type": "address"
        }
      ],
      "stateMutability": "view",
      "type": "function"
    },
    {
      "inputs": [
        {
          "internalType": "address",
          "name": "_liquidationOperationsAddress",
          "type": "address"
        },
        {
          "internalType": "address",
          "name": "_priceFeedAddress",
          "type": "address"
        },
        {
          "internalType": "address",
          "name": "_storagePoolAddress",
          "type": "address"
        },
        {
          "internalType": "address",
          "name": "_reservePoolAddress",
          "type": "address"
        },
        {
          "internalType": "address",
          "name": "_debtTokenManagerAddress",
          "type": "address"
        }
      ],
      "name": "setAddresses",
      "outputs": [],
      "stateMutability": "nonpayable",
      "type": "function"
    },
    {
      "inputs": [
        {
          "internalType": "contract IDebtToken",
          "name": "",
          "type": "address"
        }
      ],
      "name": "stabilityPools",
      "outputs": [
        {
          "internalType": "contract IStabilityPool",
          "name": "",
          "type": "address"
        }
      ],
      "stateMutability": "view",
      "type": "function"
    },
    {
      "inputs": [
        {
          "internalType": "uint256",
          "name": "",
          "type": "uint256"
        }
      ],
      "name": "stabilityPoolsArray",
      "outputs": [
        {
          "internalType": "contract IStabilityPool",
          "name": "",
          "type": "address"
        }
      ],
      "stateMutability": "view",
      "type": "function"
    },
    {
      "inputs": [],
      "name": "storagePool",
      "outputs": [
        {
          "internalType": "contract IStoragePool",
          "name": "",
          "type": "address"
        }
      ],
      "stateMutability": "view",
      "type": "function"
    },
    {
      "inputs": [
        {
          "internalType": "address",
          "name": "_sender",
          "type": "address"
        },
        {
          "internalType": "address",
          "name": "_poolAddress",
          "type": "address"
        },
        {
          "internalType": "uint256",
          "name": "_amount",
          "type": "uint256"
        },
        {
          "internalType": "contract IDebtToken",
          "name": "_debtToken",
          "type": "address"
        }
      ],
      "name": "testDebtToken_sendToPool",
      "outputs": [],
      "stateMutability": "nonpayable",
      "type": "function"
    },
    {
      "inputs": [
        {
          "internalType": "address",
          "name": "newOwner",
          "type": "address"
        }
      ],
      "name": "transferOwnership",
      "outputs": [],
      "stateMutability": "nonpayable",
      "type": "function"
    },
    {
      "inputs": [],
      "name": "withdrawGains",
      "outputs": [],
      "stateMutability": "nonpayable",
      "type": "function"
    },
    {
      "inputs": [
        {
          "components": [
            {
              "internalType": "address",
              "name": "tokenAddress",
              "type": "address"
            },
            {
              "internalType": "uint256",
              "name": "amount",
              "type": "uint256"
            }
          ],
          "internalType": "struct IBase.TokenAmount[]",
          "name": "_debts",
          "type": "tuple[]"
        }
      ],
      "name": "withdrawStability",
      "outputs": [],
      "stateMutability": "nonpayable",
      "type": "function"
    }
  ],
  "transactionHash": "0x273f6131ccd3949f4e7ea4e1835f1751cdbb6bf31e0c8970e9eea63addeb8c6d",
  "args": [],
  "numDeployments": 1,
  "solcInputHash": "6cd4b693370de6782d041c6552000a4d",
  "bytecode": "0x60806040523480156200001157600080fd5b5033806200003957604051631e4fbdf760e01b81526000600482015260240160405180910390fd5b62000044816200004b565b506200009b565b600080546001600160a01b038381166001600160a01b0319831681178455604051919092169283917f8be0079c531659141344cd1fd0a4f28419497f9722a3daafe3b4186f6b6457e09190a35050565b614d0080620000ab6000396000f3fe60806040523480156200001157600080fd5b5060043610620001f55760003560e01c8063715018a61162000119578063a3f4df7e11620000af578063de97094b116200007a578063de97094b1462000483578063e6945c85146200049a578063e853753414620004b1578063f2fde38b14620004c557600080fd5b8063a3f4df7e14620003fe578063c7f3aee61462000441578063c9c503341462000458578063ddbeb714146200046f57600080fd5b80638da5cb5b11620000f05780638da5cb5b14620003aa5780638eaf786d14620003bc5780639e3c475314620003d35780639e41895814620003ea57600080fd5b8063715018a61462000366578063741bef1a1462000370578063857184d1146200038457600080fd5b806349c69562116200018f5780635dd68acd11620001665780635dd68acd146200030a578063615604a51462000321578063653975f714620003385780636ca94bcb146200034f57600080fd5b806349c6956214620002d25780634c57d35f14620002e95780634f2c6a3d14620002f357600080fd5b8063168a482211620001d0578063168a4822146200027d57806320ee3df814620002965780634374269214620002ad578063483f021914620002c657600080fd5b80630266f04414620001fa578063122540cb146200022b57806312fd57251462000257575b600080fd5b6003546200020e906001600160a01b031681565b6040516001600160a01b0390911681526020015b60405180910390f35b6200020e6200023c36600462002631565b6006602052600090815260409020546001600160a01b031681565b6200026e620002683660046200278e565b620004dc565b604051620002229190620027c6565b6200028762000820565b604051620002229190620028ff565b62000287620002a736600462002631565b62000a04565b620002b762000bef565b60405162000222919062002914565b620002d062000c53565b005b62000287620002e336600462002631565b62000d02565b6200028762000ee7565b620002d06200030436600462002963565b620010ca565b620002d06200031b366004620029bd565b6200113c565b620002876200033236600462002a39565b62001237565b620002d06200034936600462002b22565b6200148a565b6200020e6200036036600462002b5a565b6200164b565b620002d062001676565b6004546200020e906001600160a01b031681565b6200039b6200039536600462002631565b6200168e565b60405190815260200162000222565b6000546001600160a01b03166200020e565b6200039b620003cd36600462002b74565b62001726565b620002d0620003e436600462002bb2565b620017ca565b6005546200020e906001600160a01b031681565b620004326040518060400160405280601481526020017329ba30b134b634ba3ca837b7b626b0b730b3b2b960611b81525081565b60405162000222919062002cea565b6200020e6200045236600462002631565b620020c6565b6200039b6200046936600462002b74565b62002102565b6002546200020e906001600160a01b031681565b620002d06200049436600462002631565b6200215f565b620002d0620004ab36600462002b22565b620022ae565b6001546200020e906001600160a01b031681565b620002d0620004d636600462002631565b620023cd565b6007546060906000906001600160401b03811115620004ff57620004ff62002651565b6040519080825280602002602001820160405280156200057757816020015b620005636040518060a0016040528060006001600160a01b0316815260200160006001600160a01b031681526020016000815260200160008152602001606081525090565b8152602001906001900390816200051e5790505b50905060005b6007548110156200081957600084516001600160401b03811115620005a657620005a662002651565b604051908082528060200260200182016040528015620005ed57816020015b6040805180820190915260008082526020820152815260200190600190039081620005c55790505b50905060005b85518110156200066e5760405180604001604052808783815181106200061d576200061d62002d3a565b60200260200101516001600160a01b0316815260200160008152508282815181106200064d576200064d62002d3a565b60200260200101819052508080620006659062002d66565b915050620005f3565b506040518060a001604052806007848154811062000690576200069062002d3a565b600091825260209182902001546001600160a01b0316825260078054929091019185908110620006c457620006c462002d3a565b600091825260209182902001546040805163fb1b5c7b60e01b815290516001600160a01b039092169263fb1b5c7b926004808401938290030181865afa15801562000713573d6000803e3d6000fd5b505050506040513d601f19601f8201168201806040525081019062000739919062002d82565b6001600160a01b03168152602001600784815481106200075d576200075d62002d3a565b6000918252602091829020015460408051633008885760e21b815290516001600160a01b039092169263c022215c926004808401938290030181865afa158015620007ac573d6000803e3d6000fd5b505050506040513d601f19601f82011682018060405250810190620007d2919062002da2565b81526020016000815260200182815250838381518110620007f757620007f762002d3a565b6020026020010181905250508080620008109062002d66565b9150506200057d565b5092915050565b6007546060906001600160401b0381111562000840576200084062002651565b6040519080825280602002602001820160405280156200088757816020015b60408051808201909152600080825260208201528152602001906001900390816200085f5790505b50905060005b60075481101562000a0057604051806040016040528060078381548110620008b957620008b962002d3a565b600091825260209182902001546040805163fb1b5c7b60e01b815290516001600160a01b039092169263fb1b5c7b926004808401938290030181865afa15801562000908573d6000803e3d6000fd5b505050506040513d601f19601f820116820180604052508101906200092e919062002d82565b6001600160a01b031681526020016007838154811062000952576200095262002d3a565b6000918252602091829020015460408051633008885760e21b815290516001600160a01b039092169263c022215c926004808401938290030181865afa158015620009a1573d6000803e3d6000fd5b505050506040513d601f19601f82011682018060405250810190620009c7919062002da2565b815250828281518110620009df57620009df62002d3a565b60200260200101819052508080620009f79062002d66565b9150506200088d565b5090565b6007546060906001600160401b0381111562000a245762000a2462002651565b60405190808252806020026020018201604052801562000a6b57816020015b604080518082019091526000808252602082015281526020019060019003908162000a435790505b50905060005b60075481101562000be95760405180604001604052806007838154811062000a9d5762000a9d62002d3a565b600091825260209182902001546040805163fb1b5c7b60e01b815290516001600160a01b039092169263fb1b5c7b926004808401938290030181865afa15801562000aec573d6000803e3d6000fd5b505050506040513d601f19601f8201168201806040525081019062000b12919062002d82565b6001600160a01b031681526020016007838154811062000b365762000b3662002d3a565b600091825260209091200154604051639017cf7760e01b81526001600160a01b03878116600483015290911690639017cf7790602401602060405180830381865afa15801562000b8a573d6000803e3d6000fd5b505050506040513d601f19601f8201168201806040525081019062000bb0919062002da2565b81525082828151811062000bc85762000bc862002d3a565b6020026020010181905250808062000be09062002d66565b91505062000a71565b50919050565b6060600780548060200260200160405190810160405280929190818152602001828054801562000c4957602002820191906000526020600020905b81546001600160a01b0316815260019091019060200180831162000c2a575b5050505050905090565b3360005b60075481101562000cfe5760006007828154811062000c7a5762000c7a62002d3a565b600091825260209091200154604051630ca8c14b60e41b81526001600160a01b0385811660048301529091169150819063ca8c14b090602401600060405180830381600087803b15801562000cce57600080fd5b505af115801562000ce3573d6000803e3d6000fd5b5050505050808062000cf59062002d66565b91505062000c57565b5050565b6007546060906001600160401b0381111562000d225762000d2262002651565b60405190808252806020026020018201604052801562000d6957816020015b604080518082019091526000808252602082015281526020019060019003908162000d415790505b50905060005b60075481101562000be95760405180604001604052806007838154811062000d9b5762000d9b62002d3a565b600091825260209182902001546040805163fb1b5c7b60e01b815290516001600160a01b039092169263fb1b5c7b926004808401938290030181865afa15801562000dea573d6000803e3d6000fd5b505050506040513d601f19601f8201168201806040525081019062000e10919062002d82565b6001600160a01b031681526020016007838154811062000e345762000e3462002d3a565b600091825260209091200154604051636af8caff60e11b81526001600160a01b0387811660048301529091169063d5f195fe90602401602060405180830381865afa15801562000e88573d6000803e3d6000fd5b505050506040513d601f19601f8201168201806040525081019062000eae919062002da2565b81525082828151811062000ec65762000ec662002d3a565b6020026020010181905250808062000ede9062002d66565b91505062000d6f565b6007546060906001600160401b0381111562000f075762000f0762002651565b60405190808252806020026020018201604052801562000f4e57816020015b604080518082019091526000808252602082015281526020019060019003908162000f265790505b50905060005b60075481101562000a005760405180604001604052806007838154811062000f805762000f8062002d3a565b600091825260209182902001546040805163fb1b5c7b60e01b815290516001600160a01b039092169263fb1b5c7b926004808401938290030181865afa15801562000fcf573d6000803e3d6000fd5b505050506040513d601f19601f8201168201806040525081019062000ff5919062002d82565b6001600160a01b031681526020016007838154811062001019576200101962002d3a565b600091825260209091200154604051636af8caff60e11b81523360048201526001600160a01b039091169063d5f195fe90602401602060405180830381865afa1580156200106b573d6000803e3d6000fd5b505050506040513d601f19601f8201168201806040525081019062001091919062002da2565b815250828281518110620010a957620010a962002d3a565b60200260200101819052508080620010c19062002d66565b91505062000f54565b604051632ee65eeb60e21b81526001600160a01b03858116600483015284811660248301526044820184905282169063bb997bac90606401600060405180830381600087803b1580156200111d57600080fd5b505af115801562001132573d6000803e3d6000fd5b5050505050505050565b6200114662002415565b620011518562002444565b6200115c8462002444565b620011678362002444565b620011728262002444565b6200117d8162002444565b600180546001600160a01b038781166001600160a01b0319928316811790935560048054888316908416811790915560028054888416908516811790915560038054888516908616811790915560058054948816949095168417909455604080519586526020860191909152840192909252606083015260808201527fc35f9b3e8582043c5e3bb10771fdda30a4c91eb4b119d82a4e09bc5bced418929060a00160405180910390a16200123062001676565b5050505050565b606081516001600160401b0381111562001255576200125562002651565b6040519080825280602002602001820160405280156200129c57816020015b6040805180820190915260008082526020820152815260200190600190039081620012745790505b50905060005b8251811015620008195760005b6007548110156200146e57604051806040016040528060078381548110620012db57620012db62002d3a565b600091825260209182902001546040805163fb1b5c7b60e01b815290516001600160a01b039092169263fb1b5c7b926004808401938290030181865afa1580156200132a573d6000803e3d6000fd5b505050506040513d601f19601f8201168201806040525081019062001350919062002d82565b6001600160a01b031681526020016007838154811062001374576200137462002d3a565b9060005260206000200160009054906101000a90046001600160a01b03166001600160a01b0316636c10d23a88888781518110620013b657620013b662002d3a565b60200260200101516040518363ffffffff1660e01b8152600401620013f19291906001600160a01b0392831681529116602082015260400190565b602060405180830381865afa1580156200140f573d6000803e3d6000fd5b505050506040513d601f19601f8201168201806040525081019062001435919062002da2565b8152508383815181106200144d576200144d62002d3a565b60200260200101819052508080620014659062002d66565b915050620012af565b50806200147b8162002d66565b915050620012a2565b92915050565b3360005b825181101562001646576000838281518110620014af57620014af62002d3a565b602090810291909101810151516001600160a01b03808216600090815260069093526040909220549092501680620014fa5760405163357113b160e11b815260040160405180910390fd5b816001600160a01b031663bb997bac858388878151811062001520576200152062002d3a565b60209081029190910181015101516040516001600160e01b031960e086901b1681526001600160a01b0393841660048201529290911660248301526044820152606401600060405180830381600087803b1580156200157e57600080fd5b505af115801562001593573d6000803e3d6000fd5b50505050806001600160a01b0316633a24dea585878681518110620015bc57620015bc62002d3a565b6020026020010151602001516040518363ffffffff1660e01b8152600401620015fa9291906001600160a01b03929092168252602082015260400190565b600060405180830381600087803b1580156200161557600080fd5b505af11580156200162a573d6000803e3d6000fd5b50505050505080806200163d9062002d66565b9150506200148e565b505050565b600781815481106200165c57600080fd5b6000918252602090912001546001600160a01b0316905081565b6200168062002415565b6200168c600062002491565b565b6001600160a01b0380821660009081526006602052604081205490911680620016ba5750600092915050565b806001600160a01b031663c022215c6040518163ffffffff1660e01b8152600401602060405180830381865afa158015620016f9573d6000803e3d6000fd5b505050506040513d601f19601f820116820180604052508101906200171f919062002da2565b9392505050565b6001600160a01b03808216600090815260066020526040812054909116806200175457600091505062001484565b604051636af8caff60e11b81526001600160a01b03858116600483015282169063d5f195fe906024015b602060405180830381865afa1580156200179c573d6000803e3d6000fd5b505050506040513d601f19601f82011682018060405250810190620017c2919062002da2565b949350505050565b620017d4620024e1565b6002546001600160a01b031660005b82518110156200164657600083828151811062001804576200180462002d3a565b6020026020010151905060008160000151905081606001516000036200182c575050620020b1565b81600001516001600160a01b031663fb1b5c7b6040518163ffffffff1660e01b8152600401602060405180830381865afa1580156200186f573d6000803e3d6000fd5b505050506040513d601f19601f8201168201806040525081019062001895919062002d82565b6060830151604051632770a7eb60e21b81526001600160a01b0384811660048301526024820192909252911690639dc29fac90604401600060405180830381600087803b158015620018e657600080fd5b505af1158015620018fb573d6000803e3d6000fd5b505050506000600360009054906101000a90046001600160a01b03166001600160a01b03166361c773cf6040518163ffffffff1660e01b8152600401602060405180830381865afa15801562001955573d6000803e3d6000fd5b505050506040513d601f19601f820116820180604052508101906200197b919062002d82565b90506000600360009054906101000a90046001600160a01b03166001600160a01b03166305268cff6040518163ffffffff1660e01b8152600401602060405180830381865afa158015620019d3573d6000803e3d6000fd5b505050506040513d601f19601f82011682018060405250810190620019f9919062002d82565b6080850151519091508060005b86608001515181101562001b9057846001600160a01b03168760800151828151811062001a375762001a3762002d3a565b6020026020010151600001516001600160a01b03160362001a56578092505b836001600160a01b03168760800151828151811062001a795762001a7962002d3a565b6020026020010151600001516001600160a01b03160362001a98578091505b8660800151818151811062001ab15762001ab162002d3a565b6020026020010151602001516000031562001b7b57886001600160a01b031663b403b997878960800151848151811062001aef5762001aef62002d3a565b602002602001015160000151600160008c60800151878151811062001b185762001b1862002d3a565b6020026020010151602001516040518663ffffffff1660e01b815260040162001b4695949392919062002ddf565b600060405180830381600087803b15801562001b6157600080fd5b505af115801562001b76573d6000803e3d6000fd5b505050505b8062001b878162002d66565b91505062001a06565b50600062001ba287608001516200250d565b6004805460208a015160608b0151604051637d3b6e7960e11b81526001600160a01b03928316948101949094526024840152929350600092169063fa76dcf290604401602060405180830381865afa15801562001c03573d6000803e3d6000fd5b505050506040513d601f19601f8201168201806040525081019062001c29919062002da2565b90508181111562001fca5760035460009081906001600160a01b031663b7068dca8a62001c57878762002e1e565b6040516001600160e01b031960e085901b1681526001600160a01b039092166004830152602482015260440160408051808303816000875af115801562001ca2573d6000803e3d6000fd5b505050506040513d601f19601f8201168201806040525081019062001cc8919062002e34565b9092509050811562001e4a57896080015151851062001e125760008a6080015151600162001cf7919062002e59565b6001600160401b0381111562001d115762001d1162002651565b60405190808252806020026020018201604052801562001d5857816020015b604080518082019091526000808252602082015281526020019060019003908162001d305790505b50905060005b8b608001515181101562001dc3578b60800151818151811062001d855762001d8562002d3a565b602002602001015182828151811062001da25762001da262002d3a565b6020026020010181905250808062001dba9062002d66565b91505062001d5e565b506040518060400160405280896001600160a01b0316815260200184815250818c60800151518151811062001dfc5762001dfc62002d3a565b602090810291909101015260808b015262001e4a565b818a60800151868151811062001e2c5762001e2c62002d3a565b602002602001015160200181815162001e46919062002e59565b9052505b801562001fc757896080015151861062001f8f5760008a6080015151600162001e74919062002e59565b6001600160401b0381111562001e8e5762001e8e62002651565b60405190808252806020026020018201604052801562001ed557816020015b604080518082019091526000808252602082015281526020019060019003908162001ead5790505b50905060015b8b608001515181101562001f40578b60800151818151811062001f025762001f0262002d3a565b602002602001015182828151811062001f1f5762001f1f62002d3a565b6020026020010181905250808062001f379062002d66565b91505062001edb565b5060405180604001604052808a6001600160a01b0316815260200183815250818c60800151518151811062001f795762001f7962002d3a565b602090810291909101015260808b015262001fc7565b808a60800151878151811062001fa95762001fa962002d3a565b602002602001015160200181815162001fc3919062002e59565b9052505b50505b8751606089015160808a0151604051631f0dbe1960e11b81526001600160a01b0390931692633e1b7c32926200200592909160040162002e6f565b600060405180830381600087803b1580156200202057600080fd5b505af115801562002035573d6000803e3d6000fd5b50505050602088015160608901516040516304b86aad60e21b81526001600160a01b038d16926312e1aab4926200207492600091829160040162002e8a565b600060405180830381600087803b1580156200208f57600080fd5b505af1158015620020a4573d6000803e3d6000fd5b5050505050505050505050505b80620020bd8162002d66565b915050620017e3565b6001600160a01b0380821660009081526006602052604081205490911680620014845760405163357113b160e11b815260040160405180910390fd5b6001600160a01b03808216600090815260066020526040812054909116806200213057600091505062001484565b604051639017cf7760e01b81526001600160a01b038581166004830152821690639017cf77906024016200177e565b6005546001600160a01b031633146200218a576040516282b42960e81b815260040160405180910390fd5b6001600160a01b038181166000908152600660205260409020541615620021c4576040516318971cbf60e11b815260040160405180910390fd5b60003082604051620021d6906200260d565b6001600160a01b03928316815291166020820152604001604051809103906000f0801580156200220a573d6000803e3d6000fd5b506001600160a01b03838116600090815260066020908152604080832080549486166001600160a01b031995861681179091556007805460018101825594527fa66cc928b5edb82af9bd49922954155ab7b0942694bea4ce44661d9a8736c6889093018054909416831790935591519081529192507fd8fe0199857a68d6ba583570541120b3da8637aac4e2dffc4af328444216eb25910160405180910390a15050565b3360005b825181101562001646576000838281518110620022d357620022d362002d3a565b602090810291909101810151516001600160a01b038082166000908152600690935260409092205490925016806200231e5760405163357113b160e11b815260040160405180910390fd5b806001600160a01b031663a158e3d18587868151811062002343576200234362002d3a565b6020026020010151602001516040518363ffffffff1660e01b8152600401620023819291906001600160a01b03929092168252602082015260400190565b600060405180830381600087803b1580156200239c57600080fd5b505af1158015620023b1573d6000803e3d6000fd5b5050505050508080620023c49062002d66565b915050620022b2565b620023d762002415565b6001600160a01b0381166200240757604051631e4fbdf760e01b8152600060048201526024015b60405180910390fd5b620024128162002491565b50565b6000546001600160a01b031633146200168c5760405163118cdaa760e01b8152336004820152602401620023fe565b6001600160a01b0381166200246c5760405163d92e233d60e01b815260040160405180910390fd5b803b600081900362000cfe57604051636f7c43f160e01b815260040160405180910390fd5b600080546001600160a01b038381166001600160a01b0319831681178455604051919092169283917f8be0079c531659141344cd1fd0a4f28419497f9722a3daafe3b4186f6b6457e09190a35050565b6001546001600160a01b031633146200168c5760405163328a332b60e11b815260040160405180910390fd5b6000805b825181101562000be95760045483516001600160a01b039091169063fa76dcf29085908490811062002547576200254762002d3a565b60200260200101516000015185848151811062002568576200256862002d3a565b6020026020010151602001516040518363ffffffff1660e01b8152600401620025a69291906001600160a01b03929092168252602082015260400190565b602060405180830381865afa158015620025c4573d6000803e3d6000fd5b505050506040513d601f19601f82011682018060405250810190620025ea919062002da2565b620025f6908362002e59565b915080620026048162002d66565b91505062002511565b611e0a8062002ec183390190565b6001600160a01b03811681146200241257600080fd5b6000602082840312156200264457600080fd5b81356200171f816200261b565b634e487b7160e01b600052604160045260246000fd5b604080519081016001600160401b03811182821017156200268c576200268c62002651565b60405290565b60405160a081016001600160401b03811182821017156200268c576200268c62002651565b604051601f8201601f191681016001600160401b0381118282101715620026e257620026e262002651565b604052919050565b60006001600160401b0382111562002706576200270662002651565b5060051b60200190565b600082601f8301126200272257600080fd5b813560206200273b6200273583620026ea565b620026b7565b82815260059290921b840181019181810190868411156200275b57600080fd5b8286015b848110156200278357803562002775816200261b565b83529183019183016200275f565b509695505050505050565b600060208284031215620027a157600080fd5b81356001600160401b03811115620027b857600080fd5b620017c28482850162002710565b60006020808301818452808551808352604092508286019150828160051b8701018488016000805b848110156200289c57898403603f19018652825180516001600160a01b03908116865289820151168986015287810151888601526060808201519086015260809081015160a0918601829052805191860182905289019060c086019084905b808210156200288657835180516001600160a01b03168452602090810151908401526040830192508b840193506001820191506200284d565b50509689019694505091870191600101620027ee565b50919998505050505050505050565b600081518084526020808501945080840160005b83811015620028f457815180516001600160a01b031688526020908101519088015260408701965090820190600101620028bf565b509495945050505050565b6020815260006200171f6020830184620028ab565b6020808252825182820181905260009190848201906040850190845b81811015620029575783516001600160a01b03168352928401929184019160010162002930565b50909695505050505050565b600080600080608085870312156200297a57600080fd5b843562002987816200261b565b9350602085013562002999816200261b565b9250604085013591506060850135620029b2816200261b565b939692955090935050565b600080600080600060a08688031215620029d657600080fd5b8535620029e3816200261b565b94506020860135620029f5816200261b565b9350604086013562002a07816200261b565b9250606086013562002a19816200261b565b9150608086013562002a2b816200261b565b809150509295509295909350565b6000806040838503121562002a4d57600080fd5b823562002a5a816200261b565b915060208301356001600160401b0381111562002a7657600080fd5b62002a848582860162002710565b9150509250929050565b600082601f83011262002aa057600080fd5b8135602062002ab36200273583620026ea565b82815260069290921b8401810191818101908684111562002ad357600080fd5b8286015b8481101562002783576040818903121562002af25760008081fd5b62002afc62002667565b813562002b09816200261b565b8152818501358582015283529183019160400162002ad7565b60006020828403121562002b3557600080fd5b81356001600160401b0381111562002b4c57600080fd5b620017c28482850162002a8e565b60006020828403121562002b6d57600080fd5b5035919050565b6000806040838503121562002b8857600080fd5b823562002b95816200261b565b9150602083013562002ba7816200261b565b809150509250929050565b6000602080838503121562002bc657600080fd5b82356001600160401b038082111562002bde57600080fd5b818501915085601f83011262002bf357600080fd5b813562002c046200273582620026ea565b81815260059190911b8301840190848101908883111562002c2457600080fd5b8585015b8381101562002cdd5780358581111562002c425760008081fd5b860160a0818c03601f190181131562002c5b5760008081fd5b62002c6562002692565b8983013562002c74816200261b565b815260408381013562002c87816200261b565b808c8401525060608085013582840152608091508185013581840152508284013592508883111562002cb95760008081fd5b62002cc98e8c8587010162002a8e565b908201528552505091860191860162002c28565b5098975050505050505050565b600060208083528351808285015260005b8181101562002d195785810183015185820160400152820162002cfb565b506000604082860101526040601f19601f8301168501019250505092915050565b634e487b7160e01b600052603260045260246000fd5b634e487b7160e01b600052601160045260246000fd5b60006001820162002d7b5762002d7b62002d50565b5060010190565b60006020828403121562002d9557600080fd5b81516200171f816200261b565b60006020828403121562002db557600080fd5b5051919050565b6003811062002ddb57634e487b7160e01b600052602160045260246000fd5b9052565b6001600160a01b03868116825285166020820152831515604082015260a0810162002e0e606083018562002dbc565b8260808301529695505050505050565b8181038181111562001484576200148462002d50565b6000806040838503121562002e4857600080fd5b505080516020909101519092909150565b8082018082111562001484576200148462002d50565b828152604060208201526000620017c26040830184620028ab565b6001600160a01b038516815283151560208201526080810162002eb1604083018562002dbc565b8260608301529594505050505056fe6080604052670de0b6b3a76400006005553480156200001d57600080fd5b5060405162001e0a38038062001e0a833981016040819052620000409162000136565b6200004b82620000c8565b6200005681620000c8565b600080546001600160a01b038481166001600160a01b03199283168117909355600180549185169190921681179091556040805192835260208301919091527ff35bd6416beb900f6b41234f27d3e606b30cc84d1c13bed983f659aa93d211c7910160405180910390a150506200016e565b6001600160a01b038116620000f05760405163d92e233d60e01b815260040160405180910390fd5b803b60008190036200011557604051636f7c43f160e01b815260040160405180910390fd5b5050565b80516001600160a01b03811681146200013157600080fd5b919050565b600080604083850312156200014a57600080fd5b620001558362000119565b9150620001656020840162000119565b90509250929050565b611c8c806200017e6000396000f3fe608060405234801561001057600080fd5b50600436106102275760003560e01c80638d63c66511610130578063c350589e116100b8578063e67729e31161007c578063e67729e31461058c578063ec671c8314610596578063f92d343314610280578063fb1b5c7b146105a0578063fc7e286d146105b157600080fd5b8063c350589e14610535578063c89039c514610548578063ca8c14b01461055b578063ce4b5bbe1461056e578063d5f195fe1461057957600080fd5b8063a0c2fd9a116100ff578063a0c2fd9a146104b9578063a158e3d1146104ce578063a3f4df7e146104e1578063a4e59ac81461051a578063c022215c1461052d57600080fd5b80638d63c6651461044d5780638e2f0dcf1461045d5780639017cf771461047057806391fc74b11461049957600080fd5b80635a2fd610116101b3578063794e572411610182578063794e5724146103905780637d8820971461039f57806386da0824146103a85780638b8fbd921461040b5780638caf17611461041457600080fd5b80635a2fd6101461030b5780636c10d23a1461033c57806372fe25aa1461034f578063766718081461035e57600080fd5b80633aabe9e6116101fa5780633aabe9e6146102a35780633e1b7c32146102c35780634870dd9a146102d6578063502afb04146102de5780635733d58f146102fc57600080fd5b806309230ad31461022c578063240926691461026457806328d28b5b146102805780633a24dea51461028e575b600080fd5b61024773f39fd6e51aad88f6f4ce6ab8827279cfffb9226681565b6040516001600160a01b0390911681526020015b60405180910390f35b61027266b1a2bc2ec5000081565b60405190815260200161025b565b6102726611c37937e0800081565b6102a161029c366004611801565b6105d1565b005b6102726102b136600461182b565b600a6020526000908152604090205481565b6102a16102d13660046118b6565b610672565b61027260c881565b6102e7610bb881565b60405163ffffffff909116815260200161025b565b6102726714d1120d7b16000081565b6102726103193660046119ac565b600960209081526000938452604080852082529284528284209052825290205481565b61027261034a3660046119ef565b6107fb565b610272670de0b6b3a764000081565b60065461037890600160801b90046001600160801b031681565b6040516001600160801b03909116815260200161025b565b610272670f43fc2c04ee000081565b61027260025481565b6103e66103b636600461182b565b600360205260009081526040902060018101546002909101546001600160801b0380821691600160801b90041683565b604080519384526001600160801b03928316602085015291169082015260600161025b565b61027260055481565b6102726104223660046119ef565b6001600160a01b03918216600090815260036020908152604080832093909416825291909152205490565b610272680ad78ebc5ac620000081565b600054610247906001600160a01b031681565b61027261047e36600461182b565b6001600160a01b031660009081526004602052604090205490565b6102726104a736600461182b565b60086020526000908152604090205481565b6104c1610853565b60405161025b9190611a71565b6102a16104dc366004611801565b6109a1565b61050d6040518060400160405280600d81526020016c14dd18589a5b1a5d1e541bdbdb609a1b81525081565b60405161025b9190611a84565b600654610378906001600160801b031681565b600254610272565b610247610543366004611ad2565b610ac0565b600154610247906001600160a01b031681565b6102a161056936600461182b565b610aea565b610272633b9aca0081565b61027261058736600461182b565b610b17565b6102e7620f424081565b6102e76207a12081565b6001546001600160a01b0316610247565b6102726105bf36600461182b565b60046020526000908152604090205481565b6105d9610b6c565b6105e281610b99565b60006105ed83610b17565b90506105f98382610bbd565b816002600082825461060b9190611b01565b909155506000905061061d8383611b01565b90506106298482610dc1565b604080516001600160a01b0386168152602081018590527f84142a6b70b5ba56f1592a7ccb1a34062ed6d36192411e4b1c8a483fbc514be091015b60405180910390a150505050565b61067a610b6c565b600254600081900361068b57505050565b60005b82518110156107865760008382815181106106ab576106ab611b14565b602002602001015190506000805b6007548110156107195782600001516001600160a01b0316600782815481106106e4576106e4611b14565b6000918252602090912001546001600160a01b0316036107075760019150610719565b8061071181611b2a565b9150506106b9565b5080610771578151600780546001810182556000919091527fa66cc928b5edb82af9bd49922954155ab7b0942694bea4ce44661d9a8736c6880180546001600160a01b0319166001600160a01b039092169190911790555b5050808061077e90611b2a565b91505061068e565b50600080610795848685610f99565b915091506107a3828261125f565b84600260008282546107b59190611b43565b90915550506040517f83800eb4589b3539c4f3695bc7e627585de3a9e2e97faecaf7aa20777f0a5b75906107ec9087908790611b56565b60405180910390a15050505050565b6001600160a01b03821660009081526004602052604081205480820361082557600091505061084d565b6001600160a01b03841660009081526003602052604090206108488285836115d0565b925050505b92915050565b60075460609067ffffffffffffffff81111561087157610871611846565b6040519080825280602002602001820160405280156108b657816020015b604080518082019091526000808252602082015281526020019060019003908161088f5790505b50905060005b60075481101561099d57600781815481106108d9576108d9611b14565b9060005260206000200160009054906101000a90046001600160a01b031682828151811061090957610909611b14565b6020026020010151600001906001600160a01b031690816001600160a01b031681525050600860006007838154811061094457610944611b14565b60009182526020808320909101546001600160a01b03168352820192909252604001902054825183908390811061097d5761097d611b14565b60209081029190910181015101528061099581611b2a565b9150506108bc565b5090565b6109a9610b6c565b60006109b483610b17565b90506109c082826116e1565b9150816000036109cf57505050565b6109d98382610bbd565b60015460405163a9059cbb60e01b81526001600160a01b038581166004830152602482018590529091169063a9059cbb906044016020604051808303816000875af1158015610a2c573d6000803e3d6000fd5b505050506040513d601f19601f82011682018060405250810190610a509190611b77565b508160026000828254610a639190611b43565b9091555060009050610a758383611b43565b9050610a818482610dc1565b604080516001600160a01b0386168152602081018590527f12adef626000e26b56a0bf0cf8cc0b688b73acced3fd6b6e6012280cf9369d4f9101610664565b60078181548110610ad057600080fd5b6000918252602090912001546001600160a01b0316905081565b610af2610b6c565b6000610afd82610b17565b9050610b098282610bbd565b610b138282610dc1565b5050565b6001600160a01b038116600090815260046020526040812054808203610b405750600092915050565b6001600160a01b038316600090815260036020526040812090610b6383836116f9565b95945050505050565b6000546001600160a01b03163314610b97576040516355dcd6cd60e11b815260040160405180910390fd5b565b80600003610bba57604051631f2a200560e01b815260040160405180910390fd5b50565b60075460009067ffffffffffffffff811115610bdb57610bdb611846565b604051908082528060200260200182016040528015610c2057816020015b6040805180820190915260008082526020820152815260200190600190039081610bf95790505b50905060005b600754811015610d6757600060078281548110610c4557610c45611b14565b60009182526020822001546001600160a01b03169150610c6586836107fb565b905080600003610c76575050610d55565b6001600160a01b03821660009081526008602052604081208054839290610c9e908490611b43565b909155505060405163a9059cbb60e01b81526001600160a01b0387811660048301526024820183905283169063a9059cbb906044016020604051808303816000875af1158015610cf2573d6000803e3d6000fd5b505050506040513d601f19601f82011682018060405250810190610d169190611b77565b506040518060400160405280836001600160a01b0316815260200182815250848481518110610d4757610d47611b14565b602002602001018190525050505b80610d5f81611b2a565b915050610c26565b506001600160a01b03831660009081526004602052604081205490610d8c8483611b43565b90507f12eab0f8dab7f1dc1d0ee89d82396ed4c5aa51040c604a988f06def357afc14d8582856040516107ec93929190611b99565b6001600160a01b0382166000908152600460205260408120829055819003610e32576001600160a01b03821660008181526003602052604080822060018101839055600201829055517f0a64b8d9b04e735945eca0d69c16d1634fb27a2ef4e8256e1c323bfc540584f39190a25050565b600680546001600160a01b03841660009081526003602052604081206002810180546001600160801b0319166001600160801b0394851690811782559454600160801b9081900490941693840285179055600554600191909101819055905b600754811015610f5d576001600160801b03808416600090815260096020908152604080832093881683529290529081206007805491929184908110610ed957610ed9611b14565b60009182526020808320909101546001600160a01b039081168452838201949094526040928301822054938a168252600390529081206007805491929185908110610f2657610f26611b14565b60009182526020808320909101546001600160a01b0316835282019290925260400190205580610f5581611b2a565b915050610e91565b506040516001600160a01b038616907f0a64b8d9b04e735945eca0d69c16d1634fb27a2ef4e8256e1c323bfc540584f390600090a25050505050565b6060600082841115610fad57610fad611bc0565b845167ffffffffffffffff811115610fc757610fc7611846565b60405190808252806020026020018201604052801561100c57816020015b6040805180820190915260008082526020820152815260200190600190039081610fe55790505b50915060005b85518110156111a357600086828151811061102f5761102f611b14565b60200260200101516000015190508084838151811061105057611050611b14565b6020908102919091018101516001600160a01b0392831690529082166000908152600a90915260408120548851670de0b6b3a7640000908a908690811061109957611099611b14565b6020026020010151602001516110af9190611bd6565b6110b99190611b01565b90506110c58682611bed565b8584815181106110d7576110d7611b14565b60200260200101516020018181525050858584815181106110fa576110fa611b14565b6020026020010151602001516111109190611bd6565b61111a9082611b43565b6001600160a01b0383166000908152600a6020526040902055875188908490811061114757611147611b14565b60200260200101516020015160086000846001600160a01b03166001600160a01b0316815260200190815260200160002060008282546111879190611b01565b925050819055505050808061119b90611b2a565b915050611012565b508284036111d557506001546001600160a01b03166000908152600a6020526040812055670de0b6b3a7640000611257565b6001546001600160a01b03166000908152600a6020526040812054611202670de0b6b3a764000087611bd6565b61120c9190611b43565b90506112188482611bed565b611223906001611b01565b9150806112308584611bd6565b61123a9190611b43565b6001546001600160a01b03166000908152600a6020526040902055505b935093915050565b670de0b6b3a764000081111561127757611277611bc0565b6005546006546000906001600160801b0380821691600160801b900416825b86518110156113d45760008782815181106112b3576112b3611b14565b602090810291909101810151516001600160801b03808616600090815260098452604080822092891682529184528181206001600160a01b03841682529093528220548a51919350919088908b908690811061131157611311611b14565b6020026020010151602001516113279190611bd6565b905060006113358284611b01565b6001600160801b038781166000818152600960209081526040808320948d168084529482528083206001600160a01b038b1680855290835292819020869055805192835290820185905281019190915260608101919091529091507fe799d8213ffd47c58af0bad222f3f83a7bacf689130d897017d6c2cb9346e8cb9060800160405180910390a15050505080806113cc90611b2a565b915050611296565b5060006113e986670de0b6b3a7640000611b43565b9050806000036114a7576113fe826001611c0f565b600680546001600160801b03908116600160801b93821684021791829055604051929091041681527fb50f0f59e7cb5b421dc77581c3a9919e3806e076e5fa78a874c3f120cb7d874d9060200160405180910390a1600680546001600160801b0319169055604051600081527f1f9dfc70cd666adb18a39d60a797518f7b4febf4b6e24ef37d44f6e1e7219fbe9060200160405180910390a1670de0b6b3a7640000935061157f565b633b9aca00670de0b6b3a76400006114bf8388611bd6565b6114c99190611bed565b101561155f57670de0b6b3a7640000633b9aca006114e78388611bd6565b6114f19190611bd6565b6114fb9190611bed565b9350611508836001611c0f565b600680546001600160801b0319166001600160801b039290921691821790556040519081527f1f9dfc70cd666adb18a39d60a797518f7b4febf4b6e24ef37d44f6e1e7219fbe9060200160405180910390a161157f565b670de0b6b3a76400006115728287611bd6565b61157c9190611bed565b93505b6000841161158f5761158f611bc0565b60058490556040518481527fc1a9618cb59ebca77cbdbc2949f126823c407ff13edb285fd0262519a9c18e8c9060200160405180910390a150505050505050565b60028101546001600160a01b038316600081815260208481526040808320546001600160801b03600160801b8704811680865260098552838620919097168086529084528285209585529490925282205491939291849161163091611b43565b6001600160801b038416600090815260096020526040812091925090633b9aca00908261165e866001611c0f565b6001600160801b03168152602080820192909252604090810160009081206001600160a01b038c1682529092529020546116989190611bed565b90506000670de0b6b3a7640000876001015483856116b69190611b01565b6116c0908c611bd6565b6116ca9190611bed565b6116d49190611bed565b9998505050505050505050565b60008183106116f057816116f2565b825b9392505050565b60065460028201546000916001600160801b03600160801b91829004811691909204909116101561172c5750600061084d565b6002820154600654600091829161174f916001600160801b039081169116611c36565b9050806001600160801b03166000036117855760018401546005546117749087611bd6565b61177e9190611bed565b91506117bd565b806001600160801b03166001036117b857633b9aca008460010154600554876117ae9190611bd6565b6117749190611bed565b600091505b6117cb633b9aca0086611bed565b8210156117dd5760009250505061084d565b509392505050565b80356001600160a01b03811681146117fc57600080fd5b919050565b6000806040838503121561181457600080fd5b61181d836117e5565b946020939093013593505050565b60006020828403121561183d57600080fd5b6116f2826117e5565b634e487b7160e01b600052604160045260246000fd5b6040805190810167ffffffffffffffff8111828210171561187f5761187f611846565b60405290565b604051601f8201601f1916810167ffffffffffffffff811182821017156118ae576118ae611846565b604052919050565b60008060408084860312156118ca57600080fd5b8335925060208085013567ffffffffffffffff808211156118ea57600080fd5b818701915087601f8301126118fe57600080fd5b81358181111561191057611910611846565b61191e848260051b01611885565b818152848101925060069190911b83018401908982111561193e57600080fd5b928401925b818410156119855785848b03121561195b5760008081fd5b61196361185c565b61196c856117e5565b8152848601358682015283529285019291840191611943565b8096505050505050509250929050565b80356001600160801b03811681146117fc57600080fd5b6000806000606084860312156119c157600080fd5b6119ca84611995565b92506119d860208501611995565b91506119e6604085016117e5565b90509250925092565b60008060408385031215611a0257600080fd5b611a0b836117e5565b9150611a19602084016117e5565b90509250929050565b600081518084526020808501945080840160005b83811015611a6657815180516001600160a01b031688528301518388015260409096019590820190600101611a36565b509495945050505050565b6020815260006116f26020830184611a22565b600060208083528351808285015260005b81811015611ab157858101830151858201604001528201611a95565b506000604082860101526040601f19601f8301168501019250505092915050565b600060208284031215611ae457600080fd5b5035919050565b634e487b7160e01b600052601160045260246000fd5b8082018082111561084d5761084d611aeb565b634e487b7160e01b600052603260045260246000fd5b600060018201611b3c57611b3c611aeb565b5060010190565b8181038181111561084d5761084d611aeb565b828152604060208201526000611b6f6040830184611a22565b949350505050565b600060208284031215611b8957600080fd5b815180151581146116f257600080fd5b60018060a01b0384168152826020820152606060408201526000610b636060830184611a22565b634e487b7160e01b600052600160045260246000fd5b808202811582820484141761084d5761084d611aeb565b600082611c0a57634e487b7160e01b600052601260045260246000fd5b500490565b6001600160801b03818116838216019080821115611c2f57611c2f611aeb565b5092915050565b6001600160801b03828116828216039080821115611c2f57611c2f611aeb56fea26469706673582212207e2c77cc868327730d83c5e7a475d0a4770ccc0471f6b7e6fb2ef08f646a163c64736f6c63430008140033a2646970667358221220b14b48c50a0e182edcd11f341a500f107a81288d303c0a42ccd491878c8ba02c64736f6c63430008140033",
  "devdoc": {
    "errors": {
      "OwnableInvalidOwner(address)": [
        {
          "details": "The owner is not a valid owner account. (eg. `address(0)`)"
        }
      ],
      "OwnableUnauthorizedAccount(address)": [
        {
          "details": "The caller account is not authorized to perform an operation."
        }
      ]
    },
    "kind": "dev",
    "methods": {
      "owner()": {
        "details": "Returns the address of the current owner."
      },
      "renounceOwnership()": {
        "details": "Leaves the contract without owner. It will not be possible to call `onlyOwner` functions. Can only be called by the current owner. NOTE: Renouncing ownership will leave the contract without an owner, thereby disabling any functionality that is only available to the owner."
      },
      "transferOwnership(address)": {
        "details": "Transfers ownership of the contract to a new account (`newOwner`). Can only be called by the current owner."
      }
    },
    "version": 1
  },
  "userdoc": {
    "kind": "user",
    "methods": {},
    "version": 1
  },
  "storageLayout": {
    "storage": [
      {
        "astId": 8,
        "contract": "contracts/Mock/MockStabilityPoolManager.sol:MockStabilityPoolManager",
        "label": "_owner",
        "offset": 0,
        "slot": "0",
        "type": "t_address"
      },
      {
        "astId": 18245,
        "contract": "contracts/Mock/MockStabilityPoolManager.sol:MockStabilityPoolManager",
        "label": "liquidationOperationsAddress",
        "offset": 0,
        "slot": "1",
        "type": "t_address"
      },
      {
        "astId": 18248,
        "contract": "contracts/Mock/MockStabilityPoolManager.sol:MockStabilityPoolManager",
        "label": "storagePool",
        "offset": 0,
        "slot": "2",
        "type": "t_contract(IStoragePool)11041"
      },
      {
        "astId": 18251,
        "contract": "contracts/Mock/MockStabilityPoolManager.sol:MockStabilityPoolManager",
        "label": "reservePool",
        "offset": 0,
        "slot": "3",
        "type": "t_contract(IReservePool)10476"
      },
      {
        "astId": 18254,
        "contract": "contracts/Mock/MockStabilityPoolManager.sol:MockStabilityPoolManager",
        "label": "priceFeed",
        "offset": 0,
        "slot": "4",
        "type": "t_contract(IPriceFeed)10268"
      },
      {
        "astId": 18256,
        "contract": "contracts/Mock/MockStabilityPoolManager.sol:MockStabilityPoolManager",
        "label": "debtTokenManagerAddress",
        "offset": 0,
        "slot": "5",
        "type": "t_address"
      },
      {
        "astId": 18262,
        "contract": "contracts/Mock/MockStabilityPoolManager.sol:MockStabilityPoolManager",
        "label": "stabilityPools",
        "offset": 0,
        "slot": "6",
        "type": "t_mapping(t_contract(IDebtToken)10082,t_contract(IStabilityPool)10761)"
      },
      {
        "astId": 18266,
        "contract": "contracts/Mock/MockStabilityPoolManager.sol:MockStabilityPoolManager",
        "label": "stabilityPoolsArray",
        "offset": 0,
        "slot": "7",
        "type": "t_array(t_contract(IStabilityPool)10761)dyn_storage"
      }
    ],
    "types": {
      "t_address": {
        "encoding": "inplace",
        "label": "address",
        "numberOfBytes": "20"
      },
      "t_array(t_contract(IStabilityPool)10761)dyn_storage": {
        "base": "t_contract(IStabilityPool)10761",
        "encoding": "dynamic_array",
        "label": "contract IStabilityPool[]",
        "numberOfBytes": "32"
      },
      "t_contract(IDebtToken)10082": {
        "encoding": "inplace",
        "label": "contract IDebtToken",
        "numberOfBytes": "20"
      },
      "t_contract(IPriceFeed)10268": {
        "encoding": "inplace",
        "label": "contract IPriceFeed",
        "numberOfBytes": "20"
      },
      "t_contract(IReservePool)10476": {
        "encoding": "inplace",
        "label": "contract IReservePool",
        "numberOfBytes": "20"
      },
      "t_contract(IStabilityPool)10761": {
        "encoding": "inplace",
        "label": "contract IStabilityPool",
        "numberOfBytes": "20"
      },
      "t_contract(IStoragePool)11041": {
        "encoding": "inplace",
        "label": "contract IStoragePool",
        "numberOfBytes": "20"
      },
      "t_mapping(t_contract(IDebtToken)10082,t_contract(IStabilityPool)10761)": {
        "encoding": "mapping",
        "key": "t_contract(IDebtToken)10082",
        "label": "mapping(contract IDebtToken => contract IStabilityPool)",
        "numberOfBytes": "32",
        "value": "t_contract(IStabilityPool)10761"
      }
    }
  }
}