{
  "address": "0xCf7Ed3AccA5a467e9e704C703E8D87F634fB0Fc9",
  "abi": [
    {
      "inputs": [],
      "name": "ExceedDebtBalance",
      "type": "error"
    },
    {
      "inputs": [],
      "name": "FeeExceedMaxPercentage",
      "type": "error"
    },
    {
      "inputs": [],
      "name": "InvalidMaxFeePercent",
      "type": "error"
    },
    {
      "inputs": [],
      "name": "InvalidTrove",
      "type": "error"
    },
    {
      "inputs": [],
      "name": "LessThanMCR",
      "type": "error"
    },
    {
      "inputs": [],
      "name": "NotContract",
      "type": "error"
    },
    {
      "inputs": [],
      "name": "NotFromBorrowerOrRedemptionOps",
      "type": "error"
    },
    {
      "inputs": [],
      "name": "OnlyOneTrove",
      "type": "error"
    },
    {
      "inputs": [
        {
          "internalType": "address",
          "name": "owner",
          "type": "address"
        }
      ],
      "name": "OwnableInvalidOwner",
      "type": "error"
    },
    {
      "inputs": [
        {
          "internalType": "address",
          "name": "account",
          "type": "address"
        }
      ],
      "name": "OwnableUnauthorizedAccount",
      "type": "error"
    },
    {
      "inputs": [],
      "name": "ZeroAddress",
      "type": "error"
    },
    {
      "inputs": [],
      "name": "ZeroAmount",
      "type": "error"
    },
    {
      "anonymous": false,
      "inputs": [
        {
          "indexed": false,
          "internalType": "uint256",
          "name": "_baseRate",
          "type": "uint256"
        }
      ],
      "name": "BaseRateUpdated",
      "type": "event"
    },
    {
      "anonymous": false,
      "inputs": [
        {
          "components": [
            {
              "internalType": "address",
              "name": "tokenAddress",
              "type": "address"
            },
            {
              "internalType": "bool",
              "name": "isColl",
              "type": "bool"
            },
            {
              "internalType": "uint256",
              "name": "amount",
              "type": "uint256"
            }
          ],
          "indexed": false,
          "internalType": "struct IBase.CAmount[]",
          "name": "_liquidatedTokens",
          "type": "tuple[]"
        }
      ],
      "name": "LTermsUpdated",
      "type": "event"
    },
    {
      "anonymous": false,
      "inputs": [
        {
          "indexed": false,
          "internalType": "uint256",
          "name": "_lastFeeOpTime",
          "type": "uint256"
        }
      ],
      "name": "LastFeeOpTimeUpdated",
      "type": "event"
    },
    {
      "anonymous": false,
      "inputs": [
        {
          "indexed": true,
          "internalType": "address",
          "name": "previousOwner",
          "type": "address"
        },
        {
          "indexed": true,
          "internalType": "address",
          "name": "newOwner",
          "type": "address"
        }
      ],
      "name": "OwnershipTransferred",
      "type": "event"
    },
    {
      "anonymous": false,
      "inputs": [
        {
          "components": [
            {
              "internalType": "address",
              "name": "tokenAddress",
              "type": "address"
            },
            {
              "internalType": "uint256",
              "name": "amount",
              "type": "uint256"
            }
          ],
          "indexed": false,
          "internalType": "struct IBase.TokenAmount[]",
          "name": "_totalStakesSnapshot",
          "type": "tuple[]"
        },
        {
          "components": [
            {
              "internalType": "address",
              "name": "tokenAddress",
              "type": "address"
            },
            {
              "internalType": "uint256",
              "name": "amount",
              "type": "uint256"
            }
          ],
          "indexed": false,
          "internalType": "struct IBase.TokenAmount[]",
          "name": "_totalCollateralSnapshot",
          "type": "tuple[]"
        }
      ],
      "name": "SystemSnapshotsUpdated",
      "type": "event"
    },
    {
      "anonymous": false,
      "inputs": [
        {
          "components": [
            {
              "internalType": "address",
              "name": "tokenAddress",
              "type": "address"
            },
            {
              "internalType": "uint256",
              "name": "amount",
              "type": "uint256"
            }
          ],
          "indexed": false,
          "internalType": "struct IBase.TokenAmount[]",
          "name": "_totalStakes",
          "type": "tuple[]"
        }
      ],
      "name": "TotalStakesUpdated",
      "type": "event"
    },
    {
      "anonymous": false,
      "inputs": [
        {
          "indexed": false,
          "internalType": "address",
          "name": "_borrower",
          "type": "address"
        },
        {
          "components": [
            {
              "internalType": "address",
              "name": "tokenAddress",
              "type": "address"
            },
            {
              "internalType": "bool",
              "name": "isColl",
              "type": "bool"
            },
            {
              "internalType": "uint256",
              "name": "amount",
              "type": "uint256"
            }
          ],
          "indexed": false,
          "internalType": "struct IBase.CAmount[]",
          "name": "_appliedRewards",
          "type": "tuple[]"
        }
      ],
      "name": "TroveAppliedRewards",
      "type": "event"
    },
    {
      "anonymous": false,
      "inputs": [
        {
          "indexed": false,
          "internalType": "address",
          "name": "_borrower",
          "type": "address"
        },
        {
          "indexed": false,
          "internalType": "enum IBBase.Status",
          "name": "_closingState",
          "type": "uint8"
        }
      ],
      "name": "TroveClosed",
      "type": "event"
    },
    {
      "anonymous": false,
      "inputs": [
        {
          "indexed": false,
          "internalType": "address",
          "name": "_borrower",
          "type": "address"
        },
        {
          "indexed": false,
          "internalType": "address[]",
          "name": "_collTokenAddresses",
          "type": "address[]"
        }
      ],
      "name": "TroveCollChanged",
      "type": "event"
    },
    {
      "anonymous": false,
      "inputs": [
        {
          "indexed": false,
          "internalType": "address",
          "name": "_borrower",
          "type": "address"
        },
        {
          "indexed": false,
          "internalType": "uint256",
          "name": "_newIndex",
          "type": "uint256"
        }
      ],
      "name": "TroveIndexUpdated",
      "type": "event"
    },
    {
      "anonymous": false,
      "inputs": [
        {
          "indexed": false,
          "internalType": "address",
          "name": "_borrowerOperationsAddress",
          "type": "address"
        },
        {
          "indexed": false,
          "internalType": "address",
          "name": "_redemptionOperationsAddress",
          "type": "address"
        },
        {
          "indexed": false,
          "internalType": "address",
          "name": "_liquidationOperationsAddress",
          "type": "address"
        },
        {
          "indexed": false,
          "internalType": "address",
          "name": "_storagePoolAddress",
          "type": "address"
        },
        {
          "indexed": false,
          "internalType": "address",
          "name": "_priceFeedAddress",
          "type": "address"
        }
      ],
      "name": "TroveManagerInitialized",
      "type": "event"
    },
    {
      "anonymous": false,
      "inputs": [
        {
          "components": [
            {
              "internalType": "address",
              "name": "tokenAddress",
              "type": "address"
            },
            {
              "internalType": "bool",
              "name": "isColl",
              "type": "bool"
            },
            {
              "internalType": "uint256",
              "name": "amount",
              "type": "uint256"
            }
          ],
          "indexed": false,
          "internalType": "struct IBase.CAmount[]",
          "name": "_liquidatedTokens",
          "type": "tuple[]"
        }
      ],
      "name": "TroveSnapshotsUpdated",
      "type": "event"
    },
    {
      "inputs": [],
      "name": "BETA",
      "outputs": [
        {
          "internalType": "uint256",
          "name": "",
          "type": "uint256"
        }
      ],
      "stateMutability": "view",
      "type": "function"
    },
    {
      "inputs": [],
      "name": "BOOTSTRAP_PERIOD",
      "outputs": [
        {
          "internalType": "uint256",
          "name": "",
          "type": "uint256"
        }
      ],
      "stateMutability": "view",
      "type": "function"
    },
    {
      "inputs": [],
      "name": "BORROWING_FEE_FLOOR",
      "outputs": [
        {
          "internalType": "uint256",
          "name": "",
          "type": "uint256"
        }
      ],
      "stateMutability": "view",
      "type": "function"
    },
    {
      "inputs": [],
      "name": "CCR",
      "outputs": [
        {
          "internalType": "uint256",
          "name": "",
          "type": "uint256"
        }
      ],
      "stateMutability": "view",
      "type": "function"
    },
    {
      "inputs": [],
      "name": "MAX_BORROWING_FEE",
      "outputs": [
        {
          "internalType": "uint256",
          "name": "",
          "type": "uint256"
        }
      ],
      "stateMutability": "view",
      "type": "function"
    },
    {
      "inputs": [],
      "name": "MCR",
      "outputs": [
        {
          "internalType": "uint256",
          "name": "",
          "type": "uint256"
        }
      ],
      "stateMutability": "view",
      "type": "function"
    },
    {
      "inputs": [],
      "name": "MINUTE_DECAY_FACTOR",
      "outputs": [
        {
          "internalType": "uint256",
          "name": "",
          "type": "uint256"
        }
      ],
      "stateMutability": "view",
      "type": "function"
    },
    {
      "inputs": [],
      "name": "NAME",
      "outputs": [
        {
          "internalType": "string",
          "name": "",
          "type": "string"
        }
      ],
      "stateMutability": "view",
      "type": "function"
    },
    {
      "inputs": [],
      "name": "PERCENT_DIVISOR",
      "outputs": [
        {
          "internalType": "uint256",
          "name": "",
          "type": "uint256"
        }
      ],
      "stateMutability": "view",
      "type": "function"
    },
    {
      "inputs": [],
      "name": "REDEMPTION_FEE_FLOOR",
      "outputs": [
        {
          "internalType": "uint256",
          "name": "",
          "type": "uint256"
        }
      ],
      "stateMutability": "view",
      "type": "function"
    },
    {
      "inputs": [],
      "name": "STABLE_COIN_GAS_COMPENSATION",
      "outputs": [
        {
          "internalType": "uint256",
          "name": "",
          "type": "uint256"
        }
      ],
      "stateMutability": "view",
      "type": "function"
    },
    {
      "inputs": [],
      "name": "SWAP_BASE_FEE",
      "outputs": [
        {
          "internalType": "uint32",
          "name": "",
          "type": "uint32"
        }
      ],
      "stateMutability": "view",
      "type": "function"
    },
    {
      "inputs": [],
      "name": "SWAP_FEE_PRECISION",
      "outputs": [
        {
          "internalType": "uint32",
          "name": "",
          "type": "uint32"
        }
      ],
      "stateMutability": "view",
      "type": "function"
    },
    {
      "inputs": [
        {
          "internalType": "uint256",
          "name": "",
          "type": "uint256"
        }
      ],
      "name": "TroveOwners",
      "outputs": [
        {
          "internalType": "address",
          "name": "",
          "type": "address"
        }
      ],
      "stateMutability": "view",
      "type": "function"
    },
    {
      "inputs": [
        {
          "internalType": "address",
          "name": "",
          "type": "address"
        }
      ],
      "name": "Troves",
      "outputs": [
        {
          "internalType": "enum IBBase.Status",
          "name": "status",
          "type": "uint8"
        },
        {
          "internalType": "uint128",
          "name": "arrayIndex",
          "type": "uint128"
        }
      ],
      "stateMutability": "view",
      "type": "function"
    },
    {
      "inputs": [],
      "name": "_100pct",
      "outputs": [
        {
          "internalType": "uint256",
          "name": "",
          "type": "uint256"
        }
      ],
      "stateMutability": "view",
      "type": "function"
    },
    {
      "inputs": [
        {
          "internalType": "address",
          "name": "_borrower",
          "type": "address"
        }
      ],
      "name": "addTroveOwnerToArray",
      "outputs": [
        {
          "internalType": "uint128",
          "name": "index",
          "type": "uint128"
        }
      ],
      "stateMutability": "nonpayable",
      "type": "function"
    },
    {
      "inputs": [
        {
          "internalType": "address",
          "name": "_borrower",
          "type": "address"
        }
      ],
      "name": "applyPendingRewards",
      "outputs": [],
      "stateMutability": "nonpayable",
      "type": "function"
    },
    {
      "inputs": [],
      "name": "baseRate",
      "outputs": [
        {
          "internalType": "uint256",
          "name": "",
          "type": "uint256"
        }
      ],
      "stateMutability": "view",
      "type": "function"
    },
    {
      "inputs": [],
      "name": "borrowerOperationsAddress",
      "outputs": [
        {
          "internalType": "address",
          "name": "",
          "type": "address"
        }
      ],
      "stateMutability": "view",
      "type": "function"
    },
    {
      "inputs": [],
      "name": "calcDecayedBaseRate",
      "outputs": [
        {
          "internalType": "uint256",
          "name": "",
          "type": "uint256"
        }
      ],
      "stateMutability": "view",
      "type": "function"
    },
    {
      "inputs": [
        {
          "internalType": "address[]",
          "name": "collTokenAddresses",
          "type": "address[]"
        },
        {
          "internalType": "address",
          "name": "_borrower",
          "type": "address"
        },
        {
          "internalType": "enum IBBase.Status",
          "name": "closedStatus",
          "type": "uint8"
        }
      ],
      "name": "closeTroveByProtocol",
      "outputs": [],
      "stateMutability": "nonpayable",
      "type": "function"
    },
    {
      "inputs": [
        {
          "internalType": "uint256",
          "name": "_coll",
          "type": "uint256"
        },
        {
          "internalType": "uint256",
          "name": "_debt",
          "type": "uint256"
        }
      ],
      "name": "computeICR",
      "outputs": [
        {
          "internalType": "uint256",
          "name": "",
          "type": "uint256"
        }
      ],
      "stateMutability": "pure",
      "type": "function"
    },
    {
      "inputs": [],
      "name": "decayBaseRateFromBorrowing",
      "outputs": [],
      "stateMutability": "nonpayable",
      "type": "function"
    },
    {
      "inputs": [
        {
          "internalType": "address",
          "name": "_borrower",
          "type": "address"
        },
        {
          "components": [
            {
              "internalType": "address",
              "name": "tokenAddress",
              "type": "address"
            },
            {
              "internalType": "uint256",
              "name": "amount",
              "type": "uint256"
            }
          ],
          "internalType": "struct IBase.TokenAmount[]",
          "name": "_collTokenAmounts",
          "type": "tuple[]"
        }
      ],
      "name": "decreaseTroveColl",
      "outputs": [],
      "stateMutability": "nonpayable",
      "type": "function"
    },
    {
      "inputs": [
        {
          "internalType": "address",
          "name": "_borrower",
          "type": "address"
        },
        {
          "components": [
            {
              "internalType": "contract IDebtToken",
              "name": "debtToken",
              "type": "address"
            },
            {
              "internalType": "uint256",
              "name": "netDebt",
              "type": "uint256"
            },
            {
              "internalType": "uint256",
              "name": "borrowingFee",
              "type": "uint256"
            }
          ],
          "internalType": "struct IBBase.DebtTokenAmount[]",
          "name": "_debtTokenAmounts",
          "type": "tuple[]"
        }
      ],
      "name": "decreaseTroveDebt",
      "outputs": [],
      "stateMutability": "nonpayable",
      "type": "function"
    },
    {
      "inputs": [],
      "name": "getBaseRate",
      "outputs": [
        {
          "internalType": "uint256",
          "name": "",
          "type": "uint256"
        }
      ],
      "stateMutability": "view",
      "type": "function"
    },
    {
      "inputs": [
        {
          "internalType": "uint256",
          "name": "_debtValue",
          "type": "uint256"
        }
      ],
      "name": "getBorrowingFee",
      "outputs": [
        {
          "internalType": "uint256",
          "name": "",
          "type": "uint256"
        }
      ],
      "stateMutability": "view",
      "type": "function"
    },
    {
      "inputs": [
        {
          "internalType": "uint256",
          "name": "_debtValue",
          "type": "uint256"
        }
      ],
      "name": "getBorrowingFeeWithDecay",
      "outputs": [
        {
          "internalType": "uint256",
          "name": "",
          "type": "uint256"
        }
      ],
      "stateMutability": "view",
      "type": "function"
    },
    {
      "inputs": [],
      "name": "getBorrowingRate",
      "outputs": [
        {
          "internalType": "uint256",
          "name": "",
          "type": "uint256"
        }
      ],
      "stateMutability": "view",
      "type": "function"
    },
    {
      "inputs": [],
      "name": "getBorrowingRateWithDecay",
      "outputs": [
        {
          "internalType": "uint256",
          "name": "",
          "type": "uint256"
        }
      ],
      "stateMutability": "view",
      "type": "function"
    },
    {
      "inputs": [
        {
          "internalType": "uint256",
          "name": "_coll",
          "type": "uint256"
        }
      ],
      "name": "getCollGasCompensation",
      "outputs": [
        {
          "internalType": "uint256",
          "name": "",
          "type": "uint256"
        }
      ],
      "stateMutability": "pure",
      "type": "function"
    },
    {
      "inputs": [
        {
          "internalType": "address",
          "name": "_borrower",
          "type": "address"
        }
      ],
      "name": "getCurrentICR",
      "outputs": [
        {
          "internalType": "uint256",
          "name": "ICR",
          "type": "uint256"
        },
        {
          "internalType": "uint256",
          "name": "currentDebtInUSD",
          "type": "uint256"
        }
      ],
      "stateMutability": "view",
      "type": "function"
    },
    {
      "inputs": [
        {
          "internalType": "address",
          "name": "_borrower",
          "type": "address"
        }
      ],
      "name": "getEntireDebtAndColl",
      "outputs": [
        {
          "components": [
            {
              "internalType": "address",
              "name": "tokenAddress",
              "type": "address"
            },
            {
              "internalType": "bool",
              "name": "isColl",
              "type": "bool"
            },
            {
              "internalType": "uint256",
              "name": "amount",
              "type": "uint256"
            },
            {
              "internalType": "uint256",
              "name": "pendingReward",
              "type": "uint256"
            },
            {
              "internalType": "uint256",
              "name": "gasCompensation",
              "type": "uint256"
            },
            {
              "internalType": "uint256",
              "name": "toLiquidate",
              "type": "uint256"
            },
            {
              "internalType": "uint256",
              "name": "toRedistribute",
              "type": "uint256"
            },
            {
              "internalType": "uint256",
              "name": "toOffset",
              "type": "uint256"
            }
          ],
          "internalType": "struct IBase.RAmount[]",
          "name": "amounts",
          "type": "tuple[]"
        },
        {
          "internalType": "uint256",
          "name": "troveCollInUSD",
          "type": "uint256"
        },
        {
          "internalType": "uint256",
          "name": "troveDebtInUSD",
          "type": "uint256"
        },
        {
          "internalType": "uint256",
          "name": "troveDebtInUSDWithoutGasCompensation",
          "type": "uint256"
        }
      ],
      "stateMutability": "view",
      "type": "function"
    },
    {
      "inputs": [
        {
          "internalType": "address",
          "name": "tokenAddress",
          "type": "address"
        },
        {
          "internalType": "bool",
          "name": "isColl",
          "type": "bool"
        }
      ],
      "name": "getLiquidatedTokens",
      "outputs": [
        {
          "internalType": "uint256",
          "name": "",
          "type": "uint256"
        }
      ],
      "stateMutability": "view",
      "type": "function"
    },
    {
      "inputs": [
        {
          "internalType": "address",
          "name": "_borrower",
          "type": "address"
        }
      ],
      "name": "getNominalICR",
      "outputs": [
        {
          "internalType": "uint256",
          "name": "",
          "type": "uint256"
        }
      ],
      "stateMutability": "view",
      "type": "function"
    },
    {
      "inputs": [
        {
          "internalType": "address",
          "name": "_borrower",
          "type": "address"
        },
        {
          "internalType": "address",
          "name": "_tokenAddress",
          "type": "address"
        },
        {
          "internalType": "bool",
          "name": "_isColl",
          "type": "bool"
        }
      ],
      "name": "getPendingReward",
      "outputs": [
        {
          "internalType": "uint256",
          "name": "pendingReward",
          "type": "uint256"
        }
      ],
      "stateMutability": "view",
      "type": "function"
    },
    {
      "inputs": [
        {
          "internalType": "address",
          "name": "_borrower",
          "type": "address"
        }
      ],
      "name": "getTroveColl",
      "outputs": [
        {
          "components": [
            {
              "internalType": "address",
              "name": "tokenAddress",
              "type": "address"
            },
            {
              "internalType": "uint256",
              "name": "amount",
              "type": "uint256"
            }
          ],
          "internalType": "struct IBase.TokenAmount[]",
          "name": "colls",
          "type": "tuple[]"
        }
      ],
      "stateMutability": "view",
      "type": "function"
    },
    {
      "inputs": [
        {
          "internalType": "address",
          "name": "_borrower",
          "type": "address"
        }
      ],
      "name": "getTroveDebt",
      "outputs": [
        {
          "components": [
            {
              "internalType": "address",
              "name": "tokenAddress",
              "type": "address"
            },
            {
              "internalType": "uint256",
              "name": "amount",
              "type": "uint256"
            }
          ],
          "internalType": "struct IBase.TokenAmount[]",
          "name": "",
          "type": "tuple[]"
        }
      ],
      "stateMutability": "view",
      "type": "function"
    },
    {
      "inputs": [],
      "name": "getTroveOwnersCount",
      "outputs": [
        {
          "internalType": "uint256",
          "name": "",
          "type": "uint256"
        }
      ],
      "stateMutability": "view",
      "type": "function"
    },
    {
      "inputs": [
        {
          "internalType": "address",
          "name": "_borrower",
          "type": "address"
        },
        {
          "internalType": "address",
          "name": "_debtTokenAddress",
          "type": "address"
        }
      ],
      "name": "getTroveRepayableDebt",
      "outputs": [
        {
          "internalType": "uint256",
          "name": "amount",
          "type": "uint256"
        }
      ],
      "stateMutability": "view",
      "type": "function"
    },
    {
      "inputs": [
        {
          "internalType": "address",
          "name": "_borrower",
          "type": "address"
        }
      ],
      "name": "getTroveRepayableDebts",
      "outputs": [
        {
          "components": [
            {
              "internalType": "address",
              "name": "tokenAddress",
              "type": "address"
            },
            {
              "internalType": "uint256",
              "name": "amount",
              "type": "uint256"
            }
          ],
          "internalType": "struct IBase.TokenAmount[]",
          "name": "debts",
          "type": "tuple[]"
        }
      ],
      "stateMutability": "view",
      "type": "function"
    },
    {
      "inputs": [
        {
          "internalType": "address",
          "name": "_borrower",
          "type": "address"
        }
      ],
      "name": "getTroveStakeValue",
      "outputs": [
        {
          "internalType": "uint256",
          "name": "",
          "type": "uint256"
        }
      ],
      "stateMutability": "view",
      "type": "function"
    },
    {
      "inputs": [
        {
          "internalType": "address",
          "name": "_borrower",
          "type": "address"
        },
        {
          "internalType": "address",
          "name": "_token",
          "type": "address"
        }
      ],
      "name": "getTroveStakes",
      "outputs": [
        {
          "internalType": "uint256",
          "name": "",
          "type": "uint256"
        }
      ],
      "stateMutability": "view",
      "type": "function"
    },
    {
      "inputs": [
        {
          "internalType": "address",
          "name": "_borrower",
          "type": "address"
        }
      ],
      "name": "getTroveStatus",
      "outputs": [
        {
          "internalType": "uint256",
          "name": "",
          "type": "uint256"
        }
      ],
      "stateMutability": "view",
      "type": "function"
    },
    {
      "inputs": [
        {
          "internalType": "address",
          "name": "_borrower",
          "type": "address"
        },
        {
          "internalType": "address",
          "name": "_collTokenAddress",
          "type": "address"
        }
      ],
      "name": "getTroveWithdrawableColl",
      "outputs": [
        {
          "internalType": "uint256",
          "name": "amount",
          "type": "uint256"
        }
      ],
      "stateMutability": "view",
      "type": "function"
    },
    {
      "inputs": [
        {
          "internalType": "address",
          "name": "_borrower",
          "type": "address"
        }
      ],
      "name": "getTroveWithdrawableColls",
      "outputs": [
        {
          "components": [
            {
              "internalType": "address",
              "name": "tokenAddress",
              "type": "address"
            },
            {
              "internalType": "uint256",
              "name": "amount",
              "type": "uint256"
            }
          ],
          "internalType": "struct IBase.TokenAmount[]",
          "name": "colls",
          "type": "tuple[]"
        }
      ],
      "stateMutability": "view",
      "type": "function"
    },
    {
      "inputs": [
        {
          "internalType": "address",
          "name": "_borrower",
          "type": "address"
        },
        {
          "components": [
            {
              "internalType": "address",
              "name": "tokenAddress",
              "type": "address"
            },
            {
              "internalType": "uint256",
              "name": "amount",
              "type": "uint256"
            }
          ],
          "internalType": "struct IBase.TokenAmount[]",
          "name": "_collTokenAmounts",
          "type": "tuple[]"
        }
      ],
      "name": "increaseTroveColl",
      "outputs": [],
      "stateMutability": "nonpayable",
      "type": "function"
    },
    {
      "inputs": [
        {
          "internalType": "address",
          "name": "_borrower",
          "type": "address"
        },
        {
          "components": [
            {
              "internalType": "contract IDebtToken",
              "name": "debtToken",
              "type": "address"
            },
            {
              "internalType": "uint256",
              "name": "netDebt",
              "type": "uint256"
            },
            {
              "internalType": "uint256",
              "name": "borrowingFee",
              "type": "uint256"
            }
          ],
          "internalType": "struct IBBase.DebtTokenAmount[]",
          "name": "_debtTokenAmounts",
          "type": "tuple[]"
        }
      ],
      "name": "increaseTroveDebt",
      "outputs": [],
      "stateMutability": "nonpayable",
      "type": "function"
    },
    {
      "inputs": [
        {
          "internalType": "address",
          "name": "_borrower",
          "type": "address"
        }
      ],
      "name": "isTroveActive",
      "outputs": [
        {
          "internalType": "bool",
          "name": "",
          "type": "bool"
        }
      ],
      "stateMutability": "view",
      "type": "function"
    },
    {
      "inputs": [
        {
          "internalType": "address",
          "name": "",
          "type": "address"
        },
        {
          "internalType": "bool",
          "name": "",
          "type": "bool"
        }
      ],
      "name": "lastErrorRedistribution",
      "outputs": [
        {
          "internalType": "uint256",
          "name": "",
          "type": "uint256"
        }
      ],
      "stateMutability": "view",
      "type": "function"
    },
    {
      "inputs": [],
      "name": "lastFeeOperationTime",
      "outputs": [
        {
          "internalType": "uint256",
          "name": "",
          "type": "uint256"
        }
      ],
      "stateMutability": "view",
      "type": "function"
    },
    {
      "inputs": [
        {
          "internalType": "address",
          "name": "",
          "type": "address"
        },
        {
          "internalType": "bool",
          "name": "",
          "type": "bool"
        }
      ],
      "name": "liquidatedTokens",
      "outputs": [
        {
          "internalType": "uint256",
          "name": "",
          "type": "uint256"
        }
      ],
      "stateMutability": "view",
      "type": "function"
    },
    {
      "inputs": [],
      "name": "liquidationOperationsAddress",
      "outputs": [
        {
          "internalType": "address",
          "name": "",
          "type": "address"
        }
      ],
      "stateMutability": "view",
      "type": "function"
    },
    {
      "inputs": [],
      "name": "owner",
      "outputs": [
        {
          "internalType": "address",
          "name": "",
          "type": "address"
        }
      ],
      "stateMutability": "view",
      "type": "function"
    },
    {
      "inputs": [],
      "name": "priceFeed",
      "outputs": [
        {
          "internalType": "contract IPriceFeed",
          "name": "",
          "type": "address"
        }
      ],
      "stateMutability": "view",
      "type": "function"
    },
    {
      "inputs": [],
      "name": "redemptionOperationsAddress",
      "outputs": [
        {
          "internalType": "address",
          "name": "",
          "type": "address"
        }
      ],
      "stateMutability": "view",
      "type": "function"
    },
    {
      "inputs": [
        {
          "internalType": "address[]",
          "name": "collTokenAddresses",
          "type": "address[]"
        },
        {
          "components": [
            {
              "internalType": "address",
              "name": "tokenAddress",
              "type": "address"
            },
            {
              "internalType": "bool",
              "name": "isColl",
              "type": "bool"
            },
            {
              "internalType": "uint256",
              "name": "amount",
              "type": "uint256"
            }
          ],
          "internalType": "struct IBase.CAmount[]",
          "name": "toRedistribute",
          "type": "tuple[]"
        }
      ],
      "name": "redistributeDebtAndColl",
      "outputs": [],
      "stateMutability": "nonpayable",
      "type": "function"
    },
    {
      "inputs": [
        {
          "internalType": "address[]",
          "name": "collTokenAddresses",
          "type": "address[]"
        },
        {
          "internalType": "address",
          "name": "_borrower",
          "type": "address"
        }
      ],
      "name": "removeStake",
      "outputs": [],
      "stateMutability": "nonpayable",
      "type": "function"
    },
    {
      "inputs": [],
      "name": "renounceOwnership",
      "outputs": [],
      "stateMutability": "nonpayable",
      "type": "function"
    },
    {
      "inputs": [
        {
          "internalType": "address",
          "name": "",
          "type": "address"
        },
        {
          "internalType": "address",
          "name": "",
          "type": "address"
        },
        {
          "internalType": "bool",
          "name": "",
          "type": "bool"
        }
      ],
      "name": "rewardSnapshots",
      "outputs": [
        {
          "internalType": "uint256",
          "name": "",
          "type": "uint256"
        }
      ],
      "stateMutability": "view",
      "type": "function"
    },
    {
      "inputs": [
        {
          "internalType": "address",
          "name": "_borrowerOperationsAddress",
          "type": "address"
        },
        {
          "internalType": "address",
          "name": "_redemptionOperationsAddress",
          "type": "address"
        },
        {
          "internalType": "address",
          "name": "_liquidationOperationsAddress",
          "type": "address"
        },
        {
          "internalType": "address",
          "name": "_storagePoolAddress",
          "type": "address"
        },
        {
          "internalType": "address",
          "name": "_priceFeedAddress",
          "type": "address"
        }
      ],
      "name": "setAddresses",
      "outputs": [],
      "stateMutability": "nonpayable",
      "type": "function"
    },
    {
      "inputs": [
        {
          "internalType": "uint256",
          "name": "_baseRate",
          "type": "uint256"
        }
      ],
      "name": "setBaseRate",
      "outputs": [],
      "stateMutability": "nonpayable",
      "type": "function"
    },
    {
      "inputs": [],
      "name": "setLastFeeOpTimeToNow",
      "outputs": [],
      "stateMutability": "nonpayable",
      "type": "function"
    },
    {
      "inputs": [
        {
          "internalType": "address",
          "name": "_borrower",
          "type": "address"
        },
        {
          "internalType": "uint256",
          "name": "_num",
          "type": "uint256"
        }
      ],
      "name": "setTroveStatus",
      "outputs": [],
      "stateMutability": "nonpayable",
      "type": "function"
    },
    {
      "inputs": [],
      "name": "storagePool",
      "outputs": [
        {
          "internalType": "contract IStoragePool",
          "name": "",
          "type": "address"
        }
      ],
      "stateMutability": "view",
      "type": "function"
    },
    {
      "inputs": [
        {
          "internalType": "address",
          "name": "",
          "type": "address"
        }
      ],
      "name": "totalCollateralSnapshots",
      "outputs": [
        {
          "internalType": "uint256",
          "name": "",
          "type": "uint256"
        }
      ],
      "stateMutability": "view",
      "type": "function"
    },
    {
      "inputs": [
        {
          "internalType": "address",
          "name": "",
          "type": "address"
        }
      ],
      "name": "totalStakes",
      "outputs": [
        {
          "internalType": "uint256",
          "name": "",
          "type": "uint256"
        }
      ],
      "stateMutability": "view",
      "type": "function"
    },
    {
      "inputs": [
        {
          "internalType": "address",
          "name": "",
          "type": "address"
        }
      ],
      "name": "totalStakesSnapshot",
      "outputs": [
        {
          "internalType": "uint256",
          "name": "",
          "type": "uint256"
        }
      ],
      "stateMutability": "view",
      "type": "function"
    },
    {
      "inputs": [
        {
          "internalType": "address",
          "name": "newOwner",
          "type": "address"
        }
      ],
      "name": "transferOwnership",
      "outputs": [],
      "stateMutability": "nonpayable",
      "type": "function"
    },
    {
      "inputs": [
        {
          "internalType": "uint256",
          "name": "_totalRedeemedStable",
          "type": "uint256"
        },
        {
          "internalType": "uint256",
          "name": "_totalStableCoinSupply",
          "type": "uint256"
        }
      ],
      "name": "updateBaseRateFromRedemption",
      "outputs": [],
      "stateMutability": "nonpayable",
      "type": "function"
    },
    {
      "inputs": [
        {
          "internalType": "address[]",
          "name": "collTokenAddresses",
          "type": "address[]"
        },
        {
          "internalType": "address",
          "name": "_borrower",
          "type": "address"
        }
      ],
      "name": "updateStakeAndTotalStakes",
      "outputs": [],
      "stateMutability": "nonpayable",
      "type": "function"
    },
    {
      "inputs": [
        {
          "components": [
            {
              "internalType": "address",
              "name": "tokenAddress",
              "type": "address"
            },
            {
              "internalType": "uint256",
              "name": "amount",
              "type": "uint256"
            }
          ],
          "internalType": "struct IBase.TokenAmount[]",
          "name": "totalCollGasCompensation",
          "type": "tuple[]"
        }
      ],
      "name": "updateSystemSnapshots_excludeCollRemainder",
      "outputs": [],
      "stateMutability": "nonpayable",
      "type": "function"
    },
    {
      "inputs": [
        {
          "internalType": "address",
          "name": "_borrower",
          "type": "address"
        }
      ],
      "name": "updateTroveRewardSnapshots",
      "outputs": [],
      "stateMutability": "nonpayable",
      "type": "function"
    }
  ],
  "transactionHash": "0xc3e4f95a98721ae8eeb450e138d3476521f60323df22d640e30c5c58c9e1d479",
  "args": [],
  "numDeployments": 1,
  "solcInputHash": "a1ba766827c404575f799519d1eb71c4",
  "bytecode": "0x60806040523480156200001157600080fd5b5033806200003957604051631e4fbdf760e01b81526000600482015260240160405180910390fd5b62000044816200004b565b506200009b565b600080546001600160a01b038381166001600160a01b0319831681178455604051919092169283917f8be0079c531659141344cd1fd0a4f28419497f9722a3daafe3b4186f6b6457e09190a35050565b61481680620000ab6000396000f3fe608060405234801561001057600080fd5b506004361061043c5760003560e01c806372fe25aa11610236578063b655d0c41161013b578063d66a2553116100c3578063e853753411610087578063e853753414610a4a578063f2fde38b14610a5d578063f36b242514610a70578063f92d343314610594578063fb746c6a14610a7857600080fd5b8063d66a2553146109e7578063ddbeb714146109fa578063df349ed514610a0d578063e240885e14610a2d578063e67729e314610a4057600080fd5b8063c35bc5501161010a578063c35bc5501461099f578063c4509520146109a9578063c7b55481146109bc578063d317458f146109cb578063d380a37c146109de57600080fd5b8063b655d0c41461094e578063b7f8cf9b14610956578063b91af97c14610969578063bc3ce8c41461098c57600080fd5b8063991336b2116101be578063a537896f1161018d578063a537896f146108bd578063af3700dc146108d0578063b0d8e181146108f0578063b311d2e214610903578063b3e995381461091657600080fd5b8063991336b21461084c5780639bfc81101461085f5780639d3fe0b014610872578063a3f4df7e1461088557600080fd5b806382fe3eb91161020557806382fe3eb9146107f25780638918b9e1146108055780638d63c665146108185780638da5cb5b1461082857806391a9edb21461083957600080fd5b806372fe25aa146107ae578063741bef1a146107bd578063756b253e146107d0578063794e5724146107e357600080fd5b80633735aa201161034757806359138f9a116102cf57806366ca4a211161029357806366ca4a21146107005780636a5ab297146107085780636ef6433814610728578063701deb6814610769578063715018a6146107a657600080fd5b806359138f9a146106ac5780635d6b480f146106bf5780635dba4c4a146106d25780635dd68acd146106da578063631203b0146106ed57600080fd5b8063480cd57811610316578063480cd5781461065c5780634870dd9a1461066f57806349eefeee14610677578063502afb041461067f5780635733d58f1461069d57600080fd5b80633735aa20146105fe578063375da78b146106215780634597997814610641578063477d66cf1461064957600080fd5b80631d08837b116103ca5780632767bf64116103995780632767bf641461055957806327fb7d891461056c57806328d28b5b146105945780632be2615a146105a25780633122dfd4146105cd57600080fd5b80631d08837b1461051c5780631f68f20a1461052f57806321e3780114610538578063240926691461054b57600080fd5b80630c13ad6e116104115780630c13ad6e146104a557806310719291146104b8578063129c4c61146104cb578063154eada4146104de57806315d549f1146104f157600080fd5b8061e80314610441578063043782fb1461047f578063071a75411461048a5780630b07655714610492575b600080fd5b61046c61044f366004613c7f565b600c60209081526000928352604080842090915290825290205481565b6040519081526020015b60405180910390f35b61048842600755565b005b61046c600281565b6104886104a0366004613cb8565b610aa3565b6104886104b3366004613dfc565b610e3a565b6104886104c6366004613eca565b610ef4565b61046c6104d9366004613efe565b611206565b61046c6104ec366004613f20565b61121b565b6105046104ff366004613cb8565b6112f6565b6040516001600160801b039091168152602001610476565b61048861052a366004613f6b565b600655565b61046c60065481565b61046c610546366004613cb8565b611395565b61046c66b1a2bc2ec5000081565b610488610567366004613dfc565b6113c2565b61057f61057a366004613cb8565b6115f8565b60408051928352602083019190915201610476565b61046c6611c37937e0800081565b6002546105b5906001600160a01b031681565b6040516001600160a01b039091168152602001610476565b61046c6105db366004613f20565b600d60209081526000938452604080852082529284528284209052825290205481565b61061161060c366004613cb8565b61161c565b6040519015158152602001610476565b61063461062f366004613cb8565b611654565b6040516104769190613fd3565b61046c61173f565b61046c610657366004613f6b565b61178a565b61063461066a366004613cb8565b61179d565b61046c60c881565b600f5461046c565b610688610bb881565b60405163ffffffff9091168152602001610476565b61046c6714d1120d7b16000081565b6104886106ba366004613fe6565b611951565b6104886106cd3660046140df565b611c0e565b610488611c63565b6104886106e836600461410b565b611d2c565b61046c6106fb366004613f6b565b611e1a565b61046c611e27565b61046c610716366004613cb8565b600b6020526000908152604090205481565b61075b610736366004613cb8565b60086020526000908152604090205460ff81169061010090046001600160801b031682565b6040516104769291906141a6565b61046c6107773660046141ca565b6001600160a01b0391821660009081526008602090815260408083209390941682526007909201909152205490565b610488611e98565b61046c670de0b6b3a764000081565b6005546105b5906001600160a01b031681565b6105b56107de366004613f6b565b611eac565b61046c670f43fc2c04ee000081565b610488610800366004613cb8565b611ed6565b6104886108133660046141f8565b611ee7565b61046c680ad78ebc5ac620000081565b6000546001600160a01b03166105b5565b61046c6108473660046141ca565b612122565b61046c61085a3660046141ca565b61219a565b61048861086d366004614254565b61220a565b610488610880366004613efe565b612336565b6108b06040518060400160405280600c81526020016b2a3937bb32a6b0b730b3b2b960a11b81525081565b604051610476919061431e565b61046c6108cb366004613f6b565b61243f565b61046c6108de366004613cb8565b600a6020526000908152604090205481565b61046c6108fe366004613cb8565b61244a565b61048861091136600461436c565b612471565b61046c610924366004613c7f565b6001600160a01b03919091166000908152600c602090815260408083209315158352929052205490565b60065461046c565b6001546105b5906001600160a01b031681565b61097c610977366004613cb8565b6125d2565b60405161047694939291906143bb565b61063461099a366004613cb8565b612b64565b61046c6212750081565b61046c6109b7366004613cb8565b612c49565b61046c670ddd4b8c6c7d70d881565b6104886109d936600461436c565b612c54565b61046c60075481565b6106346109f5366004613cb8565b612def565b6004546105b5906001600160a01b031681565b61046c610a1b366004613cb8565b60096020526000908152604090205481565b610488610a3b366004614254565b612f70565b610688620f424081565b6003546105b5906001600160a01b031681565b610488610a6b366004613cb8565b613024565b61046c613064565b61046c610a86366004613c7f565b600e60209081526000928352604080842090915290825290205481565b610aab613071565b610ab4816130cc565b6001600160a01b038116600090815260086020526040812060018101546004820154919291610ae39190614479565b6001600160401b03811115610afa57610afa613cd5565b604051908082528060200260200182016040528015610b4557816020015b6040805160608101825260008082526020808301829052928201528252600019909201910181610b185790505b50905060005b6004830154811015610c94576000836004018281548110610b6e57610b6e61448c565b60009182526020822001546001600160a01b03169150610b908683600161121b565b90506040518060600160405280836001600160a01b0316815260200160011515815260200182815250848481518110610bcb57610bcb61448c565b602002602001018190525080600003610be5575050610c82565b6001600160a01b038216600090815260068601602052604081208054839290610c0f908490614479565b909155505060048054604051632f5ed88d60e11b81526001600160a01b0390911691635ebdb11a91610c4d91869160019182916000918991016144b2565b600060405180830381600087803b158015610c6757600080fd5b505af1158015610c7b573d6000803e3d6000fd5b5050505050505b80610c8c816144f4565b915050610b4b565b5060005b6001830154811015610df2576000836001018281548110610cbb57610cbb61448c565b60009182526020822001546001600160a01b031691508190610cde87838361121b565b604080516060810182526001600160a01b0385168152600060208201529081018290526004880154919250908690610d17908790614479565b81518110610d2757610d2761448c565b602002602001018190525080600003610d4257505050610de0565b6001600160a01b038316600090815260038701602052604081208054839290610d6c908490614479565b909155505060048054604051632f5ed88d60e11b81526001600160a01b0390911691635ebdb11a91610daa91869160009160019183918991016144b2565b600060405180830381600087803b158015610dc457600080fd5b505af1158015610dd8573d6000803e3d6000fd5b505050505050505b80610dea816144f4565b915050610c98565b507fda8ffab61fa593ea6420900af565f92a0767a66267f33bca2da03984f7e804678382604051610e2492919061455e565b60405180910390a1610e3583613119565b505050565b610e42613071565b60005b8251811015610e35576000838281518110610e6257610e6261448c565b6020908102919091018101516001600160a01b038086166000908152600884526040808220928416825260079092018452818120546009909452908120805492945091610eb0908490614582565b90915550506001600160a01b038084166000908152600860209081526040808320949093168252600790930190925281205580610eec816144f4565b915050610e45565b600081516001600160401b03811115610f0f57610f0f613cd5565b604051908082528060200260200182016040528015610f5457816020015b6040805180820190915260008082526020820152815260200190600190039081610f2d5790505b509050600082516001600160401b03811115610f7257610f72613cd5565b604051908082528060200260200182016040528015610fb757816020015b6040805180820190915260008082526020820152815260200190600190039081610f905790505b50905060005b83518110156111c7576000848281518110610fda57610fda61448c565b602090810291909101810151516001600160a01b038116600081815260098452604080822054600a86529181902082905580518082019091529182529281018390528651919350908690859081106110345761103461448c565b602002602001018190525060008684815181106110535761105361448c565b60209081029190910181015101516004805460405162d05f3560e81b81526001600160a01b039091169163d05f350091611094918891600191829101614595565b602060405180830381865afa1580156110b1573d6000803e3d6000fd5b505050506040513d601f19601f820116820180604052508101906110d591906145ba565b6004805460405162d05f3560e81b81526001600160a01b039091169163d05f35009161110991899160019160009101614595565b602060405180830381865afa158015611126573d6000803e3d6000fd5b505050506040513d601f19601f8201168201806040525081019061114a91906145ba565b6111549190614479565b61115e9190614582565b6001600160a01b0384166000818152600b602090815260409182902084905581518083019092529181529081018290528651919250908690869081106111a6576111a661448c565b602002602001018190525050505080806111bf906144f4565b915050610fbd565b507f0b113662e7f3724dcab94c25a8a8a1502a01b92efa7b717d154889c962f0e57282826040516111f99291906145d3565b60405180910390a1505050565b60006112128383613373565b90505b92915050565b6001600160a01b038084166000908152600d6020908152604080832093861680845293825280832085151580855290835281842054948452600c83528184209084529091528120549091908290611273908390614582565b90508015806112af575060016001600160a01b03871660009081526008602052604090205460ff1660048111156112ac576112ac61417c565b14155b156112bf576000925050506112ef565b60006112ca876133a9565b9050670de0b6b3a76400006112df83836145f8565b6112e99190614625565b93505050505b9392505050565b6000611300613071565b600f80546001808201835560008390527f8d1108e10bcb7c27dddfc02ed9d693a074039d026cf4ea4240b40f7d581ac80290910180546001600160a01b0319166001600160a01b03861617905590546113599190614582565b6001600160a01b039290921660009081526008602052604090208054610100600160881b0319166101006001600160801b038516021790555090565b6001600160a01b03811660009081526008602052604081205460ff1660048111156112155761121561417c565b6113ca613071565b600082516001600160401b038111156113e5576113e5613cd5565b60405190808252806020026020018201604052801561142a57816020015b60408051808201909152600080825260208201528152602001906001900390816114035790505b50905060005b83518110156115c857600084828151811061144d5761144d61448c565b6020908102919091018101516001600160a01b03808716600090815260088452604080822092841682526006909201845281812054600b90945290812054919350919080830361149f578192506114de565b6001600160a01b0384166000908152600a6020526040902054806114c5576114c5614639565b816114d082856145f8565b6114da9190614625565b9350505b6001600160a01b038088166000908152600860209081526040808320938816835260079093018152828220546009909152918120548590611520908490614582565b61152a9190614479565b6001600160a01b03871660008181526009602090815260409182902084905581518083019092529181529081018290528951919250908990899081106115725761157261448c565b6020908102919091018101919091526001600160a01b03808b166000908152600883526040808220999092168152600790980190915290952093909355508392506115c091508290506144f4565b915050611430565b507f3a8e5aaec2e69068b6cd3e9b5a0c3b92e3f98d87152c8dfc28d4fb8b5fe728c6816040516111f99190613fd3565b60008060006116068461349e565b925090506116148183613373565b925050915091565b600060016001600160a01b03831660009081526008602052604090205460ff16600481111561164d5761164d61417c565b1492915050565b60405163d66a255360e01b81526001600160a01b0382166004820152606090309063d66a255390602401600060405180830381865afa15801561169b573d6000803e3d6000fd5b505050506040513d6000823e601f3d908101601f191682016040526116c3919081019061464f565b905060005b8151811015611739576116fa838383815181106116e7576116e761448c565b602002602001015160000151600061121b565b82828151811061170c5761170c61448c565b60200260200101516020018181516117249190614479565b90525080611731816144f4565b9150506116c8565b50919050565b60008061174a6136d9565b90506000611760670ddd4b8c6c7d70d8836136f5565b9050670de0b6b3a76400008160065461177991906145f8565b6117839190614625565b9250505090565b6000611215611797611e27565b836137aa565b6001600160a01b03811660009081526008602052604090206060906001815460ff1660048111156117d0576117d061417c565b1461181a576040805160008082526020820190925290611812565b60408051808201909152600080825260208201528152602001906001900390816117eb5790505b509392505050565b60048101546001600160401b0381111561183657611836613cd5565b60405190808252806020026020018201604052801561187b57816020015b60408051808201909152600080825260208201528152602001906001900390816118545790505b50915060005b825181101561194a5760405180604001604052808360040183815481106118aa576118aa61448c565b9060005260206000200160009054906101000a90046001600160a01b03166001600160a01b031681526020018360060160008560040185815481106118f1576118f161448c565b60009182526020808320909101546001600160a01b031683528201929092526040019020549052835184908390811061192c5761192c61448c565b60200260200101819052508080611942906144f4565b915050611881565b5050919050565b611959613071565b6000611964836137c9565b9050600082516001600160401b0381111561198157611981613cd5565b6040519080825280602002602001820160405280156119cc57816020015b604080516060810182526000808252602080830182905292820152825260001990920191018161199f5790505b50905060005b8351811015611bd05760008482815181106119ef576119ef61448c565b602002602001015190508060400151600003611a0b5750611bbe565b80516001600160a01b03166000908152600e6020908152604080832082850151151584529091528082205490830151611a4d90670de0b6b3a7640000906145f8565b611a579190614479565b90506000611a658683614625565b9050611a7186826145f8565b611a7b9083614582565b83516001600160a01b039081166000908152600e602090815260408083208289018051151585529083528184209590955587519093168252600c815282822093511515825292909252812054611ad2908390614479565b84516001600160a01b039081166000908152600c60209081526040808320828a018051151585529083529281902085905580516060810182528951909416845291511515908301528101829052875191925090879087908110611b3757611b3761448c565b602090810291909101810191909152600480548651928701516040808901519051632f5ed88d60e11b81526001600160a01b0390931694635ebdb11a94611b8794919392600092600192016144b2565b600060405180830381600087803b158015611ba157600080fd5b505af1158015611bb5573d6000803e3d6000fd5b50505050505050505b80611bc8816144f4565b9150506119d2565b507f2ac60741d0d223c005a44c990e184f1cc93da96536581c94a3fb486bcd44ed2081604051611c00919061470d565b60405180910390a150505050565b611c16613071565b806004811115611c2857611c2861417c565b6001600160a01b0383166000908152600860205260409020805460ff19166001836004811115611c5a57611c5a61417c565b02179055505050565b611c6b613071565b6000306001600160a01b031663459799786040518163ffffffff1660e01b8152600401602060405180830381865afa158015611cab573d6000803e3d6000fd5b505050506040513d601f19601f82011682018060405250810190611ccf91906145ba565b9050670de0b6b3a7640000811115611ce957611ce9614639565b60068190556040518181527fc454ee9b76c52f782a256af821b857ca6e125d1e3333bcede402fec2bed9600c9060200160405180910390a1611d2961389d565b50565b611d346138f3565b611d3d85613920565b611d4684613920565b611d4f83613920565b611d5882613920565b611d6181613920565b600180546001600160a01b038781166001600160a01b031992831681179093556002805488831690841681179091556003805488841690851681179091556004805488851690861681179091556005805494881694909516841790945560408051958652602086019290925290840152606083019190915260808201527fa82cf7b6ff96ade557a010a5a3b4a810f703a7d8044fc051d1f2cb29e952b5999060a00160405180910390a1611e13611e98565b5050505050565b6000611215611797613064565b6000611e93306001600160a01b031663459799786040518163ffffffff1660e01b8152600401602060405180830381865afa158015611e6a573d6000803e3d6000fd5b505050506040513d601f19601f82011682018060405250810190611e8e91906145ba565b61396f565b905090565b611ea06138f3565b611eaa6000613992565b565b600f8181548110611ebc57600080fd5b6000918252602090912001546001600160a01b0316905081565b611ede613071565b611d2981613119565b611eef613071565b6000816004811115611f0357611f0361417c565b14158015611f2357506001816004811115611f2057611f2061417c565b14155b611f2f57611f2f614639565b600f5460018111611f53576040516361cf517160e11b815260040160405180910390fd5b6001600160a01b038316600090815260086020526040902080548390829060ff19166001836004811115611f8957611f8961417c565b021790555060005b6001820154811015611ff1576000826003016000846001018481548110611fba57611fba61448c565b60009182526020808320909101546001600160a01b0316835282019290925260400190205580611fe9816144f4565b915050611f91565b5060005b600482015481101561205557600082600601600084600401848154811061201e5761201e61448c565b60009182526020808320909101546001600160a01b031683528201929092526040019020558061204d816144f4565b915050611ff5565b5060005b85518110156120bb57600082600701600088848151811061207c5761207c61448c565b60200260200101516001600160a01b03166001600160a01b031681526020019081526020016000208190555080806120b3906144f4565b915050612059565b506120ca600182016000613c2a565b6120d8600482016000613c2a565b6120e284836139e2565b7fb4fbcc4163ee36a65844a40f5a765e6e21f48dc4eb3bcc9555391aa1fd4bd56f8484604051612113929190614720565b60405180910390a15050505050565b6001600160a01b03821660009081526008602052604081206001815460ff1660048111156121525761215261417c565b14612161576000915050611215565b61216d8484600061121b565b6001600160a01b03841660009081526003830160205260409020546121929190614479565b949350505050565b6001600160a01b03821660009081526008602052604081206001815460ff1660048111156121ca576121ca61417c565b146121d9576000915050611215565b6121e58484600161121b565b6001600160a01b03841660009081526006830160205260409020546121929190614479565b612212613071565b6001600160a01b0382166000908152600860205260408120905b82518110156123305760008382815181106122495761224961448c565b60200260200101516000015190508382815181106122695761226961448c565b602002602001015160200151836003016000836001600160a01b03166001600160a01b0316815260200190815260200160002060008282546122ab9190614479565b90915550506001600160a01b038116600090815260028401602052604090205460ff1661231d576001600160a01b038116600081815260028501602090815260408220805460ff1916600190811790915586810180549182018155835291200180546001600160a01b03191690911790555b5080612328816144f4565b91505061222c565b50505050565b61233e613071565b6000306001600160a01b031663459799786040518163ffffffff1660e01b8152600401602060405180830381865afa15801561237e573d6000803e3d6000fd5b505050506040513d601f19601f820116820180604052508101906123a291906145ba565b90506000826123b9670de0b6b3a7640000866145f8565b6123c39190614625565b905060006123ed6123d5600284614625565b6123df9085614479565b670de0b6b3a7640000613bab565b9050600081116123ff576123ff614639565b60068190556040518181527fc454ee9b76c52f782a256af821b857ca6e125d1e3333bcede402fec2bed9600c9060200160405180910390a1611e1361389d565b600061121582613bc1565b60008060006124588461349e565b9150915060006124688383613bce565b95945050505050565b612479613071565b6001600160a01b038216600090815260086020526040812082519091906001600160401b038111156124ad576124ad613cd5565b6040519080825280602002602001820160405280156124d6578160200160208202803683370190505b50905060005b83518110156125a05760008482815181106124f9576124f961448c565b60200260200101516000015190508482815181106125195761251961448c565b602002602001015160200151846006016000836001600160a01b03166001600160a01b03168152602001908152602001600020600082825461255b9190614582565b92505081905550808383815181106125755761257561448c565b6001600160a01b03909216602092830291909101909101525080612598816144f4565b9150506124dc565b507fdbd562e51efd47eea69731879ae11fb05e3aede1c50496b27e5fa842f9473ecc8482604051611c0092919061473d565b6001600160a01b03811660009081526008602052604081206001810154600482015460609392839283926126069190614479565b6001600160401b0381111561261d5761261d613cd5565b6040519080825280602002602001820160405280156126a157816020015b61268e60405180610100016040528060006001600160a01b031681526020016000151581526020016000815260200160008152602001600081526020016000815260200160008152602001600081525090565b81526020019060019003908161263b5790505b50945060005b60048201548110156127bf5760008260040182815481106126ca576126ca61448c565b9060005260206000200160009054906101000a90046001600160a01b03169050604051806101000160405280826001600160a01b031681526020016001151581526020018460060160008660040186815481106127295761272961448c565b9060005260206000200160009054906101000a90046001600160a01b03166001600160a01b03166001600160a01b031681526020019081526020016000205481526020016000815260200160008152602001600081526020016000815260200160008152508783815181106127a0576127a061448c565b60200260200101819052505080806127b7906144f4565b9150506126a7565b506000805b600183015481101561296d578260010181815481106127e5576127e561448c565b600091825260209182902001546040805163b55fe4e760e01b815290516001600160a01b039092169263b55fe4e7926004808401938290030181865afa158015612833573d6000803e3d6000fd5b505050506040513d601f19601f820116820180604052508101906128579190614799565b1561286e57600483015461286b9082614479565b91505b60008360010182815481106128855761288561448c565b9060005260206000200160009054906101000a90046001600160a01b03169050604051806101000160405280826001600160a01b031681526020016000151581526020018560030160008760010186815481106128e4576128e461448c565b60009182526020808320909101546001600160a01b0316835282810193909352604091820181205484529183018290528201819052606082018190526080820181905260a0909101526004850154899061293e9085614479565b8151811061294e5761294e61448c565b6020026020010181905250508080612965906144f4565b9150506127c4565b5060005b8651811015612b5a57600087828151811061298e5761298e61448c565b602002602001015190506129ab898260000151836020015161121b565b6060820181905260408201516000916129c391614479565b6005548351604051637d3b6e7960e11b81526001600160a01b0391821660048201526024810184905292935060009291169063fa76dcf290604401602060405180830381865afa158015612a1b573d6000803e3d6000fd5b505050506040513d601f19601f82011682018060405250810190612a3f91906145ba565b9050826020015115612a7b57612a5482613bc1565b60808401819052612a659083614582565b60a0840152612a74818a614479565b9850612b44565b848403612b2357612a95680ad78ebc5ac620000083614582565b60a084018190526005548451604051637d3b6e7960e11b81526001600160a01b0391821660048201526024810193909352169063fa76dcf290604401602060405180830381865afa158015612aee573d6000803e3d6000fd5b505050506040513d601f19601f82011682018060405250810190612b1291906145ba565b612b1c9088614479565b9650612b37565b60a08301829052612b348188614479565b96505b612b418189614479565b97505b5050508080612b52906144f4565b915050612971565b5050509193509193565b6040516309019aaf60e31b81526001600160a01b0382166004820152606090309063480cd57890602401600060405180830381865afa158015612bab573d6000803e3d6000fd5b505050506040513d6000823e601f3d908101601f19168201604052612bd3919081019061464f565b905060005b815181101561173957612c0a83838381518110612bf757612bf761448c565b602002602001015160000151600161121b565b828281518110612c1c57612c1c61448c565b6020026020010151602001818151612c349190614479565b90525080612c41816144f4565b915050612bd8565b6000611215826133a9565b612c5c613071565b6001600160a01b038216600090815260086020526040812082519091906001600160401b03811115612c9057612c90613cd5565b604051908082528060200260200182016040528015612cb9578160200160208202803683370190505b50905060005b83518110156125a0576000848281518110612cdc57612cdc61448c565b6020026020010151600001519050848281518110612cfc57612cfc61448c565b602002602001015160200151846006016000836001600160a01b03166001600160a01b031681526020019081526020016000206000828254612d3e9190614479565b90915550506001600160a01b038116600090815260058501602052604090205460ff16612db1576001600160a01b038116600081815260058601602090815260408220805460ff191660019081179091556004880180549182018155835291200180546001600160a01b03191690911790555b80838381518110612dc457612dc461448c565b6001600160a01b03909216602092830291909101909101525080612de7816144f4565b915050612cbf565b6001600160a01b03811660009081526008602052604090206060906001815460ff166004811115612e2257612e2261417c565b14612e3d576040805160008082526020820190925290611812565b60018101546000906001600160401b03811115612e5c57612e5c613cd5565b604051908082528060200260200182016040528015612ea157816020015b6040805180820190915260008082526020820152815260200190600190039081612e7a5790505b50905060005b8151811015611812576040518060400160405280846001018381548110612ed057612ed061448c565b9060005260206000200160009054906101000a90046001600160a01b03166001600160a01b03168152602001846003016000866001018581548110612f1757612f1761448c565b60009182526020808320909101546001600160a01b0316835282019290925260400190205490528251839083908110612f5257612f5261448c565b60200260200101819052508080612f68906144f4565b915050612ea7565b612f78613071565b6001600160a01b0382166000908152600860205260408120905b825181101561233057828181518110612fad57612fad61448c565b602002602001015160200151826003016000858481518110612fd157612fd161448c565b6020026020010151600001516001600160a01b03166001600160a01b03168152602001908152602001600020600082825461300c9190614582565b9091555081905061301c816144f4565b915050612f92565b61302c6138f3565b6001600160a01b03811661305b57604051631e4fbdf760e01b8152600060048201526024015b60405180910390fd5b611d2981613992565b6000611e9360065461396f565b6001546001600160a01b0316331480159061309757506002546001600160a01b03163314155b80156130ae57506003546001600160a01b03163314155b15611eaa5760405163c5676b0760e01b815260040160405180910390fd5b60016001600160a01b03821660009081526008602052604090205460ff1660048111156130fb576130fb61417c565b14611d2957604051630bc5fd6f60e21b815260040160405180910390fd5b6001600160a01b0381166000908152600860205260408120600181015460048201549192916131489190614479565b6001600160401b0381111561315f5761315f613cd5565b6040519080825280602002602001820160405280156131aa57816020015b604080516060810182526000808252602080830182905292820152825260001990920191018161317d5790505b50905060005b60018301548110156132705760008360010182815481106131d3576131d361448c565b60009182526020808320909101546001600160a01b03908116808452600c83526040808520858052845280852054928a168552600d8452808520828652845280852085805284528085208390558051606081018252828152938401949094529282018190528551929350918590859081106132505761325061448c565b602002602001018190525050508080613268906144f4565b9150506131b0565b5060005b60048301548110156133435760008360040182815481106132975761329761448c565b60009182526020808320909101546001600160a01b03908116808452600c83526040808520600180875290855281862054938b168652600d855281862083875285528186208187528552948190208390558051606081018252828152938401859052830182905292870154929350918590613313908690614479565b815181106133235761332361448c565b60200260200101819052505050808061333b906144f4565b915050613274565b507ffe05225747354ceccb716fc77f1b48ba5895a6456ea030e81768badd85ad4999816040516111f9919061470d565b6000811561339f578161338e670de0b6b3a7640000856145f8565b6133989190614625565b9050611215565b5060001992915050565b6001600160a01b0381166000908152600860205260408120815b600482015481101561194a5760008260040182815481106133e6576133e661448c565b6000918252602080832091909101546005546001600160a01b0391821680855260078801909352604093849020549351637d3b6e7960e11b8152600481018490526024810194909452919350169063fa76dcf290604401602060405180830381865afa15801561345a573d6000803e3d6000fd5b505050506040513d601f19601f8201168201806040525081019061347e91906145ba565b6134889085614479565b9350508080613496906144f4565b9150506133c3565b6001600160a01b03811660009081526008602052604081208190815b60048201548110156135c45760008260040182815481106134dd576134dd61448c565b60009182526020822001546001600160a01b031691506134ff8783600161121b565b6005546001600160a01b038481166000908152600688016020526040902054929350169063fa76dcf2908490613536908590614479565b6040516001600160e01b031960e085901b1681526001600160a01b0390921660048301526024820152604401602060405180830381865afa15801561357f573d6000803e3d6000fd5b505050506040513d601f19601f820116820180604052508101906135a391906145ba565b6135ad9087614479565b9550505080806135bc906144f4565b9150506134ba565b5060005b60018201548110156136d25760008260010182815481106135eb576135eb61448c565b60009182526020822001546001600160a01b0316915061360d8783600161121b565b6005546001600160a01b038481166000908152600388016020526040902054929350169063fa76dcf2908490613644908590614479565b6040516001600160e01b031960e085901b1681526001600160a01b0390921660048301526024820152604401602060405180830381865afa15801561368d573d6000803e3d6000fd5b505050506040513d601f19601f820116820180604052508101906136b191906145ba565b6136bb9086614479565b9450505080806136ca906144f4565b9150506135c8565b5050915091565b6000603c600754426136eb9190614582565b611e939190614625565b6000631f54050082111561370b57631f54050091505b816000036137225750670de0b6b3a7640000611215565b670de0b6b3a764000083835b6001811115613796576137426002826147b6565b600003613767576137538283613bf3565b9150613760600282614625565b905061372e565b6137718284613bf3565b925061377d8283613bf3565b9150600261378c600183614582565b6137609190614625565b6137a08284613bf3565b9695505050505050565b6000670de0b6b3a76400006137bf83856145f8565b6112129190614625565b6000805b82518110156117395760008382815181106137ea576137ea61448c565b6020908102919091018101516005546001600160a01b03808316600081815260098652604090819020548151637d3b6e7960e11b8152600481019390935260248301525193955091169263fa76dcf2926044808401938290030181865afa158015613859573d6000803e3d6000fd5b505050506040513d601f19601f8201168201806040525081019061387d91906145ba565b6138879084614479565b9250508080613895906144f4565b9150506137cd565b6000600754426138ad9190614582565b9050603c8110611d29574260078190556040519081527f860f8d2f0c74dd487e89e2883e3b25b8159ce1e1b3433a291cba7b82c508f3bc9060200160405180910390a150565b6000546001600160a01b03163314611eaa5760405163118cdaa760e01b8152336004820152602401613052565b6001600160a01b0381166139475760405163d92e233d60e01b815260040160405180910390fd5b803b600081900361396b57604051636f7c43f160e01b815260040160405180910390fd5b5050565b6000611215613985836611c37937e08000614479565b66b1a2bc2ec50000613bab565b600080546001600160a01b038381166001600160a01b0319831681178455604051919092169283917f8be0079c531659141344cd1fd0a4f28419497f9722a3daafe3b4186f6b6457e09190a35050565b6001600160a01b03821660009081526008602052604081205460ff1690816004811115613a1157613a1161417c565b14158015613a3157506001816004811115613a2e57613a2e61417c565b14155b613a3d57613a3d614639565b6001600160a01b03831660009081526008602052604090205461010090046001600160801b0316613a6f600184614582565b816001600160801b03161115613a8757613a87614639565b6000600f613a96600186614582565b81548110613aa657613aa661448c565b600091825260209091200154600f80546001600160a01b03909216925082916001600160801b038516908110613ade57613ade61448c565b600091825260208083209190910180546001600160a01b0319166001600160a01b03948516179055918316808252600883526040918290208054610100600160881b0319166101006001600160801b038816908102919091179091558251918252928101929092527f02b04ae5f7be9ca7c103293a2aa15f3c339d15d6eda53b721fef7b0e609c831a910160405180910390a1600f805480613b8257613b826147ca565b600082815260209020810160001990810180546001600160a01b03191690550190555050505050565b6000818310613bba5781611212565b5090919050565b600061121560c883614625565b60008115613bea578161338e68056bc75e2d63100000856145f8565b50600019611215565b600080613c0083856145f8565b9050670de0b6b3a7640000613c16600282614625565b613c209083614479565b6121929190614625565b5080546000825590600052602060002090810190611d2991905b80821115613c585760008155600101613c44565b5090565b6001600160a01b0381168114611d2957600080fd5b8015158114611d2957600080fd5b60008060408385031215613c9257600080fd5b8235613c9d81613c5c565b91506020830135613cad81613c71565b809150509250929050565b600060208284031215613cca57600080fd5b81356112ef81613c5c565b634e487b7160e01b600052604160045260246000fd5b604080519081016001600160401b0381118282101715613d0d57613d0d613cd5565b60405290565b604051606081016001600160401b0381118282101715613d0d57613d0d613cd5565b604051601f8201601f191681016001600160401b0381118282101715613d5d57613d5d613cd5565b604052919050565b60006001600160401b03821115613d7e57613d7e613cd5565b5060051b60200190565b600082601f830112613d9957600080fd5b81356020613dae613da983613d65565b613d35565b82815260059290921b84018101918181019086841115613dcd57600080fd5b8286015b84811015613df1578035613de481613c5c565b8352918301918301613dd1565b509695505050505050565b60008060408385031215613e0f57600080fd5b82356001600160401b03811115613e2557600080fd5b613e3185828601613d88565b9250506020830135613cad81613c5c565b600082601f830112613e5357600080fd5b81356020613e63613da983613d65565b82815260069290921b84018101918181019086841115613e8257600080fd5b8286015b84811015613df15760408189031215613e9f5760008081fd5b613ea7613ceb565b8135613eb281613c5c565b81528185013585820152835291830191604001613e86565b600060208284031215613edc57600080fd5b81356001600160401b03811115613ef257600080fd5b61219284828501613e42565b60008060408385031215613f1157600080fd5b50508035926020909101359150565b600080600060608486031215613f3557600080fd5b8335613f4081613c5c565b92506020840135613f5081613c5c565b91506040840135613f6081613c71565b809150509250925092565b600060208284031215613f7d57600080fd5b5035919050565b600081518084526020808501945080840160005b83811015613fc857815180516001600160a01b031688528301518388015260409096019590820190600101613f98565b509495945050505050565b6020815260006112126020830184613f84565b6000806040808486031215613ffa57600080fd5b83356001600160401b038082111561401157600080fd5b61401d87838801613d88565b945060209150818601358181111561403457600080fd5b86019050601f8101871361404757600080fd5b8035614055613da982613d65565b8181526060918202830184019184820191908a84111561407457600080fd5b938501935b838510156140ce5780858c0312156140915760008081fd5b614099613d13565b85356140a481613c5c565b8152858701356140b381613c71565b81880152858801358882015283529384019391850191614079565b508096505050505050509250929050565b600080604083850312156140f257600080fd5b82356140fd81613c5c565b946020939093013593505050565b600080600080600060a0868803121561412357600080fd5b853561412e81613c5c565b9450602086013561413e81613c5c565b9350604086013561414e81613c5c565b9250606086013561415e81613c5c565b9150608086013561416e81613c5c565b809150509295509295909350565b634e487b7160e01b600052602160045260246000fd5b600581106141a2576141a261417c565b9052565b604081016141b48285614192565b6001600160801b03831660208301529392505050565b600080604083850312156141dd57600080fd5b82356141e881613c5c565b91506020830135613cad81613c5c565b60008060006060848603121561420d57600080fd5b83356001600160401b0381111561422357600080fd5b61422f86828701613d88565b935050602084013561424081613c5c565b9150604084013560058110613f6057600080fd5b600080604080848603121561426857600080fd5b833561427381613c5c565b92506020848101356001600160401b0381111561428f57600080fd5b8501601f810187136142a057600080fd5b80356142ae613da982613d65565b8181526060918202830184019184820191908a8411156142cd57600080fd5b938501935b838510156140ce5780858c0312156142ea5760008081fd5b6142f2613d13565b85356142fd81613c5c565b815285870135878201528786013588820152835293840193918501916142d2565b600060208083528351808285015260005b8181101561434b5785810183015185820160400152820161432f565b506000604082860101526040601f19601f8301168501019250505092915050565b6000806040838503121561437f57600080fd5b823561438a81613c5c565b915060208301356001600160401b038111156143a557600080fd5b6143b185828601613e42565b9150509250929050565b608080825285518282018190526000919060a090818501906020808b01865b8381101561444657815180516001600160a01b031686528381015115158487015260408082015190870152606080820151908701528781015188870152868101518787015260c0808201519087015260e0908101519086015261010090940193908201906001016143da565b505086019890985260408501969096525050506060015292915050565b634e487b7160e01b600052601160045260246000fd5b8082018082111561121557611215614463565b634e487b7160e01b600052603260045260246000fd5b600381106141a2576141a261417c565b6001600160a01b0386168152841515602082015260a081016144d760408301866144a2565b6144e460608301856144a2565b8260808301529695505050505050565b60006001820161450657614506614463565b5060010190565b600081518084526020808501945080840160005b83811015613fc857815180516001600160a01b03168852838101511515848901526040908101519088015260609096019590820190600101614521565b6001600160a01b03831681526040602082018190526000906121929083018461450d565b8181038181111561121557611215614463565b6001600160a01b038416815282151560208201526060810161219260408301846144a2565b6000602082840312156145cc57600080fd5b5051919050565b6040815260006145e66040830185613f84565b82810360208401526124688185613f84565b808202811582820484141761121557611215614463565b634e487b7160e01b600052601260045260246000fd5b6000826146345761463461460f565b500490565b634e487b7160e01b600052600160045260246000fd5b6000602080838503121561466257600080fd5b82516001600160401b0381111561467857600080fd5b8301601f8101851361468957600080fd5b8051614697613da982613d65565b81815260069190911b820183019083810190878311156146b657600080fd5b928401925b8284101561470257604084890312156146d45760008081fd5b6146dc613ceb565b84516146e781613c5c565b815284860151868201528252604090930192908401906146bb565b979650505050505050565b602081526000611212602083018461450d565b6001600160a01b0383168152604081016112ef6020830184614192565b6001600160a01b038381168252604060208084018290528451918401829052600092858201929091906060860190855b8181101561478b57855185168352948301949183019160010161476d565b509098975050505050505050565b6000602082840312156147ab57600080fd5b81516112ef81613c71565b6000826147c5576147c561460f565b500690565b634e487b7160e01b600052603160045260246000fdfea26469706673582212206610b16c8f5d42e9043040cc5a111498f9f831abaa153359f12b7b94668eae8d64736f6c63430008140033",
  "devdoc": {
    "errors": {
      "OwnableInvalidOwner(address)": [
        {
          "details": "The owner is not a valid owner account. (eg. `address(0)`)"
        }
      ],
      "OwnableUnauthorizedAccount(address)": [
        {
          "details": "The caller account is not authorized to perform an operation."
        }
      ]
    },
    "kind": "dev",
    "methods": {
      "getTroveStakeValue(address)": {
        "params": {
          "_borrower": "Address of borrower"
        },
        "returns": {
          "_0": "stakedUSDValue USD value of total staked collaterals of borrower"
        }
      },
      "getTroveStakes(address,address)": {
        "params": {
          "_borrower": "Address of borrower",
          "_token": "Address of collateral token"
        },
        "returns": {
          "_0": "stakes Staked amount of given collateral token of user"
        }
      },
      "owner()": {
        "details": "Returns the address of the current owner."
      },
      "renounceOwnership()": {
        "details": "Leaves the contract without owner. It will not be possible to call `onlyOwner` functions. Can only be called by the current owner. NOTE: Renouncing ownership will leave the contract without an owner, thereby disabling any functionality that is only available to the owner."
      },
      "transferOwnership(address)": {
        "details": "Transfers ownership of the contract to a new account (`newOwner`). Can only be called by the current owner."
      }
    },
    "version": 1
  },
  "userdoc": {
    "kind": "user",
    "methods": {
      "addTroveOwnerToArray(address)": {
        "notice": "trove opening + closing*"
      },
      "getBaseRate()": {
        "notice": "helper*"
      },
      "getEntireDebtAndColl(address)": {
        "notice": "trove debt + coll getters*"
      },
      "getNominalICR(address)": {
        "notice": "collateral ratios*"
      },
      "getTroveOwnersCount()": {
        "notice": "troves status*"
      },
      "getTroveStakeValue(address)": {
        "notice": "Return borrowers staked value in USD"
      },
      "getTroveStakes(address,address)": {
        "notice": "Get Borrower's staked token amount, not in USD value"
      },
      "increaseTroveColl(address,(address,uint256)[])": {
        "notice": "collateral and debt setters*"
      },
      "redistributeDebtAndColl(address[],(address,bool,uint256)[])": {
        "notice": "redistribution*"
      },
      "updateStakeAndTotalStakes(address[],address)": {
        "notice": "collateral stakes*"
      }
    },
    "version": 1
  },
  "storageLayout": {
    "storage": [
      {
        "astId": 8,
        "contract": "contracts/Mock/MockTroveManager.sol:MockTroveManager",
        "label": "_owner",
        "offset": 0,
        "slot": "0",
        "type": "t_address"
      },
      {
        "astId": 18838,
        "contract": "contracts/Mock/MockTroveManager.sol:MockTroveManager",
        "label": "borrowerOperationsAddress",
        "offset": 0,
        "slot": "1",
        "type": "t_address"
      },
      {
        "astId": 18840,
        "contract": "contracts/Mock/MockTroveManager.sol:MockTroveManager",
        "label": "redemptionOperationsAddress",
        "offset": 0,
        "slot": "2",
        "type": "t_address"
      },
      {
        "astId": 18842,
        "contract": "contracts/Mock/MockTroveManager.sol:MockTroveManager",
        "label": "liquidationOperationsAddress",
        "offset": 0,
        "slot": "3",
        "type": "t_address"
      },
      {
        "astId": 18845,
        "contract": "contracts/Mock/MockTroveManager.sol:MockTroveManager",
        "label": "storagePool",
        "offset": 0,
        "slot": "4",
        "type": "t_contract(IStoragePool)7863"
      },
      {
        "astId": 18848,
        "contract": "contracts/Mock/MockTroveManager.sol:MockTroveManager",
        "label": "priceFeed",
        "offset": 0,
        "slot": "5",
        "type": "t_contract(IPriceFeed)7272"
      },
      {
        "astId": 18859,
        "contract": "contracts/Mock/MockTroveManager.sol:MockTroveManager",
        "label": "baseRate",
        "offset": 0,
        "slot": "6",
        "type": "t_uint256"
      },
      {
        "astId": 18861,
        "contract": "contracts/Mock/MockTroveManager.sol:MockTroveManager",
        "label": "lastFeeOperationTime",
        "offset": 0,
        "slot": "7",
        "type": "t_uint256"
      },
      {
        "astId": 18900,
        "contract": "contracts/Mock/MockTroveManager.sol:MockTroveManager",
        "label": "Troves",
        "offset": 0,
        "slot": "8",
        "type": "t_mapping(t_address,t_struct(Trove)18895_storage)"
      },
      {
        "astId": 18904,
        "contract": "contracts/Mock/MockTroveManager.sol:MockTroveManager",
        "label": "totalStakes",
        "offset": 0,
        "slot": "9",
        "type": "t_mapping(t_address,t_uint256)"
      },
      {
        "astId": 18908,
        "contract": "contracts/Mock/MockTroveManager.sol:MockTroveManager",
        "label": "totalStakesSnapshot",
        "offset": 0,
        "slot": "10",
        "type": "t_mapping(t_address,t_uint256)"
      },
      {
        "astId": 18912,
        "contract": "contracts/Mock/MockTroveManager.sol:MockTroveManager",
        "label": "totalCollateralSnapshots",
        "offset": 0,
        "slot": "11",
        "type": "t_mapping(t_address,t_uint256)"
      },
      {
        "astId": 18918,
        "contract": "contracts/Mock/MockTroveManager.sol:MockTroveManager",
        "label": "liquidatedTokens",
        "offset": 0,
        "slot": "12",
        "type": "t_mapping(t_address,t_mapping(t_bool,t_uint256))"
      },
      {
        "astId": 18926,
        "contract": "contracts/Mock/MockTroveManager.sol:MockTroveManager",
        "label": "rewardSnapshots",
        "offset": 0,
        "slot": "13",
        "type": "t_mapping(t_address,t_mapping(t_address,t_mapping(t_bool,t_uint256)))"
      },
      {
        "astId": 18932,
        "contract": "contracts/Mock/MockTroveManager.sol:MockTroveManager",
        "label": "lastErrorRedistribution",
        "offset": 0,
        "slot": "14",
        "type": "t_mapping(t_address,t_mapping(t_bool,t_uint256))"
      },
      {
        "astId": 18935,
        "contract": "contracts/Mock/MockTroveManager.sol:MockTroveManager",
        "label": "TroveOwners",
        "offset": 0,
        "slot": "15",
        "type": "t_array(t_address)dyn_storage"
      }
    ],
    "types": {
      "t_address": {
        "encoding": "inplace",
        "label": "address",
        "numberOfBytes": "20"
      },
      "t_array(t_address)dyn_storage": {
        "base": "t_address",
        "encoding": "dynamic_array",
        "label": "address[]",
        "numberOfBytes": "32"
      },
      "t_array(t_contract(IDebtToken)7094)dyn_storage": {
        "base": "t_contract(IDebtToken)7094",
        "encoding": "dynamic_array",
        "label": "contract IDebtToken[]",
        "numberOfBytes": "32"
      },
      "t_bool": {
        "encoding": "inplace",
        "label": "bool",
        "numberOfBytes": "1"
      },
      "t_contract(IDebtToken)7094": {
        "encoding": "inplace",
        "label": "contract IDebtToken",
        "numberOfBytes": "20"
      },
      "t_contract(IPriceFeed)7272": {
        "encoding": "inplace",
        "label": "contract IPriceFeed",
        "numberOfBytes": "20"
      },
      "t_contract(IStoragePool)7863": {
        "encoding": "inplace",
        "label": "contract IStoragePool",
        "numberOfBytes": "20"
      },
      "t_enum(Status)6677": {
        "encoding": "inplace",
        "label": "enum IBBase.Status",
        "numberOfBytes": "1"
      },
      "t_mapping(t_address,t_bool)": {
        "encoding": "mapping",
        "key": "t_address",
        "label": "mapping(address => bool)",
        "numberOfBytes": "32",
        "value": "t_bool"
      },
      "t_mapping(t_address,t_mapping(t_address,t_mapping(t_bool,t_uint256)))": {
        "encoding": "mapping",
        "key": "t_address",
        "label": "mapping(address => mapping(address => mapping(bool => uint256)))",
        "numberOfBytes": "32",
        "value": "t_mapping(t_address,t_mapping(t_bool,t_uint256))"
      },
      "t_mapping(t_address,t_mapping(t_bool,t_uint256))": {
        "encoding": "mapping",
        "key": "t_address",
        "label": "mapping(address => mapping(bool => uint256))",
        "numberOfBytes": "32",
        "value": "t_mapping(t_bool,t_uint256)"
      },
      "t_mapping(t_address,t_struct(Trove)18895_storage)": {
        "encoding": "mapping",
        "key": "t_address",
        "label": "mapping(address => struct TroveManager.Trove)",
        "numberOfBytes": "32",
        "value": "t_struct(Trove)18895_storage"
      },
      "t_mapping(t_address,t_uint256)": {
        "encoding": "mapping",
        "key": "t_address",
        "label": "mapping(address => uint256)",
        "numberOfBytes": "32",
        "value": "t_uint256"
      },
      "t_mapping(t_bool,t_uint256)": {
        "encoding": "mapping",
        "key": "t_bool",
        "label": "mapping(bool => uint256)",
        "numberOfBytes": "32",
        "value": "t_uint256"
      },
      "t_mapping(t_contract(IDebtToken)7094,t_uint256)": {
        "encoding": "mapping",
        "key": "t_contract(IDebtToken)7094",
        "label": "mapping(contract IDebtToken => uint256)",
        "numberOfBytes": "32",
        "value": "t_uint256"
      },
      "t_struct(Trove)18895_storage": {
        "encoding": "inplace",
        "label": "struct TroveManager.Trove",
        "members": [
          {
            "astId": 18864,
            "contract": "contracts/Mock/MockTroveManager.sol:MockTroveManager",
            "label": "status",
            "offset": 0,
            "slot": "0",
            "type": "t_enum(Status)6677"
          },
          {
            "astId": 18866,
            "contract": "contracts/Mock/MockTroveManager.sol:MockTroveManager",
            "label": "arrayIndex",
            "offset": 1,
            "slot": "0",
            "type": "t_uint128"
          },
          {
            "astId": 18870,
            "contract": "contracts/Mock/MockTroveManager.sol:MockTroveManager",
            "label": "debtTokens",
            "offset": 0,
            "slot": "1",
            "type": "t_array(t_contract(IDebtToken)7094)dyn_storage"
          },
          {
            "astId": 18874,
            "contract": "contracts/Mock/MockTroveManager.sol:MockTroveManager",
            "label": "debtsRegistered",
            "offset": 0,
            "slot": "2",
            "type": "t_mapping(t_address,t_bool)"
          },
          {
            "astId": 18879,
            "contract": "contracts/Mock/MockTroveManager.sol:MockTroveManager",
            "label": "debts",
            "offset": 0,
            "slot": "3",
            "type": "t_mapping(t_contract(IDebtToken)7094,t_uint256)"
          },
          {
            "astId": 18882,
            "contract": "contracts/Mock/MockTroveManager.sol:MockTroveManager",
            "label": "collTokens",
            "offset": 0,
            "slot": "4",
            "type": "t_array(t_address)dyn_storage"
          },
          {
            "astId": 18886,
            "contract": "contracts/Mock/MockTroveManager.sol:MockTroveManager",
            "label": "collsRegistered",
            "offset": 0,
            "slot": "5",
            "type": "t_mapping(t_address,t_bool)"
          },
          {
            "astId": 18890,
            "contract": "contracts/Mock/MockTroveManager.sol:MockTroveManager",
            "label": "colls",
            "offset": 0,
            "slot": "6",
            "type": "t_mapping(t_address,t_uint256)"
          },
          {
            "astId": 18894,
            "contract": "contracts/Mock/MockTroveManager.sol:MockTroveManager",
            "label": "stakes",
            "offset": 0,
            "slot": "7",
            "type": "t_mapping(t_address,t_uint256)"
          }
        ],
        "numberOfBytes": "256"
      },
      "t_uint128": {
        "encoding": "inplace",
        "label": "uint128",
        "numberOfBytes": "16"
      },
      "t_uint256": {
        "encoding": "inplace",
        "label": "uint256",
        "numberOfBytes": "32"
      }
    }
  }
}