{
  "address": "0x5FbDB2315678afecb367f032d93F642f64180aa3",
  "abi": [
    {
      "inputs": [],
      "name": "ActiveTrove",
      "type": "error"
    },
    {
      "inputs": [],
      "name": "CollWithdrawPermittedInRM",
      "type": "error"
    },
    {
      "inputs": [],
      "name": "FeeExceedMaxPercentage",
      "type": "error"
    },
    {
      "inputs": [],
      "name": "ICRDecreasedInRM",
      "type": "error"
    },
    {
      "inputs": [],
      "name": "ICR_lt_CCR",
      "type": "error"
    },
    {
      "inputs": [],
      "name": "ICR_lt_MCR",
      "type": "error"
    },
    {
      "inputs": [],
      "name": "InsufficientDebtToRepay",
      "type": "error"
    },
    {
      "inputs": [],
      "name": "MaxFee_gt_100_InRM",
      "type": "error"
    },
    {
      "inputs": [],
      "name": "MaxFee_out_Range",
      "type": "error"
    },
    {
      "inputs": [],
      "name": "NotAllowedInRecoveryMode",
      "type": "error"
    },
    {
      "inputs": [],
      "name": "NotBorrower",
      "type": "error"
    },
    {
      "inputs": [],
      "name": "NotContract",
      "type": "error"
    },
    {
      "inputs": [],
      "name": "NotFromStabilityPool",
      "type": "error"
    },
    {
      "inputs": [],
      "name": "NotFromSwapOps",
      "type": "error"
    },
    {
      "inputs": [
        {
          "internalType": "address",
          "name": "owner",
          "type": "address"
        }
      ],
      "name": "OwnableInvalidOwner",
      "type": "error"
    },
    {
      "inputs": [
        {
          "internalType": "address",
          "name": "account",
          "type": "address"
        }
      ],
      "name": "OwnableUnauthorizedAccount",
      "type": "error"
    },
    {
      "inputs": [],
      "name": "Repaid_gt_CurrentDebt",
      "type": "error"
    },
    {
      "inputs": [],
      "name": "TCR_lt_CCR",
      "type": "error"
    },
    {
      "inputs": [],
      "name": "TroveClosedOrNotExist",
      "type": "error"
    },
    {
      "inputs": [],
      "name": "WithdrawAmount_gt_Coll",
      "type": "error"
    },
    {
      "inputs": [],
      "name": "ZeroAddress",
      "type": "error"
    },
    {
      "inputs": [],
      "name": "ZeroDebtChange",
      "type": "error"
    },
    {
      "anonymous": false,
      "inputs": [
        {
          "indexed": false,
          "internalType": "address",
          "name": "_troveManagerAddress",
          "type": "address"
        },
        {
          "indexed": false,
          "internalType": "address",
          "name": "_storagePoolAddress",
          "type": "address"
        },
        {
          "indexed": false,
          "internalType": "address",
          "name": "_stabilityPoolAddress",
          "type": "address"
        },
        {
          "indexed": false,
          "internalType": "address",
          "name": "_reservePoolAddress",
          "type": "address"
        },
        {
          "indexed": false,
          "internalType": "address",
          "name": "_priceFeedAddress",
          "type": "address"
        },
        {
          "indexed": false,
          "internalType": "address",
          "name": "_debtTokenManagerAddress",
          "type": "address"
        },
        {
          "indexed": false,
          "internalType": "address",
          "name": "_collTokenManagerAddress",
          "type": "address"
        },
        {
          "indexed": false,
          "internalType": "address",
          "name": "_swapOperationsAddress",
          "type": "address"
        }
      ],
      "name": "BorrowerOperationsInitialized",
      "type": "event"
    },
    {
      "anonymous": false,
      "inputs": [
        {
          "indexed": true,
          "internalType": "address",
          "name": "previousOwner",
          "type": "address"
        },
        {
          "indexed": true,
          "internalType": "address",
          "name": "newOwner",
          "type": "address"
        }
      ],
      "name": "OwnershipTransferred",
      "type": "event"
    },
    {
      "anonymous": false,
      "inputs": [
        {
          "indexed": true,
          "internalType": "address",
          "name": "_borrower",
          "type": "address"
        },
        {
          "indexed": false,
          "internalType": "uint256",
          "name": "amount",
          "type": "uint256"
        }
      ],
      "name": "SentBorrowingFeesToReserve",
      "type": "event"
    },
    {
      "anonymous": false,
      "inputs": [
        {
          "indexed": false,
          "internalType": "address",
          "name": "_borrower",
          "type": "address"
        },
        {
          "indexed": false,
          "internalType": "uint256",
          "name": "arrayIndex",
          "type": "uint256"
        }
      ],
      "name": "TroveCreated",
      "type": "event"
    },
    {
      "inputs": [],
      "name": "BORROWING_FEE_FLOOR",
      "outputs": [
        {
          "internalType": "uint256",
          "name": "",
          "type": "uint256"
        }
      ],
      "stateMutability": "view",
      "type": "function"
    },
    {
      "inputs": [],
      "name": "CCR",
      "outputs": [
        {
          "internalType": "uint256",
          "name": "",
          "type": "uint256"
        }
      ],
      "stateMutability": "view",
      "type": "function"
    },
    {
      "inputs": [],
      "name": "MAX_BORROWING_FEE",
      "outputs": [
        {
          "internalType": "uint256",
          "name": "",
          "type": "uint256"
        }
      ],
      "stateMutability": "view",
      "type": "function"
    },
    {
      "inputs": [],
      "name": "MCR",
      "outputs": [
        {
          "internalType": "uint256",
          "name": "",
          "type": "uint256"
        }
      ],
      "stateMutability": "view",
      "type": "function"
    },
    {
      "inputs": [],
      "name": "NAME",
      "outputs": [
        {
          "internalType": "string",
          "name": "",
          "type": "string"
        }
      ],
      "stateMutability": "view",
      "type": "function"
    },
    {
      "inputs": [],
      "name": "PERCENT_DIVISOR",
      "outputs": [
        {
          "internalType": "uint256",
          "name": "",
          "type": "uint256"
        }
      ],
      "stateMutability": "view",
      "type": "function"
    },
    {
      "inputs": [],
      "name": "REDEMPTION_FEE_FLOOR",
      "outputs": [
        {
          "internalType": "uint256",
          "name": "",
          "type": "uint256"
        }
      ],
      "stateMutability": "view",
      "type": "function"
    },
    {
      "inputs": [],
      "name": "STABLE_COIN_GAS_COMPENSATION",
      "outputs": [
        {
          "internalType": "uint256",
          "name": "",
          "type": "uint256"
        }
      ],
      "stateMutability": "view",
      "type": "function"
    },
    {
      "inputs": [],
      "name": "SWAP_BASE_FEE",
      "outputs": [
        {
          "internalType": "uint32",
          "name": "",
          "type": "uint32"
        }
      ],
      "stateMutability": "view",
      "type": "function"
    },
    {
      "inputs": [],
      "name": "SWAP_FEE_PRECISION",
      "outputs": [
        {
          "internalType": "uint32",
          "name": "",
          "type": "uint32"
        }
      ],
      "stateMutability": "view",
      "type": "function"
    },
    {
      "inputs": [],
      "name": "_100pct",
      "outputs": [
        {
          "internalType": "uint256",
          "name": "",
          "type": "uint256"
        }
      ],
      "stateMutability": "view",
      "type": "function"
    },
    {
      "inputs": [
        {
          "components": [
            {
              "internalType": "address",
              "name": "tokenAddress",
              "type": "address"
            },
            {
              "internalType": "uint256",
              "name": "amount",
              "type": "uint256"
            }
          ],
          "internalType": "struct IBase.TokenAmount[]",
          "name": "_colls",
          "type": "tuple[]"
        }
      ],
      "name": "addColl",
      "outputs": [],
      "stateMutability": "nonpayable",
      "type": "function"
    },
    {
      "inputs": [],
      "name": "closeTrove",
      "outputs": [],
      "stateMutability": "nonpayable",
      "type": "function"
    },
    {
      "inputs": [],
      "name": "collTokenManager",
      "outputs": [
        {
          "internalType": "contract ICollTokenManager",
          "name": "",
          "type": "address"
        }
      ],
      "stateMutability": "view",
      "type": "function"
    },
    {
      "inputs": [],
      "name": "debtTokenManager",
      "outputs": [
        {
          "internalType": "contract IDebtTokenManager",
          "name": "",
          "type": "address"
        }
      ],
      "stateMutability": "view",
      "type": "function"
    },
    {
      "inputs": [
        {
          "components": [
            {
              "internalType": "contract IDebtToken",
              "name": "debtToken",
              "type": "address"
            },
            {
              "internalType": "uint256",
              "name": "netDebt",
              "type": "uint256"
            },
            {
              "internalType": "uint256",
              "name": "borrowingFee",
              "type": "uint256"
            }
          ],
          "internalType": "struct IBBase.DebtTokenAmount[]",
          "name": "_debts",
          "type": "tuple[]"
        }
      ],
      "name": "getCompositeDebt",
      "outputs": [
        {
          "internalType": "uint256",
          "name": "",
          "type": "uint256"
        }
      ],
      "stateMutability": "view",
      "type": "function"
    },
    {
      "inputs": [
        {
          "internalType": "address",
          "name": "_borrower",
          "type": "address"
        },
        {
          "internalType": "address",
          "name": "_to",
          "type": "address"
        },
        {
          "components": [
            {
              "internalType": "address",
              "name": "tokenAddress",
              "type": "address"
            },
            {
              "internalType": "uint256",
              "name": "amount",
              "type": "uint256"
            }
          ],
          "internalType": "struct IBase.TokenAmount[]",
          "name": "_debts",
          "type": "tuple[]"
        },
        {
          "internalType": "uint256",
          "name": "_maxFeePercentage",
          "type": "uint256"
        }
      ],
      "name": "increaseDebt",
      "outputs": [],
      "stateMutability": "nonpayable",
      "type": "function"
    },
    {
      "inputs": [
        {
          "components": [
            {
              "internalType": "address",
              "name": "tokenAddress",
              "type": "address"
            },
            {
              "internalType": "uint256",
              "name": "amount",
              "type": "uint256"
            }
          ],
          "internalType": "struct IBase.TokenAmount[]",
          "name": "_debts",
          "type": "tuple[]"
        },
        {
          "internalType": "uint256",
          "name": "_maxFeePercentage",
          "type": "uint256"
        }
      ],
      "name": "increaseDebts",
      "outputs": [],
      "stateMutability": "nonpayable",
      "type": "function"
    },
    {
      "inputs": [
        {
          "components": [
            {
              "internalType": "address",
              "name": "tokenAddress",
              "type": "address"
            },
            {
              "internalType": "uint256",
              "name": "amount",
              "type": "uint256"
            }
          ],
          "internalType": "struct IBase.TokenAmount[]",
          "name": "_colls",
          "type": "tuple[]"
        }
      ],
      "name": "openTrove",
      "outputs": [],
      "stateMutability": "nonpayable",
      "type": "function"
    },
    {
      "inputs": [],
      "name": "owner",
      "outputs": [
        {
          "internalType": "address",
          "name": "",
          "type": "address"
        }
      ],
      "stateMutability": "view",
      "type": "function"
    },
    {
      "inputs": [],
      "name": "priceFeed",
      "outputs": [
        {
          "internalType": "contract IPriceFeed",
          "name": "",
          "type": "address"
        }
      ],
      "stateMutability": "view",
      "type": "function"
    },
    {
      "inputs": [],
      "name": "renounceOwnership",
      "outputs": [],
      "stateMutability": "nonpayable",
      "type": "function"
    },
    {
      "inputs": [
        {
          "components": [
            {
              "internalType": "address",
              "name": "tokenAddress",
              "type": "address"
            },
            {
              "internalType": "uint256",
              "name": "amount",
              "type": "uint256"
            }
          ],
          "internalType": "struct IBase.TokenAmount[]",
          "name": "_debts",
          "type": "tuple[]"
        }
      ],
      "name": "repayDebt",
      "outputs": [],
      "stateMutability": "nonpayable",
      "type": "function"
    },
    {
      "inputs": [
        {
          "internalType": "address",
          "name": "borrower",
          "type": "address"
        },
        {
          "components": [
            {
              "internalType": "address",
              "name": "tokenAddress",
              "type": "address"
            },
            {
              "internalType": "uint256",
              "name": "amount",
              "type": "uint256"
            }
          ],
          "internalType": "struct IBase.TokenAmount[]",
          "name": "_debts",
          "type": "tuple[]"
        }
      ],
      "name": "repayDebtFromPoolBurn",
      "outputs": [],
      "stateMutability": "nonpayable",
      "type": "function"
    },
    {
      "inputs": [],
      "name": "reservePool",
      "outputs": [
        {
          "internalType": "contract IReservePool",
          "name": "",
          "type": "address"
        }
      ],
      "stateMutability": "view",
      "type": "function"
    },
    {
      "inputs": [
        {
          "internalType": "address",
          "name": "_troveManagerAddress",
          "type": "address"
        },
        {
          "internalType": "address",
          "name": "_storagePoolAddress",
          "type": "address"
        },
        {
          "internalType": "address",
          "name": "_stabilityPoolAddress",
          "type": "address"
        },
        {
          "internalType": "address",
          "name": "_reservePoolAddress",
          "type": "address"
        },
        {
          "internalType": "address",
          "name": "_priceFeedAddress",
          "type": "address"
        },
        {
          "internalType": "address",
          "name": "_debtTokenManagerAddress",
          "type": "address"
        },
        {
          "internalType": "address",
          "name": "_collTokenManagerAddress",
          "type": "address"
        },
        {
          "internalType": "address",
          "name": "_swapOperations",
          "type": "address"
        }
      ],
      "name": "setAddresses",
      "outputs": [],
      "stateMutability": "nonpayable",
      "type": "function"
    },
    {
      "inputs": [],
      "name": "storagePool",
      "outputs": [
        {
          "internalType": "contract IStoragePool",
          "name": "",
          "type": "address"
        }
      ],
      "stateMutability": "view",
      "type": "function"
    },
    {
      "inputs": [
        {
          "internalType": "address",
          "name": "_account",
          "type": "address"
        },
        {
          "internalType": "uint256",
          "name": "_amount",
          "type": "uint256"
        },
        {
          "internalType": "contract IDebtToken",
          "name": "_debtToken",
          "type": "address"
        }
      ],
      "name": "testDebtToken_burn",
      "outputs": [],
      "stateMutability": "nonpayable",
      "type": "function"
    },
    {
      "inputs": [
        {
          "internalType": "address",
          "name": "_account",
          "type": "address"
        },
        {
          "internalType": "uint256",
          "name": "_amount",
          "type": "uint256"
        },
        {
          "internalType": "contract IDebtToken",
          "name": "_debtToken",
          "type": "address"
        }
      ],
      "name": "testDebtToken_mint",
      "outputs": [],
      "stateMutability": "nonpayable",
      "type": "function"
    },
    {
      "inputs": [
        {
          "internalType": "address",
          "name": "_tokenAddress",
          "type": "address"
        },
        {
          "internalType": "bool",
          "name": "_isColl",
          "type": "bool"
        },
        {
          "internalType": "enum IBase.PoolType",
          "name": "_poolType",
          "type": "uint8"
        },
        {
          "internalType": "uint256",
          "name": "_amount",
          "type": "uint256"
        }
      ],
      "name": "testStoragePool_addValue",
      "outputs": [],
      "stateMutability": "nonpayable",
      "type": "function"
    },
    {
      "inputs": [
        {
          "internalType": "address",
          "name": "_tokenAddress",
          "type": "address"
        },
        {
          "internalType": "bool",
          "name": "_isColl",
          "type": "bool"
        },
        {
          "internalType": "enum IBase.PoolType",
          "name": "_poolType",
          "type": "uint8"
        },
        {
          "internalType": "uint256",
          "name": "_amount",
          "type": "uint256"
        }
      ],
      "name": "testStoragePool_subtractValue",
      "outputs": [],
      "stateMutability": "nonpayable",
      "type": "function"
    },
    {
      "inputs": [
        {
          "internalType": "address",
          "name": "_tokenAddress",
          "type": "address"
        },
        {
          "internalType": "bool",
          "name": "_isColl",
          "type": "bool"
        },
        {
          "internalType": "enum IBase.PoolType",
          "name": "_fromType",
          "type": "uint8"
        },
        {
          "internalType": "enum IBase.PoolType",
          "name": "_toType",
          "type": "uint8"
        },
        {
          "internalType": "uint256",
          "name": "_amount",
          "type": "uint256"
        }
      ],
      "name": "testStoragePool_transferBetweenTypes",
      "outputs": [],
      "stateMutability": "nonpayable",
      "type": "function"
    },
    {
      "inputs": [
        {
          "internalType": "address",
          "name": "_receiver",
          "type": "address"
        },
        {
          "internalType": "address",
          "name": "_tokenAddress",
          "type": "address"
        },
        {
          "internalType": "bool",
          "name": "_isColl",
          "type": "bool"
        },
        {
          "internalType": "enum IBase.PoolType",
          "name": "_poolType",
          "type": "uint8"
        },
        {
          "internalType": "uint256",
          "name": "_amount",
          "type": "uint256"
        }
      ],
      "name": "testStoragePool_withdrawalValue",
      "outputs": [],
      "stateMutability": "nonpayable",
      "type": "function"
    },
    {
      "inputs": [
        {
          "internalType": "address[]",
          "name": "collTokenAddresses",
          "type": "address[]"
        },
        {
          "internalType": "address",
          "name": "_borrower",
          "type": "address"
        }
      ],
      "name": "testTroveManager_closeTrove",
      "outputs": [],
      "stateMutability": "nonpayable",
      "type": "function"
    },
    {
      "inputs": [
        {
          "internalType": "address",
          "name": "_borrower",
          "type": "address"
        },
        {
          "components": [
            {
              "internalType": "contract IDebtToken",
              "name": "debtToken",
              "type": "address"
            },
            {
              "internalType": "uint256",
              "name": "netDebt",
              "type": "uint256"
            },
            {
              "internalType": "uint256",
              "name": "borrowingFee",
              "type": "uint256"
            }
          ],
          "internalType": "struct IBBase.DebtTokenAmount[]",
          "name": "_debtTokenAmounts",
          "type": "tuple[]"
        }
      ],
      "name": "testTroveManager_increaseTroveDebt",
      "outputs": [],
      "stateMutability": "nonpayable",
      "type": "function"
    },
    {
      "inputs": [
        {
          "internalType": "address",
          "name": "_borrower",
          "type": "address"
        },
        {
          "internalType": "uint256",
          "name": "_num",
          "type": "uint256"
        }
      ],
      "name": "testTroveManager_setTroveStatus",
      "outputs": [],
      "stateMutability": "nonpayable",
      "type": "function"
    },
    {
      "inputs": [
        {
          "internalType": "address",
          "name": "newOwner",
          "type": "address"
        }
      ],
      "name": "transferOwnership",
      "outputs": [],
      "stateMutability": "nonpayable",
      "type": "function"
    },
    {
      "inputs": [],
      "name": "troveManager",
      "outputs": [
        {
          "internalType": "contract ITroveManager",
          "name": "",
          "type": "address"
        }
      ],
      "stateMutability": "view",
      "type": "function"
    },
    {
      "inputs": [
        {
          "components": [
            {
              "internalType": "address",
              "name": "tokenAddress",
              "type": "address"
            },
            {
              "internalType": "uint256",
              "name": "amount",
              "type": "uint256"
            }
          ],
          "internalType": "struct IBase.TokenAmount[]",
          "name": "_colls",
          "type": "tuple[]"
        }
      ],
      "name": "withdrawColl",
      "outputs": [],
      "stateMutability": "nonpayable",
      "type": "function"
    }
  ],
  "transactionHash": "0x66da72391c61356f356703094fc37b5aa250e1e62d1f2f2f9d4ef37a819e9fa0",
  "args": [],
  "numDeployments": 1,
  "solcInputHash": "a6d55ae1f6eb61d657352227caab6412",
  "bytecode": "0x60806040523480156200001157600080fd5b5033806200003957604051631e4fbdf760e01b81526000600482015260240160405180910390fd5b62000044816200004b565b506200009b565b600080546001600160a01b038381166001600160a01b0319831681178455604051919092169283917f8be0079c531659141344cd1fd0a4f28419497f9722a3daafe3b4186f6b6457e09190a35050565b613d9e80620000ab6000396000f3fe608060405234801561001057600080fd5b506004361061023d5760003560e01c80638a72e3691161013b578063c58bfe22116100b8578063e67729e31161007c578063e67729e3146104ef578063eb95c493146104f9578063f2fde38b1461050c578063f8af4a251461051f578063f92d3433146102d157600080fd5b8063c58bfe2214610490578063c592859e146104a3578063c5e7f964146104b6578063d733cfd0146104c9578063ddbeb714146104dc57600080fd5b806393f5ba5d116100ff57806393f5ba5d14610406578063943ebeae14610419578063a3f4df7e1461042c578063c239c6ff1461046a578063c51627b11461047d57600080fd5b80638a72e369146103ac5780638cf6e507146103bf5780638d63c665146103d25780638da5cb5b146103e2578063915efcee146103f357600080fd5b8063502afb04116101c9578063715018a61161018d578063715018a61461036057806372fe25aa14610368578063741bef1a1461037757806377a7b0911461038a578063794e57241461039d57600080fd5b8063502afb04146102fa578063522a86fe146103185780635733d58f1461032b578063573fd4a01461033a5780635a2def671461034d57600080fd5b80630e704d50116102105780630e704d50146102ad57806324092669146102b557806328d28b5b146102d15780633d83908a146102df5780634870dd9a146102f257600080fd5b80630266f044146102425780630664811714610272578063070cd706146102875780630d07e99f1461029a575b600080fd5b600554610255906001600160a01b031681565b6040516001600160a01b0390911681526020015b60405180910390f35b610285610280366004613185565b610532565b005b61028561029536600461331f565b61059f565b6102856102a83660046133f8565b610cbd565b610285610d25565b6102c366b1a2bc2ec5000081565b604051908152602001610269565b6102c36611c37937e0800081565b600154610255906001600160a01b031681565b6102c360c881565b610303610bb881565b60405163ffffffff9091168152602001610269565b600254610255906001600160a01b031681565b6102c36714d1120d7b16000081565b61028561034836600461331f565b610f7f565b61028561035b366004613447565b61107d565b6102856110b2565b6102c3670de0b6b3a764000081565b600654610255906001600160a01b031681565b61028561039836600461331f565b6110c6565b6102c3670f43fc2c04ee000081565b6102856103ba3660046134f2565b6112b7565b6102856103cd366004613552565b611327565b6102c3680ad78ebc5ac620000081565b6000546001600160a01b0316610255565b61028561040136600461331f565b61135e565b610285610414366004613595565b6113e3565b600354610255906001600160a01b031681565b61045d60405180604001604052806012815260200171426f72726f7765724f7065726174696f6e7360701b81525081565b60405161026991906135d9565b610285610478366004613627565b6113f3565b61028561048b366004613669565b611458565b61028561049e366004613695565b61148a565b6102856104b13660046136da565b611570565b6102c36104c4366004613743565b611584565b6102856104d7366004613777565b611595565b600454610255906001600160a01b031681565b610303620f424081565b610285610507366004613627565b6116d7565b61028561051a366004613820565b611705565b61028561052d366004613185565b611748565b600480546040516304b86aad60e21b81526001600160a01b03909116916312e1aab49161056791889188918891889101613867565b600060405180830381600087803b15801561058157600080fd5b505af1158015610595573d6000803e3d6000fd5b5050505050505050565b60408051608080820183526001546001600160a01b0390811683526004548116602080850191909152600254821684860152600354909116606080850191909152845161018081018652818152918201819052938101849052600093810184905290810183905260a0810183905260c0810183905260e081018390526101008101839052610120810183905261014081018390526101608101929092529081606001516001600160a01b031663efc5f8c56040518163ffffffff1660e01b8152600401600060405180830381865afa15801561067f573d6000803e3d6000fd5b505050506040513d6000823e601f3d908101601f191682016040526106a7919081019061389b565b8152815133906106b7908261177d565b6000604051806060016040528085604001516001600160a01b0316631bd817c96040518163ffffffff1660e01b8152600401602060405180830381865afa158015610706573d6000803e3d6000fd5b505050506040513d601f19601f8201168201806040525081019061072a9190613934565b6001600160a01b03168152680ad78ebc5ac62000006020820152600060409182015280516001808252818301909252919250816020015b61076961308d565b81526020019060019003908161076157505060408401819052805182919060009061079657610796613951565b60200260200101819052506107ae8360400151611813565b6060840152602083018590526107c3856118f5565b6080840181905260608401516107d991906119d1565b60a0840152608083015160608401516107f29190611a07565b8360c001818152505083602001516001600160a01b03166343a124fa6040518163ffffffff1660e01b8152600401608060405180830381865afa15801561083d573d6000803e3d6000fd5b505050506040513d601f19601f820116820180604052508101906108619190613967565b6101608701526101408601526101208501521580156101008501526108925761088d8360a00151611a2c565b6108d0565b61089f8360a00151611a55565b60006108c38460800151600186606001516001886101400151896101600151611a7e565b90506108ce81611add565b505b8351604051635d6b480f60e01b81526001600160a01b0390911690635d6b480f906109029085906001906004016139a6565b600060405180830381600087803b15801561091c57600080fd5b505af1158015610930573d6000803e3d6000fd5b50508551602086015160405163d317458f60e01b81526001600160a01b03909216935063d317458f9250610969918691906004016139bf565b600060405180830381600087803b15801561098357600080fd5b505af1158015610997573d6000803e3d6000fd5b5050855160408087015190516309bfc81160e41b81526001600160a01b039092169350639bfc811092506109d091869190600401613a24565b600060405180830381600087803b1580156109ea57600080fd5b505af11580156109fe573d6000803e3d6000fd5b505085516040516382fe3eb960e01b81526001600160a01b03868116600483015290911692506382fe3eb99150602401600060405180830381600087803b158015610a4857600080fd5b505af1158015610a5c573d6000803e3d6000fd5b5050855185516040516309d9efd960e21b81526001600160a01b039092169350632767bf649250610a91918690600401613ad7565b600060405180830381600087803b158015610aab57600080fd5b505af1158015610abf573d6000803e3d6000fd5b505085516040516315d549f160e01b81526001600160a01b03868116600483015290911692506315d549f191506024016020604051808303816000875af1158015610b0e573d6000803e3d6000fd5b505050506040513d601f19601f82011682018060405250810190610b329190613b01565b6001600160801b031660e084015260005b836020015151811015610b9f57600084602001518281518110610b6857610b68613951565b60200260200101519050610b8c848760200151836000015184602001516000611b06565b5080610b9781613b40565b915050610b43565b50602080850151825191830151604051633891012160e21b81526001600160a01b039092169263e244048492610bde9260009160029190600401613867565b600060405180830381600087803b158015610bf857600080fd5b505af1158015610c0c573d6000803e3d6000fd5b50508251602080880151908501516040516340c10f1960e01b81526001600160a01b0390931694506340c10f199350610c47926004016139a6565b600060405180830381600087803b158015610c6157600080fd5b505af1158015610c75573d6000803e3d6000fd5b505050507f59cfd0cd754bc5748b6770e94a4ffa5f678d885cb899dcfadc5734edb97c67ab828460e00151604051610cae9291906139a6565b60405180910390a15050505050565b6001546040516309bfc81160e41b81526001600160a01b0390911690639bfc811090610cef9085908590600401613a24565b600060405180830381600087803b158015610d0957600080fd5b505af1158015610d1d573d6000803e3d6000fd5b505050505050565b33600080610d3283611be6565b91509150610d44816101800151611ee8565b6000610d688260a00151600084608001516000866101e00151876102000151611a7e565b9050610d7381611add565b60005b826040015151811015610e7157600083604001518281518110610d9b57610d9b613951565b60200260200101519050600081600001516001600160a01b031663b55fe4e76040518163ffffffff1660e01b8152600401602060405180830381865afa158015610de9573d6000803e3d6000fd5b505050506040513d601f19601f82011682018060405250810190610e0d9190613b59565b15610e3257680ad78ebc5ac62000008260200151610e2b9190613b76565b9050610e39565b5060208101515b80600003610e48575050610e5f565b610e5c878760200151846000015184611f07565b50505b80610e6981613b40565b915050610d76565b50610e888360200151836060015160000151611fa5565b60005b826020015151811015610ee757600083602001518281518110610eb057610eb0613951565b60200260200101519050610ed486866020015183600001518460200151600061204b565b5080610edf81613b40565b915050610e8b565b5082518251604051630609d6b760e11b81526001600160a01b0390921691630c13ad6e91610f19918890600401613ad7565b600060405180830381600087803b158015610f3357600080fd5b505af1158015610f47573d6000803e3d6000fd5b505084518451604051638918b9e160e01b81526001600160a01b039092169350638918b9e19250610567918890600290600401613b89565b33600080610f8c83611be6565b91509150610f99846118f5565b8161010001818151610fab9190613bcb565b905250815160405163d317458f60e01b81526001600160a01b039091169063d317458f90610fdf90869088906004016139bf565b600060405180830381600087803b158015610ff957600080fd5b505af115801561100d573d6000803e3d6000fd5b5050505060005b845181101561106857600085828151811061103157611031613951565b60200260200101519050611055858560200151836000015184602001516000611b06565b508061106081613b40565b915050611014565b50611077600080848487612080565b50505050565b600154604051638918b9e160e01b81526001600160a01b0390911690638918b9e190610cef9085908590600290600401613b89565b6110ba6120f0565b6110c4600061211d565b565b336000806110d383611be6565b9150915060006110e2856118f5565b905081610100015181111561110a5760405163641f6d2960e11b815260040160405180910390fd5b80826101000181815161111d9190613b76565b9052508251604051635988e97160e11b81526001600160a01b039091169063b311d2e29061115190879089906004016139bf565b600060405180830381600087803b15801561116b57600080fd5b505af115801561117f573d6000803e3d6000fd5b5050505060005b85518110156112a05760008682815181106111a3576111a3613951565b602002602001015190506111d3604051806040016040528060006001600160a01b03168152602001600081525090565b60005b8560200151518110156112585782600001516001600160a01b03168660200151828151811061120757611207613951565b6020026020010151600001516001600160a01b031603611246578560200151818151811061123757611237613951565b60200260200101519150611258565b8061125081613b40565b9150506111d6565b5081602001518160200151101561127157611271613bde565b61128b87876020015184600001518560200151600061204b565b5050808061129890613b40565b915050611186565b506112b060016000858588612080565b5050505050565b60048054604051632f5ed88d60e11b81526001600160a01b0390911691635ebdb11a916112ee918991899189918991899101613bf4565b600060405180830381600087803b15801561130857600080fd5b505af115801561131c573d6000803e3d6000fd5b505050505050505050565b6004805460405163b403b99760e01b81526001600160a01b039091169163b403b997916112ee918991899189918991899101613c36565b3360008061136b83611be6565b91509150600061137d8383868861216d565b905060005b81518110156113d457600082828151811061139f5761139f613951565b602002602001015190506113c186866020015183600001518460200151611f07565b50806113cc81613b40565b915050611382565b506112b0600080858588612080565b6113ef3333848461236b565b5050565b6040516340c10f1960e01b81526001600160a01b038216906340c10f199061142190869086906004016139a6565b600060405180830381600087803b15801561143b57600080fd5b505af115801561144f573d6000803e3d6000fd5b50505050505050565b600154604051635d6b480f60e01b81526001600160a01b0390911690635d6b480f90610cef90859085906004016139a6565b6114926124eb565b60008061149e84611be6565b9150915060006114b08383878761216d565b905060005b81518110156115615760008282815181106114d2576114d2613951565b6020026020010151905084602001516001600160a01b03166312e1aab4826000015160008085602001516040518563ffffffff1660e01b815260040161151b9493929190613867565b600060405180830381600087803b15801561153557600080fd5b505af1158015611549573d6000803e3d6000fd5b5050505050808061155990613b40565b9150506114b5565b506112b0600080858589612080565b6115786124eb565b6110778484848461236b565b600061158f82611813565b92915050565b61159d6120f0565b6115a688612516565b6115af87612516565b6115b886612516565b6115c185612516565b6115ca84612516565b6115d383612516565b6115dc82612516565b6115e581612516565b600180546001600160a01b038a81166001600160a01b03199283168117909355600480548b83169084168117909155600780548b84169085168117909155600580548b85169086168117909155600680548b86169087168117909155600280548b87169088168117909155600380548b8816908916811790915560088054978b16979098168717909755604080519889526020890195909552938701929092526060860152608085015260a084015260c083019190915260e08201527f73734d4d2078a1cdbfa7bd5d848114fa2c7a041f43c3ce7a3c41fa07db2d69f0906101000160405180910390a16105956110b2565b604051632770a7eb60e21b81526001600160a01b03821690639dc29fac9061142190869086906004016139a6565b61170d6120f0565b6001600160a01b03811661173c57604051631e4fbdf760e01b8152600060048201526024015b60405180910390fd5b6117458161211d565b50565b60048054604051633891012160e21b81526001600160a01b039091169163e24404849161056791889188918891889101613867565b6040516321e3780160e01b81526001600160a01b038281166004830152600091908416906321e3780190602401602060405180830381865afa1580156117c7573d6000803e3d6000fd5b505050506040513d601f19601f820116820180604052508101906117eb9190613c63565b90508060010361180e57604051636ac7a93960e01b815260040160405180910390fd5b505050565b6000805b82518110156118ef5760065483516001600160a01b039091169063fa76dcf29085908490811061184957611849613951565b60200260200101516000015185848151811061186757611867613951565b6020026020010151602001516040518363ffffffff1660e01b81526004016118909291906139a6565b602060405180830381865afa1580156118ad573d6000803e3d6000fd5b505050506040513d601f19601f820116820180604052508101906118d19190613c63565b6118db9083613bcb565b9150806118e781613b40565b915050611817565b50919050565b6000805b82518110156118ef5760065483516001600160a01b039091169063fa76dcf29085908490811061192b5761192b613951565b60200260200101516000015185848151811061194957611949613951565b6020026020010151602001516040518363ffffffff1660e01b81526004016119729291906139a6565b602060405180830381865afa15801561198f573d6000803e3d6000fd5b505050506040513d601f19601f820116820180604052508101906119b39190613c63565b6119bd9083613bcb565b9150806119c981613b40565b9150506118f9565b600081156119fd57816119ec670de0b6b3a764000085613c7c565b6119f69190613c93565b905061158f565b5060001992915050565b60008115611a2357816119ec68056bc75e2d6310000085613c7c565b5060001961158f565b6714d1120d7b1600008110156117455760405163c2c7ac8b60e01b815260040160405180910390fd5b670f43fc2c04ee00008110156117455760405163da43584160e01b815260040160405180910390fd5b60008086611a9557611a908885613b76565b611a9f565b611a9f8885613bcb565b9050600085611ab757611ab28785613b76565b611ac1565b611ac18785613bcb565b90506000611acf83836119d1565b9a9950505050505050505050565b6714d1120d7b16000081101561174557604051630242425360e31b815260040160405180910390fd5b604051633891012160e21b81526001600160a01b0385169063e244048490611b3990869060019086908890600401613867565b600060405180830381600087803b158015611b5357600080fd5b505af1158015611b67573d6000803e3d6000fd5b50506040516323b872dd60e01b81526001600160a01b038881166004830152878116602483015260448201869052861692506323b872dd91506064016020604051808303816000875af1158015611bc2573d6000803e3d6000fd5b505050506040513d601f19601f82011682018060405250810190610d1d9190613b59565b604080516080810182526000808252602082018190529181018290526060810191909152611c126130b7565b604080516080810182526001546001600160a01b039081168252600480548216602084015260025482168385015260035490911660608301819052835163efc5f8c560e01b815293519295509263efc5f8c592818301926000928290030181865afa158015611c85573d6000803e3d6000fd5b505050506040513d6000823e601f3d908101601f19168201604052611cad919081019061389b565b816000018190525081602001516001600160a01b03166343a124fa6040518163ffffffff1660e01b8152600401608060405180830381865afa158015611cf7573d6000803e3d6000fd5b505050506040513d601f19601f82011682018060405250810190611d1b9190613967565b6102008501526101e08401526101a083015215156101808201528151611d419084612561565b8151604051630b07655760e01b81526001600160a01b03858116600483015290911690630b07655790602401600060405180830381600087803b158015611d8757600080fd5b505af1158015611d9b573d6000803e3d6000fd5b505050506040828101518351915163d66a255360e01b81526001600160a01b038681166004830152611e1c93169063d66a255390602401600060405180830381865afa158015611def573d6000803e3d6000fd5b505050506040513d6000823e601f3d908101601f19168201604052611e179190810190613cb5565b6125f2565b606083015260408201819052611e3190611813565b6080820181905260e082015281516040516309019aaf60e31b81526001600160a01b0385811660048301529091169063480cd57890602401600060405180830381865afa158015611e86573d6000803e3d6000fd5b505050506040513d6000823e601f3d908101601f19168201604052611eae9190810190613cb5565b60208201819052611ebe906118f5565b60a0820181905261010082018190526080820151611edc91906119d1565b60c08201529092909150565b80156117455760405163a1e634ad60e01b815260040160405180910390fd5b611f128285836129fd565b6040516304b86aad60e21b81526001600160a01b038416906312e1aab490611f4590859060009081908790600401613867565b600060405180830381600087803b158015611f5f57600080fd5b505af1158015611f73573d6000803e3d6000fd5b5050604051632770a7eb60e21b81526001600160a01b0385169250639dc29fac915061056790879085906004016139a6565b6040516304b86aad60e21b81526001600160a01b038316906312e1aab490611fe2908490600090600290680ad78ebc5ac620000090600401613867565b600060405180830381600087803b158015611ffc57600080fd5b505af1158015612010573d6000803e3d6000fd5b5050604051632770a7eb60e21b81526001600160a01b0384169250639dc29fac9150610cef908590680ad78ebc5ac6200000906004016139a6565b60405163b403b99760e01b81526001600160a01b0385169063b403b997906112ee908890879060019087908990600401613c36565b6120938261010001518360e001516119d1565b61012083015261010082015160e08301516120ae9190611a07565b6101408301526120bf858584612a89565b825182516040516309d9efd960e21b81526001600160a01b0390921691632767bf64916112ee918590600401613ad7565b6000546001600160a01b031633146110c45760405163118cdaa760e01b8152336004820152602401611733565b600080546001600160a01b038381166001600160a01b0319831681178455604051919092169283917f8be0079c531659141344cd1fd0a4f28419497f9722a3daafe3b4186f6b6457e09190a35050565b606061217d8560400151836125f2565b50905061218981611813565b8460e00181815161219a9190613b76565b9052508451604051637120442f60e11b81526001600160a01b039091169063e240885e906121ce9086908590600401613a24565b600060405180830381600087803b1580156121e857600080fd5b505af11580156121fc573d6000803e3d6000fd5b5050505060005b815181101561236257600082828151811061222057612220613951565b6020026020010151905060008160000151905061223b61308d565b60005b8860400151518110156122bc57826001600160a01b03168960400151828151811061226b5761226b613951565b6020026020010151600001516001600160a01b0316036122aa578860400151818151811061229b5761229b613951565b602002602001015191506122bc565b806122b481613b40565b91505061223e565b506122cf81602001518460200151612b82565b82600001516001600160a01b031663b55fe4e76040518163ffffffff1660e01b8152600401602060405180830381865afa158015612311573d6000803e3d6000fd5b505050506040513d601f19601f820116820180604052508101906123359190613b59565b1561234c5761234c81602001518460200151612ba3565b505050808061235a90613b40565b915050612203565b50949350505050565b60008061237786611be6565b9150915061238a83826101800151612bd6565b60005b84518110156123ce576123bc8582815181106123ab576123ab613951565b602002602001015160200151612c3d565b806123c681613b40565b91505061238d565b506000806123e08460400151876125f2565b9150915060008361018001516124015784516123fe90848489612c5e565b90505b61240a83611813565b8460e00181815161241b9190613bcb565b90525084516040516309bfc81160e41b81526001600160a01b0390911690639bfc81109061244f908c908790600401613a24565b600060405180830381600087803b15801561246957600080fd5b505af115801561247d573d6000803e3d6000fd5b5050505060005b83518110156124db5760008482815181106124a1576124a1613951565b602002602001015190506124c88a8860200151836000015184602001518560400151612df4565b50806124d381613b40565b915050612484565b5061131c6000600187878d612080565b6008546001600160a01b031633146110c457604051630dc6009560e01b815260040160405180910390fd5b6001600160a01b03811661253d5760405163d92e233d60e01b815260040160405180910390fd5b803b60008190036113ef57604051636f7c43f160e01b815260040160405180910390fd5b6040516321e3780160e01b81526001600160a01b038281166004830152600091908416906321e3780190602401602060405180830381865afa1580156125ab573d6000803e3d6000fd5b505050506040513d601f19601f820116820180604052508101906125cf9190613c63565b90508060011461180e576040516380534bfb60e01b815260040160405180910390fd5b60606125fc61308d565b6000846001600160a01b0316631bd817c96040518163ffffffff1660e01b8152600401602060405180830381865afa15801561263c573d6000803e3d6000fd5b505050506040513d601f19601f820116820180604052508101906126609190613934565b90506000805b85518110156126c057826001600160a01b031686828151811061268b5761268b613951565b6020026020010151600001516001600160a01b0316036126ae57600191506126c0565b806126b881613b40565b915050612666565b5080156127215784516001600160401b038111156126e0576126e06131d4565b60405190808252806020026020018201604052801561271957816020015b61270661308d565b8152602001906001900390816126fe5790505b509350612782565b845161272e906001613bcb565b6001600160401b03811115612745576127456131d4565b60405190808252806020026020018201604052801561277e57816020015b61276b61308d565b8152602001906001900390816127635790505b5093505b60005b8551811015612925576000876001600160a01b031663a95bbced8884815181106127b1576127b1613951565b6020908102919091010151516040516001600160e01b031960e084901b1681526001600160a01b039091166004820152602401602060405180830381865afa158015612801573d6000803e3d6000fd5b505050506040513d601f19601f820116820180604052508101906128259190613934565b90506040518060600160405280826001600160a01b0316815260200188848151811061285357612853613951565b6020026020010151602001518152602001600081525086838151811061287b5761287b613951565b60200260200101819052508280156128f05750806001600160a01b031663b55fe4e76040518163ffffffff1660e01b8152600401602060405180830381865afa1580156128cc573d6000803e3d6000fd5b505050506040513d601f19601f820116820180604052508101906128f09190613b59565b156129125785828151811061290757612907613951565b602002602001015194505b508061291d81613b40565b915050612785565b50806129f4576000866001600160a01b0316631bd817c96040518163ffffffff1660e01b8152600401602060405180830381865afa15801561296b573d6000803e3d6000fd5b505050506040513d601f19601f8201168201806040525081019061298f9190613934565b90506040518060600160405280826001600160a01b03168152602001600081526020016000815250858751815181106129ca576129ca613951565b6020026020010181905250848651815181106129e8576129e8613951565b60200260200101519350505b50509250929050565b6040516370a0823160e01b81526001600160a01b0383811660048301528291908516906370a0823190602401602060405180830381865afa158015612a46573d6000803e3d6000fd5b505050506040513d601f19601f82011682018060405250810190612a6a9190613c63565b101561180e57604051631636dca160e01b815260040160405180910390fd5b80610180015115612ac7578215612ab357604051632be87da560e01b815260040160405180910390fd5b811561180e5761180e816101200151611a2c565b612ad5816101200151611a55565b60008160a0015182610100015111612b01578161010001518260a00151612afc9190613b76565b612b16565b8160a00151826101000151612b169190613b76565b9050600082608001518360e0015111612b42578260e001518360800151612b3d9190613b76565b612b56565b82608001518360e00151612b569190613b76565b9050612b718286158387876101e00151886102000151611a7e565b6101c084018190526112b090611add565b808210156113ef5760405163f73d990960e01b815260040160405180910390fd5b612bb6680ad78ebc5ac620000083613b76565b8111156113ef5760405163f73d990960e01b815260040160405180910390fd5b8015612c045766b1a2bc2ec500008211156113ef5760405163607a31bf60e01b815260040160405180910390fd5b6611c37937e08000821080612c1f575066b1a2bc2ec5000082115b156113ef576040516309c3707b60e01b815260040160405180910390fd5b80600003611745576040516316068ef760e21b815260040160405180910390fd5b600080612c6a85611813565b9050856001600160a01b0316635dba4c4a6040518163ffffffff1660e01b8152600401600060405180830381600087803b158015612ca757600080fd5b505af1158015612cbb573d6000803e3d6000fd5b5050604051630631203b60e41b8152600481018490526001600160a01b038916925063631203b09150602401602060405180830381865afa158015612d04573d6000803e3d6000fd5b505050506040513d601f19601f82011682018060405250810190612d289190613c63565b9150612d35828285613026565b600084600001516001600160a01b03166398d5fdca6040518163ffffffff1660e01b8152600401602060405180830381865afa158015612d79573d6000803e3d6000fd5b505050506040513d601f19601f82011682018060405250810190612d9d9190613c63565b905080612db2670de0b6b3a764000085613c7c565b612dbc9190613c93565b92508285602001818151612dd09190613bcb565b905250604085018051849190612de7908390613bcb565b9052505050949350505050565b604051633891012160e21b81526001600160a01b0385169063e244048490612e2790869060009081908890600401613867565b600060405180830381600087803b158015612e4157600080fd5b505af1158015612e55573d6000803e3d6000fd5b5050505060008183612e679190613b76565b90508015612ed0576040516340c10f1960e01b81526001600160a01b038516906340c10f1990612e9d90899085906004016139a6565b600060405180830381600087803b158015612eb757600080fd5b505af1158015612ecb573d6000803e3d6000fd5b505050505b81600003612ede57506112b0565b60055460408051630e054ca160e21b8152905184926000926001600160a01b03909116916338153284916004808201926020929091908290030181865afa158015612f2d573d6000803e3d6000fd5b505050506040513d601f19601f82011682018060405250810190612f519190613c63565b90508015610595576000612f658583613075565b9050612f718184613b76565b6005546040516340c10f1960e01b81529194506001600160a01b03808a16926340c10f1992612fa692169085906004016139a6565b600060405180830381600087803b158015612fc057600080fd5b505af1158015612fd4573d6000803e3d6000fd5b50505050886001600160a01b03167f0bd746804bfad30038ce5b8180f4eea08b19748e6fe3df76ecf93c8f4fc966408260405161301391815260200190565b60405180910390a2505050505050505050565b8260000361303357505050565b600082613048670de0b6b3a764000086613c7c565b6130529190613c93565b905081811115611077576040516351a2c47360e11b815260040160405180910390fd5b60008183106130845781613086565b825b9392505050565b604051806060016040528060006001600160a01b0316815260200160008152602001600081525090565b6040518061022001604052806060815260200160608152602001606081526020016130e061308d565b81526020016000815260200160008152602001600081526020016000815260200160008152602001600081526020016000815260200160008152602001600015158152602001600081526020016000815260200160008152602001600081525090565b6001600160a01b038116811461174557600080fd5b803561316381613143565b919050565b801515811461174557600080fd5b80356003811061316357600080fd5b6000806000806080858703121561319b57600080fd5b84356131a681613143565b935060208501356131b681613168565b92506131c460408601613176565b9396929550929360600135925050565b634e487b7160e01b600052604160045260246000fd5b604080519081016001600160401b038111828210171561320c5761320c6131d4565b60405290565b604051606081016001600160401b038111828210171561320c5761320c6131d4565b604051601f8201601f191681016001600160401b038111828210171561325c5761325c6131d4565b604052919050565b60006001600160401b0382111561327d5761327d6131d4565b5060051b60200190565b600082601f83011261329857600080fd5b813560206132ad6132a883613264565b613234565b82815260069290921b840181019181810190868411156132cc57600080fd5b8286015b8481101561331457604081890312156132e95760008081fd5b6132f16131ea565b81356132fc81613143565b815281850135858201528352918301916040016132d0565b509695505050505050565b60006020828403121561333157600080fd5b81356001600160401b0381111561334757600080fd5b61335384828501613287565b949350505050565b600082601f83011261336c57600080fd5b8135602061337c6132a883613264565b8281526060928302850182019282820191908785111561339b57600080fd5b8387015b858110156133eb5781818a0312156133b75760008081fd5b6133bf613212565b81356133ca81613143565b8152818601358682015260408083013590820152845292840192810161339f565b5090979650505050505050565b6000806040838503121561340b57600080fd5b823561341681613143565b915060208301356001600160401b0381111561343157600080fd5b61343d8582860161335b565b9150509250929050565b6000806040838503121561345a57600080fd5b82356001600160401b0381111561347057600080fd5b8301601f8101851361348157600080fd5b803560206134916132a883613264565b82815260059290921b830181019181810190888411156134b057600080fd5b938201935b838510156134d75784356134c881613143565b825293820193908201906134b5565b95506134e69050868201613158565b93505050509250929050565b600080600080600060a0868803121561350a57600080fd5b853561351581613143565b9450602086013561352581613168565b935061353360408701613176565b925061354160608701613176565b949793965091946080013592915050565b600080600080600060a0868803121561356a57600080fd5b853561357581613143565b9450602086013561358581613143565b9350604086013561353381613168565b600080604083850312156135a857600080fd5b82356001600160401b038111156135be57600080fd5b6135ca85828601613287565b95602094909401359450505050565b600060208083528351808285015260005b81811015613606578581018301518582016040015282016135ea565b506000604082860101526040601f19601f8301168501019250505092915050565b60008060006060848603121561363c57600080fd5b833561364781613143565b925060208401359150604084013561365e81613143565b809150509250925092565b6000806040838503121561367c57600080fd5b823561368781613143565b946020939093013593505050565b600080604083850312156136a857600080fd5b82356136b381613143565b915060208301356001600160401b038111156136ce57600080fd5b61343d85828601613287565b600080600080608085870312156136f057600080fd5b84356136fb81613143565b9350602085013561370b81613143565b925060408501356001600160401b0381111561372657600080fd5b61373287828801613287565b949793965093946060013593505050565b60006020828403121561375557600080fd5b81356001600160401b0381111561376b57600080fd5b6133538482850161335b565b600080600080600080600080610100898b03121561379457600080fd5b883561379f81613143565b975060208901356137af81613143565b965060408901356137bf81613143565b955060608901356137cf81613143565b945060808901356137df81613143565b935060a08901356137ef81613143565b925060c08901356137ff81613143565b915060e089013561380f81613143565b809150509295985092959890939650565b60006020828403121561383257600080fd5b813561308681613143565b634e487b7160e01b600052602160045260246000fd5b600381106138635761386361383d565b9052565b6001600160a01b038516815283151560208201526080810161388c6040830185613853565b82606083015295945050505050565b600060208083850312156138ae57600080fd5b82516001600160401b038111156138c457600080fd5b8301601f810185136138d557600080fd5b80516138e36132a882613264565b81815260059190911b8201830190838101908783111561390257600080fd5b928401925b8284101561392957835161391a81613143565b82529284019290840190613907565b979650505050505050565b60006020828403121561394657600080fd5b815161308681613143565b634e487b7160e01b600052603260045260246000fd5b6000806000806080858703121561397d57600080fd5b845161398881613168565b60208601516040870151606090970151919890975090945092505050565b6001600160a01b03929092168252602082015260400190565b6001600160a01b0383811682526040602080840182905284518483018190526000938683019290916060870190865b81811015613a155785518051861684528401518484015294830194918601916001016139ee565b50909998505050505050505050565b6001600160a01b038381168252604060208084018290528451848301819052600093606092909183870190888301875b82811015613a835781518051871685528581015186860152880151888501529286019290840190600101613a54565b50919a9950505050505050505050565b600081518084526020808501945080840160005b83811015613acc5781516001600160a01b031687529582019590820190600101613aa7565b509495945050505050565b604081526000613aea6040830185613a93565b905060018060a01b03831660208301529392505050565b600060208284031215613b1357600080fd5b81516001600160801b038116811461308657600080fd5b634e487b7160e01b600052601160045260246000fd5b600060018201613b5257613b52613b2a565b5060010190565b600060208284031215613b6b57600080fd5b815161308681613168565b8181038181111561158f5761158f613b2a565b606081526000613b9c6060830186613a93565b6001600160a01b0385166020840152905060058310613bbd57613bbd61383d565b826040830152949350505050565b8082018082111561158f5761158f613b2a565b634e487b7160e01b600052600160045260246000fd5b6001600160a01b0386168152841515602082015260a08101613c196040830186613853565b613c266060830185613853565b8260808301529695505050505050565b6001600160a01b03868116825285166020820152831515604082015260a08101613c266060830185613853565b600060208284031215613c7557600080fd5b5051919050565b808202811582820484141761158f5761158f613b2a565b600082613cb057634e487b7160e01b600052601260045260246000fd5b500490565b60006020808385031215613cc857600080fd5b82516001600160401b03811115613cde57600080fd5b8301601f81018513613cef57600080fd5b8051613cfd6132a882613264565b81815260069190911b82018301908381019087831115613d1c57600080fd5b928401925b828410156139295760408489031215613d3a5760008081fd5b613d426131ea565b8451613d4d81613143565b81528486015186820152825260409093019290840190613d2156fea2646970667358221220131e5c2593beb10c8f1b199cee630789df5e7dcec517c23ef57fe954a786ab9964736f6c63430008140033",
  "devdoc": {
    "errors": {
      "OwnableInvalidOwner(address)": [
        {
          "details": "The owner is not a valid owner account. (eg. `address(0)`)"
        }
      ],
      "OwnableUnauthorizedAccount(address)": [
        {
          "details": "The caller account is not authorized to perform an operation."
        }
      ]
    },
    "kind": "dev",
    "methods": {
      "owner()": {
        "details": "Returns the address of the current owner."
      },
      "renounceOwnership()": {
        "details": "Leaves the contract without owner. It will not be possible to call `onlyOwner` functions. Can only be called by the current owner. NOTE: Renouncing ownership will leave the contract without an owner, thereby disabling any functionality that is only available to the owner."
      },
      "transferOwnership(address)": {
        "details": "Transfers ownership of the contract to a new account (`newOwner`). Can only be called by the current owner."
      }
    },
    "version": 1
  },
  "userdoc": {
    "kind": "user",
    "methods": {},
    "version": 1
  },
  "storageLayout": {
    "storage": [
      {
        "astId": 8,
        "contract": "contracts/Mock/MockBorrowerOperations.sol:MockBorrowerOperations",
        "label": "_owner",
        "offset": 0,
        "slot": "0",
        "type": "t_address"
      },
      {
        "astId": 3045,
        "contract": "contracts/Mock/MockBorrowerOperations.sol:MockBorrowerOperations",
        "label": "troveManager",
        "offset": 0,
        "slot": "1",
        "type": "t_contract(ITroveManager)10053"
      },
      {
        "astId": 3048,
        "contract": "contracts/Mock/MockBorrowerOperations.sol:MockBorrowerOperations",
        "label": "debtTokenManager",
        "offset": 0,
        "slot": "2",
        "type": "t_contract(IDebtTokenManager)8449"
      },
      {
        "astId": 3051,
        "contract": "contracts/Mock/MockBorrowerOperations.sol:MockBorrowerOperations",
        "label": "collTokenManager",
        "offset": 0,
        "slot": "3",
        "type": "t_contract(ICollTokenManager)8205"
      },
      {
        "astId": 3054,
        "contract": "contracts/Mock/MockBorrowerOperations.sol:MockBorrowerOperations",
        "label": "storagePool",
        "offset": 0,
        "slot": "4",
        "type": "t_contract(IStoragePool)9174"
      },
      {
        "astId": 3057,
        "contract": "contracts/Mock/MockBorrowerOperations.sol:MockBorrowerOperations",
        "label": "reservePool",
        "offset": 0,
        "slot": "5",
        "type": "t_contract(IReservePool)8743"
      },
      {
        "astId": 3060,
        "contract": "contracts/Mock/MockBorrowerOperations.sol:MockBorrowerOperations",
        "label": "priceFeed",
        "offset": 0,
        "slot": "6",
        "type": "t_contract(IPriceFeed)8583"
      },
      {
        "astId": 3062,
        "contract": "contracts/Mock/MockBorrowerOperations.sol:MockBorrowerOperations",
        "label": "stabilityPoolAddress",
        "offset": 0,
        "slot": "7",
        "type": "t_address"
      },
      {
        "astId": 3064,
        "contract": "contracts/Mock/MockBorrowerOperations.sol:MockBorrowerOperations",
        "label": "swapOperations",
        "offset": 0,
        "slot": "8",
        "type": "t_address"
      }
    ],
    "types": {
      "t_address": {
        "encoding": "inplace",
        "label": "address",
        "numberOfBytes": "20"
      },
      "t_contract(ICollTokenManager)8205": {
        "encoding": "inplace",
        "label": "contract ICollTokenManager",
        "numberOfBytes": "20"
      },
      "t_contract(IDebtTokenManager)8449": {
        "encoding": "inplace",
        "label": "contract IDebtTokenManager",
        "numberOfBytes": "20"
      },
      "t_contract(IPriceFeed)8583": {
        "encoding": "inplace",
        "label": "contract IPriceFeed",
        "numberOfBytes": "20"
      },
      "t_contract(IReservePool)8743": {
        "encoding": "inplace",
        "label": "contract IReservePool",
        "numberOfBytes": "20"
      },
      "t_contract(IStoragePool)9174": {
        "encoding": "inplace",
        "label": "contract IStoragePool",
        "numberOfBytes": "20"
      },
      "t_contract(ITroveManager)10053": {
        "encoding": "inplace",
        "label": "contract ITroveManager",
        "numberOfBytes": "20"
      }
    }
  }
}