{
  "address": "0x95401dc811bb5740090279Ba06cfA8fcF6113778",
  "abi": [
    {
      "inputs": [
        {
          "internalType": "address",
          "name": "_troveManagerAddress",
          "type": "address"
        },
        {
          "internalType": "address",
          "name": "_redeemerOperationsAddress",
          "type": "address"
        },
        {
          "internalType": "address",
          "name": "_borrowerOperationsAddress",
          "type": "address"
        },
        {
          "internalType": "address",
          "name": "_stabilityPoolManagerAddress",
          "type": "address"
        },
        {
          "internalType": "address",
          "name": "_debtTokenManagerAddress",
          "type": "address"
        },
        {
          "internalType": "address",
          "name": "_priceFeedAddress",
          "type": "address"
        },
        {
          "internalType": "string",
          "name": "_symbol",
          "type": "string"
        },
        {
          "internalType": "string",
          "name": "_name",
          "type": "string"
        },
        {
          "internalType": "string",
          "name": "_version",
          "type": "string"
        },
        {
          "internalType": "bool",
          "name": "_isStableCoin",
          "type": "bool"
        }
      ],
      "stateMutability": "nonpayable",
      "type": "constructor"
    },
    {
      "inputs": [],
      "name": "ECDSAInvalidSignature",
      "type": "error"
    },
    {
      "inputs": [
        {
          "internalType": "uint256",
          "name": "length",
          "type": "uint256"
        }
      ],
      "name": "ECDSAInvalidSignatureLength",
      "type": "error"
    },
    {
      "inputs": [
        {
          "internalType": "bytes32",
          "name": "s",
          "type": "bytes32"
        }
      ],
      "name": "ECDSAInvalidSignatureS",
      "type": "error"
    },
    {
      "inputs": [],
      "name": "ExpiredDeadline",
      "type": "error"
    },
    {
      "inputs": [],
      "name": "FeeExceedMaxPercentage",
      "type": "error"
    },
    {
      "inputs": [],
      "name": "InsufficientBalance",
      "type": "error"
    },
    {
      "inputs": [],
      "name": "InvalidSignature",
      "type": "error"
    },
    {
      "inputs": [],
      "name": "NotAllowedDirectTransfer",
      "type": "error"
    },
    {
      "inputs": [],
      "name": "NotContract",
      "type": "error"
    },
    {
      "inputs": [],
      "name": "NotFromBOorTroveMorSPorDebtToken",
      "type": "error"
    },
    {
      "inputs": [],
      "name": "NotFromBorrowerOps",
      "type": "error"
    },
    {
      "inputs": [],
      "name": "NotFromSPManager",
      "type": "error"
    },
    {
      "inputs": [],
      "name": "NotFromTroveMorSP",
      "type": "error"
    },
    {
      "inputs": [],
      "name": "ZeroAddress",
      "type": "error"
    },
    {
      "anonymous": false,
      "inputs": [
        {
          "indexed": true,
          "internalType": "address",
          "name": "owner",
          "type": "address"
        },
        {
          "indexed": true,
          "internalType": "address",
          "name": "spender",
          "type": "address"
        },
        {
          "indexed": false,
          "internalType": "uint256",
          "name": "value",
          "type": "uint256"
        }
      ],
      "name": "Approval",
      "type": "event"
    },
    {
      "anonymous": false,
      "inputs": [
        {
          "indexed": true,
          "internalType": "address",
          "name": "from",
          "type": "address"
        },
        {
          "indexed": true,
          "internalType": "address",
          "name": "to",
          "type": "address"
        },
        {
          "indexed": false,
          "internalType": "uint256",
          "name": "value",
          "type": "uint256"
        }
      ],
      "name": "Transfer",
      "type": "event"
    },
    {
      "inputs": [
        {
          "internalType": "address",
          "name": "owner",
          "type": "address"
        },
        {
          "internalType": "address",
          "name": "spender",
          "type": "address"
        }
      ],
      "name": "allowance",
      "outputs": [
        {
          "internalType": "uint256",
          "name": "",
          "type": "uint256"
        }
      ],
      "stateMutability": "view",
      "type": "function"
    },
    {
      "inputs": [
        {
          "internalType": "address",
          "name": "spender",
          "type": "address"
        },
        {
          "internalType": "uint256",
          "name": "amount",
          "type": "uint256"
        }
      ],
      "name": "approve",
      "outputs": [
        {
          "internalType": "bool",
          "name": "",
          "type": "bool"
        }
      ],
      "stateMutability": "nonpayable",
      "type": "function"
    },
    {
      "inputs": [
        {
          "internalType": "address",
          "name": "account",
          "type": "address"
        }
      ],
      "name": "balanceOf",
      "outputs": [
        {
          "internalType": "uint256",
          "name": "",
          "type": "uint256"
        }
      ],
      "stateMutability": "view",
      "type": "function"
    },
    {
      "inputs": [],
      "name": "borrowerOperationsAddress",
      "outputs": [
        {
          "internalType": "address",
          "name": "",
          "type": "address"
        }
      ],
      "stateMutability": "view",
      "type": "function"
    },
    {
      "inputs": [
        {
          "internalType": "address",
          "name": "_account",
          "type": "address"
        },
        {
          "internalType": "uint256",
          "name": "_amount",
          "type": "uint256"
        }
      ],
      "name": "burn",
      "outputs": [],
      "stateMutability": "nonpayable",
      "type": "function"
    },
    {
      "inputs": [
        {
          "internalType": "address",
          "name": "owner",
          "type": "address"
        },
        {
          "internalType": "address",
          "name": "spender",
          "type": "address"
        },
        {
          "internalType": "uint256",
          "name": "amount",
          "type": "uint256"
        }
      ],
      "name": "callInternalApprove",
      "outputs": [],
      "stateMutability": "nonpayable",
      "type": "function"
    },
    {
      "inputs": [],
      "name": "debtTokenManagerAddress",
      "outputs": [
        {
          "internalType": "address",
          "name": "",
          "type": "address"
        }
      ],
      "stateMutability": "view",
      "type": "function"
    },
    {
      "inputs": [],
      "name": "decimals",
      "outputs": [
        {
          "internalType": "uint8",
          "name": "",
          "type": "uint8"
        }
      ],
      "stateMutability": "pure",
      "type": "function"
    },
    {
      "inputs": [
        {
          "internalType": "address",
          "name": "spender",
          "type": "address"
        },
        {
          "internalType": "uint256",
          "name": "subtractedValue",
          "type": "uint256"
        }
      ],
      "name": "decreaseAllowance",
      "outputs": [
        {
          "internalType": "bool",
          "name": "",
          "type": "bool"
        }
      ],
      "stateMutability": "nonpayable",
      "type": "function"
    },
    {
      "inputs": [],
      "name": "domainSeparator",
      "outputs": [
        {
          "internalType": "bytes32",
          "name": "",
          "type": "bytes32"
        }
      ],
      "stateMutability": "view",
      "type": "function"
    },
    {
      "inputs": [],
      "name": "getChainId",
      "outputs": [
        {
          "internalType": "uint256",
          "name": "chainID",
          "type": "uint256"
        }
      ],
      "stateMutability": "view",
      "type": "function"
    },
    {
      "inputs": [
        {
          "internalType": "address",
          "name": "owner",
          "type": "address"
        },
        {
          "internalType": "address",
          "name": "spender",
          "type": "address"
        },
        {
          "internalType": "uint256",
          "name": "amount",
          "type": "uint256"
        },
        {
          "internalType": "uint256",
          "name": "nonce",
          "type": "uint256"
        },
        {
          "internalType": "uint256",
          "name": "deadline",
          "type": "uint256"
        }
      ],
      "name": "getDigest",
      "outputs": [
        {
          "internalType": "bytes32",
          "name": "",
          "type": "bytes32"
        }
      ],
      "stateMutability": "view",
      "type": "function"
    },
    {
      "inputs": [],
      "name": "getPrice",
      "outputs": [
        {
          "internalType": "uint256",
          "name": "",
          "type": "uint256"
        }
      ],
      "stateMutability": "view",
      "type": "function"
    },
    {
      "inputs": [
        {
          "internalType": "address",
          "name": "spender",
          "type": "address"
        },
        {
          "internalType": "uint256",
          "name": "addedValue",
          "type": "uint256"
        }
      ],
      "name": "increaseAllowance",
      "outputs": [
        {
          "internalType": "bool",
          "name": "",
          "type": "bool"
        }
      ],
      "stateMutability": "nonpayable",
      "type": "function"
    },
    {
      "inputs": [],
      "name": "isStableCoin",
      "outputs": [
        {
          "internalType": "bool",
          "name": "",
          "type": "bool"
        }
      ],
      "stateMutability": "view",
      "type": "function"
    },
    {
      "inputs": [
        {
          "internalType": "address",
          "name": "_account",
          "type": "address"
        },
        {
          "internalType": "uint256",
          "name": "_amount",
          "type": "uint256"
        }
      ],
      "name": "mint",
      "outputs": [],
      "stateMutability": "nonpayable",
      "type": "function"
    },
    {
      "inputs": [],
      "name": "name",
      "outputs": [
        {
          "internalType": "string",
          "name": "",
          "type": "string"
        }
      ],
      "stateMutability": "view",
      "type": "function"
    },
    {
      "inputs": [
        {
          "internalType": "address",
          "name": "owner",
          "type": "address"
        }
      ],
      "name": "nonces",
      "outputs": [
        {
          "internalType": "uint256",
          "name": "",
          "type": "uint256"
        }
      ],
      "stateMutability": "view",
      "type": "function"
    },
    {
      "inputs": [
        {
          "internalType": "address",
          "name": "owner",
          "type": "address"
        },
        {
          "internalType": "address",
          "name": "spender",
          "type": "address"
        },
        {
          "internalType": "uint256",
          "name": "amount",
          "type": "uint256"
        },
        {
          "internalType": "uint256",
          "name": "deadline",
          "type": "uint256"
        },
        {
          "internalType": "uint8",
          "name": "v",
          "type": "uint8"
        },
        {
          "internalType": "bytes32",
          "name": "r",
          "type": "bytes32"
        },
        {
          "internalType": "bytes32",
          "name": "s",
          "type": "bytes32"
        }
      ],
      "name": "permit",
      "outputs": [],
      "stateMutability": "nonpayable",
      "type": "function"
    },
    {
      "inputs": [],
      "name": "permitTypeHash",
      "outputs": [
        {
          "internalType": "bytes32",
          "name": "",
          "type": "bytes32"
        }
      ],
      "stateMutability": "pure",
      "type": "function"
    },
    {
      "inputs": [],
      "name": "priceFeed",
      "outputs": [
        {
          "internalType": "contract IPriceFeed",
          "name": "",
          "type": "address"
        }
      ],
      "stateMutability": "view",
      "type": "function"
    },
    {
      "inputs": [
        {
          "internalType": "bytes32",
          "name": "digest",
          "type": "bytes32"
        },
        {
          "internalType": "uint8",
          "name": "v",
          "type": "uint8"
        },
        {
          "internalType": "bytes32",
          "name": "r",
          "type": "bytes32"
        },
        {
          "internalType": "bytes32",
          "name": "s",
          "type": "bytes32"
        }
      ],
      "name": "recoverAddress",
      "outputs": [
        {
          "internalType": "address",
          "name": "",
          "type": "address"
        }
      ],
      "stateMutability": "pure",
      "type": "function"
    },
    {
      "inputs": [],
      "name": "redemptionOperationsAddress",
      "outputs": [
        {
          "internalType": "address",
          "name": "",
          "type": "address"
        }
      ],
      "stateMutability": "view",
      "type": "function"
    },
    {
      "inputs": [
        {
          "internalType": "address",
          "name": "_sender",
          "type": "address"
        },
        {
          "internalType": "address",
          "name": "_poolAddress",
          "type": "address"
        },
        {
          "internalType": "uint256",
          "name": "_amount",
          "type": "uint256"
        }
      ],
      "name": "sendToPool",
      "outputs": [],
      "stateMutability": "nonpayable",
      "type": "function"
    },
    {
      "inputs": [],
      "name": "stabilityPoolManagerAddress",
      "outputs": [
        {
          "internalType": "address",
          "name": "",
          "type": "address"
        }
      ],
      "stateMutability": "view",
      "type": "function"
    },
    {
      "inputs": [],
      "name": "symbol",
      "outputs": [
        {
          "internalType": "string",
          "name": "",
          "type": "string"
        }
      ],
      "stateMutability": "view",
      "type": "function"
    },
    {
      "inputs": [],
      "name": "totalSupply",
      "outputs": [
        {
          "internalType": "uint256",
          "name": "",
          "type": "uint256"
        }
      ],
      "stateMutability": "view",
      "type": "function"
    },
    {
      "inputs": [
        {
          "internalType": "address",
          "name": "recipient",
          "type": "address"
        },
        {
          "internalType": "uint256",
          "name": "amount",
          "type": "uint256"
        }
      ],
      "name": "transfer",
      "outputs": [
        {
          "internalType": "bool",
          "name": "",
          "type": "bool"
        }
      ],
      "stateMutability": "nonpayable",
      "type": "function"
    },
    {
      "inputs": [
        {
          "internalType": "address",
          "name": "sender",
          "type": "address"
        },
        {
          "internalType": "address",
          "name": "recipient",
          "type": "address"
        },
        {
          "internalType": "uint256",
          "name": "amount",
          "type": "uint256"
        }
      ],
      "name": "transferFrom",
      "outputs": [
        {
          "internalType": "bool",
          "name": "",
          "type": "bool"
        }
      ],
      "stateMutability": "nonpayable",
      "type": "function"
    },
    {
      "inputs": [],
      "name": "troveManagerAddress",
      "outputs": [
        {
          "internalType": "address",
          "name": "",
          "type": "address"
        }
      ],
      "stateMutability": "view",
      "type": "function"
    },
    {
      "inputs": [
        {
          "internalType": "address",
          "name": "_account",
          "type": "address"
        },
        {
          "internalType": "uint256",
          "name": "_amount",
          "type": "uint256"
        }
      ],
      "name": "unprotectedBurn",
      "outputs": [],
      "stateMutability": "nonpayable",
      "type": "function"
    },
    {
      "inputs": [
        {
          "internalType": "address",
          "name": "_account",
          "type": "address"
        },
        {
          "internalType": "uint256",
          "name": "_amount",
          "type": "uint256"
        }
      ],
      "name": "unprotectedMint",
      "outputs": [],
      "stateMutability": "nonpayable",
      "type": "function"
    },
    {
      "inputs": [
        {
          "internalType": "address",
          "name": "_sender",
          "type": "address"
        },
        {
          "internalType": "address",
          "name": "_poolAddress",
          "type": "address"
        },
        {
          "internalType": "uint256",
          "name": "_amount",
          "type": "uint256"
        }
      ],
      "name": "unprotectedSendToPool",
      "outputs": [],
      "stateMutability": "nonpayable",
      "type": "function"
    },
    {
      "inputs": [],
      "name": "version",
      "outputs": [
        {
          "internalType": "string",
          "name": "",
          "type": "string"
        }
      ],
      "stateMutability": "view",
      "type": "function"
    }
  ],
  "transactionHash": "0xd21f4c22df090ea1d7d003c5237a20f8842ec5df271cd85f891ef63ec5163cb2",
  "args": [
    "0xCf7Ed3AccA5a467e9e704C703E8D87F634fB0Fc9",
    "0xe7f1725E7734CE288F8367e1Bb143E90bb3F0512",
    "0x5FbDB2315678afecb367f032d93F642f64180aa3",
    "0xDc64a140Aa3E981100a9becA4E685f962f0cF6C9",
    "0x2279B7A0a67DB372996a5FaB50D91eAA73d2eBe6",
    "0x8A791620dd6260079BF849Dc5567aDC3F2FdC318",
    "STOCK",
    "STOCK",
    "1",
    false
  ],
  "numDeployments": 2,
  "solcInputHash": "6cd4b693370de6782d041c6552000a4d",
  "bytecode": "0x6102006040527f6e71edae12b1b97f4d1f60370fef10105fa2faae0126114a169c64845d6126c96101e0523480156200003757600080fd5b5060405162001e3138038062001e318339810160408190526200005a916200032d565b898989898989898989896200006f8a620001e9565b6200007a89620001e9565b6200008588620001e9565b6200009087620001e9565b6200009b85620001e9565b620000a686620001e9565b6001600160a01b03808b16610120528981166101405288811661016052878116610180528681166101a05285166101c0526001620000e58482620004d3565b506002620000f48582620004d3565b506003620001038382620004d3565b508015156080526040516000906200011e906001906200059f565b60405180910390209050600060036040516200013b91906200059f565b60405190819003902060e083905261010081905290504660c052620001c67f8b73c3c69bb8fe3d512ecc4cf759cc79239f7b179b0ffacaa9a75d522b39400f8383600083838346604080516020810195909552840192909252606083015260808201523060a082015260c0016040516020818303038152906040528051906020012090509392505050565b60a08181525050505050505050505050505050505050505050505050506200061d565b6001600160a01b038116620002115760405163d92e233d60e01b815260040160405180910390fd5b803b60008190036200023657604051636f7c43f160e01b815260040160405180910390fd5b5050565b80516001600160a01b03811681146200025257600080fd5b919050565b634e487b7160e01b600052604160045260246000fd5b600082601f8301126200027f57600080fd5b81516001600160401b03808211156200029c576200029c62000257565b604051601f8301601f19908116603f01168101908282118183101715620002c757620002c762000257565b81604052838152602092508683858801011115620002e457600080fd5b600091505b83821015620003085785820183015181830184015290820190620002e9565b600093810190920192909252949350505050565b805180151581146200025257600080fd5b6000806000806000806000806000806101408b8d0312156200034e57600080fd5b620003598b6200023a565b99506200036960208c016200023a565b98506200037960408c016200023a565b97506200038960608c016200023a565b96506200039960808c016200023a565b9550620003a960a08c016200023a565b60c08c01519095506001600160401b0380821115620003c757600080fd5b620003d58e838f016200026d565b955060e08d0151915080821115620003ec57600080fd5b620003fa8e838f016200026d565b94506101008d01519150808211156200041257600080fd5b50620004218d828e016200026d565b925050620004336101208c016200031c565b90509295989b9194979a5092959850565b600181811c908216806200045957607f821691505b6020821081036200047a57634e487b7160e01b600052602260045260246000fd5b50919050565b601f821115620004ce57600081815260208120601f850160051c81016020861015620004a95750805b601f850160051c820191505b81811015620004ca57828155600101620004b5565b5050505b505050565b81516001600160401b03811115620004ef57620004ef62000257565b620005078162000500845462000444565b8462000480565b602080601f8311600181146200053f5760008415620005265750858301515b600019600386901b1c1916600185901b178555620004ca565b600085815260208120601f198616915b8281101562000570578886015182559484019460019091019084016200054f565b50858210156200058f5787850151600019600388901b60f8161c191681555b5050505050600190811b01905550565b6000808354620005af8162000444565b60018281168015620005ca5760018114620005e05762000611565b60ff198416875282151583028701945062000611565b8760005260208060002060005b85811015620006085781548a820152908401908201620005ed565b50505082870194505b50929695505050505050565b60805160a05160c05160e05161010051610120516101405161016051610180516101a0516101c0516101e051611735620006fc600039600061075b0152600081816103cf015261089801526000818161047c015261117801526000818161043201528181610d230152818161110401526112160152600081816104ef01528181610d9a01528181610f8b015261109b0152600081816102b1015261113901526000818161037f01528181610d5e01526110cf01526000610c0901526000610be401526000610b6901526000610b91015260006104c601526117356000f3fe608060405234801561001057600080fd5b50600436106102065760003560e01c806370a082311161011a5780639e418958116100ad578063b7f8cf9b1161007c578063b7f8cf9b146104ea578063bb997bac14610511578063d505accf14610524578063dd62ed3e14610537578063f698da251461057057600080fd5b80639e41895814610477578063a457c2d71461049e578063a9059cbb146104b1578063b55fe4e7146104c457600080fd5b80638e2f0dcf116100e95780638e2f0dcf1461042d57806395d89b411461045457806398d5fdca1461045c5780639dc29fac1461046457600080fd5b806370a08231146103a1578063741bef1a146103ca5780637ecebe00146103f15780638428cf831461041a57600080fd5b80633408e4701161019d57806340c10f191161016c57806340c10f19146103395780635099f99f1461034c578063519e2cee1461035f57806354fd4d50146103725780635a4d28bb1461037a57600080fd5b80633408e470146102fa57806339509351146103005780633ab60582146103135780633dc2ea6d1461032657600080fd5b806318160ddd116101d957806318160ddd1461029157806323b872dd146102995780632be2615a146102ac578063313ce567146102eb57600080fd5b806303d999461461020b57806306fdde0314610220578063095ea7b31461023e57806310ce43bd14610261575b600080fd5b61021e6102193660046113fd565b610578565b005b610228610588565b6040516102359190611439565b60405180910390f35b61025161024c366004611487565b61061a565b6040519015158152602001610235565b7f6e71edae12b1b97f4d1f60370fef10105fa2faae0126114a169c64845d6126c95b604051908152602001610235565b600054610283565b6102516102a73660046113fd565b610631565b6102d37f000000000000000000000000000000000000000000000000000000000000000081565b6040516001600160a01b039091168152602001610235565b60405160128152602001610235565b46610283565b61025161030e366004611487565b61068c565b61021e610321366004611487565b6106c3565b61021e6103343660046113fd565b6106d1565b61021e610347366004611487565b6106dc565b61021e61035a366004611487565b6106e4565b61028361036d3660046114b1565b6106ee565b61022861081a565b6102d37f000000000000000000000000000000000000000000000000000000000000000081565b6102836103af3660046114fe565b6001600160a01b031660009081526005602052604090205490565b6102d37f000000000000000000000000000000000000000000000000000000000000000081565b6102836103ff3660046114fe565b6001600160a01b031660009081526004602052604090205490565b6102d3610428366004611531565b610829565b6102d37f000000000000000000000000000000000000000000000000000000000000000081565b610228610871565b610283610880565b61021e610472366004611487565b610910565b6102d37f000000000000000000000000000000000000000000000000000000000000000081565b6102516104ac366004611487565b610918565b6102516104bf366004611487565b61094f565b7f0000000000000000000000000000000000000000000000000000000000000000610251565b6102d37f000000000000000000000000000000000000000000000000000000000000000081565b61021e61051f3660046113fd565b610965565b61021e61053236600461156c565b61096d565b6102836105453660046115d6565b6001600160a01b03918216600090815260066020908152604080832093909416825291909152205490565b610283610b65565b610583838383610c57565b505050565b60606001805461059790611609565b80601f01602080910402602001604051908101604052809291908181526020018280546105c390611609565b80156106105780601f106105e557610100808354040283529160200191610610565b820191906000526020600020905b8154815290600101906020018083116105f357829003601f168201915b5050505050905090565b6000610627338484610c57565b5060015b92915050565b600061063c83610ce5565b6001600160a01b038416600090815260066020908152604080832033808552925290912054610677918691610672908690611659565b610c57565b610682848484610def565b5060019392505050565b3360008181526006602090815260408083206001600160a01b0387168452909152812054909161062791859061067290869061166c565b6106cd8282610edf565b5050565b610583838383610def565b6106e4610f80565b6106cd8282610fcb565b6000611901306001600160a01b031663f698da256040518163ffffffff1660e01b8152600401602060405180830381865afa158015610731573d6000803e3d6000fd5b505050506040513d601f19601f82011682018060405250810190610755919061167f565b604080517f000000000000000000000000000000000000000000000000000000000000000060208201526001600160a01b03808b169282019290925290881660608201526080810187905260a0810186905260c0810185905260e001604051602081830303815290604052805190602001206040516020016107f99392919060f09390931b6001600160f01b03191683526002830191909152602282015260420190565b60405160208183030381529060405280519060200120905095945050505050565b60606003805461059790611609565b7f19457468657265756d205369676e6564204d6573736167653a0a3332000000006000908152601c859052603c8120600061086682878787611062565b979650505050505050565b60606002805461059790611609565b6040516341976e0960e01b81523060048201526000907f00000000000000000000000000000000000000000000000000000000000000006001600160a01b0316906341976e0990602401602060405180830381865afa1580156108e7573d6000803e3d6000fd5b505050506040513d601f19601f8201168201806040525081019061090b919061167f565b905090565b6106c3611090565b3360008181526006602090815260408083206001600160a01b03871684529091528120549091610627918590610672908690611659565b600061095a83610ce5565b610627338484610def565b6106d161120b565b4284101561098e5760405163f87d927160e01b815260040160405180910390fd5b6000306001600160a01b031663f698da256040518163ffffffff1660e01b8152600401602060405180830381865afa1580156109ce573d6000803e3d6000fd5b505050506040513d601f19601f820116820180604052508101906109f2919061167f565b6001600160a01b038916600090815260046020526040812080547f6e71edae12b1b97f4d1f60370fef10105fa2faae0126114a169c64845d6126c9928c928c928c92909190610a4083611698565b909155506040805160208101969096526001600160a01b0394851690860152929091166060840152608083015260a082015260c0810187905260e00160405160208183030381529060405280519060200120604051602001610ab992919061190160f01b81526002810192909252602282015260420190565b6040516020818303038152906040528051906020012090506000610b0a827f19457468657265756d205369676e6564204d6573736167653a0a3332000000006000908152601c91909152603c902090565b90506000610b1a82878787611062565b9050896001600160a01b0316816001600160a01b031614610b4e57604051638baa579f60e01b815260040160405180910390fd5b610b598a8a8a610c57565b50505050505050505050565b60007f00000000000000000000000000000000000000000000000000000000000000004603610bb357507f000000000000000000000000000000000000000000000000000000000000000090565b50604080517f8b73c3c69bb8fe3d512ecc4cf759cc79239f7b179b0ffacaa9a75d522b39400f6020808301919091527f0000000000000000000000000000000000000000000000000000000000000000828401527f000000000000000000000000000000000000000000000000000000000000000060608301524660808301523060a0808401919091528351808403909101815260c0909201909252805191012090565b6001600160a01b038316610c6d57610c6d6116b1565b6001600160a01b038216610c8357610c836116b1565b6001600160a01b0383811660008181526006602090815260408083209487168084529482529182902085905590518481527f8c5be1e5ebec7d5bd14f71427d1e84f3dd0314c0f7b2291e5b200ac8c7c3b92591015b60405180910390a3505050565b6001600160a01b0381161580610d0357506001600160a01b03811630145b15610d215760405163d92e233d60e01b815260040160405180910390fd5b7f00000000000000000000000000000000000000000000000000000000000000006001600160a01b0316816001600160a01b03161480610d9257507f00000000000000000000000000000000000000000000000000000000000000006001600160a01b0316816001600160a01b0316145b80610dce57507f00000000000000000000000000000000000000000000000000000000000000006001600160a01b0316816001600160a01b0316145b15610dec5760405163536173c160e01b815260040160405180910390fd5b50565b6001600160a01b038316610e0557610e056116b1565b6001600160a01b038316600090815260056020526040902054811115610e3e57604051631e9acf1760e31b815260040160405180910390fd5b6001600160a01b03831660009081526005602052604081208054839290610e66908490611659565b90915550506001600160a01b03821660009081526005602052604081208054839290610e9390849061166c565b92505081905550816001600160a01b0316836001600160a01b03167fddf252ad1be2c89b69c2b068fc378daa952ba7f163c4a11628f55a4df523b3ef83604051610cd891815260200190565b6001600160a01b038216610ef557610ef56116b1565b6001600160a01b03821660009081526005602052604081208054839290610f1d908490611659565b9250508190555080600080828254610f359190611659565b90915550506040518181526000906001600160a01b038416907fddf252ad1be2c89b69c2b068fc378daa952ba7f163c4a11628f55a4df523b3ef906020015b60405180910390a35050565b336001600160a01b037f00000000000000000000000000000000000000000000000000000000000000001614610fc957604051631e458ee960e01b815260040160405180910390fd5b565b6001600160a01b038216610fe157610fe16116b1565b80600080828254610ff2919061166c565b90915550506001600160a01b0382166000908152600560205260408120805483929061101f90849061166c565b90915550506040518181526001600160a01b038316906000907fddf252ad1be2c89b69c2b068fc378daa952ba7f163c4a11628f55a4df523b3ef90602001610f74565b60008060008061107488888888611254565b9250925092506110848282611323565b50909695505050505050565b336001600160a01b037f000000000000000000000000000000000000000000000000000000000000000016148015906110f25750336001600160a01b037f00000000000000000000000000000000000000000000000000000000000000001614155b80156111275750336001600160a01b037f00000000000000000000000000000000000000000000000000000000000000001614155b801561115c5750336001600160a01b037f00000000000000000000000000000000000000000000000000000000000000001614155b80156111ed5750604051633803473960e01b81523060048201527f00000000000000000000000000000000000000000000000000000000000000006001600160a01b031690633803473990602401602060405180830381865afa1580156111c7573d6000803e3d6000fd5b505050506040513d601f19601f820116820180604052508101906111eb91906116c7565b155b15610fc957604051637c0e3ec760e11b815260040160405180910390fd5b336001600160a01b037f00000000000000000000000000000000000000000000000000000000000000001614610fc95760405163676d746b60e11b815260040160405180910390fd5b600080807f7fffffffffffffffffffffffffffffff5d576e7357a4501ddfe92f46681b20a084111561128f5750600091506003905082611319565b604080516000808252602082018084528a905260ff891692820192909252606081018790526080810186905260019060a0016020604051602081039080840390855afa1580156112e3573d6000803e3d6000fd5b5050604051601f1901519150506001600160a01b03811661130f57506000925060019150829050611319565b9250600091508190505b9450945094915050565b6000826003811115611337576113376116e9565b03611340575050565b6001826003811115611354576113546116e9565b036113725760405163f645eedf60e01b815260040160405180910390fd5b6002826003811115611386576113866116e9565b036113ac5760405163fce698f760e01b8152600481018290526024015b60405180910390fd5b60038260038111156113c0576113c06116e9565b036106cd576040516335e2f38360e21b8152600481018290526024016113a3565b80356001600160a01b03811681146113f857600080fd5b919050565b60008060006060848603121561141257600080fd5b61141b846113e1565b9250611429602085016113e1565b9150604084013590509250925092565b600060208083528351808285015260005b818110156114665785810183015185820160400152820161144a565b506000604082860101526040601f19601f8301168501019250505092915050565b6000806040838503121561149a57600080fd5b6114a3836113e1565b946020939093013593505050565b600080600080600060a086880312156114c957600080fd5b6114d2866113e1565b94506114e0602087016113e1565b94979496505050506040830135926060810135926080909101359150565b60006020828403121561151057600080fd5b611519826113e1565b9392505050565b803560ff811681146113f857600080fd5b6000806000806080858703121561154757600080fd5b8435935061155760208601611520565b93969395505050506040820135916060013590565b600080600080600080600060e0888a03121561158757600080fd5b611590886113e1565b965061159e602089016113e1565b955060408801359450606088013593506115ba60808901611520565b925060a0880135915060c0880135905092959891949750929550565b600080604083850312156115e957600080fd5b6115f2836113e1565b9150611600602084016113e1565b90509250929050565b600181811c9082168061161d57607f821691505b60208210810361163d57634e487b7160e01b600052602260045260246000fd5b50919050565b634e487b7160e01b600052601160045260246000fd5b8181038181111561062b5761062b611643565b8082018082111561062b5761062b611643565b60006020828403121561169157600080fd5b5051919050565b6000600182016116aa576116aa611643565b5060010190565b634e487b7160e01b600052600160045260246000fd5b6000602082840312156116d957600080fd5b8151801515811461151957600080fd5b634e487b7160e01b600052602160045260246000fdfea2646970667358221220fabca3b188427ad08b40e23bf887afac00dc04ea271b4f7ad8869cb3b474f8ca64736f6c63430008140033",
  "devdoc": {
    "errors": {
      "ECDSAInvalidSignature()": [
        {
          "details": "The signature derives the `address(0)`."
        }
      ],
      "ECDSAInvalidSignatureLength(uint256)": [
        {
          "details": "The signature has an invalid length."
        }
      ],
      "ECDSAInvalidSignatureS(bytes32)": [
        {
          "details": "The signature has an S value that is in the upper half order."
        }
      ]
    },
    "events": {
      "Approval(address,address,uint256)": {
        "details": "Emitted when the allowance of a `spender` for an `owner` is set by a call to {approve}. `value` is the new allowance."
      },
      "Transfer(address,address,uint256)": {
        "details": "Emitted when `value` tokens are moved from one account (`from`) to another (`to`). Note that `value` may be zero."
      }
    },
    "kind": "dev",
    "methods": {
      "allowance(address,address)": {
        "details": "Returns the remaining number of tokens that `spender` will be allowed to spend on behalf of `owner` through {transferFrom}. This is zero by default. This value changes when {approve} or {transferFrom} are called."
      },
      "balanceOf(address)": {
        "details": "Returns the value of tokens owned by `account`."
      },
      "decimals()": {
        "details": "Returns the decimals places of the token."
      },
      "name()": {
        "details": "Returns the name of the token."
      },
      "nonces(address)": {
        "details": "Returns the current ERC2612 nonce for `owner`. This value must be included whenever a signature is generated for {permit}. Every successful call to {permit} increases `owner`'s nonce by one. This prevents a signature from being used multiple times. `owner` can limit the time a Permit is valid for by setting `deadline` to a value in the near future. The deadline argument can be set to uint(-1) to create Permits that effectively never expire."
      },
      "permit(address,address,uint256,uint256,uint8,bytes32,bytes32)": {
        "details": "Sets `amount` as the allowance of `spender` over `owner`'s tokens, given `owner`'s signed approval. IMPORTANT: The same issues {IERC20-approve} has related to transaction ordering also apply here. Emits an {Approval} event. Requirements: - `owner` cannot be the zero address. - `spender` cannot be the zero address. - `deadline` must be a timestamp in the future. - `v`, `r` and `s` must be a valid `secp256k1` signature from `owner` over the EIP712-formatted function arguments. - the signature must use ``owner``'s current nonce (see {nonces}). For more information on the signature format, see the https://eips.ethereum.org/EIPS/eip-2612#specification[relevant EIP section]."
      },
      "symbol()": {
        "details": "Returns the symbol of the token."
      },
      "totalSupply()": {
        "details": "Returns the value of tokens in existence."
      }
    },
    "version": 1
  },
  "userdoc": {
    "kind": "user",
    "methods": {},
    "version": 1
  },
  "storageLayout": {
    "storage": [
      {
        "astId": 7029,
        "contract": "contracts/Mock/MockDebtToken.sol:MockDebtToken",
        "label": "_totalSupply",
        "offset": 0,
        "slot": "0",
        "type": "t_uint256"
      },
      {
        "astId": 7031,
        "contract": "contracts/Mock/MockDebtToken.sol:MockDebtToken",
        "label": "_NAME",
        "offset": 0,
        "slot": "1",
        "type": "t_string_storage"
      },
      {
        "astId": 7033,
        "contract": "contracts/Mock/MockDebtToken.sol:MockDebtToken",
        "label": "_SYMBOL",
        "offset": 0,
        "slot": "2",
        "type": "t_string_storage"
      },
      {
        "astId": 7035,
        "contract": "contracts/Mock/MockDebtToken.sol:MockDebtToken",
        "label": "_VERSION",
        "offset": 0,
        "slot": "3",
        "type": "t_string_storage"
      },
      {
        "astId": 7058,
        "contract": "contracts/Mock/MockDebtToken.sol:MockDebtToken",
        "label": "_nonces",
        "offset": 0,
        "slot": "4",
        "type": "t_mapping(t_address,t_uint256)"
      },
      {
        "astId": 7062,
        "contract": "contracts/Mock/MockDebtToken.sol:MockDebtToken",
        "label": "_balances",
        "offset": 0,
        "slot": "5",
        "type": "t_mapping(t_address,t_uint256)"
      },
      {
        "astId": 7068,
        "contract": "contracts/Mock/MockDebtToken.sol:MockDebtToken",
        "label": "_allowances",
        "offset": 0,
        "slot": "6",
        "type": "t_mapping(t_address,t_mapping(t_address,t_uint256))"
      }
    ],
    "types": {
      "t_address": {
        "encoding": "inplace",
        "label": "address",
        "numberOfBytes": "20"
      },
      "t_mapping(t_address,t_mapping(t_address,t_uint256))": {
        "encoding": "mapping",
        "key": "t_address",
        "label": "mapping(address => mapping(address => uint256))",
        "numberOfBytes": "32",
        "value": "t_mapping(t_address,t_uint256)"
      },
      "t_mapping(t_address,t_uint256)": {
        "encoding": "mapping",
        "key": "t_address",
        "label": "mapping(address => uint256)",
        "numberOfBytes": "32",
        "value": "t_uint256"
      },
      "t_string_storage": {
        "encoding": "bytes",
        "label": "string",
        "numberOfBytes": "32"
      },
      "t_uint256": {
        "encoding": "inplace",
        "label": "uint256",
        "numberOfBytes": "32"
      }
    }
  }
}