{
  "address": "0xCf7Ed3AccA5a467e9e704C703E8D87F634fB0Fc9",
  "abi": [
    {
      "inputs": [],
      "name": "FeeExceedMaxPercentage",
      "type": "error"
    },
    {
      "inputs": [],
      "name": "InvalidTrove",
      "type": "error"
    },
    {
      "inputs": [],
      "name": "NotContract",
      "type": "error"
    },
    {
      "inputs": [],
      "name": "NotFromBorrowerOrRedemptionOps",
      "type": "error"
    },
    {
      "inputs": [],
      "name": "OnlyOneTrove",
      "type": "error"
    },
    {
      "inputs": [
        {
          "internalType": "address",
          "name": "owner",
          "type": "address"
        }
      ],
      "name": "OwnableInvalidOwner",
      "type": "error"
    },
    {
      "inputs": [
        {
          "internalType": "address",
          "name": "account",
          "type": "address"
        }
      ],
      "name": "OwnableUnauthorizedAccount",
      "type": "error"
    },
    {
      "inputs": [],
      "name": "ZeroAddress",
      "type": "error"
    },
    {
      "anonymous": false,
      "inputs": [
        {
          "components": [
            {
              "internalType": "address",
              "name": "tokenAddress",
              "type": "address"
            },
            {
              "internalType": "bool",
              "name": "isColl",
              "type": "bool"
            },
            {
              "internalType": "uint256",
              "name": "amount",
              "type": "uint256"
            }
          ],
          "indexed": false,
          "internalType": "struct IBase.CAmount[]",
          "name": "_liquidatedTokens",
          "type": "tuple[]"
        }
      ],
      "name": "LTermsUpdated",
      "type": "event"
    },
    {
      "anonymous": false,
      "inputs": [
        {
          "indexed": false,
          "internalType": "uint256",
          "name": "_lastFeeOpTime",
          "type": "uint256"
        }
      ],
      "name": "LastFeeOpTimeUpdated",
      "type": "event"
    },
    {
      "anonymous": false,
      "inputs": [
        {
          "indexed": true,
          "internalType": "address",
          "name": "previousOwner",
          "type": "address"
        },
        {
          "indexed": true,
          "internalType": "address",
          "name": "newOwner",
          "type": "address"
        }
      ],
      "name": "OwnershipTransferred",
      "type": "event"
    },
    {
      "anonymous": false,
      "inputs": [
        {
          "indexed": false,
          "internalType": "uint256",
          "name": "_baseRate",
          "type": "uint256"
        }
      ],
      "name": "StableCoinBaseRateUpdated",
      "type": "event"
    },
    {
      "anonymous": false,
      "inputs": [
        {
          "components": [
            {
              "internalType": "address",
              "name": "tokenAddress",
              "type": "address"
            },
            {
              "internalType": "uint256",
              "name": "amount",
              "type": "uint256"
            }
          ],
          "indexed": false,
          "internalType": "struct IBase.TokenAmount[]",
          "name": "_totalStakesSnapshot",
          "type": "tuple[]"
        },
        {
          "components": [
            {
              "internalType": "address",
              "name": "tokenAddress",
              "type": "address"
            },
            {
              "internalType": "uint256",
              "name": "amount",
              "type": "uint256"
            }
          ],
          "indexed": false,
          "internalType": "struct IBase.TokenAmount[]",
          "name": "_totalCollateralSnapshot",
          "type": "tuple[]"
        }
      ],
      "name": "SystemSnapshotsUpdated",
      "type": "event"
    },
    {
      "anonymous": false,
      "inputs": [
        {
          "components": [
            {
              "internalType": "address",
              "name": "tokenAddress",
              "type": "address"
            },
            {
              "internalType": "uint256",
              "name": "amount",
              "type": "uint256"
            }
          ],
          "indexed": false,
          "internalType": "struct IBase.TokenAmount[]",
          "name": "_totalStakes",
          "type": "tuple[]"
        }
      ],
      "name": "TotalStakesUpdated",
      "type": "event"
    },
    {
      "anonymous": false,
      "inputs": [
        {
          "indexed": false,
          "internalType": "address",
          "name": "_borrower",
          "type": "address"
        },
        {
          "components": [
            {
              "internalType": "address",
              "name": "tokenAddress",
              "type": "address"
            },
            {
              "internalType": "bool",
              "name": "isColl",
              "type": "bool"
            },
            {
              "internalType": "uint256",
              "name": "amount",
              "type": "uint256"
            }
          ],
          "indexed": false,
          "internalType": "struct IBase.CAmount[]",
          "name": "_appliedRewards",
          "type": "tuple[]"
        }
      ],
      "name": "TroveAppliedRewards",
      "type": "event"
    },
    {
      "anonymous": false,
      "inputs": [
        {
          "indexed": false,
          "internalType": "address",
          "name": "_borrower",
          "type": "address"
        },
        {
          "indexed": false,
          "internalType": "enum IBBase.Status",
          "name": "_closingState",
          "type": "uint8"
        }
      ],
      "name": "TroveClosed",
      "type": "event"
    },
    {
      "anonymous": false,
      "inputs": [
        {
          "indexed": false,
          "internalType": "address",
          "name": "_borrower",
          "type": "address"
        },
        {
          "indexed": false,
          "internalType": "address[]",
          "name": "_collTokenAddresses",
          "type": "address[]"
        }
      ],
      "name": "TroveCollChanged",
      "type": "event"
    },
    {
      "anonymous": false,
      "inputs": [
        {
          "indexed": false,
          "internalType": "address",
          "name": "_borrower",
          "type": "address"
        },
        {
          "indexed": false,
          "internalType": "uint256",
          "name": "_newIndex",
          "type": "uint256"
        }
      ],
      "name": "TroveIndexUpdated",
      "type": "event"
    },
    {
      "anonymous": false,
      "inputs": [
        {
          "indexed": false,
          "internalType": "address",
          "name": "_borrowerOperationsAddress",
          "type": "address"
        },
        {
          "indexed": false,
          "internalType": "address",
          "name": "_redemptionOperationsAddress",
          "type": "address"
        },
        {
          "indexed": false,
          "internalType": "address",
          "name": "_liquidationOperationsAddress",
          "type": "address"
        },
        {
          "indexed": false,
          "internalType": "address",
          "name": "_storagePoolAddress",
          "type": "address"
        },
        {
          "indexed": false,
          "internalType": "address",
          "name": "_priceFeedAddress",
          "type": "address"
        },
        {
          "indexed": false,
          "internalType": "address",
          "name": "_sortedTrovesAddress",
          "type": "address"
        }
      ],
      "name": "TroveManagerInitialized",
      "type": "event"
    },
    {
      "anonymous": false,
      "inputs": [
        {
          "components": [
            {
              "internalType": "address",
              "name": "tokenAddress",
              "type": "address"
            },
            {
              "internalType": "bool",
              "name": "isColl",
              "type": "bool"
            },
            {
              "internalType": "uint256",
              "name": "amount",
              "type": "uint256"
            }
          ],
          "indexed": false,
          "internalType": "struct IBase.CAmount[]",
          "name": "_liquidatedTokens",
          "type": "tuple[]"
        }
      ],
      "name": "TroveSnapshotsUpdated",
      "type": "event"
    },
    {
      "inputs": [],
      "name": "BETA",
      "outputs": [
        {
          "internalType": "uint256",
          "name": "",
          "type": "uint256"
        }
      ],
      "stateMutability": "view",
      "type": "function"
    },
    {
      "inputs": [],
      "name": "BOOTSTRAP_PERIOD",
      "outputs": [
        {
          "internalType": "uint256",
          "name": "",
          "type": "uint256"
        }
      ],
      "stateMutability": "view",
      "type": "function"
    },
    {
      "inputs": [],
      "name": "BORROWING_FEE_FLOOR",
      "outputs": [
        {
          "internalType": "uint256",
          "name": "",
          "type": "uint256"
        }
      ],
      "stateMutability": "view",
      "type": "function"
    },
    {
      "inputs": [],
      "name": "CCR",
      "outputs": [
        {
          "internalType": "uint256",
          "name": "",
          "type": "uint256"
        }
      ],
      "stateMutability": "view",
      "type": "function"
    },
    {
      "inputs": [],
      "name": "GOV_STAKING_ADDRESS",
      "outputs": [
        {
          "internalType": "address",
          "name": "",
          "type": "address"
        }
      ],
      "stateMutability": "view",
      "type": "function"
    },
    {
      "inputs": [],
      "name": "GOV_SWAP_FEE",
      "outputs": [
        {
          "internalType": "uint32",
          "name": "",
          "type": "uint32"
        }
      ],
      "stateMutability": "view",
      "type": "function"
    },
    {
      "inputs": [],
      "name": "MAX_BORROWING_FEE",
      "outputs": [
        {
          "internalType": "uint256",
          "name": "",
          "type": "uint256"
        }
      ],
      "stateMutability": "view",
      "type": "function"
    },
    {
      "inputs": [],
      "name": "MCR",
      "outputs": [
        {
          "internalType": "uint256",
          "name": "",
          "type": "uint256"
        }
      ],
      "stateMutability": "view",
      "type": "function"
    },
    {
      "inputs": [],
      "name": "MINUTE_DECAY_FACTOR",
      "outputs": [
        {
          "internalType": "uint256",
          "name": "",
          "type": "uint256"
        }
      ],
      "stateMutability": "view",
      "type": "function"
    },
    {
      "inputs": [],
      "name": "NAME",
      "outputs": [
        {
          "internalType": "string",
          "name": "",
          "type": "string"
        }
      ],
      "stateMutability": "view",
      "type": "function"
    },
    {
      "inputs": [],
      "name": "PERCENT_DIVISOR",
      "outputs": [
        {
          "internalType": "uint256",
          "name": "",
          "type": "uint256"
        }
      ],
      "stateMutability": "view",
      "type": "function"
    },
    {
      "inputs": [],
      "name": "REDEMPTION_FEE_FLOOR",
      "outputs": [
        {
          "internalType": "uint256",
          "name": "",
          "type": "uint256"
        }
      ],
      "stateMutability": "view",
      "type": "function"
    },
    {
      "inputs": [],
      "name": "STABLE_COIN_GAS_COMPENSATION",
      "outputs": [
        {
          "internalType": "uint256",
          "name": "",
          "type": "uint256"
        }
      ],
      "stateMutability": "view",
      "type": "function"
    },
    {
      "inputs": [],
      "name": "SWAP_BASE_FEE",
      "outputs": [
        {
          "internalType": "uint32",
          "name": "",
          "type": "uint32"
        }
      ],
      "stateMutability": "view",
      "type": "function"
    },
    {
      "inputs": [],
      "name": "SWAP_FEE_PRECISION",
      "outputs": [
        {
          "internalType": "uint32",
          "name": "",
          "type": "uint32"
        }
      ],
      "stateMutability": "view",
      "type": "function"
    },
    {
      "inputs": [
        {
          "internalType": "uint256",
          "name": "",
          "type": "uint256"
        }
      ],
      "name": "TroveOwners",
      "outputs": [
        {
          "internalType": "address",
          "name": "",
          "type": "address"
        }
      ],
      "stateMutability": "view",
      "type": "function"
    },
    {
      "inputs": [
        {
          "internalType": "address",
          "name": "",
          "type": "address"
        }
      ],
      "name": "Troves",
      "outputs": [
        {
          "internalType": "enum IBBase.Status",
          "name": "status",
          "type": "uint8"
        },
        {
          "internalType": "uint128",
          "name": "arrayIndex",
          "type": "uint128"
        }
      ],
      "stateMutability": "view",
      "type": "function"
    },
    {
      "inputs": [],
      "name": "_100pct",
      "outputs": [
        {
          "internalType": "uint256",
          "name": "",
          "type": "uint256"
        }
      ],
      "stateMutability": "view",
      "type": "function"
    },
    {
      "inputs": [
        {
          "internalType": "address",
          "name": "_borrower",
          "type": "address"
        }
      ],
      "name": "addTroveOwnerToArray",
      "outputs": [
        {
          "internalType": "uint128",
          "name": "index",
          "type": "uint128"
        }
      ],
      "stateMutability": "nonpayable",
      "type": "function"
    },
    {
      "inputs": [
        {
          "internalType": "address",
          "name": "_borrower",
          "type": "address"
        }
      ],
      "name": "applyPendingRewards",
      "outputs": [],
      "stateMutability": "nonpayable",
      "type": "function"
    },
    {
      "inputs": [],
      "name": "borrowerOperationsAddress",
      "outputs": [
        {
          "internalType": "address",
          "name": "",
          "type": "address"
        }
      ],
      "stateMutability": "view",
      "type": "function"
    },
    {
      "inputs": [],
      "name": "calcDecayedStableCoinBaseRate",
      "outputs": [
        {
          "internalType": "uint256",
          "name": "",
          "type": "uint256"
        }
      ],
      "stateMutability": "view",
      "type": "function"
    },
    {
      "inputs": [
        {
          "internalType": "address[]",
          "name": "collTokenAddresses",
          "type": "address[]"
        },
        {
          "internalType": "address",
          "name": "_borrower",
          "type": "address"
        },
        {
          "internalType": "enum IBBase.Status",
          "name": "closedStatus",
          "type": "uint8"
        }
      ],
      "name": "closeTroveByProtocol",
      "outputs": [],
      "stateMutability": "nonpayable",
      "type": "function"
    },
    {
      "inputs": [
        {
          "internalType": "uint256",
          "name": "_coll",
          "type": "uint256"
        },
        {
          "internalType": "uint256",
          "name": "_debt",
          "type": "uint256"
        }
      ],
      "name": "computeICR",
      "outputs": [
        {
          "internalType": "uint256",
          "name": "",
          "type": "uint256"
        }
      ],
      "stateMutability": "pure",
      "type": "function"
    },
    {
      "inputs": [
        {
          "internalType": "uint256",
          "name": "borrowedStable",
          "type": "uint256"
        }
      ],
      "name": "decayStableCoinBaseRateFromBorrowing",
      "outputs": [],
      "stateMutability": "nonpayable",
      "type": "function"
    },
    {
      "inputs": [
        {
          "internalType": "address",
          "name": "_borrower",
          "type": "address"
        },
        {
          "components": [
            {
              "internalType": "address",
              "name": "tokenAddress",
              "type": "address"
            },
            {
              "internalType": "uint256",
              "name": "amount",
              "type": "uint256"
            }
          ],
          "internalType": "struct IBase.TokenAmount[]",
          "name": "_collTokenAmounts",
          "type": "tuple[]"
        }
      ],
      "name": "decreaseTroveColl",
      "outputs": [],
      "stateMutability": "nonpayable",
      "type": "function"
    },
    {
      "inputs": [
        {
          "internalType": "address",
          "name": "_borrower",
          "type": "address"
        },
        {
          "components": [
            {
              "internalType": "contract IDebtToken",
              "name": "debtToken",
              "type": "address"
            },
            {
              "internalType": "uint256",
              "name": "netDebt",
              "type": "uint256"
            },
            {
              "internalType": "uint256",
              "name": "borrowingFee",
              "type": "uint256"
            }
          ],
          "internalType": "struct IBBase.DebtTokenAmount[]",
          "name": "_debtTokenAmounts",
          "type": "tuple[]"
        }
      ],
      "name": "decreaseTroveDebt",
      "outputs": [],
      "stateMutability": "nonpayable",
      "type": "function"
    },
    {
      "inputs": [
        {
          "internalType": "uint256",
          "name": "_debtValue",
          "type": "uint256"
        },
        {
          "internalType": "bool",
          "name": "isStableCoin",
          "type": "bool"
        }
      ],
      "name": "getBorrowingFee",
      "outputs": [
        {
          "internalType": "uint256",
          "name": "",
          "type": "uint256"
        }
      ],
      "stateMutability": "view",
      "type": "function"
    },
    {
      "inputs": [
        {
          "internalType": "uint256",
          "name": "_debtValue",
          "type": "uint256"
        },
        {
          "internalType": "bool",
          "name": "isStableCoin",
          "type": "bool"
        }
      ],
      "name": "getBorrowingFeeWithDecay",
      "outputs": [
        {
          "internalType": "uint256",
          "name": "",
          "type": "uint256"
        }
      ],
      "stateMutability": "view",
      "type": "function"
    },
    {
      "inputs": [
        {
          "internalType": "bool",
          "name": "isStableCoin",
          "type": "bool"
        }
      ],
      "name": "getBorrowingRate",
      "outputs": [
        {
          "internalType": "uint256",
          "name": "",
          "type": "uint256"
        }
      ],
      "stateMutability": "view",
      "type": "function"
    },
    {
      "inputs": [
        {
          "internalType": "bool",
          "name": "isStableCoin",
          "type": "bool"
        }
      ],
      "name": "getBorrowingRateWithDecay",
      "outputs": [
        {
          "internalType": "uint256",
          "name": "",
          "type": "uint256"
        }
      ],
      "stateMutability": "view",
      "type": "function"
    },
    {
      "inputs": [
        {
          "internalType": "uint256",
          "name": "_coll",
          "type": "uint256"
        }
      ],
      "name": "getCollGasCompensation",
      "outputs": [
        {
          "internalType": "uint256",
          "name": "",
          "type": "uint256"
        }
      ],
      "stateMutability": "pure",
      "type": "function"
    },
    {
      "inputs": [
        {
          "internalType": "address",
          "name": "_borrower",
          "type": "address"
        }
      ],
      "name": "getCurrentICR",
      "outputs": [
        {
          "internalType": "uint256",
          "name": "ICR",
          "type": "uint256"
        },
        {
          "internalType": "uint256",
          "name": "currentDebtInUSD",
          "type": "uint256"
        }
      ],
      "stateMutability": "view",
      "type": "function"
    },
    {
      "inputs": [
        {
          "internalType": "address",
          "name": "_borrower",
          "type": "address"
        }
      ],
      "name": "getEntireDebtAndColl",
      "outputs": [
        {
          "components": [
            {
              "internalType": "address",
              "name": "tokenAddress",
              "type": "address"
            },
            {
              "internalType": "bool",
              "name": "isColl",
              "type": "bool"
            },
            {
              "internalType": "uint256",
              "name": "amount",
              "type": "uint256"
            },
            {
              "internalType": "uint256",
              "name": "pendingReward",
              "type": "uint256"
            },
            {
              "internalType": "uint256",
              "name": "gasCompensation",
              "type": "uint256"
            },
            {
              "internalType": "uint256",
              "name": "toLiquidate",
              "type": "uint256"
            },
            {
              "internalType": "uint256",
              "name": "toRedistribute",
              "type": "uint256"
            },
            {
              "internalType": "uint256",
              "name": "toOffset",
              "type": "uint256"
            },
            {
              "internalType": "uint256",
              "name": "collSurplus",
              "type": "uint256"
            }
          ],
          "internalType": "struct IBase.RAmount[]",
          "name": "amounts",
          "type": "tuple[]"
        },
        {
          "internalType": "uint256",
          "name": "troveCollInUSD",
          "type": "uint256"
        },
        {
          "internalType": "uint256",
          "name": "troveDebtInUSD",
          "type": "uint256"
        },
        {
          "internalType": "uint256",
          "name": "troveDebtInUSDWithoutGasCompensation",
          "type": "uint256"
        }
      ],
      "stateMutability": "view",
      "type": "function"
    },
    {
      "inputs": [
        {
          "internalType": "address",
          "name": "_borrower",
          "type": "address"
        },
        {
          "components": [
            {
              "internalType": "address",
              "name": "tokenAddress",
              "type": "address"
            },
            {
              "internalType": "uint256",
              "name": "amount",
              "type": "uint256"
            }
          ],
          "internalType": "struct IBase.TokenAmount[]",
          "name": "addedColl",
          "type": "tuple[]"
        },
        {
          "components": [
            {
              "internalType": "address",
              "name": "tokenAddress",
              "type": "address"
            },
            {
              "internalType": "uint256",
              "name": "amount",
              "type": "uint256"
            }
          ],
          "internalType": "struct IBase.TokenAmount[]",
          "name": "removedColl",
          "type": "tuple[]"
        },
        {
          "components": [
            {
              "internalType": "address",
              "name": "tokenAddress",
              "type": "address"
            },
            {
              "internalType": "uint256",
              "name": "amount",
              "type": "uint256"
            }
          ],
          "internalType": "struct IBase.TokenAmount[]",
          "name": "addedDebt",
          "type": "tuple[]"
        },
        {
          "components": [
            {
              "internalType": "address",
              "name": "tokenAddress",
              "type": "address"
            },
            {
              "internalType": "uint256",
              "name": "amount",
              "type": "uint256"
            }
          ],
          "internalType": "struct IBase.TokenAmount[]",
          "name": "removedDebt",
          "type": "tuple[]"
        }
      ],
      "name": "getICRIncludingPatch",
      "outputs": [
        {
          "internalType": "uint256",
          "name": "ICR",
          "type": "uint256"
        }
      ],
      "stateMutability": "view",
      "type": "function"
    },
    {
      "inputs": [
        {
          "internalType": "address",
          "name": "tokenAddress",
          "type": "address"
        },
        {
          "internalType": "bool",
          "name": "isColl",
          "type": "bool"
        }
      ],
      "name": "getLiquidatedTokens",
      "outputs": [
        {
          "internalType": "uint256",
          "name": "",
          "type": "uint256"
        }
      ],
      "stateMutability": "view",
      "type": "function"
    },
    {
      "inputs": [
        {
          "internalType": "address",
          "name": "_borrower",
          "type": "address"
        },
        {
          "internalType": "address",
          "name": "_tokenAddress",
          "type": "address"
        },
        {
          "internalType": "bool",
          "name": "_isColl",
          "type": "bool"
        }
      ],
      "name": "getPendingReward",
      "outputs": [
        {
          "internalType": "uint256",
          "name": "pendingReward",
          "type": "uint256"
        }
      ],
      "stateMutability": "view",
      "type": "function"
    },
    {
      "inputs": [],
      "name": "getStableCoinBaseRate",
      "outputs": [
        {
          "internalType": "uint256",
          "name": "",
          "type": "uint256"
        }
      ],
      "stateMutability": "view",
      "type": "function"
    },
    {
      "inputs": [
        {
          "internalType": "address",
          "name": "_borrower",
          "type": "address"
        }
      ],
      "name": "getTroveColl",
      "outputs": [
        {
          "components": [
            {
              "internalType": "address",
              "name": "tokenAddress",
              "type": "address"
            },
            {
              "internalType": "uint256",
              "name": "amount",
              "type": "uint256"
            }
          ],
          "internalType": "struct IBase.TokenAmount[]",
          "name": "colls",
          "type": "tuple[]"
        }
      ],
      "stateMutability": "view",
      "type": "function"
    },
    {
      "inputs": [
        {
          "internalType": "address",
          "name": "_borrower",
          "type": "address"
        }
      ],
      "name": "getTroveDebt",
      "outputs": [
        {
          "components": [
            {
              "internalType": "address",
              "name": "tokenAddress",
              "type": "address"
            },
            {
              "internalType": "uint256",
              "name": "amount",
              "type": "uint256"
            }
          ],
          "internalType": "struct IBase.TokenAmount[]",
          "name": "",
          "type": "tuple[]"
        }
      ],
      "stateMutability": "view",
      "type": "function"
    },
    {
      "inputs": [],
      "name": "getTroveOwners",
      "outputs": [
        {
          "internalType": "address[]",
          "name": "",
          "type": "address[]"
        }
      ],
      "stateMutability": "view",
      "type": "function"
    },
    {
      "inputs": [],
      "name": "getTroveOwnersCount",
      "outputs": [
        {
          "internalType": "uint256",
          "name": "",
          "type": "uint256"
        }
      ],
      "stateMutability": "view",
      "type": "function"
    },
    {
      "inputs": [
        {
          "internalType": "address",
          "name": "_borrower",
          "type": "address"
        },
        {
          "internalType": "address",
          "name": "_debtTokenAddress",
          "type": "address"
        },
        {
          "internalType": "bool",
          "name": "_includingStableCoinGasCompensation",
          "type": "bool"
        }
      ],
      "name": "getTroveRepayableDebt",
      "outputs": [
        {
          "internalType": "uint256",
          "name": "amount",
          "type": "uint256"
        }
      ],
      "stateMutability": "view",
      "type": "function"
    },
    {
      "inputs": [
        {
          "internalType": "address",
          "name": "_borrower",
          "type": "address"
        },
        {
          "internalType": "bool",
          "name": "_includingStableCoinGasCompensation",
          "type": "bool"
        }
      ],
      "name": "getTroveRepayableDebts",
      "outputs": [
        {
          "components": [
            {
              "internalType": "address",
              "name": "tokenAddress",
              "type": "address"
            },
            {
              "internalType": "uint256",
              "name": "amount",
              "type": "uint256"
            }
          ],
          "internalType": "struct IBase.TokenAmount[]",
          "name": "debts",
          "type": "tuple[]"
        }
      ],
      "stateMutability": "view",
      "type": "function"
    },
    {
      "inputs": [
        {
          "internalType": "address",
          "name": "_borrower",
          "type": "address"
        }
      ],
      "name": "getTroveStakeValue",
      "outputs": [
        {
          "internalType": "uint256",
          "name": "",
          "type": "uint256"
        }
      ],
      "stateMutability": "view",
      "type": "function"
    },
    {
      "inputs": [
        {
          "internalType": "address",
          "name": "_borrower",
          "type": "address"
        },
        {
          "internalType": "address",
          "name": "_token",
          "type": "address"
        }
      ],
      "name": "getTroveStakes",
      "outputs": [
        {
          "internalType": "uint256",
          "name": "",
          "type": "uint256"
        }
      ],
      "stateMutability": "view",
      "type": "function"
    },
    {
      "inputs": [
        {
          "internalType": "address",
          "name": "_borrower",
          "type": "address"
        }
      ],
      "name": "getTroveStatus",
      "outputs": [
        {
          "internalType": "uint256",
          "name": "",
          "type": "uint256"
        }
      ],
      "stateMutability": "view",
      "type": "function"
    },
    {
      "inputs": [
        {
          "internalType": "address",
          "name": "_borrower",
          "type": "address"
        },
        {
          "internalType": "address",
          "name": "_collTokenAddress",
          "type": "address"
        }
      ],
      "name": "getTroveWithdrawableColl",
      "outputs": [
        {
          "internalType": "uint256",
          "name": "amount",
          "type": "uint256"
        }
      ],
      "stateMutability": "view",
      "type": "function"
    },
    {
      "inputs": [
        {
          "internalType": "address",
          "name": "_borrower",
          "type": "address"
        }
      ],
      "name": "getTroveWithdrawableColls",
      "outputs": [
        {
          "components": [
            {
              "internalType": "address",
              "name": "tokenAddress",
              "type": "address"
            },
            {
              "internalType": "uint256",
              "name": "amount",
              "type": "uint256"
            }
          ],
          "internalType": "struct IBase.TokenAmount[]",
          "name": "colls",
          "type": "tuple[]"
        }
      ],
      "stateMutability": "view",
      "type": "function"
    },
    {
      "inputs": [
        {
          "internalType": "address",
          "name": "_borrower",
          "type": "address"
        },
        {
          "components": [
            {
              "internalType": "address",
              "name": "tokenAddress",
              "type": "address"
            },
            {
              "internalType": "uint256",
              "name": "amount",
              "type": "uint256"
            }
          ],
          "internalType": "struct IBase.TokenAmount[]",
          "name": "_collTokenAmounts",
          "type": "tuple[]"
        }
      ],
      "name": "increaseTroveColl",
      "outputs": [],
      "stateMutability": "nonpayable",
      "type": "function"
    },
    {
      "inputs": [
        {
          "internalType": "address",
          "name": "_borrower",
          "type": "address"
        },
        {
          "components": [
            {
              "internalType": "contract IDebtToken",
              "name": "debtToken",
              "type": "address"
            },
            {
              "internalType": "uint256",
              "name": "netDebt",
              "type": "uint256"
            },
            {
              "internalType": "uint256",
              "name": "borrowingFee",
              "type": "uint256"
            }
          ],
          "internalType": "struct IBBase.DebtTokenAmount[]",
          "name": "_debtTokenAmounts",
          "type": "tuple[]"
        }
      ],
      "name": "increaseTroveDebt",
      "outputs": [],
      "stateMutability": "nonpayable",
      "type": "function"
    },
    {
      "inputs": [
        {
          "internalType": "address",
          "name": "_borrower",
          "type": "address"
        }
      ],
      "name": "isTroveActive",
      "outputs": [
        {
          "internalType": "bool",
          "name": "",
          "type": "bool"
        }
      ],
      "stateMutability": "view",
      "type": "function"
    },
    {
      "inputs": [
        {
          "internalType": "address",
          "name": "",
          "type": "address"
        },
        {
          "internalType": "bool",
          "name": "",
          "type": "bool"
        }
      ],
      "name": "lastErrorRedistribution",
      "outputs": [
        {
          "internalType": "uint256",
          "name": "",
          "type": "uint256"
        }
      ],
      "stateMutability": "view",
      "type": "function"
    },
    {
      "inputs": [],
      "name": "lastFeeOperationTime",
      "outputs": [
        {
          "internalType": "uint256",
          "name": "",
          "type": "uint256"
        }
      ],
      "stateMutability": "view",
      "type": "function"
    },
    {
      "inputs": [
        {
          "internalType": "address",
          "name": "",
          "type": "address"
        },
        {
          "internalType": "bool",
          "name": "",
          "type": "bool"
        }
      ],
      "name": "liquidatedTokens",
      "outputs": [
        {
          "internalType": "uint256",
          "name": "",
          "type": "uint256"
        }
      ],
      "stateMutability": "view",
      "type": "function"
    },
    {
      "inputs": [],
      "name": "liquidationOperationsAddress",
      "outputs": [
        {
          "internalType": "address",
          "name": "",
          "type": "address"
        }
      ],
      "stateMutability": "view",
      "type": "function"
    },
    {
      "inputs": [],
      "name": "owner",
      "outputs": [
        {
          "internalType": "address",
          "name": "",
          "type": "address"
        }
      ],
      "stateMutability": "view",
      "type": "function"
    },
    {
      "inputs": [],
      "name": "priceFeed",
      "outputs": [
        {
          "internalType": "contract IPriceFeed",
          "name": "",
          "type": "address"
        }
      ],
      "stateMutability": "view",
      "type": "function"
    },
    {
      "inputs": [],
      "name": "redemptionOperationsAddress",
      "outputs": [
        {
          "internalType": "address",
          "name": "",
          "type": "address"
        }
      ],
      "stateMutability": "view",
      "type": "function"
    },
    {
      "inputs": [
        {
          "internalType": "address[]",
          "name": "collTokenAddresses",
          "type": "address[]"
        },
        {
          "components": [
            {
              "internalType": "address",
              "name": "tokenAddress",
              "type": "address"
            },
            {
              "internalType": "bool",
              "name": "isColl",
              "type": "bool"
            },
            {
              "internalType": "uint256",
              "name": "amount",
              "type": "uint256"
            }
          ],
          "internalType": "struct IBase.CAmount[]",
          "name": "toRedistribute",
          "type": "tuple[]"
        }
      ],
      "name": "redistributeDebtAndColl",
      "outputs": [],
      "stateMutability": "nonpayable",
      "type": "function"
    },
    {
      "inputs": [
        {
          "internalType": "address[]",
          "name": "collTokenAddresses",
          "type": "address[]"
        },
        {
          "internalType": "address",
          "name": "_borrower",
          "type": "address"
        }
      ],
      "name": "removeStake",
      "outputs": [],
      "stateMutability": "nonpayable",
      "type": "function"
    },
    {
      "inputs": [],
      "name": "renounceOwnership",
      "outputs": [],
      "stateMutability": "nonpayable",
      "type": "function"
    },
    {
      "inputs": [
        {
          "internalType": "address",
          "name": "",
          "type": "address"
        },
        {
          "internalType": "address",
          "name": "",
          "type": "address"
        },
        {
          "internalType": "bool",
          "name": "",
          "type": "bool"
        }
      ],
      "name": "rewardSnapshots",
      "outputs": [
        {
          "internalType": "uint256",
          "name": "",
          "type": "uint256"
        }
      ],
      "stateMutability": "view",
      "type": "function"
    },
    {
      "inputs": [
        {
          "internalType": "address",
          "name": "_borrowerOperationsAddress",
          "type": "address"
        },
        {
          "internalType": "address",
          "name": "_redemptionOperationsAddress",
          "type": "address"
        },
        {
          "internalType": "address",
          "name": "_liquidationOperationsAddress",
          "type": "address"
        },
        {
          "internalType": "address",
          "name": "_storagePoolAddress",
          "type": "address"
        },
        {
          "internalType": "address",
          "name": "_priceFeedAddress",
          "type": "address"
        },
        {
          "internalType": "address",
          "name": "_sortedTrovesAddress",
          "type": "address"
        }
      ],
      "name": "setAddresses",
      "outputs": [],
      "stateMutability": "nonpayable",
      "type": "function"
    },
    {
      "inputs": [
        {
          "internalType": "uint256",
          "name": "_baseRate",
          "type": "uint256"
        }
      ],
      "name": "setBaseRate",
      "outputs": [],
      "stateMutability": "nonpayable",
      "type": "function"
    },
    {
      "inputs": [],
      "name": "setLastFeeOpTimeToNow",
      "outputs": [],
      "stateMutability": "nonpayable",
      "type": "function"
    },
    {
      "inputs": [
        {
          "internalType": "address",
          "name": "_borrower",
          "type": "address"
        },
        {
          "internalType": "uint256",
          "name": "_num",
          "type": "uint256"
        }
      ],
      "name": "setTroveStatus",
      "outputs": [],
      "stateMutability": "nonpayable",
      "type": "function"
    },
    {
      "inputs": [],
      "name": "sortedTroves",
      "outputs": [
        {
          "internalType": "contract ISortedTroves",
          "name": "",
          "type": "address"
        }
      ],
      "stateMutability": "view",
      "type": "function"
    },
    {
      "inputs": [],
      "name": "stableCoinBaseRate",
      "outputs": [
        {
          "internalType": "uint256",
          "name": "",
          "type": "uint256"
        }
      ],
      "stateMutability": "view",
      "type": "function"
    },
    {
      "inputs": [],
      "name": "storagePool",
      "outputs": [
        {
          "internalType": "contract IStoragePool",
          "name": "",
          "type": "address"
        }
      ],
      "stateMutability": "view",
      "type": "function"
    },
    {
      "inputs": [
        {
          "internalType": "address",
          "name": "",
          "type": "address"
        }
      ],
      "name": "totalCollateralSnapshots",
      "outputs": [
        {
          "internalType": "uint256",
          "name": "",
          "type": "uint256"
        }
      ],
      "stateMutability": "view",
      "type": "function"
    },
    {
      "inputs": [
        {
          "internalType": "address",
          "name": "",
          "type": "address"
        }
      ],
      "name": "totalStakes",
      "outputs": [
        {
          "internalType": "uint256",
          "name": "",
          "type": "uint256"
        }
      ],
      "stateMutability": "view",
      "type": "function"
    },
    {
      "inputs": [
        {
          "internalType": "address",
          "name": "",
          "type": "address"
        }
      ],
      "name": "totalStakesSnapshot",
      "outputs": [
        {
          "internalType": "uint256",
          "name": "",
          "type": "uint256"
        }
      ],
      "stateMutability": "view",
      "type": "function"
    },
    {
      "inputs": [
        {
          "internalType": "address",
          "name": "newOwner",
          "type": "address"
        }
      ],
      "name": "transferOwnership",
      "outputs": [],
      "stateMutability": "nonpayable",
      "type": "function"
    },
    {
      "inputs": [
        {
          "internalType": "uint256",
          "name": "_totalRedeemedStable",
          "type": "uint256"
        },
        {
          "internalType": "uint256",
          "name": "_totalStableCoinSupply",
          "type": "uint256"
        }
      ],
      "name": "updateStableCoinBaseRateFromRedemption",
      "outputs": [],
      "stateMutability": "nonpayable",
      "type": "function"
    },
    {
      "inputs": [
        {
          "internalType": "address[]",
          "name": "collTokenAddresses",
          "type": "address[]"
        },
        {
          "internalType": "address",
          "name": "_borrower",
          "type": "address"
        }
      ],
      "name": "updateStakeAndTotalStakes",
      "outputs": [],
      "stateMutability": "nonpayable",
      "type": "function"
    },
    {
      "inputs": [
        {
          "components": [
            {
              "internalType": "address",
              "name": "tokenAddress",
              "type": "address"
            },
            {
              "internalType": "uint256",
              "name": "amount",
              "type": "uint256"
            }
          ],
          "internalType": "struct IBase.TokenAmount[]",
          "name": "totalCollGasCompensation",
          "type": "tuple[]"
        }
      ],
      "name": "updateSystemSnapshots_excludeCollRemainder",
      "outputs": [],
      "stateMutability": "nonpayable",
      "type": "function"
    },
    {
      "inputs": [
        {
          "internalType": "address",
          "name": "_borrower",
          "type": "address"
        }
      ],
      "name": "updateTroveRewardSnapshots",
      "outputs": [],
      "stateMutability": "nonpayable",
      "type": "function"
    }
  ],
  "transactionHash": "0x2236089b1f13c7cb676ddab5fe2e670d10f22ddb093e8ab0ddaa3ae7f91afdfb",
  "args": [],
  "numDeployments": 1,
  "solcInputHash": "6cd4b693370de6782d041c6552000a4d",
  "bytecode": "0x60806040523480156200001157600080fd5b5033806200003957604051631e4fbdf760e01b81526000600482015260240160405180910390fd5b62000044816200004b565b506200009b565b600080546001600160a01b038381166001600160a01b0319831681178455604051919092169283917f8be0079c531659141344cd1fd0a4f28419497f9722a3daafe3b4186f6b6457e09190a35050565b614bad80620000ab6000396000f3fe608060405234801561001057600080fd5b50600436106104685760003560e01c8063756b253e1161024c578063bc3ce8c411610146578063e240885e116100c3578063ec671c8311610087578063ec671c8314610ae2578063f2fde38b14610aec578063f92d343314610632578063fa973daa14610aff578063fb746c6a14610b1257600080fd5b8063e240885e14610a8c578063e5dc45a214610a9f578063e62688a314610ab2578063e67729e314610ac5578063e853753414610acf57600080fd5b8063d317458f1161010a578063d317458f14610a2a578063d380a37c14610a3d578063d66a255314610a46578063ddbeb71414610a59578063df349ed514610a6c57600080fd5b8063bc3ce8c4146109d8578063c317c460146109eb578063c35bc550146109fe578063c450952014610a08578063c7b5548114610a1b57600080fd5b80639bfc8110116101d4578063b22b0bcf11610198578063b22b0bcf1461094f578063b311d2e214610957578063b3e995381461096a578063b7f8cf9b146109a2578063b91af97c146109b557600080fd5b80639bfc8110146108be578063a3f4df7e146108d1578063a537896f14610909578063ae9187541461091c578063af3700dc1461092f57600080fd5b80638d63c6651161021b5780638d63c6651461086e5780638da5cb5b1461087e57806392da1bc61461088f578063991336b2146108a25780639b26013b146108b557600080fd5b8063756b253e14610826578063794e57241461083957806382fe3eb9146108485780638918b9e11461085b57600080fd5b80632be2615a116103685780635d6b480f116102e5578063701deb68116102a9578063701deb68146107ac578063715018a6146107e957806372fe25aa146107f157806373b1029614610800578063741bef1a1461081357600080fd5b80635d6b480f1461071257806367ab6b67146107255780636a5ab297146107385780636cfb6bf9146107585780636ef643381461076b57600080fd5b80634870dd9a1161032c5780634870dd9a146106c257806349eefeee146106ca578063502afb04146106d25780635733d58f146106f057806359138f9a146106ff57600080fd5b80632be2615a146106405780633122dfd4146106535780633735aa20146106845780633fd5c85a146106a7578063480cd578146106af57600080fd5b8063154eada4116103f657806321e37801116103ba57806321e37801146105d657806324092669146105e95780632767bf64146105f757806327fb7d891461060a57806328d28b5b1461063257600080fd5b8063154eada41461055d57806315d549f11461057057806318e730281461059b5780631bbb375c146105ae5780631d08837b146105c357600080fd5b80630b0765571161043d5780630b076557146104f15780630c13ad6e14610504578063107192911461051757806310e7cc811461052a578063129c4c611461054a57600080fd5b8061e8031461046d578063043782fb146104ab578063071a7541146104b657806309230ad3146104be575b600080fd5b61049861047b366004613fa3565b600d60209081526000928352604080842090915290825290205481565b6040519081526020015b60405180910390f35b6104b442600855565b005b610498600281565b6104d973f39fd6e51aad88f6f4ce6ab8827279cfffb9226681565b6040516001600160a01b0390911681526020016104a2565b6104b46104ff366004613fdc565b610b3d565b6104b4610512366004614120565b610ed4565b6104b46105253660046141ee565b610f8e565b61053d610538366004613fa3565b6112a0565b6040516104a29190614271565b610498610558366004614284565b611418565b61049861056b3660046142a6565b61142b565b61058361057e366004613fdc565b611504565b6040516001600160801b0390911681526020016104a2565b6104986105a93660046142f1565b6115a3565b6105b661169f565b6040516104a291906143e9565b6104b46105d13660046143fc565b600755565b6104986105e4366004613fdc565b611701565b61049866b1a2bc2ec5000081565b6104b4610605366004614120565b61172e565b61061d610618366004613fdc565b611964565b604080519283526020830191909152016104a2565b6104986611c37937e0800081565b6002546104d9906001600160a01b031681565b6104986106613660046142a6565b600e60209081526000938452604080852082529284528284209052825290205481565b610697610692366004613fdc565b611988565b60405190151581526020016104a2565b600754610498565b61053d6106bd366004613fdc565b6119c0565b61049860c881565b601054610498565b6106db610bb881565b60405163ffffffff90911681526020016104a2565b6104986714d1120d7b16000081565b6104b461070d366004614415565b611b74565b6104b461072036600461450e565b611e31565b61049861073336600461453a565b611e86565b610498610746366004613fdc565b600c6020526000908152604090205481565b6104b461076636600461455f565b611e9a565b61079e610779366004613fdc565b60096020526000908152604090205460ff81169061010090046001600160801b031682565b6040516104a292919061460b565b6104986107ba36600461462f565b6001600160a01b0391821660009081526009602090815260408083209390941682526007909201909152205490565b6104b4611fa6565b610498670de0b6b3a764000081565b6104b461080e366004614284565b611fba565b6005546104d9906001600160a01b031681565b6104d96108343660046143fc565b612039565b610498670f43fc2c04ee000081565b6104b4610856366004613fdc565b612063565b6104b461086936600461465d565b612077565b610498680ad78ebc5ac620000081565b6000546001600160a01b03166104d9565b6104b461089d3660046143fc565b612311565b6104986108b036600461462f565b612355565b61049860075481565b6104b46108cc3660046146b9565b6123cd565b6108fc6040518060400160405280600c81526020016b2a3937bb32a6b0b730b3b2b960a11b81525081565b6040516104a29190614783565b6104986109173660046143fc565b6124f9565b6006546104d9906001600160a01b031681565b61049861093d366004613fdc565b600b6020526000908152604090205481565b610498612504565b6104b46109653660046147d1565b61254f565b610498610978366004613fa3565b6001600160a01b03919091166000908152600d602090815260408083209315158352929052205490565b6001546104d9906001600160a01b031681565b6109c86109c3366004613fdc565b6126b0565b6040516104a29493929190614820565b61053d6109e6366004613fdc565b612c57565b6104986109f936600461453a565b612cde565b6104986212750081565b610498610a16366004613fdc565b612cec565b610498670ddd4b8c6c7d70d881565b6104b4610a383660046147d1565b612cf7565b61049860085481565b61053d610a54366004613fdc565b612e92565b6004546104d9906001600160a01b031681565b610498610a7a366004613fdc565b600a6020526000908152604090205481565b6104b4610a9a3660046146b9565b613013565b610498610aad3660046148d3565b6130c7565b610498610ac03660046148d3565b6130e7565b6106db620f424081565b6003546104d9906001600160a01b031681565b6106db6207a12081565b6104b4610afa366004613fdc565b61310c565b610498610b0d3660046142a6565b61314c565b610498610b20366004613fa3565b600f60209081526000928352604080842090915290825290205481565b610b45613195565b610b4e816131f0565b6001600160a01b038116600090815260096020526040812060018101546004820154919291610b7d9190614906565b6001600160401b03811115610b9457610b94613ff9565b604051908082528060200260200182016040528015610bdf57816020015b6040805160608101825260008082526020808301829052928201528252600019909201910181610bb25790505b50905060005b6004830154811015610d2e576000836004018281548110610c0857610c08614919565b60009182526020822001546001600160a01b03169150610c2a8683600161142b565b90506040518060600160405280836001600160a01b0316815260200160011515815260200182815250848481518110610c6557610c65614919565b602002602001018190525080600003610c7f575050610d1c565b6001600160a01b038216600090815260068601602052604081208054839290610ca9908490614906565b909155505060048054604051632f5ed88d60e11b81526001600160a01b0390911691635ebdb11a91610ce7918691600191829160009189910161493f565b600060405180830381600087803b158015610d0157600080fd5b505af1158015610d15573d6000803e3d6000fd5b5050505050505b80610d2681614981565b915050610be5565b5060005b6001830154811015610e8c576000836001018281548110610d5557610d55614919565b60009182526020822001546001600160a01b031691508190610d7887838361142b565b604080516060810182526001600160a01b0385168152600060208201529081018290526004880154919250908690610db1908790614906565b81518110610dc157610dc1614919565b602002602001018190525080600003610ddc57505050610e7a565b6001600160a01b038316600090815260038701602052604081208054839290610e06908490614906565b909155505060048054604051632f5ed88d60e11b81526001600160a01b0390911691635ebdb11a91610e44918691600091600191839189910161493f565b600060405180830381600087803b158015610e5e57600080fd5b505af1158015610e72573d6000803e3d6000fd5b505050505050505b80610e8481614981565b915050610d32565b507fda8ffab61fa593ea6420900af565f92a0767a66267f33bca2da03984f7e804678382604051610ebe9291906149eb565b60405180910390a1610ecf8361323d565b505050565b610edc613195565b60005b8251811015610ecf576000838281518110610efc57610efc614919565b6020908102919091018101516001600160a01b03808616600090815260098452604080822092841682526007909201845281812054600a909452908120805492945091610f4a908490614a0f565b90915550506001600160a01b038084166000908152600960209081526040808320949093168252600790930190925281205580610f8681614981565b915050610edf565b600081516001600160401b03811115610fa957610fa9613ff9565b604051908082528060200260200182016040528015610fee57816020015b6040805180820190915260008082526020820152815260200190600190039081610fc75790505b509050600082516001600160401b0381111561100c5761100c613ff9565b60405190808252806020026020018201604052801561105157816020015b604080518082019091526000808252602082015281526020019060019003908161102a5790505b50905060005b835181101561126157600084828151811061107457611074614919565b602090810291909101810151516001600160a01b0381166000818152600a8452604080822054600b86529181902082905580518082019091529182529281018390528651919350908690859081106110ce576110ce614919565b602002602001018190525060008684815181106110ed576110ed614919565b60209081029190910181015101516004805460405162d05f3560e81b81526001600160a01b039091169163d05f35009161112e918891600191829101614a22565b602060405180830381865afa15801561114b573d6000803e3d6000fd5b505050506040513d601f19601f8201168201806040525081019061116f9190614a47565b6004805460405162d05f3560e81b81526001600160a01b039091169163d05f3500916111a391899160019160009101614a22565b602060405180830381865afa1580156111c0573d6000803e3d6000fd5b505050506040513d601f19601f820116820180604052508101906111e49190614a47565b6111ee9190614906565b6111f89190614a0f565b6001600160a01b0384166000818152600c6020908152604091829020849055815180830190925291815290810182905286519192509086908690811061124057611240614919565b6020026020010181905250505050808061125990614981565b915050611057565b507f0b113662e7f3724dcab94c25a8a8a1502a01b92efa7b717d154889c962f0e5728282604051611293929190614a60565b60405180910390a1505050565b6001600160a01b03821660009081526009602052604090206060906001815460ff1660048111156112d3576112d36145e1565b1461131e576040805160008082526020820190925290611315565b60408051808201909152600080825260208201528152602001906001900390816112ee5790505b50915050611412565b60018101546000906001600160401b0381111561133d5761133d613ff9565b60405190808252806020026020018201604052801561138257816020015b604080518082019091526000808252602082015281526020019060019003908161135b5790505b50925060005b835181101561140e578260010181815481106113a6576113a6614919565b60009182526020918290200154604080518082019091526001600160a01b0390911680825293509081016113db888589613497565b8152508482815181106113f0576113f0614919565b6020026020010181905250808061140690614981565b915050611388565b5050505b92915050565b60006114248383613592565b9392505050565b6001600160a01b038084166000908152600e6020908152604080832093861680845293825280832085151580855290835281842054948452600d83528184209084529091528120549091908290611483908390614a0f565b90508015806114bf575060016001600160a01b03871660009081526009602052604090205460ff1660048111156114bc576114bc6145e1565b14155b156114cf57600092505050611424565b60006114da876135c8565b9050670de0b6b3a76400006114ef8383614a85565b6114f99190614ab2565b979650505050505050565b600061150e613195565b601080546001808201835560008390527f1b6847dc741a1b0cd08d278845f9d819d87b734759afb55fe2de5cb82a9ae67290910180546001600160a01b0319166001600160a01b03861617905590546115679190614a0f565b6001600160a01b039290921660009081526009602052604090208054610100600160881b0319166101006001600160801b038516021790555090565b6001600160a01b03851660009081526009602052604081206001815460ff1660048111156115d3576115d36145e1565b146115e2576000915050611696565b6000806115ee896136bd565b915091506115fb886138f8565b6116059083614906565b91506000611612886138f8565b905080831015611625576000925061163b565b61162e886138f8565b6116389084614a0f565b92505b611644876138f8565b61164e9083614906565b9150600061165b876138f8565b90508083101561166e5760009250611684565b611677876138f8565b6116819084614a0f565b92505b61168e8484613592565b955050505050505b95945050505050565b606060108054806020026020016040519081016040528092919081815260200182805480156116f757602002820191906000526020600020905b81546001600160a01b031681526001909101906020018083116116d9575b5050505050905090565b6001600160a01b03811660009081526009602052604081205460ff166004811115611412576114126145e1565b611736613195565b600082516001600160401b0381111561175157611751613ff9565b60405190808252806020026020018201604052801561179657816020015b604080518082019091526000808252602082015281526020019060019003908161176f5790505b50905060005b83518110156119345760008482815181106117b9576117b9614919565b6020908102919091018101516001600160a01b03808716600090815260098452604080822092841682526006909201845281812054600c90945290812054919350919080830361180b5781925061184a565b6001600160a01b0384166000908152600b60205260409020548061183157611831614ac6565b8161183c8285614a85565b6118469190614ab2565b9350505b6001600160a01b03808816600090815260096020908152604080832093881683526007909301815282822054600a90915291812054859061188c908490614a0f565b6118969190614906565b6001600160a01b0387166000818152600a602090815260409182902084905581518083019092529181529081018290528951919250908990899081106118de576118de614919565b6020908102919091018101919091526001600160a01b03808b1660009081526009835260408082209990921681526007909801909152909520939093555083925061192c9150829050614981565b91505061179c565b507f3a8e5aaec2e69068b6cd3e9b5a0c3b92e3f98d87152c8dfc28d4fb8b5fe728c6816040516112939190614271565b6000806000611972846136bd565b925090506119808183613592565b925050915091565b600060016001600160a01b03831660009081526009602052604090205460ff1660048111156119b9576119b96145e1565b1492915050565b6001600160a01b03811660009081526009602052604090206060906001815460ff1660048111156119f3576119f36145e1565b14611a3d576040805160008082526020820190925290611a35565b6040805180820190915260008082526020820152815260200190600190039081611a0e5790505b509392505050565b60048101546001600160401b03811115611a5957611a59613ff9565b604051908082528060200260200182016040528015611a9e57816020015b6040805180820190915260008082526020820152815260200190600190039081611a775790505b50915060005b8251811015611b6d576040518060400160405280836004018381548110611acd57611acd614919565b9060005260206000200160009054906101000a90046001600160a01b03166001600160a01b03168152602001836006016000856004018581548110611b1457611b14614919565b60009182526020808320909101546001600160a01b0316835282019290925260400190205490528351849083908110611b4f57611b4f614919565b60200260200101819052508080611b6590614981565b915050611aa4565b5050919050565b611b7c613195565b6000611b87836139e8565b9050600082516001600160401b03811115611ba457611ba4613ff9565b604051908082528060200260200182016040528015611bef57816020015b6040805160608101825260008082526020808301829052928201528252600019909201910181611bc25790505b50905060005b8351811015611df3576000848281518110611c1257611c12614919565b602002602001015190508060400151600003611c2e5750611de1565b80516001600160a01b03166000908152600f6020908152604080832082850151151584529091528082205490830151611c7090670de0b6b3a764000090614a85565b611c7a9190614906565b90506000611c888683614ab2565b9050611c948682614a85565b611c9e9083614a0f565b83516001600160a01b039081166000908152600f602090815260408083208289018051151585529083528184209590955587519093168252600d815282822093511515825292909252812054611cf5908390614906565b84516001600160a01b039081166000908152600d60209081526040808320828a018051151585529083529281902085905580516060810182528951909416845291511515908301528101829052875191925090879087908110611d5a57611d5a614919565b602090810291909101810191909152600480548651928701516040808901519051632f5ed88d60e11b81526001600160a01b0390931694635ebdb11a94611daa949193926000926001920161493f565b600060405180830381600087803b158015611dc457600080fd5b505af1158015611dd8573d6000803e3d6000fd5b50505050505050505b80611deb81614981565b915050611bf5565b507f2ac60741d0d223c005a44c990e184f1cc93da96536581c94a3fb486bcd44ed2081604051611e239190614adc565b60405180910390a150505050565b611e39613195565b806004811115611e4b57611e4b6145e1565b6001600160a01b0383166000908152600960205260409020805460ff19166001836004811115611e7d57611e7d6145e1565b02179055505050565b6000611424611e94836130e7565b84613abc565b611ea2613adb565b611eab86613b08565b611eb485613b08565b611ebd84613b08565b611ec683613b08565b611ecf82613b08565b611ed881613b08565b600180546001600160a01b038881166001600160a01b0319928316811790935560028054898316908416811790915560038054898416908516811790915560048054898516908616811790915560058054898616908716811790915560068054958916959096168517909555604080519687526020870193909352918501526060840152608083019190915260a08201527f70e5fc7545fd5ed4b490af5340c109d70c05d49a6f65f4a61cc74d5f0b2ddd659060c00160405180910390a1611f9e611fa6565b505050505050565b611fae613adb565b611fb86000613b53565b565b611fc2613195565b6000611fcc612504565b9050600082611fe3670de0b6b3a764000086614a85565b611fed9190614ab2565b90506000612017611fff600284614ab2565b6120099085614906565b670de0b6b3a7640000613ba3565b90506000811161202957612029614ac6565b61203281613bb9565b5050505050565b6010818154811061204957600080fd5b6000918252602090912001546001600160a01b0316905081565b61206b613195565b6120748161323d565b50565b61207f613195565b6000816004811115612093576120936145e1565b141580156120b3575060018160048111156120b0576120b06145e1565b14155b6120bf576120bf614ac6565b601054600181116120e3576040516361cf517160e11b815260040160405180910390fd5b6001600160a01b038316600090815260096020526040902080548390829060ff19166001836004811115612119576121196145e1565b021790555060005b600182015481101561218157600082600301600084600101848154811061214a5761214a614919565b60009182526020808320909101546001600160a01b031683528201929092526040019020558061217981614981565b915050612121565b5060005b60048201548110156121e55760008260060160008460040184815481106121ae576121ae614919565b60009182526020808320909101546001600160a01b03168352820192909252604001902055806121dd81614981565b915050612185565b5060005b855181101561224b57600082600701600088848151811061220c5761220c614919565b60200260200101516001600160a01b03166001600160a01b0316815260200190815260200160002081905550808061224390614981565b9150506121e9565b5061225a600182016000613f4e565b612268600482016000613f4e565b6122728483613c48565b600654604051631484968760e11b81526001600160a01b038681166004830152909116906329092d0e90602401600060405180830381600087803b1580156122b957600080fd5b505af11580156122cd573d6000803e3d6000fd5b505050507fb4fbcc4163ee36a65844a40f5a765e6e21f48dc4eb3bcc9555391aa1fd4bd56f8484604051612302929190614aef565b60405180910390a15050505050565b612319613195565b806000036123245750565b600061232e612504565b9050670de0b6b3a764000081111561234857612348614ac6565b61235181613bb9565b5050565b6001600160a01b03821660009081526009602052604081206001815460ff166004811115612385576123856145e1565b14612394576000915050611412565b6123a08484600161142b565b6001600160a01b03841660009081526006830160205260409020546123c59190614906565b949350505050565b6123d5613195565b6001600160a01b0382166000908152600960205260408120905b82518110156124f357600083828151811061240c5761240c614919565b602002602001015160000151905083828151811061242c5761242c614919565b602002602001015160200151836003016000836001600160a01b03166001600160a01b03168152602001908152602001600020600082825461246e9190614906565b90915550506001600160a01b038116600090815260028401602052604090205460ff166124e0576001600160a01b038116600081815260028501602090815260408220805460ff1916600190811790915586810180549182018155835291200180546001600160a01b03191690911790555b50806124eb81614981565b9150506123ef565b50505050565b600061141282613e11565b60008061250f613e1e565b90506000612525670ddd4b8c6c7d70d883613e3f565b9050670de0b6b3a76400008160075461253e9190614a85565b6125489190614ab2565b9250505090565b612557613195565b6001600160a01b038216600090815260096020526040812082519091906001600160401b0381111561258b5761258b613ff9565b6040519080825280602002602001820160405280156125b4578160200160208202803683370190505b50905060005b835181101561267e5760008482815181106125d7576125d7614919565b60200260200101516000015190508482815181106125f7576125f7614919565b602002602001015160200151846006016000836001600160a01b03166001600160a01b0316815260200190815260200160002060008282546126399190614a0f565b925050819055508083838151811061265357612653614919565b6001600160a01b0390921660209283029190910190910152508061267681614981565b9150506125ba565b507fdbd562e51efd47eea69731879ae11fb05e3aede1c50496b27e5fa842f9473ecc8482604051611e23929190614b0c565b6001600160a01b03811660009081526009602052604081206001810154600482015460609392839283926126e49190614906565b6001600160401b038111156126fb576126fb613ff9565b60405190808252806020026020018201604052801561278657816020015b61277360405180610120016040528060006001600160a01b03168152602001600015158152602001600081526020016000815260200160008152602001600081526020016000815260200160008152602001600081525090565b8152602001906001900390816127195790505b50945060005b60048201548110156128ab5760008260040182815481106127af576127af614919565b9060005260206000200160009054906101000a90046001600160a01b03169050604051806101200160405280826001600160a01b0316815260200160011515815260200184600601600086600401868154811061280e5761280e614919565b9060005260206000200160009054906101000a90046001600160a01b03166001600160a01b03166001600160a01b031681526020019081526020016000205481526020016000815260200160008152602001600081526020016000815260200160008152602001600081525087838151811061288c5761288c614919565b60200260200101819052505080806128a390614981565b91505061278c565b506000805b6001830154811015612a60578260010181815481106128d1576128d1614919565b600091825260209182902001546040805163b55fe4e760e01b815290516001600160a01b039092169263b55fe4e7926004808401938290030181865afa15801561291f573d6000803e3d6000fd5b505050506040513d601f19601f820116820180604052508101906129439190614b30565b1561295a5760048301546129579082614906565b91505b600083600101828154811061297157612971614919565b9060005260206000200160009054906101000a90046001600160a01b03169050604051806101200160405280826001600160a01b031681526020016000151581526020018560030160008760010186815481106129d0576129d0614919565b60009182526020808320909101546001600160a01b0316835282810193909352604091820181205484529183018290528201819052606082018190526080820181905260a0820181905260c09091015260048501548990612a319085614906565b81518110612a4157612a41614919565b6020026020010181905250508080612a5890614981565b9150506128b0565b5060005b8651811015612c4d576000878281518110612a8157612a81614919565b60200260200101519050612a9e898260000151836020015161142b565b606082018190526040820151600091612ab691614906565b6005548351604051637d3b6e7960e11b81526001600160a01b0391821660048201526024810184905292935060009291169063fa76dcf290604401602060405180830381865afa158015612b0e573d6000803e3d6000fd5b505050506040513d601f19601f82011682018060405250810190612b329190614a47565b9050826020015115612b6e57612b4782613e11565b60808401819052612b589083614a0f565b60a0840152612b67818a614906565b9850612c37565b848403612c1657612b88680ad78ebc5ac620000083614a0f565b60a084018190526005548451604051637d3b6e7960e11b81526001600160a01b0391821660048201526024810193909352169063fa76dcf290604401602060405180830381865afa158015612be1573d6000803e3d6000fd5b505050506040513d601f19601f82011682018060405250810190612c059190614a47565b612c0f9088614906565b9650612c2a565b60a08301829052612c278188614906565b96505b612c348189614906565b97505b5050508080612c4590614981565b915050612a64565b5050509193509193565b6060612c62826119c0565b905060005b8151811015612cd857612c9983838381518110612c8657612c86614919565b602002602001015160000151600161142b565b828281518110612cab57612cab614919565b6020026020010151602001818151612cc39190614906565b90525080612cd081614981565b915050612c67565b50919050565b6000611424611e94836130c7565b6000611412826135c8565b612cff613195565b6001600160a01b038216600090815260096020526040812082519091906001600160401b03811115612d3357612d33613ff9565b604051908082528060200260200182016040528015612d5c578160200160208202803683370190505b50905060005b835181101561267e576000848281518110612d7f57612d7f614919565b6020026020010151600001519050848281518110612d9f57612d9f614919565b602002602001015160200151846006016000836001600160a01b03166001600160a01b031681526020019081526020016000206000828254612de19190614906565b90915550506001600160a01b038116600090815260058501602052604090205460ff16612e54576001600160a01b038116600081815260058601602090815260408220805460ff191660019081179091556004880180549182018155835291200180546001600160a01b03191690911790555b80838381518110612e6757612e67614919565b6001600160a01b03909216602092830291909101909101525080612e8a81614981565b915050612d62565b6001600160a01b03811660009081526009602052604090206060906001815460ff166004811115612ec557612ec56145e1565b14612ee0576040805160008082526020820190925290611a35565b60018101546000906001600160401b03811115612eff57612eff613ff9565b604051908082528060200260200182016040528015612f4457816020015b6040805180820190915260008082526020820152815260200190600190039081612f1d5790505b50905060005b8151811015611a35576040518060400160405280846001018381548110612f7357612f73614919565b9060005260206000200160009054906101000a90046001600160a01b03166001600160a01b03168152602001846003016000866001018581548110612fba57612fba614919565b60009182526020808320909101546001600160a01b0316835282019290925260400190205490528251839083908110612ff557612ff5614919565b6020026020010181905250808061300b90614981565b915050612f4a565b61301b613195565b6001600160a01b0382166000908152600960205260408120905b82518110156124f35782818151811061305057613050614919565b60200260200101516020015182600301600085848151811061307457613074614919565b6020026020010151600001516001600160a01b03166001600160a01b0316815260200190815260200160002060008282546130af9190614a0f565b909155508190506130bf81614981565b915050613035565b6000816130dc57506611c37937e08000919050565b611412600754613ef4565b6000816130fc57506611c37937e08000919050565b611412613107612504565b613ef4565b613114613adb565b6001600160a01b03811661314357604051631e4fbdf760e01b8152600060048201526024015b60405180910390fd5b61207481613b53565b600060016001600160a01b03851660009081526009602052604090205460ff16600481111561317d5761317d6145e1565b1461318a57506000611424565b6123c5848484613497565b6001546001600160a01b031633148015906131bb57506002546001600160a01b03163314155b80156131d257506003546001600160a01b03163314155b15611fb85760405163c5676b0760e01b815260040160405180910390fd5b60016001600160a01b03821660009081526009602052604090205460ff16600481111561321f5761321f6145e1565b1461207457604051630bc5fd6f60e21b815260040160405180910390fd5b6001600160a01b03811660009081526009602052604081206001810154600482015491929161326c9190614906565b6001600160401b0381111561328357613283613ff9565b6040519080825280602002602001820160405280156132ce57816020015b60408051606081018252600080825260208083018290529282015282526000199092019101816132a15790505b50905060005b60018301548110156133945760008360010182815481106132f7576132f7614919565b60009182526020808320909101546001600160a01b03908116808452600d83526040808520858052845280852054928a168552600e84528085208286528452808520858052845280852083905580516060810182528281529384019490945292820181905285519293509185908590811061337457613374614919565b60200260200101819052505050808061338c90614981565b9150506132d4565b5060005b60048301548110156134675760008360040182815481106133bb576133bb614919565b60009182526020808320909101546001600160a01b03908116808452600d83526040808520600180875290855281862054938b168652600e855281862083875285528186208187528552948190208390558051606081018252828152938401859052830182905292870154929350918590613437908690614906565b8151811061344757613447614919565b60200260200101819052505050808061345f90614981565b915050613398565b507ffe05225747354ceccb716fc77f1b48ba5895a6456ea030e81768badd85ad4999816040516112939190614adc565b6001600160a01b03831660009081526009602052604081206001815460ff1660048111156134c7576134c76145e1565b146134d6576000915050611424565b821580156135415750836001600160a01b031663b55fe4e76040518163ffffffff1660e01b8152600401602060405180830381865afa15801561351d573d6000803e3d6000fd5b505050506040513d601f19601f820116820180604052508101906135419190614b30565b61354c576000613557565b680ad78ebc5ac62000005b6135638686600061142b565b6001600160a01b03861660009081526003840160205260409020546135889190614906565b6116969190614a0f565b600081156135be57816135ad670de0b6b3a764000085614a85565b6135b79190614ab2565b9050611412565b5060001992915050565b6001600160a01b0381166000908152600960205260408120815b6004820154811015611b6d57600082600401828154811061360557613605614919565b6000918252602080832091909101546005546001600160a01b0391821680855260078801909352604093849020549351637d3b6e7960e11b8152600481018490526024810194909452919350169063fa76dcf290604401602060405180830381865afa158015613679573d6000803e3d6000fd5b505050506040513d601f19601f8201168201806040525081019061369d9190614a47565b6136a79085614906565b93505080806136b590614981565b9150506135e2565b6001600160a01b03811660009081526009602052604081208190815b60048201548110156137e35760008260040182815481106136fc576136fc614919565b60009182526020822001546001600160a01b0316915061371e8783600161142b565b6005546001600160a01b038481166000908152600688016020526040902054929350169063fa76dcf2908490613755908590614906565b6040516001600160e01b031960e085901b1681526001600160a01b0390921660048301526024820152604401602060405180830381865afa15801561379e573d6000803e3d6000fd5b505050506040513d601f19601f820116820180604052508101906137c29190614a47565b6137cc9087614906565b9550505080806137db90614981565b9150506136d9565b5060005b60018201548110156138f157600082600101828154811061380a5761380a614919565b60009182526020822001546001600160a01b0316915061382c8783600161142b565b6005546001600160a01b038481166000908152600388016020526040902054929350169063fa76dcf2908490613863908590614906565b6040516001600160e01b031960e085901b1681526001600160a01b0390921660048301526024820152604401602060405180830381865afa1580156138ac573d6000803e3d6000fd5b505050506040513d601f19601f820116820180604052508101906138d09190614a47565b6138da9086614906565b9450505080806138e990614981565b9150506137e7565b5050915091565b6000805b8251811015612cd85760055483516001600160a01b039091169063fa76dcf29085908490811061392e5761392e614919565b60200260200101516000015185848151811061394c5761394c614919565b6020026020010151602001516040518363ffffffff1660e01b81526004016139899291906001600160a01b03929092168252602082015260400190565b602060405180830381865afa1580156139a6573d6000803e3d6000fd5b505050506040513d601f19601f820116820180604052508101906139ca9190614a47565b6139d49083614906565b9150806139e081614981565b9150506138fc565b6000805b8251811015612cd8576000838281518110613a0957613a09614919565b6020908102919091018101516005546001600160a01b038083166000818152600a8652604090819020548151637d3b6e7960e11b8152600481019390935260248301525193955091169263fa76dcf2926044808401938290030181865afa158015613a78573d6000803e3d6000fd5b505050506040513d601f19601f82011682018060405250810190613a9c9190614a47565b613aa69084614906565b9250508080613ab490614981565b9150506139ec565b6000670de0b6b3a7640000613ad18385614a85565b6114249190614ab2565b6000546001600160a01b03163314611fb85760405163118cdaa760e01b815233600482015260240161313a565b6001600160a01b038116613b2f5760405163d92e233d60e01b815260040160405180910390fd5b803b600081900361235157604051636f7c43f160e01b815260040160405180910390fd5b600080546001600160a01b038381166001600160a01b0319831681178455604051919092169283917f8be0079c531659141344cd1fd0a4f28419497f9722a3daafe3b4186f6b6457e09190a35050565b6000818310613bb25781611424565b5090919050565b60078190556040518181527fe69c4a32fbb3c90560e69557d4753f018f5d533d73c61df2219dfc49c81c36c79060200160405180910390a1600060085442613c019190614a0f565b9050603c8110612351574260088190556040519081527f860f8d2f0c74dd487e89e2883e3b25b8159ce1e1b3433a291cba7b82c508f3bc9060200160405180910390a15050565b6001600160a01b03821660009081526009602052604081205460ff1690816004811115613c7757613c776145e1565b14158015613c9757506001816004811115613c9457613c946145e1565b14155b613ca357613ca3614ac6565b6001600160a01b03831660009081526009602052604090205461010090046001600160801b0316613cd5600184614a0f565b816001600160801b03161115613ced57613ced614ac6565b60006010613cfc600186614a0f565b81548110613d0c57613d0c614919565b600091825260209091200154601080546001600160a01b03909216925082916001600160801b038516908110613d4457613d44614919565b600091825260208083209190910180546001600160a01b0319166001600160a01b03948516179055918316808252600983526040918290208054610100600160881b0319166101006001600160801b038816908102919091179091558251918252928101929092527f02b04ae5f7be9ca7c103293a2aa15f3c339d15d6eda53b721fef7b0e609c831a910160405180910390a16010805480613de857613de8614b4d565b600082815260209020810160001990810180546001600160a01b03191690550190555050505050565b600061141260c883614ab2565b6000603c60085442613e309190614a0f565b613e3a9190614ab2565b905090565b6000631f540500821115613e5557631f54050091505b81600003613e6c5750670de0b6b3a7640000611412565b670de0b6b3a764000083835b6001811115613ee057613e8c600282614b63565b600003613eb157613e9d8283613f17565b9150613eaa600282614ab2565b9050613e78565b613ebb8284613f17565b9250613ec78283613f17565b91506002613ed6600183614a0f565b613eaa9190614ab2565b613eea8284613f17565b9695505050505050565b6000611412613f0a836611c37937e08000614906565b66b1a2bc2ec50000613ba3565b600080613f248385614a85565b9050670de0b6b3a7640000613f3a600282614ab2565b613f449083614906565b6123c59190614ab2565b508054600082559060005260206000209081019061207491905b80821115613f7c5760008155600101613f68565b5090565b6001600160a01b038116811461207457600080fd5b801515811461207457600080fd5b60008060408385031215613fb657600080fd5b8235613fc181613f80565b91506020830135613fd181613f95565b809150509250929050565b600060208284031215613fee57600080fd5b813561142481613f80565b634e487b7160e01b600052604160045260246000fd5b604080519081016001600160401b038111828210171561403157614031613ff9565b60405290565b604051606081016001600160401b038111828210171561403157614031613ff9565b604051601f8201601f191681016001600160401b038111828210171561408157614081613ff9565b604052919050565b60006001600160401b038211156140a2576140a2613ff9565b5060051b60200190565b600082601f8301126140bd57600080fd5b813560206140d26140cd83614089565b614059565b82815260059290921b840181019181810190868411156140f157600080fd5b8286015b8481101561411557803561410881613f80565b83529183019183016140f5565b509695505050505050565b6000806040838503121561413357600080fd5b82356001600160401b0381111561414957600080fd5b614155858286016140ac565b9250506020830135613fd181613f80565b600082601f83011261417757600080fd5b813560206141876140cd83614089565b82815260069290921b840181019181810190868411156141a657600080fd5b8286015b8481101561411557604081890312156141c35760008081fd5b6141cb61400f565b81356141d681613f80565b815281850135858201528352918301916040016141aa565b60006020828403121561420057600080fd5b81356001600160401b0381111561421657600080fd5b6123c584828501614166565b600081518084526020808501945080840160005b8381101561426657815180516001600160a01b031688528301518388015260409096019590820190600101614236565b509495945050505050565b6020815260006114246020830184614222565b6000806040838503121561429757600080fd5b50508035926020909101359150565b6000806000606084860312156142bb57600080fd5b83356142c681613f80565b925060208401356142d681613f80565b915060408401356142e681613f95565b809150509250925092565b600080600080600060a0868803121561430957600080fd5b853561431481613f80565b945060208601356001600160401b038082111561433057600080fd5b61433c89838a01614166565b9550604088013591508082111561435257600080fd5b61435e89838a01614166565b9450606088013591508082111561437457600080fd5b61438089838a01614166565b9350608088013591508082111561439657600080fd5b506143a388828901614166565b9150509295509295909350565b600081518084526020808501945080840160005b838110156142665781516001600160a01b0316875295820195908201906001016143c4565b60208152600061142460208301846143b0565b60006020828403121561440e57600080fd5b5035919050565b600080604080848603121561442957600080fd5b83356001600160401b038082111561444057600080fd5b61444c878388016140ac565b945060209150818601358181111561446357600080fd5b86019050601f8101871361447657600080fd5b80356144846140cd82614089565b8181526060918202830184019184820191908a8411156144a357600080fd5b938501935b838510156144fd5780858c0312156144c05760008081fd5b6144c8614037565b85356144d381613f80565b8152858701356144e281613f95565b818801528588013588820152835293840193918501916144a8565b508096505050505050509250929050565b6000806040838503121561452157600080fd5b823561452c81613f80565b946020939093013593505050565b6000806040838503121561454d57600080fd5b823591506020830135613fd181613f95565b60008060008060008060c0878903121561457857600080fd5b863561458381613f80565b9550602087013561459381613f80565b945060408701356145a381613f80565b935060608701356145b381613f80565b925060808701356145c381613f80565b915060a08701356145d381613f80565b809150509295509295509295565b634e487b7160e01b600052602160045260246000fd5b60058110614607576146076145e1565b9052565b6040810161461982856145f7565b6001600160801b03831660208301529392505050565b6000806040838503121561464257600080fd5b823561464d81613f80565b91506020830135613fd181613f80565b60008060006060848603121561467257600080fd5b83356001600160401b0381111561468857600080fd5b614694868287016140ac565b93505060208401356146a581613f80565b91506040840135600581106142e657600080fd5b60008060408084860312156146cd57600080fd5b83356146d881613f80565b92506020848101356001600160401b038111156146f457600080fd5b8501601f8101871361470557600080fd5b80356147136140cd82614089565b8181526060918202830184019184820191908a84111561473257600080fd5b938501935b838510156144fd5780858c03121561474f5760008081fd5b614757614037565b853561476281613f80565b81528587013587820152878601358882015283529384019391850191614737565b600060208083528351808285015260005b818110156147b057858101830151858201604001528201614794565b506000604082860101526040601f19601f8301168501019250505092915050565b600080604083850312156147e457600080fd5b82356147ef81613f80565b915060208301356001600160401b0381111561480a57600080fd5b61481685828601614166565b9150509250929050565b608080825285518282018190526000919060a090818501906020808b01865b838110156148b657815180516001600160a01b031686528381015115158487015260408082015190870152606080820151908701528781015188870152868101518787015260c0808201519087015260e080820151908701526101009081015190860152610120909401939082019060010161483f565b505086019890985260408501969096525050506060015292915050565b6000602082840312156148e557600080fd5b813561142481613f95565b634e487b7160e01b600052601160045260246000fd5b80820180821115611412576114126148f0565b634e487b7160e01b600052603260045260246000fd5b60038110614607576146076145e1565b6001600160a01b0386168152841515602082015260a08101614964604083018661492f565b614971606083018561492f565b8260808301529695505050505050565b600060018201614993576149936148f0565b5060010190565b600081518084526020808501945080840160005b8381101561426657815180516001600160a01b031688528381015115158489015260409081015190880152606090960195908201906001016149ae565b6001600160a01b03831681526040602082018190526000906123c59083018461499a565b81810381811115611412576114126148f0565b6001600160a01b03841681528215156020820152606081016123c5604083018461492f565b600060208284031215614a5957600080fd5b5051919050565b604081526000614a736040830185614222565b82810360208401526116968185614222565b8082028115828204841417611412576114126148f0565b634e487b7160e01b600052601260045260246000fd5b600082614ac157614ac1614a9c565b500490565b634e487b7160e01b600052600160045260246000fd5b602081526000611424602083018461499a565b6001600160a01b03831681526040810161142460208301846145f7565b6001600160a01b03831681526040602082018190526000906123c5908301846143b0565b600060208284031215614b4257600080fd5b815161142481613f95565b634e487b7160e01b600052603160045260246000fd5b600082614b7257614b72614a9c565b50069056fea2646970667358221220e53fc89f2af53150de4c330d11d9a13eb07c27dff939ce1801773b8e4475474364736f6c63430008140033",
  "devdoc": {
    "errors": {
      "OwnableInvalidOwner(address)": [
        {
          "details": "The owner is not a valid owner account. (eg. `address(0)`)"
        }
      ],
      "OwnableUnauthorizedAccount(address)": [
        {
          "details": "The caller account is not authorized to perform an operation."
        }
      ]
    },
    "kind": "dev",
    "methods": {
      "getTroveStakeValue(address)": {
        "params": {
          "_borrower": "Address of borrower"
        },
        "returns": {
          "_0": "stakedUSDValue USD value of total staked collaterals of borrower"
        }
      },
      "getTroveStakes(address,address)": {
        "params": {
          "_borrower": "Address of borrower",
          "_token": "Address of collateral token"
        },
        "returns": {
          "_0": "stakes Staked amount of given collateral token of user"
        }
      },
      "owner()": {
        "details": "Returns the address of the current owner."
      },
      "renounceOwnership()": {
        "details": "Leaves the contract without owner. It will not be possible to call `onlyOwner` functions. Can only be called by the current owner. NOTE: Renouncing ownership will leave the contract without an owner, thereby disabling any functionality that is only available to the owner."
      },
      "transferOwnership(address)": {
        "details": "Transfers ownership of the contract to a new account (`newOwner`). Can only be called by the current owner."
      }
    },
    "version": 1
  },
  "userdoc": {
    "kind": "user",
    "methods": {
      "addTroveOwnerToArray(address)": {
        "notice": "trove opening + closing*"
      },
      "getCurrentICR(address)": {
        "notice": "collateral ratios*"
      },
      "getEntireDebtAndColl(address)": {
        "notice": "trove debt + coll getters*"
      },
      "getStableCoinBaseRate()": {
        "notice": "Helper*"
      },
      "getTroveOwnersCount()": {
        "notice": "troves status*"
      },
      "getTroveStakeValue(address)": {
        "notice": "Return borrowers staked value in USD"
      },
      "getTroveStakes(address,address)": {
        "notice": "Get Borrower's staked token amount, not in USD value"
      },
      "increaseTroveColl(address,(address,uint256)[])": {
        "notice": "collateral and debt setters*"
      },
      "redistributeDebtAndColl(address[],(address,bool,uint256)[])": {
        "notice": "redistribution*"
      },
      "updateStakeAndTotalStakes(address[],address)": {
        "notice": "collateral stakes*"
      }
    },
    "version": 1
  },
  "storageLayout": {
    "storage": [
      {
        "astId": 8,
        "contract": "contracts/Mock/MockTroveManager.sol:MockTroveManager",
        "label": "_owner",
        "offset": 0,
        "slot": "0",
        "type": "t_address"
      },
      {
        "astId": 23410,
        "contract": "contracts/Mock/MockTroveManager.sol:MockTroveManager",
        "label": "borrowerOperationsAddress",
        "offset": 0,
        "slot": "1",
        "type": "t_address"
      },
      {
        "astId": 23412,
        "contract": "contracts/Mock/MockTroveManager.sol:MockTroveManager",
        "label": "redemptionOperationsAddress",
        "offset": 0,
        "slot": "2",
        "type": "t_address"
      },
      {
        "astId": 23414,
        "contract": "contracts/Mock/MockTroveManager.sol:MockTroveManager",
        "label": "liquidationOperationsAddress",
        "offset": 0,
        "slot": "3",
        "type": "t_address"
      },
      {
        "astId": 23417,
        "contract": "contracts/Mock/MockTroveManager.sol:MockTroveManager",
        "label": "storagePool",
        "offset": 0,
        "slot": "4",
        "type": "t_contract(IStoragePool)11041"
      },
      {
        "astId": 23420,
        "contract": "contracts/Mock/MockTroveManager.sol:MockTroveManager",
        "label": "priceFeed",
        "offset": 0,
        "slot": "5",
        "type": "t_contract(IPriceFeed)10268"
      },
      {
        "astId": 23423,
        "contract": "contracts/Mock/MockTroveManager.sol:MockTroveManager",
        "label": "sortedTroves",
        "offset": 0,
        "slot": "6",
        "type": "t_contract(ISortedTroves)10608"
      },
      {
        "astId": 23434,
        "contract": "contracts/Mock/MockTroveManager.sol:MockTroveManager",
        "label": "stableCoinBaseRate",
        "offset": 0,
        "slot": "7",
        "type": "t_uint256"
      },
      {
        "astId": 23436,
        "contract": "contracts/Mock/MockTroveManager.sol:MockTroveManager",
        "label": "lastFeeOperationTime",
        "offset": 0,
        "slot": "8",
        "type": "t_uint256"
      },
      {
        "astId": 23475,
        "contract": "contracts/Mock/MockTroveManager.sol:MockTroveManager",
        "label": "Troves",
        "offset": 0,
        "slot": "9",
        "type": "t_mapping(t_address,t_struct(Trove)23470_storage)"
      },
      {
        "astId": 23479,
        "contract": "contracts/Mock/MockTroveManager.sol:MockTroveManager",
        "label": "totalStakes",
        "offset": 0,
        "slot": "10",
        "type": "t_mapping(t_address,t_uint256)"
      },
      {
        "astId": 23483,
        "contract": "contracts/Mock/MockTroveManager.sol:MockTroveManager",
        "label": "totalStakesSnapshot",
        "offset": 0,
        "slot": "11",
        "type": "t_mapping(t_address,t_uint256)"
      },
      {
        "astId": 23487,
        "contract": "contracts/Mock/MockTroveManager.sol:MockTroveManager",
        "label": "totalCollateralSnapshots",
        "offset": 0,
        "slot": "12",
        "type": "t_mapping(t_address,t_uint256)"
      },
      {
        "astId": 23493,
        "contract": "contracts/Mock/MockTroveManager.sol:MockTroveManager",
        "label": "liquidatedTokens",
        "offset": 0,
        "slot": "13",
        "type": "t_mapping(t_address,t_mapping(t_bool,t_uint256))"
      },
      {
        "astId": 23501,
        "contract": "contracts/Mock/MockTroveManager.sol:MockTroveManager",
        "label": "rewardSnapshots",
        "offset": 0,
        "slot": "14",
        "type": "t_mapping(t_address,t_mapping(t_address,t_mapping(t_bool,t_uint256)))"
      },
      {
        "astId": 23507,
        "contract": "contracts/Mock/MockTroveManager.sol:MockTroveManager",
        "label": "lastErrorRedistribution",
        "offset": 0,
        "slot": "15",
        "type": "t_mapping(t_address,t_mapping(t_bool,t_uint256))"
      },
      {
        "astId": 23510,
        "contract": "contracts/Mock/MockTroveManager.sol:MockTroveManager",
        "label": "TroveOwners",
        "offset": 0,
        "slot": "16",
        "type": "t_array(t_address)dyn_storage"
      }
    ],
    "types": {
      "t_address": {
        "encoding": "inplace",
        "label": "address",
        "numberOfBytes": "20"
      },
      "t_array(t_address)dyn_storage": {
        "base": "t_address",
        "encoding": "dynamic_array",
        "label": "address[]",
        "numberOfBytes": "32"
      },
      "t_array(t_contract(IDebtToken)10082)dyn_storage": {
        "base": "t_contract(IDebtToken)10082",
        "encoding": "dynamic_array",
        "label": "contract IDebtToken[]",
        "numberOfBytes": "32"
      },
      "t_bool": {
        "encoding": "inplace",
        "label": "bool",
        "numberOfBytes": "1"
      },
      "t_contract(IDebtToken)10082": {
        "encoding": "inplace",
        "label": "contract IDebtToken",
        "numberOfBytes": "20"
      },
      "t_contract(IPriceFeed)10268": {
        "encoding": "inplace",
        "label": "contract IPriceFeed",
        "numberOfBytes": "20"
      },
      "t_contract(ISortedTroves)10608": {
        "encoding": "inplace",
        "label": "contract ISortedTroves",
        "numberOfBytes": "20"
      },
      "t_contract(IStoragePool)11041": {
        "encoding": "inplace",
        "label": "contract IStoragePool",
        "numberOfBytes": "20"
      },
      "t_enum(Status)9539": {
        "encoding": "inplace",
        "label": "enum IBBase.Status",
        "numberOfBytes": "1"
      },
      "t_mapping(t_address,t_bool)": {
        "encoding": "mapping",
        "key": "t_address",
        "label": "mapping(address => bool)",
        "numberOfBytes": "32",
        "value": "t_bool"
      },
      "t_mapping(t_address,t_mapping(t_address,t_mapping(t_bool,t_uint256)))": {
        "encoding": "mapping",
        "key": "t_address",
        "label": "mapping(address => mapping(address => mapping(bool => uint256)))",
        "numberOfBytes": "32",
        "value": "t_mapping(t_address,t_mapping(t_bool,t_uint256))"
      },
      "t_mapping(t_address,t_mapping(t_bool,t_uint256))": {
        "encoding": "mapping",
        "key": "t_address",
        "label": "mapping(address => mapping(bool => uint256))",
        "numberOfBytes": "32",
        "value": "t_mapping(t_bool,t_uint256)"
      },
      "t_mapping(t_address,t_struct(Trove)23470_storage)": {
        "encoding": "mapping",
        "key": "t_address",
        "label": "mapping(address => struct TroveManager.Trove)",
        "numberOfBytes": "32",
        "value": "t_struct(Trove)23470_storage"
      },
      "t_mapping(t_address,t_uint256)": {
        "encoding": "mapping",
        "key": "t_address",
        "label": "mapping(address => uint256)",
        "numberOfBytes": "32",
        "value": "t_uint256"
      },
      "t_mapping(t_bool,t_uint256)": {
        "encoding": "mapping",
        "key": "t_bool",
        "label": "mapping(bool => uint256)",
        "numberOfBytes": "32",
        "value": "t_uint256"
      },
      "t_mapping(t_contract(IDebtToken)10082,t_uint256)": {
        "encoding": "mapping",
        "key": "t_contract(IDebtToken)10082",
        "label": "mapping(contract IDebtToken => uint256)",
        "numberOfBytes": "32",
        "value": "t_uint256"
      },
      "t_struct(Trove)23470_storage": {
        "encoding": "inplace",
        "label": "struct TroveManager.Trove",
        "members": [
          {
            "astId": 23439,
            "contract": "contracts/Mock/MockTroveManager.sol:MockTroveManager",
            "label": "status",
            "offset": 0,
            "slot": "0",
            "type": "t_enum(Status)9539"
          },
          {
            "astId": 23441,
            "contract": "contracts/Mock/MockTroveManager.sol:MockTroveManager",
            "label": "arrayIndex",
            "offset": 1,
            "slot": "0",
            "type": "t_uint128"
          },
          {
            "astId": 23445,
            "contract": "contracts/Mock/MockTroveManager.sol:MockTroveManager",
            "label": "debtTokens",
            "offset": 0,
            "slot": "1",
            "type": "t_array(t_contract(IDebtToken)10082)dyn_storage"
          },
          {
            "astId": 23449,
            "contract": "contracts/Mock/MockTroveManager.sol:MockTroveManager",
            "label": "debtsRegistered",
            "offset": 0,
            "slot": "2",
            "type": "t_mapping(t_address,t_bool)"
          },
          {
            "astId": 23454,
            "contract": "contracts/Mock/MockTroveManager.sol:MockTroveManager",
            "label": "debts",
            "offset": 0,
            "slot": "3",
            "type": "t_mapping(t_contract(IDebtToken)10082,t_uint256)"
          },
          {
            "astId": 23457,
            "contract": "contracts/Mock/MockTroveManager.sol:MockTroveManager",
            "label": "collTokens",
            "offset": 0,
            "slot": "4",
            "type": "t_array(t_address)dyn_storage"
          },
          {
            "astId": 23461,
            "contract": "contracts/Mock/MockTroveManager.sol:MockTroveManager",
            "label": "collsRegistered",
            "offset": 0,
            "slot": "5",
            "type": "t_mapping(t_address,t_bool)"
          },
          {
            "astId": 23465,
            "contract": "contracts/Mock/MockTroveManager.sol:MockTroveManager",
            "label": "colls",
            "offset": 0,
            "slot": "6",
            "type": "t_mapping(t_address,t_uint256)"
          },
          {
            "astId": 23469,
            "contract": "contracts/Mock/MockTroveManager.sol:MockTroveManager",
            "label": "stakes",
            "offset": 0,
            "slot": "7",
            "type": "t_mapping(t_address,t_uint256)"
          }
        ],
        "numberOfBytes": "256"
      },
      "t_uint128": {
        "encoding": "inplace",
        "label": "uint128",
        "numberOfBytes": "16"
      },
      "t_uint256": {
        "encoding": "inplace",
        "label": "uint256",
        "numberOfBytes": "32"
      }
    }
  }
}