{
  "address": "0xe7f1725E7734CE288F8367e1Bb143E90bb3F0512",
  "abi": [
    {
      "inputs": [],
      "name": "ExceedDebtBalance",
      "type": "error"
    },
    {
      "inputs": [],
      "name": "FeeExceedMaxPercentage",
      "type": "error"
    },
    {
      "inputs": [],
      "name": "GreaterThanTCR",
      "type": "error"
    },
    {
      "inputs": [],
      "name": "InvalidMaxFeePercent",
      "type": "error"
    },
    {
      "inputs": [],
      "name": "LessThanMCR",
      "type": "error"
    },
    {
      "inputs": [],
      "name": "NoRedeems",
      "type": "error"
    },
    {
      "inputs": [],
      "name": "NotContract",
      "type": "error"
    },
    {
      "inputs": [
        {
          "internalType": "address",
          "name": "owner",
          "type": "address"
        }
      ],
      "name": "OwnableInvalidOwner",
      "type": "error"
    },
    {
      "inputs": [
        {
          "internalType": "address",
          "name": "account",
          "type": "address"
        }
      ],
      "name": "OwnableUnauthorizedAccount",
      "type": "error"
    },
    {
      "inputs": [],
      "name": "TooHighRedeemFee",
      "type": "error"
    },
    {
      "inputs": [],
      "name": "ZeroAddress",
      "type": "error"
    },
    {
      "inputs": [],
      "name": "ZeroAmount",
      "type": "error"
    },
    {
      "anonymous": false,
      "inputs": [
        {
          "indexed": true,
          "internalType": "address",
          "name": "previousOwner",
          "type": "address"
        },
        {
          "indexed": true,
          "internalType": "address",
          "name": "newOwner",
          "type": "address"
        }
      ],
      "name": "OwnershipTransferred",
      "type": "event"
    },
    {
      "anonymous": false,
      "inputs": [
        {
          "indexed": false,
          "internalType": "address",
          "name": "_borrower",
          "type": "address"
        },
        {
          "indexed": false,
          "internalType": "uint256",
          "name": "stableAmount",
          "type": "uint256"
        },
        {
          "components": [
            {
              "internalType": "address",
              "name": "tokenAddress",
              "type": "address"
            },
            {
              "internalType": "uint256",
              "name": "amount",
              "type": "uint256"
            }
          ],
          "indexed": false,
          "internalType": "struct IBase.TokenAmount[]",
          "name": "_drawnCollAmounts",
          "type": "tuple[]"
        }
      ],
      "name": "RedeemedFromTrove",
      "type": "event"
    },
    {
      "anonymous": false,
      "inputs": [
        {
          "indexed": false,
          "internalType": "address",
          "name": "_troveManager",
          "type": "address"
        },
        {
          "indexed": false,
          "internalType": "address",
          "name": "_storgePool",
          "type": "address"
        },
        {
          "indexed": false,
          "internalType": "address",
          "name": "_priceFeed",
          "type": "address"
        },
        {
          "indexed": false,
          "internalType": "address",
          "name": "_debtTokenManager",
          "type": "address"
        },
        {
          "indexed": false,
          "internalType": "address",
          "name": "_collTokenManager",
          "type": "address"
        }
      ],
      "name": "RedemptionOperationsInitialized",
      "type": "event"
    },
    {
      "anonymous": false,
      "inputs": [
        {
          "indexed": false,
          "internalType": "uint256",
          "name": "_attemptedStableAmount",
          "type": "uint256"
        },
        {
          "indexed": false,
          "internalType": "uint256",
          "name": "_actualStableAmount",
          "type": "uint256"
        },
        {
          "components": [
            {
              "internalType": "address",
              "name": "collToken",
              "type": "address"
            },
            {
              "internalType": "uint256",
              "name": "drawn",
              "type": "uint256"
            },
            {
              "internalType": "uint256",
              "name": "redemptionFee",
              "type": "uint256"
            },
            {
              "internalType": "uint256",
              "name": "sendToRedeemer",
              "type": "uint256"
            }
          ],
          "indexed": false,
          "internalType": "struct IRedemptionOperations.RedemptionCollAmount[]",
          "name": "_collPayouts",
          "type": "tuple[]"
        }
      ],
      "name": "SuccessfulRedemption",
      "type": "event"
    },
    {
      "inputs": [],
      "name": "BORROWING_FEE_FLOOR",
      "outputs": [
        {
          "internalType": "uint256",
          "name": "",
          "type": "uint256"
        }
      ],
      "stateMutability": "view",
      "type": "function"
    },
    {
      "inputs": [],
      "name": "CCR",
      "outputs": [
        {
          "internalType": "uint256",
          "name": "",
          "type": "uint256"
        }
      ],
      "stateMutability": "view",
      "type": "function"
    },
    {
      "inputs": [],
      "name": "MAX_BORROWING_FEE",
      "outputs": [
        {
          "internalType": "uint256",
          "name": "",
          "type": "uint256"
        }
      ],
      "stateMutability": "view",
      "type": "function"
    },
    {
      "inputs": [],
      "name": "MCR",
      "outputs": [
        {
          "internalType": "uint256",
          "name": "",
          "type": "uint256"
        }
      ],
      "stateMutability": "view",
      "type": "function"
    },
    {
      "inputs": [],
      "name": "NAME",
      "outputs": [
        {
          "internalType": "string",
          "name": "",
          "type": "string"
        }
      ],
      "stateMutability": "view",
      "type": "function"
    },
    {
      "inputs": [],
      "name": "PERCENT_DIVISOR",
      "outputs": [
        {
          "internalType": "uint256",
          "name": "",
          "type": "uint256"
        }
      ],
      "stateMutability": "view",
      "type": "function"
    },
    {
      "inputs": [],
      "name": "REDEMPTION_FEE_FLOOR",
      "outputs": [
        {
          "internalType": "uint256",
          "name": "",
          "type": "uint256"
        }
      ],
      "stateMutability": "view",
      "type": "function"
    },
    {
      "inputs": [],
      "name": "STABLE_COIN_GAS_COMPENSATION",
      "outputs": [
        {
          "internalType": "uint256",
          "name": "",
          "type": "uint256"
        }
      ],
      "stateMutability": "view",
      "type": "function"
    },
    {
      "inputs": [],
      "name": "SWAP_BASE_FEE",
      "outputs": [
        {
          "internalType": "uint32",
          "name": "",
          "type": "uint32"
        }
      ],
      "stateMutability": "view",
      "type": "function"
    },
    {
      "inputs": [],
      "name": "SWAP_FEE_PRECISION",
      "outputs": [
        {
          "internalType": "uint32",
          "name": "",
          "type": "uint32"
        }
      ],
      "stateMutability": "view",
      "type": "function"
    },
    {
      "inputs": [],
      "name": "_100pct",
      "outputs": [
        {
          "internalType": "uint256",
          "name": "",
          "type": "uint256"
        }
      ],
      "stateMutability": "view",
      "type": "function"
    },
    {
      "inputs": [],
      "name": "collTokenManager",
      "outputs": [
        {
          "internalType": "contract ICollTokenManager",
          "name": "",
          "type": "address"
        }
      ],
      "stateMutability": "view",
      "type": "function"
    },
    {
      "inputs": [],
      "name": "debtTokenManager",
      "outputs": [
        {
          "internalType": "contract IDebtTokenManager",
          "name": "",
          "type": "address"
        }
      ],
      "stateMutability": "view",
      "type": "function"
    },
    {
      "inputs": [
        {
          "internalType": "uint256",
          "name": "_collDrawn",
          "type": "uint256"
        }
      ],
      "name": "getRedemptionFeeWithDecay",
      "outputs": [
        {
          "internalType": "uint256",
          "name": "",
          "type": "uint256"
        }
      ],
      "stateMutability": "view",
      "type": "function"
    },
    {
      "inputs": [],
      "name": "getRedemptionRate",
      "outputs": [
        {
          "internalType": "uint256",
          "name": "",
          "type": "uint256"
        }
      ],
      "stateMutability": "view",
      "type": "function"
    },
    {
      "inputs": [],
      "name": "getRedemptionRateWithDecay",
      "outputs": [
        {
          "internalType": "uint256",
          "name": "",
          "type": "uint256"
        }
      ],
      "stateMutability": "view",
      "type": "function"
    },
    {
      "inputs": [],
      "name": "owner",
      "outputs": [
        {
          "internalType": "address",
          "name": "",
          "type": "address"
        }
      ],
      "stateMutability": "view",
      "type": "function"
    },
    {
      "inputs": [],
      "name": "priceFeed",
      "outputs": [
        {
          "internalType": "contract IPriceFeed",
          "name": "",
          "type": "address"
        }
      ],
      "stateMutability": "view",
      "type": "function"
    },
    {
      "inputs": [
        {
          "internalType": "uint256",
          "name": "_stableCoinAmount",
          "type": "uint256"
        },
        {
          "internalType": "uint256",
          "name": "_maxFeePercentage",
          "type": "uint256"
        },
        {
          "internalType": "address[]",
          "name": "_sourceTroves",
          "type": "address[]"
        }
      ],
      "name": "redeemCollateral",
      "outputs": [],
      "stateMutability": "nonpayable",
      "type": "function"
    },
    {
      "inputs": [],
      "name": "renounceOwnership",
      "outputs": [],
      "stateMutability": "nonpayable",
      "type": "function"
    },
    {
      "inputs": [
        {
          "internalType": "address",
          "name": "_troveManagerAddress",
          "type": "address"
        },
        {
          "internalType": "address",
          "name": "_storagePoolAddress",
          "type": "address"
        },
        {
          "internalType": "address",
          "name": "_priceFeedAddress",
          "type": "address"
        },
        {
          "internalType": "address",
          "name": "_debtTokenManagerAddress",
          "type": "address"
        },
        {
          "internalType": "address",
          "name": "_collTokenManagerAddress",
          "type": "address"
        }
      ],
      "name": "setAddresses",
      "outputs": [],
      "stateMutability": "nonpayable",
      "type": "function"
    },
    {
      "inputs": [],
      "name": "storagePool",
      "outputs": [
        {
          "internalType": "contract IStoragePool",
          "name": "",
          "type": "address"
        }
      ],
      "stateMutability": "view",
      "type": "function"
    },
    {
      "inputs": [
        {
          "internalType": "address",
          "name": "newOwner",
          "type": "address"
        }
      ],
      "name": "transferOwnership",
      "outputs": [],
      "stateMutability": "nonpayable",
      "type": "function"
    },
    {
      "inputs": [],
      "name": "troveManager",
      "outputs": [
        {
          "internalType": "contract ITroveManager",
          "name": "",
          "type": "address"
        }
      ],
      "stateMutability": "view",
      "type": "function"
    }
  ],
  "transactionHash": "0x83569de123d3424a1f0d3b0bbb55272e6e5d5c3f89860b4a6946203ec08c8f9e",
  "args": [],
  "numDeployments": 1,
  "solcInputHash": "a6d55ae1f6eb61d657352227caab6412",
  "bytecode": "0x608060405234801561001057600080fd5b50338061003757604051631e4fbdf760e01b81526000600482015260240160405180910390fd5b61004081610046565b50610096565b600080546001600160a01b038381166001600160a01b0319831681178455604051919092169283917f8be0079c531659141344cd1fd0a4f28419497f9722a3daafe3b4186f6b6457e09190a35050565b6121e2806100a56000396000f3fe608060405234801561001057600080fd5b50600436106101585760003560e01c8063741bef1a116100c3578063c52861f21161007c578063c52861f2146102dc578063d5b35635146102e4578063ddbeb714146102f7578063e67729e31461030a578063f2fde38b14610314578063f92d34331461017e57600080fd5b8063741bef1a14610246578063794e5724146102595780638d63c665146102685780638da5cb5b14610278578063943ebeae14610289578063a3f4df7e1461029c57600080fd5b8063502afb0411610115578063502afb04146101dc578063522a86fe146101fa5780635733d58f1461020d5780635dd68acd1461021c578063715018a61461022f57806372fe25aa1461023757600080fd5b8063240926691461015d57806328d28b5b1461017e5780632b11551a1461018c5780633d83908a1461019457806342536d9c146101bf5780634870dd9a146101d4575b600080fd5b61016b66b1a2bc2ec5000081565b6040519081526020015b60405180910390f35b61016b6611c37937e0800081565b61016b610327565b6001546101a7906001600160a01b031681565b6040516001600160a01b039091168152602001610175565b6101d26101cd366004611ad6565b6103ad565b005b61016b60c881565b6101e5610bb881565b60405163ffffffff9091168152602001610175565b6002546101a7906001600160a01b031681565b61016b6714d1120d7b16000081565b6101d261022a366004611b8a565b610d78565b6101d2610e66565b61016b670de0b6b3a764000081565b6005546101a7906001600160a01b031681565b61016b670f43fc2c04ee000081565b61016b680ad78ebc5ac620000081565b6000546001600160a01b03166101a7565b6003546101a7906001600160a01b031681565b6102cf60405180604001604052806014815260200173526564656d7074696f6e4f7065726174696f6e7360601b81525081565b6040516101759190611bfb565b61016b610e7a565b61016b6102f2366004611c49565b610ed2565b6004546101a7906001600160a01b031681565b6101e5620f424081565b6101d2610322366004611c62565b610eeb565b60006103a8600160009054906101000a90046001600160a01b03166001600160a01b031663b655d0c46040518163ffffffff1660e01b8152600401602060405180830381865afa15801561037f573d6000803e3d6000fd5b505050506040513d601f19601f820116820180604052508101906103a39190611c7f565b610f2e565b905090565b6103ed6040518060e00160405280606081526020016000815260200160008152602001600081526020016000815260200160008152602001600081525090565b600360009054906101000a90046001600160a01b03166001600160a01b031663efc5f8c56040518163ffffffff1660e01b8152600401600060405180830381865afa158015610440573d6000803e3d6000fd5b505050506040513d6000823e601f3d908101601f191682016040526104689190810190611c98565b815260025460408051631bd817c960e01b815290516000926001600160a01b031691631bd817c99160048083019260209291908290030181865afa1580156104b4573d6000803e3d6000fd5b505050506040513d601f19601f820116820180604052508101906104d89190611d32565b9050846000036104fb57604051631f2a200560e01b815260040160405180910390fd5b6611c37937e080008410806105175750670de0b6b3a764000084115b1561053557604051631113e26760e31b815260040160405180910390fd5b6040516370a0823160e01b81523360048201526001600160a01b038216906370a0823190602401602060405180830381865afa158015610579573d6000803e3d6000fd5b505050506040513d601f19601f8201168201806040525081019061059d9190611c7f565b8511156105bd57604051630b509b5f60e21b815260040160405180910390fd5b6000600460009054906101000a90046001600160a01b03166001600160a01b03166343a124fa6040518163ffffffff1660e01b8152600401608060405180830381865afa158015610612573d6000803e3d6000fd5b505050506040513d601f19601f820116820180604052508101906106369190611d4f565b5050915050670f43fc2c04ee000081101561066457604051631afae4cd60e21b815260040160405180910390fd5b6004805460405162d05f3560e81b81526001600160a01b039091169163d05f35009161069891869160009160019101611db5565b602060405180830381865afa1580156106b5573d6000803e3d6000fd5b505050506040513d601f19601f820116820180604052508101906106d99190611c7f565b6004805460405162d05f3560e81b81526001600160a01b039091169163d05f35009161070c918791600091829101611db5565b602060405180830381865afa158015610729573d6000803e3d6000fd5b505050506040513d601f19601f8201168201806040525081019061074d9190611c7f565b6107579190611df8565b602084018190526040516370a0823160e01b81523360048201526001600160a01b038416906370a0823190602401602060405180830381865afa1580156107a2573d6000803e3d6000fd5b505050506040513d601f19601f820116820180604052508101906107c69190611c7f565b11156107d4576107d4611e0b565b82515160009067ffffffffffffffff8111156107f2576107f2611a2d565b60405190808252806020026020018201604052801561085757816020015b610844604051806080016040528060006001600160a01b031681526020016000815260200160008152602001600081525090565b8152602001906001900390816108105790505b50905060005b81518110156108be57845180518290811061087a5761087a611e21565b602002602001015182828151811061089457610894611e21565b60209081029190910101516001600160a01b039091169052806108b681611e37565b91505061085d565b506001855110156108d1576108d1611e0b565b60005b8551811015610a6a5760008682815181106108f1576108f1611e21565b6020026020010151905060006001600160a01b0316816001600160a01b0316148061092857506040860151610926908a611e50565b155b156109335750610a58565b600061094f878389604001518d61094a9190611e50565b610f52565b90508060000151876040018181516109679190611df8565b90525060005b816020015151811015610a545760005b8551811015610a4157885180518290811061099a5761099a611e21565b60200260200101516001600160a01b0316836020015183815181106109c1576109c1611e21565b6020026020010151600001516001600160a01b031603610a2f57826020015182815181106109f1576109f1611e21565b602002602001015160200151868281518110610a0f57610a0f611e21565b6020026020010151602001818151610a279190611df8565b905250610a41565b80610a3981611e37565b91505061097d565b5080610a4c81611e37565b91505061096d565b5050505b80610a6281611e37565b9150506108d4565b508360400151600003610a90576040516353d77d3b60e11b815260040160405180910390fd5b600154604080860151602087015191516309d3fe0b60e41b81526001600160a01b0390931692639d3fe0b092610ad29291600401918252602082015260400190565b600060405180830381600087803b158015610aec57600080fd5b505af1158015610b00573d6000803e3d6000fd5b5050505060005b8151811015610b7e576000828281518110610b2457610b24611e21565b60200260200101519050610b3b81602001516114b4565b604082018190526020820151610b519190611e50565b606082015260408101516020820151610b6b91908a6114c1565b5080610b7681611e37565b915050610b07565b506004805460408087015190516304b86aad60e21b81526001600160a01b03909216926312e1aab492610bb992889260009283929101611e63565b600060405180830381600087803b158015610bd357600080fd5b505af1158015610be7573d6000803e3d6000fd5b505050506040848101519051632770a7eb60e21b815233600482015260248101919091526001600160a01b03841690639dc29fac90604401600060405180830381600087803b158015610c3957600080fd5b505af1158015610c4d573d6000803e3d6000fd5b5050505060005b8151811015610d2f576000828281518110610c7157610c71611e21565b602002602001015190508060600151600003610c8d5750610d1d565b600454865180516001600160a01b039092169163b403b99791339186908110610cb857610cb8611e21565b60200260200101516001600086606001516040518663ffffffff1660e01b8152600401610ce9959493929190611e97565b600060405180830381600087803b158015610d0357600080fd5b505af1158015610d17573d6000803e3d6000fd5b50505050505b80610d2781611e37565b915050610c54565b507f6a8329a18d9dee6a297f77526416165a730ae6c200ed723c7f29985c77d66c7a87856040015183604051610d6793929190611ed4565b60405180910390a150505050505050565b610d80611516565b610d8985611543565b610d9284611543565b610d9b83611543565b610da482611543565b610dad81611543565b600180546001600160a01b038781166001600160a01b031992831681179093556004805488831690841681179091556005805488841690851681179091556002805488851690861681179091556003805494881694909516841790945560408051958652602086019290925290840152606083019190915260808201527f1e5765df374d010480569094677f5313a17b1b8ff5f33b3f39f9baba9bfc1e9f9060a00160405180910390a1610e5f610e66565b5050505050565b610e6e611516565b610e786000611592565b565b60006103a8600160009054906101000a90046001600160a01b03166001600160a01b031663459799786040518163ffffffff1660e01b8152600401602060405180830381865afa15801561037f573d6000803e3d6000fd5b6000610ee5610edf610e7a565b836115e2565b92915050565b610ef3611516565b6001600160a01b038116610f2257604051631e4fbdf760e01b8152600060048201526024015b60405180910390fd5b610f2b81611592565b50565b6000610ee5610f44836611c37937e08000611df8565b670de0b6b3a764000061163c565b610f5a6119da565b600154604051630b07655760e01b81526001600160a01b03858116600483015290911690630b07655790602401600060405180830381600087803b158015610fa157600080fd5b505af1158015610fb5573d6000803e3d6000fd5b50505050610fc283611652565b608085018190526060850182905260408501929092526020840192909252600091610fec916119a4565b90506000600460009054906101000a90046001600160a01b03166001600160a01b03166343a124fa6040518163ffffffff1660e01b8152600401608060405180830381865afa158015611043573d6000803e3d6000fd5b505050506040513d601f19601f820116820180604052508101906110679190611d4f565b505091505080821061108c5760405163c9be08d760e01b815260040160405180910390fd5b6110b284680ad78ebc5ac62000008560400151602001516110ad9190611e50565b61163c565b8352606083015160005b84602001515181101561122f576000856020015182815181106110e1576110e1611e21565b602090810291909101810151600554815192820151604051637d3b6e7960e11b81526001600160a01b0394851660048201526024810191909152919350600092169063fa76dcf290604401602060405180830381865afa158015611149573d6000803e3d6000fd5b505050506040513d601f19601f8201168201806040525081019061116d9190611c7f565b9050600087606001518289600001516111869190611f50565b6111909190611f67565b6005548451604051632815899160e21b81526001600160a01b03918216600482015260248101849052929350169063a056264490604401602060405180830381865afa1580156111e4573d6000803e3d6000fd5b505050506040513d601f19601f820116820180604052508101906112089190611c7f565b60208401526112178186611e50565b9450505050808061122790611e37565b9150506110bc565b50604080516001808252818301909252600091816020015b611274604051806060016040528060006001600160a01b0316815260200160008152602001600081525090565b8152602001906001900390816112475750506040805160608101808352600254631bd817c960e01b90915291519293509182916001600160a01b031690631bd817c9906064808501916020918187030181865afa1580156112d9573d6000803e3d6000fd5b505050506040513d601f19601f820116820180604052508101906112fd9190611d32565b6001600160a01b031681526020018660000151815260200160008152508160008151811061132d5761132d611e21565b6020908102919091010152600154604051637120442f60e11b81526001600160a01b039091169063e240885e9061136a908a908590600401611f89565b600060405180830381600087803b15801561138457600080fd5b505af1158015611398573d6000803e3d6000fd5b5050600154602088015160405163d317458f60e01b81526001600160a01b03909216935063d317458f92506113d2918b9190600401612047565b600060405180830381600087803b1580156113ec57600080fd5b505af1158015611400573d6000803e3d6000fd5b50506001548a516040516309d9efd960e21b81526001600160a01b039092169350632767bf649250611436918b9060040161206b565b600060405180830381600087803b15801561145057600080fd5b505af1158015611464573d6000803e3d6000fd5b5050865160208801516040517f39add25abad9e7cf7e17693b8dfc9aef382d8da0c8aa2e5517bcdb185695566894506114a193508b9291906120c8565b60405180910390a1505050509392505050565b6000610ee5610edf610327565b826000036114ce57505050565b6000826114e3670de0b6b3a764000086611f50565b6114ed9190611f67565b905081811115611510576040516351a2c47360e11b815260040160405180910390fd5b50505050565b6000546001600160a01b03163314610e785760405163118cdaa760e01b8152336004820152602401610f19565b6001600160a01b03811661156a5760405163d92e233d60e01b815260040160405180910390fd5b803b600081900361158e57604051636f7c43f160e01b815260040160405180910390fd5b5050565b600080546001600160a01b038381166001600160a01b0319831681178455604051919092169283917f8be0079c531659141344cd1fd0a4f28419497f9722a3daafe3b4186f6b6457e09190a35050565b6000816000036115f457506000610ee5565b6000670de0b6b3a76400006116098486611f50565b6116139190611f67565b905082811061163557604051633a82228b60e21b815260040160405180910390fd5b9392505050565b600081831061164b5781611635565b5090919050565b604080518082018252600080825260208083018290526002548451631bd817c960e01b81529451606095849384936001600160a01b031692631bd817c99260048082019392918290030181865afa1580156116b1573d6000803e3d6000fd5b505050506040513d601f19601f820116820180604052508101906116d59190611d32565b60015460405163d66a255360e01b81526001600160a01b0389811660048301529293506000929091169063d66a255390602401600060405180830381865afa158015611725573d6000803e3d6000fd5b505050506040513d6000823e601f3d908101601f1916820160405261174d91908101906120f8565b905060005b815181101561183657600082828151811061176f5761176f611e21565b60200260200101519050836001600160a01b031681600001516001600160a01b03160361179a578096505b60055481516020830151604051637d3b6e7960e11b81526001600160a01b039283166004820152602481019190915291169063fa76dcf290604401602060405180830381865afa1580156117f2573d6000803e3d6000fd5b505050506040513d601f19601f820116820180604052508101906118169190611c7f565b6118209086611df8565b945050808061182e90611e37565b915050611752565b506001546040516309019aaf60e31b81526001600160a01b0389811660048301529091169063480cd57890602401600060405180830381865afa158015611881573d6000803e3d6000fd5b505050506040513d6000823e601f3d908101601f191682016040526118a991908101906120f8565b955060005b865181101561199a5760055487516001600160a01b039091169063fa76dcf2908990849081106118e0576118e0611e21565b6020026020010151600001518984815181106118fe576118fe611e21565b6020026020010151602001516040518363ffffffff1660e01b815260040161193b9291906001600160a01b03929092168252602082015260400190565b602060405180830381865afa158015611958573d6000803e3d6000fd5b505050506040513d601f19601f8201168201806040525081019061197c9190611c7f565b6119869086611df8565b94508061199281611e37565b9150506118ae565b5050509193509193565b600081156119d057816119bf670de0b6b3a764000085611f50565b6119c99190611f67565b9050610ee5565b5060001992915050565b6040518060a001604052806000815260200160608152602001611a19604051806040016040528060006001600160a01b03168152602001600081525090565b815260200160008152602001600081525090565b634e487b7160e01b600052604160045260246000fd5b6040805190810167ffffffffffffffff81118282101715611a6657611a66611a2d565b60405290565b604051601f8201601f1916810167ffffffffffffffff81118282101715611a9557611a95611a2d565b604052919050565b600067ffffffffffffffff821115611ab757611ab7611a2d565b5060051b60200190565b6001600160a01b0381168114610f2b57600080fd5b600080600060608486031215611aeb57600080fd5b833592506020808501359250604085013567ffffffffffffffff811115611b1157600080fd5b8501601f81018713611b2257600080fd5b8035611b35611b3082611a9d565b611a6c565b81815260059190911b82018301908381019089831115611b5457600080fd5b928401925b82841015611b7b578335611b6c81611ac1565b82529284019290840190611b59565b80955050505050509250925092565b600080600080600060a08688031215611ba257600080fd5b8535611bad81611ac1565b94506020860135611bbd81611ac1565b93506040860135611bcd81611ac1565b92506060860135611bdd81611ac1565b91506080860135611bed81611ac1565b809150509295509295909350565b600060208083528351808285015260005b81811015611c2857858101830151858201604001528201611c0c565b506000604082860101526040601f19601f8301168501019250505092915050565b600060208284031215611c5b57600080fd5b5035919050565b600060208284031215611c7457600080fd5b813561163581611ac1565b600060208284031215611c9157600080fd5b5051919050565b60006020808385031215611cab57600080fd5b825167ffffffffffffffff811115611cc257600080fd5b8301601f81018513611cd357600080fd5b8051611ce1611b3082611a9d565b81815260059190911b82018301908381019087831115611d0057600080fd5b928401925b82841015611d27578351611d1881611ac1565b82529284019290840190611d05565b979650505050505050565b600060208284031215611d4457600080fd5b815161163581611ac1565b60008060008060808587031215611d6557600080fd5b84518015158114611d7557600080fd5b60208601516040870151606090970151919890975090945092505050565b60038110611db157634e487b7160e01b600052602160045260246000fd5b9052565b6001600160a01b0384168152821515602082015260608101611dda6040830184611d93565b949350505050565b634e487b7160e01b600052601160045260246000fd5b80820180821115610ee557610ee5611de2565b634e487b7160e01b600052600160045260246000fd5b634e487b7160e01b600052603260045260246000fd5b600060018201611e4957611e49611de2565b5060010190565b81810381811115610ee557610ee5611de2565b6001600160a01b0385168152831515602082015260808101611e886040830185611d93565b82606083015295945050505050565b6001600160a01b03868116825285166020820152831515604082015260a08101611ec46060830185611d93565b8260808301529695505050505050565b60006060808301868452602086818601526040838187015282875180855260809450848801915083890160005b82811015611f3f57815180516001600160a01b0316855286810151878601528581015186860152880151888501529286019290850190600101611f01565b50919b9a5050505050505050505050565b8082028115828204841417610ee557610ee5611de2565b600082611f8457634e487b7160e01b600052601260045260246000fd5b500490565b6001600160a01b038381168252604060208084018290528451848301819052600093606092909183870190888301875b82811015611fe85781518051871685528581015186860152880151888501529286019290840190600101611fb9565b50919a9950505050505050505050565b600081518084526020808501945080840160005b8381101561203c57815180516001600160a01b03168852830151838801526040909601959082019060010161200c565b509495945050505050565b6001600160a01b0383168152604060208201819052600090611dda90830184611ff8565b604080825283519082018190526000906020906060840190828701845b828110156120ad5781516001600160a01b031684529284019290840190600101612088565b5050506001600160a01b039490941692019190915250919050565b60018060a01b03841681528260208201526060604082015260006120ef6060830184611ff8565b95945050505050565b6000602080838503121561210b57600080fd5b825167ffffffffffffffff81111561212257600080fd5b8301601f8101851361213357600080fd5b8051612141611b3082611a9d565b81815260069190911b8201830190838101908783111561216057600080fd5b928401925b82841015611d27576040848903121561217e5760008081fd5b612186611a43565b845161219181611ac1565b8152848601518682015282526040909301929084019061216556fea26469706673582212205c3ebdb55bd39523098f83bdf6e75dea33215421f072bd7d8ab5e1af7950955c64736f6c63430008140033",
  "devdoc": {
    "errors": {
      "OwnableInvalidOwner(address)": [
        {
          "details": "The owner is not a valid owner account. (eg. `address(0)`)"
        }
      ],
      "OwnableUnauthorizedAccount(address)": [
        {
          "details": "The caller account is not authorized to perform an operation."
        }
      ]
    },
    "kind": "dev",
    "methods": {
      "owner()": {
        "details": "Returns the address of the current owner."
      },
      "renounceOwnership()": {
        "details": "Leaves the contract without owner. It will not be possible to call `onlyOwner` functions. Can only be called by the current owner. NOTE: Renouncing ownership will leave the contract without an owner, thereby disabling any functionality that is only available to the owner."
      },
      "transferOwnership(address)": {
        "details": "Transfers ownership of the contract to a new account (`newOwner`). Can only be called by the current owner."
      }
    },
    "version": 1
  },
  "userdoc": {
    "kind": "user",
    "methods": {},
    "version": 1
  },
  "storageLayout": {
    "storage": [
      {
        "astId": 8,
        "contract": "contracts/RedemptionOperations.sol:RedemptionOperations",
        "label": "_owner",
        "offset": 0,
        "slot": "0",
        "type": "t_address"
      },
      {
        "astId": 12841,
        "contract": "contracts/RedemptionOperations.sol:RedemptionOperations",
        "label": "troveManager",
        "offset": 0,
        "slot": "1",
        "type": "t_contract(ITroveManager)10053"
      },
      {
        "astId": 12844,
        "contract": "contracts/RedemptionOperations.sol:RedemptionOperations",
        "label": "debtTokenManager",
        "offset": 0,
        "slot": "2",
        "type": "t_contract(IDebtTokenManager)8449"
      },
      {
        "astId": 12847,
        "contract": "contracts/RedemptionOperations.sol:RedemptionOperations",
        "label": "collTokenManager",
        "offset": 0,
        "slot": "3",
        "type": "t_contract(ICollTokenManager)8205"
      },
      {
        "astId": 12850,
        "contract": "contracts/RedemptionOperations.sol:RedemptionOperations",
        "label": "storagePool",
        "offset": 0,
        "slot": "4",
        "type": "t_contract(IStoragePool)9174"
      },
      {
        "astId": 12853,
        "contract": "contracts/RedemptionOperations.sol:RedemptionOperations",
        "label": "priceFeed",
        "offset": 0,
        "slot": "5",
        "type": "t_contract(IPriceFeed)8583"
      }
    ],
    "types": {
      "t_address": {
        "encoding": "inplace",
        "label": "address",
        "numberOfBytes": "20"
      },
      "t_contract(ICollTokenManager)8205": {
        "encoding": "inplace",
        "label": "contract ICollTokenManager",
        "numberOfBytes": "20"
      },
      "t_contract(IDebtTokenManager)8449": {
        "encoding": "inplace",
        "label": "contract IDebtTokenManager",
        "numberOfBytes": "20"
      },
      "t_contract(IPriceFeed)8583": {
        "encoding": "inplace",
        "label": "contract IPriceFeed",
        "numberOfBytes": "20"
      },
      "t_contract(IStoragePool)9174": {
        "encoding": "inplace",
        "label": "contract IStoragePool",
        "numberOfBytes": "20"
      },
      "t_contract(ITroveManager)10053": {
        "encoding": "inplace",
        "label": "contract ITroveManager",
        "numberOfBytes": "20"
      }
    }
  }
}