{
  "address": "0xe7f1725E7734CE288F8367e1Bb143E90bb3F0512",
  "abi": [
    {
      "inputs": [],
      "name": "ExceedDebtBalance",
      "type": "error"
    },
    {
      "inputs": [],
      "name": "FeeExceedMaxPercentage",
      "type": "error"
    },
    {
      "inputs": [],
      "name": "GreaterThanTCR",
      "type": "error"
    },
    {
      "inputs": [],
      "name": "HintBelowMCR",
      "type": "error"
    },
    {
      "inputs": [],
      "name": "HintUnknown",
      "type": "error"
    },
    {
      "inputs": [],
      "name": "InvalidHintLowerCRExists",
      "type": "error"
    },
    {
      "inputs": [],
      "name": "InvalidMaxFeePercent",
      "type": "error"
    },
    {
      "inputs": [],
      "name": "InvalidRedemptionHint",
      "type": "error"
    },
    {
      "inputs": [],
      "name": "LessThanMCR",
      "type": "error"
    },
    {
      "inputs": [],
      "name": "NoRedeems",
      "type": "error"
    },
    {
      "inputs": [],
      "name": "NotContract",
      "type": "error"
    },
    {
      "inputs": [
        {
          "internalType": "address",
          "name": "owner",
          "type": "address"
        }
      ],
      "name": "OwnableInvalidOwner",
      "type": "error"
    },
    {
      "inputs": [
        {
          "internalType": "address",
          "name": "account",
          "type": "address"
        }
      ],
      "name": "OwnableUnauthorizedAccount",
      "type": "error"
    },
    {
      "inputs": [],
      "name": "TooHighRedeemFee",
      "type": "error"
    },
    {
      "inputs": [],
      "name": "ZeroAddress",
      "type": "error"
    },
    {
      "inputs": [],
      "name": "ZeroAmount",
      "type": "error"
    },
    {
      "anonymous": false,
      "inputs": [
        {
          "indexed": true,
          "internalType": "address",
          "name": "previousOwner",
          "type": "address"
        },
        {
          "indexed": true,
          "internalType": "address",
          "name": "newOwner",
          "type": "address"
        }
      ],
      "name": "OwnershipTransferred",
      "type": "event"
    },
    {
      "anonymous": false,
      "inputs": [
        {
          "indexed": false,
          "internalType": "address",
          "name": "_borrower",
          "type": "address"
        },
        {
          "indexed": false,
          "internalType": "uint256",
          "name": "stableAmount",
          "type": "uint256"
        },
        {
          "components": [
            {
              "internalType": "address",
              "name": "tokenAddress",
              "type": "address"
            },
            {
              "internalType": "uint256",
              "name": "amount",
              "type": "uint256"
            }
          ],
          "indexed": false,
          "internalType": "struct IBase.TokenAmount[]",
          "name": "_drawnCollAmounts",
          "type": "tuple[]"
        }
      ],
      "name": "RedeemedFromTrove",
      "type": "event"
    },
    {
      "anonymous": false,
      "inputs": [
        {
          "indexed": false,
          "internalType": "address",
          "name": "_troveManager",
          "type": "address"
        },
        {
          "indexed": false,
          "internalType": "address",
          "name": "_storgePool",
          "type": "address"
        },
        {
          "indexed": false,
          "internalType": "address",
          "name": "_priceFeed",
          "type": "address"
        },
        {
          "indexed": false,
          "internalType": "address",
          "name": "_debtTokenManager",
          "type": "address"
        },
        {
          "indexed": false,
          "internalType": "address",
          "name": "_collTokenManager",
          "type": "address"
        },
        {
          "indexed": false,
          "internalType": "address",
          "name": "_sortedTrovesAddress",
          "type": "address"
        }
      ],
      "name": "RedemptionOperationsInitialized",
      "type": "event"
    },
    {
      "anonymous": false,
      "inputs": [
        {
          "indexed": false,
          "internalType": "uint256",
          "name": "_attemptedStableAmount",
          "type": "uint256"
        },
        {
          "indexed": false,
          "internalType": "uint256",
          "name": "_actualStableAmount",
          "type": "uint256"
        },
        {
          "components": [
            {
              "internalType": "address",
              "name": "collToken",
              "type": "address"
            },
            {
              "internalType": "uint256",
              "name": "drawn",
              "type": "uint256"
            },
            {
              "internalType": "uint256",
              "name": "redemptionFee",
              "type": "uint256"
            },
            {
              "internalType": "uint256",
              "name": "sendToRedeemer",
              "type": "uint256"
            }
          ],
          "indexed": false,
          "internalType": "struct IRedemptionOperations.RedemptionCollAmount[]",
          "name": "_collPayouts",
          "type": "tuple[]"
        }
      ],
      "name": "SuccessfulRedemption",
      "type": "event"
    },
    {
      "inputs": [],
      "name": "BORROWING_FEE_FLOOR",
      "outputs": [
        {
          "internalType": "uint256",
          "name": "",
          "type": "uint256"
        }
      ],
      "stateMutability": "view",
      "type": "function"
    },
    {
      "inputs": [],
      "name": "CCR",
      "outputs": [
        {
          "internalType": "uint256",
          "name": "",
          "type": "uint256"
        }
      ],
      "stateMutability": "view",
      "type": "function"
    },
    {
      "inputs": [],
      "name": "GOV_STAKING_ADDRESS",
      "outputs": [
        {
          "internalType": "address",
          "name": "",
          "type": "address"
        }
      ],
      "stateMutability": "view",
      "type": "function"
    },
    {
      "inputs": [],
      "name": "GOV_SWAP_FEE",
      "outputs": [
        {
          "internalType": "uint32",
          "name": "",
          "type": "uint32"
        }
      ],
      "stateMutability": "view",
      "type": "function"
    },
    {
      "inputs": [],
      "name": "MAX_BORROWING_FEE",
      "outputs": [
        {
          "internalType": "uint256",
          "name": "",
          "type": "uint256"
        }
      ],
      "stateMutability": "view",
      "type": "function"
    },
    {
      "inputs": [],
      "name": "MCR",
      "outputs": [
        {
          "internalType": "uint256",
          "name": "",
          "type": "uint256"
        }
      ],
      "stateMutability": "view",
      "type": "function"
    },
    {
      "inputs": [],
      "name": "NAME",
      "outputs": [
        {
          "internalType": "string",
          "name": "",
          "type": "string"
        }
      ],
      "stateMutability": "view",
      "type": "function"
    },
    {
      "inputs": [],
      "name": "PERCENT_DIVISOR",
      "outputs": [
        {
          "internalType": "uint256",
          "name": "",
          "type": "uint256"
        }
      ],
      "stateMutability": "view",
      "type": "function"
    },
    {
      "inputs": [],
      "name": "REDEMPTION_FEE_FLOOR",
      "outputs": [
        {
          "internalType": "uint256",
          "name": "",
          "type": "uint256"
        }
      ],
      "stateMutability": "view",
      "type": "function"
    },
    {
      "inputs": [],
      "name": "STABLE_COIN_GAS_COMPENSATION",
      "outputs": [
        {
          "internalType": "uint256",
          "name": "",
          "type": "uint256"
        }
      ],
      "stateMutability": "view",
      "type": "function"
    },
    {
      "inputs": [],
      "name": "SWAP_BASE_FEE",
      "outputs": [
        {
          "internalType": "uint32",
          "name": "",
          "type": "uint32"
        }
      ],
      "stateMutability": "view",
      "type": "function"
    },
    {
      "inputs": [],
      "name": "SWAP_FEE_PRECISION",
      "outputs": [
        {
          "internalType": "uint32",
          "name": "",
          "type": "uint32"
        }
      ],
      "stateMutability": "view",
      "type": "function"
    },
    {
      "inputs": [],
      "name": "_100pct",
      "outputs": [
        {
          "internalType": "uint256",
          "name": "",
          "type": "uint256"
        }
      ],
      "stateMutability": "view",
      "type": "function"
    },
    {
      "inputs": [
        {
          "internalType": "address",
          "name": "_borrower",
          "type": "address"
        },
        {
          "internalType": "uint256",
          "name": "_redeemMaxAmount",
          "type": "uint256"
        },
        {
          "internalType": "bool",
          "name": "_includePendingRewards",
          "type": "bool"
        }
      ],
      "name": "calculateTroveRedemption",
      "outputs": [
        {
          "components": [
            {
              "components": [
                {
                  "internalType": "address",
                  "name": "tokenAddress",
                  "type": "address"
                },
                {
                  "internalType": "uint256",
                  "name": "amount",
                  "type": "uint256"
                }
              ],
              "internalType": "struct IBase.TokenAmount",
              "name": "stableCoinEntry",
              "type": "tuple"
            },
            {
              "internalType": "uint256",
              "name": "stableCoinLot",
              "type": "uint256"
            },
            {
              "components": [
                {
                  "internalType": "address",
                  "name": "tokenAddress",
                  "type": "address"
                },
                {
                  "internalType": "uint256",
                  "name": "amount",
                  "type": "uint256"
                }
              ],
              "internalType": "struct IBase.TokenAmount[]",
              "name": "collLots",
              "type": "tuple[]"
            },
            {
              "internalType": "uint256",
              "name": "troveCollInUSD",
              "type": "uint256"
            },
            {
              "internalType": "uint256",
              "name": "troveDebtInUSD",
              "type": "uint256"
            },
            {
              "internalType": "uint256",
              "name": "resultingCR",
              "type": "uint256"
            }
          ],
          "internalType": "struct IRedemptionOperations.SingleRedemptionVariables",
          "name": "vars",
          "type": "tuple"
        }
      ],
      "stateMutability": "view",
      "type": "function"
    },
    {
      "inputs": [],
      "name": "collTokenManager",
      "outputs": [
        {
          "internalType": "contract ICollTokenManager",
          "name": "",
          "type": "address"
        }
      ],
      "stateMutability": "view",
      "type": "function"
    },
    {
      "inputs": [],
      "name": "debtTokenManager",
      "outputs": [
        {
          "internalType": "contract IDebtTokenManager",
          "name": "",
          "type": "address"
        }
      ],
      "stateMutability": "view",
      "type": "function"
    },
    {
      "inputs": [
        {
          "internalType": "uint256",
          "name": "_collDrawn",
          "type": "uint256"
        }
      ],
      "name": "getRedemptionFeeWithDecay",
      "outputs": [
        {
          "internalType": "uint256",
          "name": "",
          "type": "uint256"
        }
      ],
      "stateMutability": "view",
      "type": "function"
    },
    {
      "inputs": [],
      "name": "getRedemptionRate",
      "outputs": [
        {
          "internalType": "uint256",
          "name": "",
          "type": "uint256"
        }
      ],
      "stateMutability": "view",
      "type": "function"
    },
    {
      "inputs": [],
      "name": "getRedemptionRateWithDecay",
      "outputs": [
        {
          "internalType": "uint256",
          "name": "",
          "type": "uint256"
        }
      ],
      "stateMutability": "view",
      "type": "function"
    },
    {
      "inputs": [],
      "name": "owner",
      "outputs": [
        {
          "internalType": "address",
          "name": "",
          "type": "address"
        }
      ],
      "stateMutability": "view",
      "type": "function"
    },
    {
      "inputs": [],
      "name": "priceFeed",
      "outputs": [
        {
          "internalType": "contract IPriceFeed",
          "name": "",
          "type": "address"
        }
      ],
      "stateMutability": "view",
      "type": "function"
    },
    {
      "inputs": [
        {
          "internalType": "uint256",
          "name": "_stableCoinAmount",
          "type": "uint256"
        },
        {
          "components": [
            {
              "internalType": "address",
              "name": "trove",
              "type": "address"
            },
            {
              "internalType": "address",
              "name": "upperHint",
              "type": "address"
            },
            {
              "internalType": "address",
              "name": "lowerHint",
              "type": "address"
            },
            {
              "internalType": "uint256",
              "name": "expectedCR",
              "type": "uint256"
            }
          ],
          "internalType": "struct IRedemptionOperations.RedeemIteration[]",
          "name": "_iterations",
          "type": "tuple[]"
        },
        {
          "internalType": "uint256",
          "name": "_maxFeePercentage",
          "type": "uint256"
        }
      ],
      "name": "redeemCollateral",
      "outputs": [],
      "stateMutability": "nonpayable",
      "type": "function"
    },
    {
      "inputs": [],
      "name": "renounceOwnership",
      "outputs": [],
      "stateMutability": "nonpayable",
      "type": "function"
    },
    {
      "inputs": [
        {
          "internalType": "address",
          "name": "_troveManagerAddress",
          "type": "address"
        },
        {
          "internalType": "address",
          "name": "_storagePoolAddress",
          "type": "address"
        },
        {
          "internalType": "address",
          "name": "_priceFeedAddress",
          "type": "address"
        },
        {
          "internalType": "address",
          "name": "_debtTokenManagerAddress",
          "type": "address"
        },
        {
          "internalType": "address",
          "name": "_collTokenManagerAddress",
          "type": "address"
        },
        {
          "internalType": "address",
          "name": "_sortedTrovesAddress",
          "type": "address"
        }
      ],
      "name": "setAddresses",
      "outputs": [],
      "stateMutability": "nonpayable",
      "type": "function"
    },
    {
      "inputs": [],
      "name": "sortedTroves",
      "outputs": [
        {
          "internalType": "contract ISortedTroves",
          "name": "",
          "type": "address"
        }
      ],
      "stateMutability": "view",
      "type": "function"
    },
    {
      "inputs": [],
      "name": "storagePool",
      "outputs": [
        {
          "internalType": "contract IStoragePool",
          "name": "",
          "type": "address"
        }
      ],
      "stateMutability": "view",
      "type": "function"
    },
    {
      "inputs": [
        {
          "internalType": "address",
          "name": "newOwner",
          "type": "address"
        }
      ],
      "name": "transferOwnership",
      "outputs": [],
      "stateMutability": "nonpayable",
      "type": "function"
    },
    {
      "inputs": [],
      "name": "troveManager",
      "outputs": [
        {
          "internalType": "contract ITroveManager",
          "name": "",
          "type": "address"
        }
      ],
      "stateMutability": "view",
      "type": "function"
    }
  ],
  "transactionHash": "0xcab3287fb57e13857dc2ab791591a982ca360978ef5f397edde03deb8ddff5a7",
  "args": [],
  "numDeployments": 1,
  "solcInputHash": "6cd4b693370de6782d041c6552000a4d",
  "bytecode": "0x608060405234801561001057600080fd5b50338061003757604051631e4fbdf760e01b81526000600482015260240160405180910390fd5b61004081610046565b50610096565b600080546001600160a01b038381166001600160a01b0319831681178455604051919092169283917f8be0079c531659141344cd1fd0a4f28419497f9722a3daafe3b4186f6b6457e09190a35050565b6129ae80620000a66000396000f3fe608060405234801561001057600080fd5b50600436106101c45760003560e01c8063741bef1a116100f9578063c52861f211610097578063e67729e311610071578063e67729e3146103c4578063ec671c83146103ce578063f2fde38b146103d8578063f92d34331461023257600080fd5b8063c52861f214610396578063d5b356351461039e578063ddbeb714146103b157600080fd5b80638da5cb5b116100d35780638da5cb5b1461031f578063943ebeae14610330578063a3f4df7e14610343578063ae9187541461038357600080fd5b8063741bef1a146102ed578063794e5724146103005780638d63c6651461030f57600080fd5b80634870dd9a116101665780635733d58f116101405780635733d58f146102b45780636cfb6bf9146102c3578063715018a6146102d657806372fe25aa146102de57600080fd5b80634870dd9a1461027b578063502afb0414610283578063522a86fe146102a157600080fd5b806328d28b5b116101a257806328d28b5b146102325780632b11551a14610240578063325b9274146102485780633d83908a1461026857600080fd5b806309230ad3146101c95780631e25062a146102015780632409266914610216575b600080fd5b6101e473f39fd6e51aad88f6f4ce6ab8827279cfffb9226681565b6040516001600160a01b0390911681526020015b60405180910390f35b61021461020f3660046120fc565b6103eb565b005b61022466b1a2bc2ec5000081565b6040519081526020016101f8565b6102246611c37937e0800081565b610224611205565b61025b610256366004612208565b61128b565b6040516101f8919061224a565b6001546101e4906001600160a01b031681565b61022460c881565b61028c610bb881565b60405163ffffffff90911681526020016101f8565b6002546101e4906001600160a01b031681565b6102246714d1120d7b16000081565b6102146102d1366004612300565b61191c565b610214611a28565b610224670de0b6b3a764000081565b6005546101e4906001600160a01b031681565b610224670f43fc2c04ee000081565b610224680ad78ebc5ac620000081565b6000546001600160a01b03166101e4565b6003546101e4906001600160a01b031681565b61037660405180604001604052806014815260200173526564656d7074696f6e4f7065726174696f6e7360601b81525081565b6040516101f89190612382565b6006546101e4906001600160a01b031681565b610224611a3c565b6102246103ac3660046123d0565b611a94565b6004546101e4906001600160a01b031681565b61028c620f424081565b61028c6207a12081565b6102146103e63660046123e9565b611aad565b60025460408051631bd817c960e01b815290516000926001600160a01b031691631bd817c99160048083019260209291908290030181865afa158015610435573d6000803e3d6000fd5b505050506040513d601f19601f820116820180604052508101906104599190612406565b90506104866040518060800160405280606081526020016060815260200160008152602001600081525090565b600360009054906101000a90046001600160a01b03166001600160a01b031663efc5f8c56040518163ffffffff1660e01b8152600401600060405180830381865afa1580156104d9573d6000803e3d6000fd5b505050506040513d6000823e601f3d908101601f191682016040526105019190810190612423565b81526004805460405162d05f3560e81b81526001600160a01b039091169163d05f350091610537918691600091600191016124df565b602060405180830381865afa158015610554573d6000803e3d6000fd5b505050506040513d601f19601f82011682018060405250810190610578919061250c565b6004805460405162d05f3560e81b81526001600160a01b039091169163d05f3500916105ab9187916000918291016124df565b602060405180830381865afa1580156105c8573d6000803e3d6000fd5b505050506040513d601f19601f820116820180604052508101906105ec919061250c565b6105f6919061253b565b6040820152600085900361061d57604051631f2a200560e01b815260040160405180910390fd5b6611c37937e080008310806106395750670de0b6b3a764000083115b1561065757604051631113e26760e31b815260040160405180910390fd5b6040516370a0823160e01b81523360048201526001600160a01b038316906370a0823190602401602060405180830381865afa15801561069b573d6000803e3d6000fd5b505050506040513d601f19601f820116820180604052508101906106bf919061250c565b8511156106df57604051630b509b5f60e21b815260040160405180910390fd5b6000600460009054906101000a90046001600160a01b03166001600160a01b03166343a124fa6040518163ffffffff1660e01b8152600401608060405180830381865afa158015610734573d6000803e3d6000fd5b505050506040513d601f19601f82011682018060405250810190610758919061254e565b5050915050670f43fc2c04ee000081101561078657604051631afae4cd60e21b815260040160405180910390fd5b60408281015190516370a0823160e01b81523360048201526001600160a01b038516906370a0823190602401602060405180830381865afa1580156107cf573d6000803e3d6000fd5b505050506040513d601f19601f820116820180604052508101906107f3919061250c565b11156108015761080161258d565b81515167ffffffffffffffff81111561081c5761081c612030565b60405190808252806020026020018201604052801561088157816020015b61086e604051806080016040528060006001600160a01b031681526020016000815260200160008152602001600081525090565b81526020019060019003908161083a5790505b50602083015260005b8260200151518110156108f35782518051829081106108ab576108ab6125a3565b6020026020010151836020015182815181106108c9576108c96125a3565b60209081029190910101516001600160a01b039091169052806108eb816125b9565b91505061088a565b5060005b8551811015610e49576000868281518110610914576109146125a3565b6020026020010151905061092b8160000151611af0565b6001548151604051630b07655760e01b81526001600160a01b039182166004820152911690630b07655790602401600060405180830381600087803b15801561097357600080fd5b505af1158015610987573d6000803e3d6000fd5b505082516060870151600093506109aa92506109a3908c6125d2565b600061128b565b905081606001518160a00151146109c2575050610e49565b604080516001808252818301909252600091816020015b610a06604051806060016040528060006001600160a01b0316815260200160008152602001600081525090565b8152602001906001900390816109d95750506040805160608101808352600254631bd817c960e01b90915291519293509182916001600160a01b031690631bd817c9906064808501916020918187030181865afa158015610a6b573d6000803e3d6000fd5b505050506040513d601f19601f82011682018060405250810190610a8f9190612406565b6001600160a01b0316815260200183602001518152602001600081525081600081518110610abf57610abf6125a3565b60209081029190910101526001548351604051637120442f60e11b81526001600160a01b039092169163e240885e91610afc9185906004016125e5565b600060405180830381600087803b158015610b1657600080fd5b505af1158015610b2a573d6000803e3d6000fd5b505060015485516040808701519051635988e97160e11b81526001600160a01b03909316945063b311d2e29350610b63926004016126ac565b600060405180830381600087803b158015610b7d57600080fd5b505af1158015610b91573d6000803e3d6000fd5b5050600154885186516040516309d9efd960e21b81526001600160a01b039093169450632767bf649350610bc7926004016126d0565b600060405180830381600087803b158015610be157600080fd5b505af1158015610bf5573d6000803e3d6000fd5b5050600654855160a08601516020808801518851909101516001600160a01b03909416955063ad555719945091929091680ad78ebc5ac620000091610c3a91906125d2565b610c4491906125d2565b60208801516040808a015190516001600160e01b031960e088901b1681526001600160a01b039586166004820152602481019490945260448401929092528316606483015291909116608482015260a401600060405180830381600087803b158015610caf57600080fd5b505af1158015610cc3573d6000803e3d6000fd5b50508451602085015160408087015190517f39add25abad9e7cf7e17693b8dfc9aef382d8da0c8aa2e5517bcdb18569556689550610d01945061272d565b60405180910390a1816020015186606001818151610d1f919061253b565b90525060005b826040015151811015610e145760005b876020015151811015610e01578751805182908110610d5657610d566125a3565b60200260200101516001600160a01b031684604001518381518110610d7d57610d7d6125a3565b6020026020010151600001516001600160a01b031603610def5783604001518281518110610dad57610dad6125a3565b60200260200101516020015188602001518281518110610dcf57610dcf6125a3565b6020026020010151602001818151610de7919061253b565b905250610e01565b80610df9816125b9565b915050610d35565b5080610e0c816125b9565b915050610d25565b506060860151610e24908b6125d2565b600003610e3357505050610e49565b5050508080610e41906125b9565b9150506108f7565b508160600151600003610e6f576040516353d77d3b60e11b815260040160405180910390fd5b600154606083015160408085015190516339d8814b60e11b8152600481019290925260248201526001600160a01b03909116906373b1029690604401600060405180830381600087803b158015610ec557600080fd5b505af1158015610ed9573d6000803e3d6000fd5b5050505060005b826020015151811015610f5f57600083602001518281518110610f0557610f056125a3565b60200260200101519050610f1c8160200151611e47565b604082018190526020820151610f3291906125d2565b606082015260408101516020820151610f4c919088611e54565b5080610f57816125b9565b915050610ee0565b506004805460608401516040516304b86aad60e21b81526001600160a01b03909216926312e1aab492610f9a9288926000928392910161275d565b600060405180830381600087803b158015610fb457600080fd5b505af1158015610fc8573d6000803e3d6000fd5b505050506060820151604051632770a7eb60e21b815233600482015260248101919091526001600160a01b03841690639dc29fac90604401600060405180830381600087803b15801561101a57600080fd5b505af115801561102e573d6000803e3d6000fd5b5050505060005b8260200151518110156111ba5760008360200151828151811061105a5761105a6125a3565b60200260200101519050806060015160000361107657506111a8565b600454845180516001600160a01b039092169163b403b997913391869081106110a1576110a16125a3565b60200260200101516001600086606001516040518663ffffffff1660e01b81526004016110d2959493929190612791565b600060405180830381600087803b1580156110ec57600080fd5b505af1158015611100573d6000803e3d6000fd5b5050600454865180516001600160a01b03909216935063b403b997925073f39fd6e51aad88f6f4ce6ab8827279cfffb922669186908110611143576111436125a3565b60200260200101516001600086604001516040518663ffffffff1660e01b8152600401611174959493929190612791565b600060405180830381600087803b15801561118e57600080fd5b505af11580156111a2573d6000803e3d6000fd5b50505050505b806111b2816125b9565b915050611035565b50606082015160208301516040517f6a8329a18d9dee6a297f77526416165a730ae6c200ed723c7f29985c77d66c7a926111f5928a926127ce565b60405180910390a1505050505050565b6000611286600160009054906101000a90046001600160a01b03166001600160a01b0316633fd5c85a6040518163ffffffff1660e01b8152600401602060405180830381865afa15801561125d573d6000803e3d6000fd5b505050506040513d601f19601f82011682018060405250810190611281919061250c565b611ea3565b905090565b6112d6604080516101008101909152600060c0820181815260e08301919091528190815260200160008152602001606081526020016000815260200160008152602001600081525090565b60025460408051631bd817c960e01b815290516000926001600160a01b031691631bd817c99160048083019260209291908290030181865afa158015611320573d6000803e3d6000fd5b505050506040513d601f19601f820116820180604052508101906113449190612406565b90506000836113c45760015460405163d66a255360e01b81526001600160a01b0388811660048301529091169063d66a255390602401600060405180830381865afa158015611397573d6000803e3d6000fd5b505050506040513d6000823e601f3d908101601f191682016040526113bf919081019061284a565b61143e565b600180546040516310e7cc8160e01b81526001600160a01b03898116600483015260248201939093529116906310e7cc8190604401600060405180830381865afa158015611416573d6000803e3d6000fd5b505050506040513d6000823e601f3d908101601f1916820160405261143e919081019061284a565b9050805160000361146257604051636766da4960e11b815260040160405180910390fd5b60005b8151811015611551576000828281518110611482576114826125a3565b60200260200101519050836001600160a01b031681600001516001600160a01b0316036114ad578085525b60055481516020830151604051637d3b6e7960e11b81526001600160a01b039283166004820152602481019190915291169063fa76dcf290604401602060405180830381865afa158015611505573d6000803e3d6000fd5b505050506040513d601f19601f82011682018060405250810190611529919061250c565b8560800181815161153a919061253b565b905250819050611549816125b9565b915050611465565b50836115ce576001546040516309019aaf60e31b81526001600160a01b0388811660048301529091169063480cd57890602401600060405180830381865afa1580156115a1573d6000803e3d6000fd5b505050506040513d6000823e601f3d908101601f191682016040526115c9919081019061284a565b611640565b600154604051632f0f3a3160e21b81526001600160a01b0388811660048301529091169063bc3ce8c490602401600060405180830381865afa158015611618573d6000803e3d6000fd5b505050506040513d6000823e601f3d908101601f19168201604052611640919081019061284a565b604084015260005b83604001515181101561174857600554604085015180516001600160a01b039092169163fa76dcf2919084908110611682576116826125a3565b602002602001015160000151866040015184815181106116a4576116a46125a3565b6020026020010151602001516040518363ffffffff1660e01b81526004016116e19291906001600160a01b03929092168252602082015260400190565b602060405180830381865afa1580156116fe573d6000803e3d6000fd5b505050506040513d601f19601f82011682018060405250810190611722919061250c565b84606001818151611733919061253b565b90525080611740816125b9565b915050611648565b5061176f85680ad78ebc5ac620000085600001516020015161176a91906125d2565b611ec3565b6020840152606083015160005b8460400151518110156118ef576000856040015182815181106117a1576117a16125a3565b602090810291909101810151600554815192820151604051637d3b6e7960e11b81526001600160a01b0394851660048201526024810191909152919350600092169063fa76dcf290604401602060405180830381865afa158015611809573d6000803e3d6000fd5b505050506040513d601f19601f8201168201806040525081019061182d919061250c565b90506000876060015182896020015161184691906128fe565b6118509190612915565b6005548451604051632815899160e21b81526001600160a01b03918216600482015260248101849052929350169063a056264490604401602060405180830381865afa1580156118a4573d6000803e3d6000fd5b505050506040513d601f19601f820116820180604052508101906118c8919061250c565b60208401526118d781866125d2565b945050505080806118e7906125b9565b91505061177c565b5061190d818560200151866080015161190891906125d2565b611edb565b60a08501525050509392505050565b611924611f11565b61192d86611f3e565b61193685611f3e565b61193f84611f3e565b61194883611f3e565b61195182611f3e565b61195a81611f3e565b600180546001600160a01b038881166001600160a01b0319928316811790935560048054898316908416811790915560058054898416908516811790915560028054898516908616811790915560038054898616908716811790915560068054958916959096168517909555604080519687526020870193909352918501526060840152608083019190915260a08201527f802fff129d001c064e5578315a3367b093ee7e6d91131fceb01f3d46062402819060c00160405180910390a1611a20611a28565b505050505050565b611a30611f11565b611a3a6000611f8d565b565b6000611286600160009054906101000a90046001600160a01b03166001600160a01b031663b22b0bcf6040518163ffffffff1660e01b8152600401602060405180830381865afa15801561125d573d6000803e3d6000fd5b6000611aa7611aa1611a3c565b83611fdd565b92915050565b611ab5611f11565b6001600160a01b038116611ae457604051631e4fbdf760e01b8152600060048201526024015b60405180910390fd5b611aed81611f8d565b50565b6001546040516301b9ad5160e51b81526001600160a01b03838116600483015290911690633735aa2090602401602060405180830381865afa158015611b3a573d6000803e3d6000fd5b505050506040513d601f19601f82011682018060405250810190611b5e9190612937565b611b7b5760405163cb9e5f6b60e01b815260040160405180910390fd5b600660009054906101000a90046001600160a01b03166001600160a01b031663681fe70c6040518163ffffffff1660e01b8152600401602060405180830381865afa158015611bce573d6000803e3d6000fd5b505050506040513d601f19601f82011682018060405250810190611bf29190612937565b15611bfa5750565b6001546040516327fb7d8960e01b81526001600160a01b03838116600483015260009216906327fb7d89906024016040805180830381865afa158015611c44573d6000803e3d6000fd5b505050506040513d601f19601f82011682018060405250810190611c689190612954565b509050670f43fc2c04ee0000811015611c945760405163e8978cad60e01b815260040160405180910390fd5b600654604051630bb7c8fd60e31b81526001600160a01b03848116600483015290911690635dbe47e890602401602060405180830381865afa158015611cde573d6000803e3d6000fd5b505050506040513d601f19601f82011682018060405250810190611d029190612937565b611d1f57604051636766da4960e11b815260040160405180910390fd5b60065460405163765e015960e01b81526001600160a01b038481166004830152600092169063765e015990602401602060405180830381865afa158015611d6a573d6000803e3d6000fd5b505050506040513d601f19601f82011682018060405250810190611d8e9190612406565b6001546040516327fb7d8960e01b81526001600160a01b038084166004830152929350600092909116906327fb7d89906024016040805180830381865afa158015611ddd573d6000803e3d6000fd5b505050506040513d601f19601f82011682018060405250810190611e019190612954565b5090506001600160a01b03821615801590611e235750670f43fc2c04ee000081115b15611e4157604051633e6e48f760e11b815260040160405180910390fd5b50505050565b6000611aa7611aa1611205565b82600003611e6157505050565b600082611e76670de0b6b3a7640000866128fe565b611e809190612915565b905081811115611e41576040516351a2c47360e11b815260040160405180910390fd5b6000611aa7611eb9836611c37937e0800061253b565b670de0b6b3a76400005b6000818310611ed25781611ed4565b825b9392505050565b60008115611f075781611ef6670de0b6b3a7640000856128fe565b611f009190612915565b9050611aa7565b5060001992915050565b6000546001600160a01b03163314611a3a5760405163118cdaa760e01b8152336004820152602401611adb565b6001600160a01b038116611f655760405163d92e233d60e01b815260040160405180910390fd5b803b6000819003611f8957604051636f7c43f160e01b815260040160405180910390fd5b5050565b600080546001600160a01b038381166001600160a01b0319831681178455604051919092169283917f8be0079c531659141344cd1fd0a4f28419497f9722a3daafe3b4186f6b6457e09190a35050565b600081600003611fef57506000611aa7565b6000670de0b6b3a764000061200484866128fe565b61200e9190612915565b9050828110611ed457604051633a82228b60e21b815260040160405180910390fd5b634e487b7160e01b600052604160045260246000fd5b6040516080810167ffffffffffffffff8111828210171561206957612069612030565b60405290565b6040805190810167ffffffffffffffff8111828210171561206957612069612030565b604051601f8201601f1916810167ffffffffffffffff811182821017156120bb576120bb612030565b604052919050565b600067ffffffffffffffff8211156120dd576120dd612030565b5060051b60200190565b6001600160a01b0381168114611aed57600080fd5b6000806000606080858703121561211257600080fd5b8435935060208086013567ffffffffffffffff81111561213157600080fd5b8601601f8101881361214257600080fd5b8035612155612150826120c3565b612092565b81815260079190911b8201830190838101908a83111561217457600080fd5b928401925b828410156121e4576080848c0312156121925760008081fd5b61219a612046565b84356121a5816120e7565b8152848601356121b4816120e7565b818701526040858101356121c7816120e7565b908201528487013587820152825260809093019290840190612179565b979a979950505050604095909501359450505050565b8015158114611aed57600080fd5b60008060006060848603121561221d57600080fd5b8335612228816120e7565b925060208401359150604084013561223f816121fa565b809150509250925092565b6020808252825180516001600160a01b0316838301528101516040830152600090610100830184820151606085015260408086015160e060808701528051928390528301916000906101208701905b808310156122d3576122bf82865180516001600160a01b03168252602090810151910152565b938501936001929092019190830190612299565b50606088015160a0880152608088015160c088015260a088015160e0880152809550505050505092915050565b60008060008060008060c0878903121561231957600080fd5b8635612324816120e7565b95506020870135612334816120e7565b94506040870135612344816120e7565b93506060870135612354816120e7565b92506080870135612364816120e7565b915060a0870135612374816120e7565b809150509295509295509295565b600060208083528351808285015260005b818110156123af57858101830151858201604001528201612393565b506000604082860101526040601f19601f8301168501019250505092915050565b6000602082840312156123e257600080fd5b5035919050565b6000602082840312156123fb57600080fd5b8135611ed4816120e7565b60006020828403121561241857600080fd5b8151611ed4816120e7565b6000602080838503121561243657600080fd5b825167ffffffffffffffff81111561244d57600080fd5b8301601f8101851361245e57600080fd5b805161246c612150826120c3565b81815260059190911b8201830190838101908783111561248b57600080fd5b928401925b828410156124b25783516124a3816120e7565b82529284019290840190612490565b979650505050505050565b600381106124db57634e487b7160e01b600052602160045260246000fd5b9052565b6001600160a01b038416815282151560208201526060810161250460408301846124bd565b949350505050565b60006020828403121561251e57600080fd5b5051919050565b634e487b7160e01b600052601160045260246000fd5b80820180821115611aa757611aa7612525565b6000806000806080858703121561256457600080fd5b845161256f816121fa565b60208601516040870151606090970151919890975090945092505050565b634e487b7160e01b600052600160045260246000fd5b634e487b7160e01b600052603260045260246000fd5b6000600182016125cb576125cb612525565b5060010190565b81810381811115611aa757611aa7612525565b6001600160a01b038381168252604060208084018290528451848301819052600093606092909183870190888301875b828110156126445781518051871685528581015186860152880151888501529286019290840190600101612615565b50919a9950505050505050505050565b600081518084526020808501945080840160005b838110156126a15761268e87835180516001600160a01b03168252602090810151910152565b6040969096019590820190600101612668565b509495945050505050565b6001600160a01b038316815260406020820181905260009061250490830184612654565b604080825283519082018190526000906020906060840190828701845b828110156127125781516001600160a01b0316845292840192908401906001016126ed565b5050506001600160a01b039490941692019190915250919050565b60018060a01b03841681528260208201526060604082015260006127546060830184612654565b95945050505050565b6001600160a01b038516815283151560208201526080810161278260408301856124bd565b82606083015295945050505050565b6001600160a01b03868116825285166020820152831515604082015260a081016127be60608301856124bd565b8260808301529695505050505050565b60006060808301868452602086818601526040838187015282875180855260809450848801915083890160005b8281101561283957815180516001600160a01b03168552868101518786015285810151868601528801518885015292860192908501906001016127fb565b50919b9a5050505050505050505050565b6000602080838503121561285d57600080fd5b825167ffffffffffffffff81111561287457600080fd5b8301601f8101851361288557600080fd5b8051612893612150826120c3565b81815260069190911b820183019083810190878311156128b257600080fd5b928401925b828410156124b257604084890312156128d05760008081fd5b6128d861206f565b84516128e3816120e7565b815284860151868201528252604090930192908401906128b7565b8082028115828204841417611aa757611aa7612525565b60008261293257634e487b7160e01b600052601260045260246000fd5b500490565b60006020828403121561294957600080fd5b8151611ed4816121fa565b6000806040838503121561296757600080fd5b50508051602090910151909290915056fea26469706673582212201b89a3df660f333d2e5a5019135860301007c1f45a29a156104037b52a3770ae64736f6c63430008140033",
  "devdoc": {
    "errors": {
      "OwnableInvalidOwner(address)": [
        {
          "details": "The owner is not a valid owner account. (eg. `address(0)`)"
        }
      ],
      "OwnableUnauthorizedAccount(address)": [
        {
          "details": "The caller account is not authorized to perform an operation."
        }
      ]
    },
    "kind": "dev",
    "methods": {
      "owner()": {
        "details": "Returns the address of the current owner."
      },
      "renounceOwnership()": {
        "details": "Leaves the contract without owner. It will not be possible to call `onlyOwner` functions. Can only be called by the current owner. NOTE: Renouncing ownership will leave the contract without an owner, thereby disabling any functionality that is only available to the owner."
      },
      "transferOwnership(address)": {
        "details": "Transfers ownership of the contract to a new account (`newOwner`). Can only be called by the current owner."
      }
    },
    "version": 1
  },
  "userdoc": {
    "kind": "user",
    "methods": {},
    "version": 1
  },
  "storageLayout": {
    "storage": [
      {
        "astId": 8,
        "contract": "contracts/RedemptionOperations.sol:RedemptionOperations",
        "label": "_owner",
        "offset": 0,
        "slot": "0",
        "type": "t_address"
      },
      {
        "astId": 14518,
        "contract": "contracts/RedemptionOperations.sol:RedemptionOperations",
        "label": "troveManager",
        "offset": 0,
        "slot": "1",
        "type": "t_contract(ITroveManager)12034"
      },
      {
        "astId": 14521,
        "contract": "contracts/RedemptionOperations.sol:RedemptionOperations",
        "label": "debtTokenManager",
        "offset": 0,
        "slot": "2",
        "type": "t_contract(IDebtTokenManager)10132"
      },
      {
        "astId": 14524,
        "contract": "contracts/RedemptionOperations.sol:RedemptionOperations",
        "label": "collTokenManager",
        "offset": 0,
        "slot": "3",
        "type": "t_contract(ICollTokenManager)9882"
      },
      {
        "astId": 14527,
        "contract": "contracts/RedemptionOperations.sol:RedemptionOperations",
        "label": "storagePool",
        "offset": 0,
        "slot": "4",
        "type": "t_contract(IStoragePool)11041"
      },
      {
        "astId": 14530,
        "contract": "contracts/RedemptionOperations.sol:RedemptionOperations",
        "label": "priceFeed",
        "offset": 0,
        "slot": "5",
        "type": "t_contract(IPriceFeed)10268"
      },
      {
        "astId": 14533,
        "contract": "contracts/RedemptionOperations.sol:RedemptionOperations",
        "label": "sortedTroves",
        "offset": 0,
        "slot": "6",
        "type": "t_contract(ISortedTroves)10608"
      }
    ],
    "types": {
      "t_address": {
        "encoding": "inplace",
        "label": "address",
        "numberOfBytes": "20"
      },
      "t_contract(ICollTokenManager)9882": {
        "encoding": "inplace",
        "label": "contract ICollTokenManager",
        "numberOfBytes": "20"
      },
      "t_contract(IDebtTokenManager)10132": {
        "encoding": "inplace",
        "label": "contract IDebtTokenManager",
        "numberOfBytes": "20"
      },
      "t_contract(IPriceFeed)10268": {
        "encoding": "inplace",
        "label": "contract IPriceFeed",
        "numberOfBytes": "20"
      },
      "t_contract(ISortedTroves)10608": {
        "encoding": "inplace",
        "label": "contract ISortedTroves",
        "numberOfBytes": "20"
      },
      "t_contract(IStoragePool)11041": {
        "encoding": "inplace",
        "label": "contract IStoragePool",
        "numberOfBytes": "20"
      },
      "t_contract(ITroveManager)12034": {
        "encoding": "inplace",
        "label": "contract ITroveManager",
        "numberOfBytes": "20"
      }
    }
  }
}