{
  "address": "0x0165878A594ca255338adfa4d48449f69242Eb8F",
  "abi": [
    {
      "inputs": [],
      "name": "FeeExceedMaxPercentage",
      "type": "error"
    },
    {
      "inputs": [],
      "name": "NotContract",
      "type": "error"
    },
    {
      "inputs": [],
      "name": "NotFromSPM",
      "type": "error"
    },
    {
      "inputs": [
        {
          "internalType": "address",
          "name": "owner",
          "type": "address"
        }
      ],
      "name": "OwnableInvalidOwner",
      "type": "error"
    },
    {
      "inputs": [
        {
          "internalType": "address",
          "name": "account",
          "type": "address"
        }
      ],
      "name": "OwnableUnauthorizedAccount",
      "type": "error"
    },
    {
      "inputs": [],
      "name": "ZeroAddress",
      "type": "error"
    },
    {
      "anonymous": false,
      "inputs": [
        {
          "indexed": true,
          "internalType": "address",
          "name": "previousOwner",
          "type": "address"
        },
        {
          "indexed": true,
          "internalType": "address",
          "name": "newOwner",
          "type": "address"
        }
      ],
      "name": "OwnershipTransferred",
      "type": "event"
    },
    {
      "anonymous": false,
      "inputs": [
        {
          "indexed": false,
          "internalType": "uint256",
          "name": "newReserveCap",
          "type": "uint256"
        },
        {
          "indexed": false,
          "internalType": "uint256",
          "name": "newGovReserveCap",
          "type": "uint256"
        }
      ],
      "name": "ReserveCapChanged",
      "type": "event"
    },
    {
      "anonymous": false,
      "inputs": [
        {
          "indexed": false,
          "internalType": "address",
          "name": "_stabilityPoolManager",
          "type": "address"
        },
        {
          "indexed": false,
          "internalType": "address",
          "name": "_priceFeed",
          "type": "address"
        },
        {
          "indexed": false,
          "internalType": "address",
          "name": "_stableDebtTokenAddress",
          "type": "address"
        },
        {
          "indexed": false,
          "internalType": "address",
          "name": "_govTokenAddress",
          "type": "address"
        }
      ],
      "name": "ReservePoolInitialized",
      "type": "event"
    },
    {
      "anonymous": false,
      "inputs": [
        {
          "indexed": false,
          "internalType": "uint256",
          "name": "govAmount",
          "type": "uint256"
        },
        {
          "indexed": false,
          "internalType": "uint256",
          "name": "stableAmount",
          "type": "uint256"
        }
      ],
      "name": "WithdrewReserves",
      "type": "event"
    },
    {
      "inputs": [],
      "name": "BORROWING_FEE_FLOOR",
      "outputs": [
        {
          "internalType": "uint256",
          "name": "",
          "type": "uint256"
        }
      ],
      "stateMutability": "view",
      "type": "function"
    },
    {
      "inputs": [],
      "name": "CCR",
      "outputs": [
        {
          "internalType": "uint256",
          "name": "",
          "type": "uint256"
        }
      ],
      "stateMutability": "view",
      "type": "function"
    },
    {
      "inputs": [],
      "name": "GOV_STAKING_ADDRESS",
      "outputs": [
        {
          "internalType": "address",
          "name": "",
          "type": "address"
        }
      ],
      "stateMutability": "view",
      "type": "function"
    },
    {
      "inputs": [],
      "name": "GOV_SWAP_FEE",
      "outputs": [
        {
          "internalType": "uint32",
          "name": "",
          "type": "uint32"
        }
      ],
      "stateMutability": "view",
      "type": "function"
    },
    {
      "inputs": [],
      "name": "MAX_BORROWING_FEE",
      "outputs": [
        {
          "internalType": "uint256",
          "name": "",
          "type": "uint256"
        }
      ],
      "stateMutability": "view",
      "type": "function"
    },
    {
      "inputs": [],
      "name": "MCR",
      "outputs": [
        {
          "internalType": "uint256",
          "name": "",
          "type": "uint256"
        }
      ],
      "stateMutability": "view",
      "type": "function"
    },
    {
      "inputs": [],
      "name": "NAME",
      "outputs": [
        {
          "internalType": "string",
          "name": "",
          "type": "string"
        }
      ],
      "stateMutability": "view",
      "type": "function"
    },
    {
      "inputs": [],
      "name": "PERCENT_DIVISOR",
      "outputs": [
        {
          "internalType": "uint256",
          "name": "",
          "type": "uint256"
        }
      ],
      "stateMutability": "view",
      "type": "function"
    },
    {
      "inputs": [],
      "name": "REDEMPTION_FEE_FLOOR",
      "outputs": [
        {
          "internalType": "uint256",
          "name": "",
          "type": "uint256"
        }
      ],
      "stateMutability": "view",
      "type": "function"
    },
    {
      "inputs": [],
      "name": "STABLE_COIN_GAS_COMPENSATION",
      "outputs": [
        {
          "internalType": "uint256",
          "name": "",
          "type": "uint256"
        }
      ],
      "stateMutability": "view",
      "type": "function"
    },
    {
      "inputs": [],
      "name": "SWAP_BASE_FEE",
      "outputs": [
        {
          "internalType": "uint32",
          "name": "",
          "type": "uint32"
        }
      ],
      "stateMutability": "view",
      "type": "function"
    },
    {
      "inputs": [],
      "name": "SWAP_FEE_PRECISION",
      "outputs": [
        {
          "internalType": "uint32",
          "name": "",
          "type": "uint32"
        }
      ],
      "stateMutability": "view",
      "type": "function"
    },
    {
      "inputs": [],
      "name": "_100pct",
      "outputs": [
        {
          "internalType": "uint256",
          "name": "",
          "type": "uint256"
        }
      ],
      "stateMutability": "view",
      "type": "function"
    },
    {
      "inputs": [],
      "name": "govReserveCap",
      "outputs": [
        {
          "internalType": "uint256",
          "name": "",
          "type": "uint256"
        }
      ],
      "stateMutability": "view",
      "type": "function"
    },
    {
      "inputs": [],
      "name": "govToken",
      "outputs": [
        {
          "internalType": "contract IERC20",
          "name": "",
          "type": "address"
        }
      ],
      "stateMutability": "view",
      "type": "function"
    },
    {
      "inputs": [],
      "name": "isGovReserveCapReached",
      "outputs": [
        {
          "internalType": "bool",
          "name": "",
          "type": "bool"
        }
      ],
      "stateMutability": "view",
      "type": "function"
    },
    {
      "inputs": [],
      "name": "owner",
      "outputs": [
        {
          "internalType": "address",
          "name": "",
          "type": "address"
        }
      ],
      "stateMutability": "view",
      "type": "function"
    },
    {
      "inputs": [],
      "name": "priceFeed",
      "outputs": [
        {
          "internalType": "contract IPriceFeed",
          "name": "",
          "type": "address"
        }
      ],
      "stateMutability": "view",
      "type": "function"
    },
    {
      "inputs": [],
      "name": "relativeStableCap",
      "outputs": [
        {
          "internalType": "uint256",
          "name": "",
          "type": "uint256"
        }
      ],
      "stateMutability": "view",
      "type": "function"
    },
    {
      "inputs": [],
      "name": "renounceOwnership",
      "outputs": [],
      "stateMutability": "nonpayable",
      "type": "function"
    },
    {
      "inputs": [
        {
          "internalType": "address",
          "name": "_stabilityPoolManager",
          "type": "address"
        },
        {
          "internalType": "address",
          "name": "_priceFeed",
          "type": "address"
        },
        {
          "internalType": "address",
          "name": "_stableDebtTokenAddress",
          "type": "address"
        },
        {
          "internalType": "address",
          "name": "_govTokenAddress",
          "type": "address"
        },
        {
          "internalType": "uint256",
          "name": "_relativeStableCap",
          "type": "uint256"
        },
        {
          "internalType": "uint256",
          "name": "_govReserveCap",
          "type": "uint256"
        }
      ],
      "name": "setAddresses",
      "outputs": [],
      "stateMutability": "nonpayable",
      "type": "function"
    },
    {
      "inputs": [
        {
          "internalType": "uint256",
          "name": "_relativeStableCap",
          "type": "uint256"
        }
      ],
      "name": "setRelativeStableCap",
      "outputs": [],
      "stateMutability": "nonpayable",
      "type": "function"
    },
    {
      "inputs": [],
      "name": "stabilityPoolManagerAddress",
      "outputs": [
        {
          "internalType": "address",
          "name": "",
          "type": "address"
        }
      ],
      "stateMutability": "view",
      "type": "function"
    },
    {
      "inputs": [],
      "name": "stableAmountUntilCap",
      "outputs": [
        {
          "internalType": "uint256",
          "name": "",
          "type": "uint256"
        }
      ],
      "stateMutability": "view",
      "type": "function"
    },
    {
      "inputs": [],
      "name": "stableDebtToken",
      "outputs": [
        {
          "internalType": "contract IDebtToken",
          "name": "",
          "type": "address"
        }
      ],
      "stateMutability": "view",
      "type": "function"
    },
    {
      "inputs": [
        {
          "internalType": "address",
          "name": "newOwner",
          "type": "address"
        }
      ],
      "name": "transferOwnership",
      "outputs": [],
      "stateMutability": "nonpayable",
      "type": "function"
    },
    {
      "inputs": [
        {
          "internalType": "address",
          "name": "stabilityPool",
          "type": "address"
        },
        {
          "internalType": "uint256",
          "name": "withdrawAmountInUSD",
          "type": "uint256"
        }
      ],
      "name": "withdrawValue",
      "outputs": [
        {
          "internalType": "uint256",
          "name": "usedGov",
          "type": "uint256"
        },
        {
          "internalType": "uint256",
          "name": "usedStable",
          "type": "uint256"
        }
      ],
      "stateMutability": "nonpayable",
      "type": "function"
    }
  ],
  "transactionHash": "0x7547dbf23af7f70b438bf73bf9250d31c9c3b728d17655a38531ad7307fab201",
  "args": [],
  "numDeployments": 1,
  "solcInputHash": "6cd4b693370de6782d041c6552000a4d",
  "bytecode": "0x608060405234801561001057600080fd5b50338061003757604051631e4fbdf760e01b81526000600482015260240160405180910390fd5b61004081610046565b50610096565b600080546001600160a01b038381166001600160a01b0319831681178455604051919092169283917f8be0079c531659141344cd1fd0a4f28419497f9722a3daafe3b4186f6b6457e09190a35050565b610e59806100a56000396000f3fe608060405234801561001057600080fd5b50600436106101a95760003560e01c806376af5d10116100f9578063e67729e311610097578063f2fde38b11610071578063f2fde38b1461037a578063f355c5e41461038d578063f8c70688146103a5578063f92d34331461021557600080fd5b8063e67729e31461035d578063ec671c8314610367578063f1bab5861461037157600080fd5b80638da5cb5b116100d35780638da5cb5b146102da5780638e2f0dcf146102eb578063a3f4df7e146102fe578063b7068dca1461033557600080fd5b806376af5d10146102a8578063794e5724146102bb5780638d63c665146102ca57600080fd5b80634870dd9a1161016657806361c773cf1161014057806361c773cf14610269578063715018a61461027c57806372fe25aa14610286578063741bef1a1461029557600080fd5b80634870dd9a14610234578063502afb041461023c5780635733d58f1461025a57600080fd5b806305268cff146101ae57806309230ad3146101de57806324092669146101f957806328d28b5b146102155780632a7f856314610223578063381532841461022c575b600080fd5b6005546101c1906001600160a01b031681565b6040516001600160a01b0390911681526020015b60405180910390f35b6101c173f39fd6e51aad88f6f4ce6ab8827279cfffb9226681565b61020766b1a2bc2ec5000081565b6040519081526020016101d5565b6102076611c37937e0800081565b61020760065481565b6102076103b8565b61020760c881565b610245610bb881565b60405163ffffffff90911681526020016101d5565b6102076714d1120d7b16000081565b6003546101c1906001600160a01b031681565b6102846104ee565b005b610207670de0b6b3a764000081565b6002546101c1906001600160a01b031681565b6102846102b6366004610b3e565b610502565b610207670f43fc2c04ee000081565b610207680ad78ebc5ac620000081565b6000546001600160a01b03166101c1565b6001546101c1906001600160a01b031681565b6103286040518060400160405280600b81526020016a14995cd95c9d99541bdbdb60aa1b81525081565b6040516101d59190610b57565b610348610343366004610bc1565b61054f565b604080519283526020830191909152016101d5565b610245620f424081565b6102456207a12081565b61020760045481565b610284610388366004610beb565b610874565b6103956108b7565b60405190151581526020016101d5565b6102846103b3366004610c06565b61092f565b600080600360009054906101000a90046001600160a01b03166001600160a01b03166318160ddd6040518163ffffffff1660e01b8152600401602060405180830381865afa15801561040e573d6000803e3d6000fd5b505050506040513d601f19601f820116820180604052508101906104329190610c6c565b90506000670de0b6b3a76400006004548361044d9190610c9b565b6104579190610cb2565b6003546040516370a0823160e01b81523060048201529192506000916001600160a01b03909116906370a0823190602401602060405180830381865afa1580156104a5573d6000803e3d6000fd5b505050506040513d601f19601f820116820180604052508101906104c99190610c6c565b90508181106104dc576000935050505090565b6104e68183610cd4565b935050505090565b6104f6610a2d565b6105006000610a5a565b565b61050a610a2d565b60048190556006546040805183815260208101929092527f443785954e58b2ee33a73b4889adaad0702a8b77eb99a3e642199739cd44f752910160405180910390a150565b60008061055a610aaa565b6005546040805163313ce56760e01b815290516000926001600160a01b03169163313ce5679160048083019260209291908290030181865afa1580156105a4573d6000803e3d6000fd5b505050506040513d601f19601f820116820180604052508101906105c89190610ce7565b6002546005546040516341976e0960e01b81526001600160a01b03918216600482015260ff9390931693506000929116906341976e0990602401602060405180830381865afa15801561061f573d6000803e3d6000fd5b505050506040513d601f19601f820116820180604052508101906106439190610c6c565b90508061065183600a610df5565b61065b9087610c9b565b6106659190610cb2565b6005546040516370a0823160e01b81523060048201529195506106de9186916001600160a01b0316906370a08231906024015b602060405180830381865afa1580156106b5573d6000803e3d6000fd5b505050506040513d601f19601f820116820180604052508101906106d99190610c6c565b610ad5565b60055460405163a9059cbb60e01b81526001600160a01b0389811660048301526024820184905292965091169063a9059cbb906044016020604051808303816000875af1158015610733573d6000803e3d6000fd5b505050506040513d601f19601f820116820180604052508101906107579190610e01565b5061076382600a610df5565b61076d8286610c9b565b6107779190610cb2565b6107819086610cd4565b6003546040516370a0823160e01b81523060048201529194506107b89185916001600160a01b0316906370a0823190602401610698565b60035460405163a9059cbb60e01b81526001600160a01b0389811660048301526024820184905292955091169063a9059cbb906044016020604051808303816000875af115801561080d573d6000803e3d6000fd5b505050506040513d601f19601f820116820180604052508101906108319190610e01565b5060408051858152602081018590527f0e607beea4bc3372335447bc71e35b9131321dd9cba84f1f68966f1dd6e0b483910160405180910390a150509250929050565b61087c610a2d565b6001600160a01b0381166108ab57604051631e4fbdf760e01b8152600060048201526024015b60405180910390fd5b6108b481610a5a565b50565b6006546005546040516370a0823160e01b8152306004820152600092916001600160a01b0316906370a0823190602401602060405180830381865afa158015610904573d6000803e3d6000fd5b505050506040513d601f19601f820116820180604052508101906109289190610c6c565b1015905090565b610937610a2d565b61094086610aef565b61094984610aef565b600180546001600160a01b038881166001600160a01b03199283168117909355600280548983169084168117909155600380548984169085168117909155600580549389169390941683179093556004869055600685905560408051948552602085019190915283019190915260608201527fafd894f25a4ae81a7ff60e67eb680f2fe87ed3a31bde51354a47fe996ad7b3109060800160405180910390a16006546040805184815260208101929092527f443785954e58b2ee33a73b4889adaad0702a8b77eb99a3e642199739cd44f752910160405180910390a1505050505050565b6000546001600160a01b031633146105005760405163118cdaa760e01b81523360048201526024016108a2565b600080546001600160a01b038381166001600160a01b0319831681178455604051919092169283917f8be0079c531659141344cd1fd0a4f28419497f9722a3daafe3b4186f6b6457e09190a35050565b6001546001600160a01b0316331461050057604051631af60e7d60e11b815260040160405180910390fd5b6000818310610ae45781610ae6565b825b90505b92915050565b6001600160a01b038116610b165760405163d92e233d60e01b815260040160405180910390fd5b803b6000819003610b3a57604051636f7c43f160e01b815260040160405180910390fd5b5050565b600060208284031215610b5057600080fd5b5035919050565b600060208083528351808285015260005b81811015610b8457858101830151858201604001528201610b68565b506000604082860101526040601f19601f8301168501019250505092915050565b80356001600160a01b0381168114610bbc57600080fd5b919050565b60008060408385031215610bd457600080fd5b610bdd83610ba5565b946020939093013593505050565b600060208284031215610bfd57600080fd5b610ae682610ba5565b60008060008060008060c08789031215610c1f57600080fd5b610c2887610ba5565b9550610c3660208801610ba5565b9450610c4460408801610ba5565b9350610c5260608801610ba5565b92506080870135915060a087013590509295509295509295565b600060208284031215610c7e57600080fd5b5051919050565b634e487b7160e01b600052601160045260246000fd5b8082028115828204841417610ae957610ae9610c85565b600082610ccf57634e487b7160e01b600052601260045260246000fd5b500490565b81810381811115610ae957610ae9610c85565b600060208284031215610cf957600080fd5b815160ff81168114610d0a57600080fd5b9392505050565b600181815b80851115610d4c578160001904821115610d3257610d32610c85565b80851615610d3f57918102915b93841c9390800290610d16565b509250929050565b600082610d6357506001610ae9565b81610d7057506000610ae9565b8160018114610d865760028114610d9057610dac565b6001915050610ae9565b60ff841115610da157610da1610c85565b50506001821b610ae9565b5060208310610133831016604e8410600b8410161715610dcf575081810a610ae9565b610dd98383610d11565b8060001904821115610ded57610ded610c85565b029392505050565b6000610ae68383610d54565b600060208284031215610e1357600080fd5b81518015158114610d0a57600080fdfea264697066735822122024e119b240d522673434dd59631307b510792992be9f25673162b62084265cc264736f6c63430008140033",
  "devdoc": {
    "errors": {
      "OwnableInvalidOwner(address)": [
        {
          "details": "The owner is not a valid owner account. (eg. `address(0)`)"
        }
      ],
      "OwnableUnauthorizedAccount(address)": [
        {
          "details": "The caller account is not authorized to perform an operation."
        }
      ]
    },
    "kind": "dev",
    "methods": {
      "owner()": {
        "details": "Returns the address of the current owner."
      },
      "renounceOwnership()": {
        "details": "Leaves the contract without owner. It will not be possible to call `onlyOwner` functions. Can only be called by the current owner. NOTE: Renouncing ownership will leave the contract without an owner, thereby disabling any functionality that is only available to the owner."
      },
      "transferOwnership(address)": {
        "details": "Transfers ownership of the contract to a new account (`newOwner`). Can only be called by the current owner."
      },
      "withdrawValue(address,uint256)": {
        "details": "Try to withdraw with gov tokens first, when not enough then stablecoins.",
        "params": {
          "stabilityPool": "Address of stability pool",
          "withdrawAmountInUSD": "USD value of amounts to withdraw (same as stable debt token amount)"
        },
        "returns": {
          "usedGov": "Gov token amount of withdrawn",
          "usedStable": "Stable token amount of withdrawn"
        }
      }
    },
    "version": 1
  },
  "userdoc": {
    "kind": "user",
    "methods": {
      "withdrawValue(address,uint256)": {
        "notice": "Withdraw reserves to stability pool to repay possible loss when offset debts"
      }
    },
    "version": 1
  },
  "storageLayout": {
    "storage": [
      {
        "astId": 8,
        "contract": "contracts/ReservePool.sol:ReservePool",
        "label": "_owner",
        "offset": 0,
        "slot": "0",
        "type": "t_address"
      },
      {
        "astId": 15575,
        "contract": "contracts/ReservePool.sol:ReservePool",
        "label": "stabilityPoolManagerAddress",
        "offset": 0,
        "slot": "1",
        "type": "t_address"
      },
      {
        "astId": 15578,
        "contract": "contracts/ReservePool.sol:ReservePool",
        "label": "priceFeed",
        "offset": 0,
        "slot": "2",
        "type": "t_contract(IPriceFeed)10268"
      },
      {
        "astId": 15581,
        "contract": "contracts/ReservePool.sol:ReservePool",
        "label": "stableDebtToken",
        "offset": 0,
        "slot": "3",
        "type": "t_contract(IDebtToken)10082"
      },
      {
        "astId": 15583,
        "contract": "contracts/ReservePool.sol:ReservePool",
        "label": "relativeStableCap",
        "offset": 0,
        "slot": "4",
        "type": "t_uint256"
      },
      {
        "astId": 15586,
        "contract": "contracts/ReservePool.sol:ReservePool",
        "label": "govToken",
        "offset": 0,
        "slot": "5",
        "type": "t_contract(IERC20)902"
      },
      {
        "astId": 15588,
        "contract": "contracts/ReservePool.sol:ReservePool",
        "label": "govReserveCap",
        "offset": 0,
        "slot": "6",
        "type": "t_uint256"
      }
    ],
    "types": {
      "t_address": {
        "encoding": "inplace",
        "label": "address",
        "numberOfBytes": "20"
      },
      "t_contract(IDebtToken)10082": {
        "encoding": "inplace",
        "label": "contract IDebtToken",
        "numberOfBytes": "20"
      },
      "t_contract(IERC20)902": {
        "encoding": "inplace",
        "label": "contract IERC20",
        "numberOfBytes": "20"
      },
      "t_contract(IPriceFeed)10268": {
        "encoding": "inplace",
        "label": "contract IPriceFeed",
        "numberOfBytes": "20"
      },
      "t_uint256": {
        "encoding": "inplace",
        "label": "uint256",
        "numberOfBytes": "32"
      }
    }
  }
}