{
  "address": "0xDc64a140Aa3E981100a9becA4E685f962f0cF6C9",
  "abi": [
    {
      "inputs": [],
      "name": "CRNotPositive",
      "type": "error"
    },
    {
      "inputs": [],
      "name": "CallerNotBrOrTrContract",
      "type": "error"
    },
    {
      "inputs": [],
      "name": "IdCantBeZero",
      "type": "error"
    },
    {
      "inputs": [],
      "name": "ListAlreadyContainsNode",
      "type": "error"
    },
    {
      "inputs": [],
      "name": "ListDoesNotContainNode",
      "type": "error"
    },
    {
      "inputs": [],
      "name": "ListIsFull",
      "type": "error"
    },
    {
      "inputs": [],
      "name": "NotContract",
      "type": "error"
    },
    {
      "inputs": [
        {
          "internalType": "address",
          "name": "owner",
          "type": "address"
        }
      ],
      "name": "OwnableInvalidOwner",
      "type": "error"
    },
    {
      "inputs": [
        {
          "internalType": "address",
          "name": "account",
          "type": "address"
        }
      ],
      "name": "OwnableUnauthorizedAccount",
      "type": "error"
    },
    {
      "inputs": [],
      "name": "SizeCantBeZero",
      "type": "error"
    },
    {
      "inputs": [],
      "name": "ZeroAddress",
      "type": "error"
    },
    {
      "anonymous": false,
      "inputs": [
        {
          "indexed": false,
          "internalType": "address",
          "name": "_id",
          "type": "address"
        },
        {
          "indexed": false,
          "internalType": "uint256",
          "name": "_CR",
          "type": "uint256"
        }
      ],
      "name": "NodeAdded",
      "type": "event"
    },
    {
      "anonymous": false,
      "inputs": [
        {
          "indexed": false,
          "internalType": "address",
          "name": "_id",
          "type": "address"
        }
      ],
      "name": "NodeRemoved",
      "type": "event"
    },
    {
      "anonymous": false,
      "inputs": [
        {
          "indexed": true,
          "internalType": "address",
          "name": "previousOwner",
          "type": "address"
        },
        {
          "indexed": true,
          "internalType": "address",
          "name": "newOwner",
          "type": "address"
        }
      ],
      "name": "OwnershipTransferred",
      "type": "event"
    },
    {
      "anonymous": false,
      "inputs": [
        {
          "indexed": false,
          "internalType": "address",
          "name": "_troveManagerAddress",
          "type": "address"
        },
        {
          "indexed": false,
          "internalType": "address",
          "name": "_borrowerOperationsAddress",
          "type": "address"
        },
        {
          "indexed": false,
          "internalType": "address",
          "name": "_redemptionOperationsAddress",
          "type": "address"
        }
      ],
      "name": "SortedTrovesInitialised",
      "type": "event"
    },
    {
      "inputs": [],
      "name": "NAME",
      "outputs": [
        {
          "internalType": "string",
          "name": "",
          "type": "string"
        }
      ],
      "stateMutability": "view",
      "type": "function"
    },
    {
      "inputs": [],
      "name": "borrowerOperationsAddress",
      "outputs": [
        {
          "internalType": "address",
          "name": "",
          "type": "address"
        }
      ],
      "stateMutability": "view",
      "type": "function"
    },
    {
      "inputs": [
        {
          "internalType": "address",
          "name": "_id",
          "type": "address"
        }
      ],
      "name": "contains",
      "outputs": [
        {
          "internalType": "bool",
          "name": "",
          "type": "bool"
        }
      ],
      "stateMutability": "view",
      "type": "function"
    },
    {
      "inputs": [],
      "name": "data",
      "outputs": [
        {
          "internalType": "address",
          "name": "head",
          "type": "address"
        },
        {
          "internalType": "address",
          "name": "tail",
          "type": "address"
        }
      ],
      "stateMutability": "view",
      "type": "function"
    },
    {
      "inputs": [
        {
          "internalType": "uint256",
          "name": "_CR",
          "type": "uint256"
        },
        {
          "internalType": "address",
          "name": "_prevId",
          "type": "address"
        },
        {
          "internalType": "address",
          "name": "_nextId",
          "type": "address"
        }
      ],
      "name": "findInsertPosition",
      "outputs": [
        {
          "internalType": "address",
          "name": "",
          "type": "address"
        },
        {
          "internalType": "address",
          "name": "",
          "type": "address"
        }
      ],
      "stateMutability": "view",
      "type": "function"
    },
    {
      "inputs": [
        {
          "internalType": "uint256",
          "name": "_index",
          "type": "uint256"
        }
      ],
      "name": "getByIndex",
      "outputs": [
        {
          "internalType": "address",
          "name": "",
          "type": "address"
        }
      ],
      "stateMutability": "view",
      "type": "function"
    },
    {
      "inputs": [],
      "name": "getFirst",
      "outputs": [
        {
          "internalType": "address",
          "name": "",
          "type": "address"
        }
      ],
      "stateMutability": "view",
      "type": "function"
    },
    {
      "inputs": [],
      "name": "getLast",
      "outputs": [
        {
          "internalType": "address",
          "name": "",
          "type": "address"
        }
      ],
      "stateMutability": "view",
      "type": "function"
    },
    {
      "inputs": [
        {
          "internalType": "address",
          "name": "_id",
          "type": "address"
        }
      ],
      "name": "getNext",
      "outputs": [
        {
          "internalType": "address",
          "name": "",
          "type": "address"
        }
      ],
      "stateMutability": "view",
      "type": "function"
    },
    {
      "inputs": [
        {
          "internalType": "address",
          "name": "_id",
          "type": "address"
        }
      ],
      "name": "getPrev",
      "outputs": [
        {
          "internalType": "address",
          "name": "",
          "type": "address"
        }
      ],
      "stateMutability": "view",
      "type": "function"
    },
    {
      "inputs": [],
      "name": "getSize",
      "outputs": [
        {
          "internalType": "uint256",
          "name": "",
          "type": "uint256"
        }
      ],
      "stateMutability": "view",
      "type": "function"
    },
    {
      "inputs": [
        {
          "internalType": "address",
          "name": "_id",
          "type": "address"
        }
      ],
      "name": "getUsedCR",
      "outputs": [
        {
          "internalType": "uint256",
          "name": "",
          "type": "uint256"
        }
      ],
      "stateMutability": "view",
      "type": "function"
    },
    {
      "inputs": [],
      "name": "isEmpty",
      "outputs": [
        {
          "internalType": "bool",
          "name": "",
          "type": "bool"
        }
      ],
      "stateMutability": "view",
      "type": "function"
    },
    {
      "inputs": [],
      "name": "owner",
      "outputs": [
        {
          "internalType": "address",
          "name": "",
          "type": "address"
        }
      ],
      "stateMutability": "view",
      "type": "function"
    },
    {
      "inputs": [],
      "name": "redemptionOperationsAddress",
      "outputs": [
        {
          "internalType": "address",
          "name": "",
          "type": "address"
        }
      ],
      "stateMutability": "view",
      "type": "function"
    },
    {
      "inputs": [
        {
          "internalType": "address",
          "name": "_id",
          "type": "address"
        }
      ],
      "name": "remove",
      "outputs": [],
      "stateMutability": "nonpayable",
      "type": "function"
    },
    {
      "inputs": [],
      "name": "renounceOwnership",
      "outputs": [],
      "stateMutability": "nonpayable",
      "type": "function"
    },
    {
      "inputs": [
        {
          "internalType": "address",
          "name": "_troveManagerAddress",
          "type": "address"
        },
        {
          "internalType": "address",
          "name": "_borrowerOperationsAddress",
          "type": "address"
        },
        {
          "internalType": "address",
          "name": "_redemptionOperationsAddress",
          "type": "address"
        }
      ],
      "name": "setAddresses",
      "outputs": [],
      "stateMutability": "nonpayable",
      "type": "function"
    },
    {
      "inputs": [
        {
          "internalType": "address",
          "name": "newOwner",
          "type": "address"
        }
      ],
      "name": "transferOwnership",
      "outputs": [],
      "stateMutability": "nonpayable",
      "type": "function"
    },
    {
      "inputs": [],
      "name": "troveManagerAddress",
      "outputs": [
        {
          "internalType": "address",
          "name": "",
          "type": "address"
        }
      ],
      "stateMutability": "view",
      "type": "function"
    },
    {
      "inputs": [
        {
          "internalType": "address",
          "name": "_id",
          "type": "address"
        },
        {
          "internalType": "uint256",
          "name": "_CR",
          "type": "uint256"
        },
        {
          "internalType": "uint256",
          "name": "_redeemableDebt",
          "type": "uint256"
        },
        {
          "internalType": "address",
          "name": "_prevId",
          "type": "address"
        },
        {
          "internalType": "address",
          "name": "_nextId",
          "type": "address"
        }
      ],
      "name": "update",
      "outputs": [],
      "stateMutability": "nonpayable",
      "type": "function"
    },
    {
      "inputs": [
        {
          "internalType": "uint256",
          "name": "_CR",
          "type": "uint256"
        },
        {
          "internalType": "address",
          "name": "_prevId",
          "type": "address"
        },
        {
          "internalType": "address",
          "name": "_nextId",
          "type": "address"
        }
      ],
      "name": "validInsertPosition",
      "outputs": [
        {
          "internalType": "bool",
          "name": "",
          "type": "bool"
        }
      ],
      "stateMutability": "view",
      "type": "function"
    }
  ],
  "transactionHash": "0x659d879f711199f9401b168fba355c58c0638ab32b56eec01b2e9df2ff06e66b",
  "args": [],
  "numDeployments": 1,
  "solcInputHash": "2e994064a5b0b2275a0351410ae7b688",
  "bytecode": "0x608060405234801561001057600080fd5b50338061003757604051631e4fbdf760e01b81526000600482015260240160405180910390fd5b61004081610046565b50610096565b600080546001600160a01b038381166001600160a01b0319831681178455604051919092169283917f8be0079c531659141344cd1fd0a4f28419497f9722a3daafe3b4186f6b6457e09190a35050565b611221806100a56000396000f3fe608060405234801561001057600080fd5b50600436106101425760003560e01c8063715018a6116100b8578063ad5557191161007c578063ad555719146102ef578063b72703ac14610302578063b7f8cf9b14610331578063de8fa43114610344578063e671bea314610356578063f2fde38b1461038257600080fd5b8063715018a61461025557806373d4a13a1461025d578063765e0159146102775780638da5cb5b146102a6578063a3f4df7e146102b757600080fd5b80633fce12d51161010a5780633fce12d5146101bf578063416980dc146101e25780634d622831146102155780635a4d28bb146102265780635dbe47e814610239578063681fe70c1461024c57600080fd5b80631e2231431461014757806329092d0e146101715780632be2615a146101865780632d883a7314610199578063363bf964146101ac575b600080fd5b6004546001600160a01b03165b6040516001600160a01b0390911681526020015b60405180910390f35b61018461017f366004611057565b610395565b005b600354610154906001600160a01b031681565b6101546101a7366004611072565b6103a9565b6101846101ba36600461108b565b6103dc565b6101d26101cd3660046110ce565b61048b565b6040519015158152602001610168565b6101f56101f03660046110ce565b6104a2565b604080516001600160a01b03938416815292909116602083015201610168565b6005546001600160a01b0316610154565b600254610154906001600160a01b031681565b6101d2610247366004611057565b6104bd565b600754156101d2565b6101846104de565b6004546005546101f5916001600160a01b03908116911682565b610154610285366004611057565b6001600160a01b039081166000908152600660205260409020600301541690565b6000546001600160a01b0316610154565b6102e26040518060400160405280600c81526020016b536f7274656454726f76657360a01b81525081565b60405161016891906110f3565b6101846102fd366004611141565b6104f2565b610154610310366004611057565b6001600160a01b039081166000908152600660205260409020600401541690565b600154610154906001600160a01b031681565b6007545b604051908152602001610168565b610348610364366004611057565b6001600160a01b031660009081526006602052604090206002015490565b610184610390366004611057565b6107d1565b61039d610811565b6103a68161086c565b50565b6000600460030182815481106103c1576103c1611198565b6000918252602090912001546001600160a01b031692915050565b6103e4610b96565b6103ed83610bc3565b6103f682610bc3565b6103ff81610bc3565b600280546001600160a01b038581166001600160a01b0319928316811790935560018054868316908416811790915560038054928616929093168217909255604080519384526020840192909252908201527f512c585e655d597ea3df1988e3f39b3f8572dfec47e1914c39223e4e72f2ff8c9060600160405180910390a16104866104de565b505050565b6000610498848484610c12565b90505b9392505050565b6000806104b0858585610d19565b915091505b935093915050565b6001600160a01b031660009081526006602052604090206001015460ff1690565b6104e6610b96565b6104f06000610e42565b565b6104fa610811565b6105038561086c565b82156107ca57610512856104bd565b1561053057604051630912365f60e01b815260040160405180910390fd5b6001600160a01b0385166105575760405163a413406560e01b815260040160405180910390fd5b8360000361057857604051630e6ef64d60e21b815260040160405180910390fd5b8181610585868383610c12565b61059a57610594868383610d19565b90925090505b6001600160a01b0382161580156105b857506001600160a01b038116155b156105ed57600480546001600160a01b0389166001600160a01b0319918216811790925560058054909116909117905561071d565b6001600160a01b03821661065257600480546001600160a01b0389811660008181526006602052604080822060030180549585166001600160a01b0319968716179055855490931681529190912083018054831682179055825490911617905561071d565b6001600160a01b0381166106b857600580546001600160a01b0389811660008181526006602052604080822060040180549585166001600160a01b031996871617905585549093168152919091206003018054831682179055825490911617905561071d565b6001600160a01b03808816600081815260066020526040808220600380820180548789166001600160a01b0319918216811790925560049384018054988b16988216891790559685528385209091018054871686179055835291200180549092161790555b6001600160a01b03871660008181526006602090815260408083206001808201805460ff191682179055600282018c9055600780549283905590820181559093527fa66cc928b5edb82af9bd49922954155ab7b0942694bea4ce44661d9a8736c68890920180546001600160a01b03191684179055815192835282018890527fe02b43adbee0c123de070a04554a71877a0007e2fc161466299cae3c094fe82f910160405180910390a150505b5050505050565b6107d9610b96565b6001600160a01b03811661080857604051631e4fbdf760e01b8152600060048201526024015b60405180910390fd5b6103a681610e42565b6001546001600160a01b0316331480159061083757506002546001600160a01b03163314155b801561084e57506003546001600160a01b03163314155b156104f057604051637699a5e760e11b815260040160405180910390fd5b610875816104bd565b61087c5750565b60075460011015610abf576004546001600160a01b03908116908216036108e6576001600160a01b0380821660009081526006602052604080822060030154600480546001600160a01b0319908116929095169182178155908352912001805490911690556109a5565b6005546001600160a01b0390811690821603610946576001600160a01b0380821660009081526006602052604080822060040154600580546001600160a01b031990811692909516918217905582529020600301805490911690556109a5565b6001600160a01b0381811660009081526006602052604080822060038082018054600493840180548816875285872090930180549188166001600160a01b03199283161790559154905486168552929093200180549190931691161790555b6001600160a01b038116600090815260066020526040902054600754811015610a8657600780546109d8906001906111ae565b815481106109e8576109e8611198565b600091825260209091200154600780546001600160a01b039092169183908110610a1457610a14611198565b9060005260206000200160006101000a8154816001600160a01b0302191690836001600160a01b03160217905550806004600201600060046003018481548110610a6057610a60611198565b60009182526020808320909101546001600160a01b031683528201929092526040019020555b6007805480610a9757610a976111d5565b600082815260209020810160001990810180546001600160a01b031916905501905550610b0f565b600480546001600160a01b03199081169091556005805490911690556007805480610aec57610aec6111d5565b600082815260209020810160001990810180546001600160a01b03191690550190555b6001600160a01b038116600081815260066020908152604080832083815560018101805460ff1916905560028101939093556003830180546001600160a01b03199081169091556004909301805490931690925590519182527fcfc24166db4bb677e857cacabd1541fb2b30645021b27c5130419589b84db52b910160405180910390a150565b6000546001600160a01b031633146104f05760405163118cdaa760e01b81523360048201526024016107ff565b6001600160a01b038116610bea5760405163d92e233d60e01b815260040160405180910390fd5b803b6000819003610c0e57604051636f7c43f160e01b815260040160405180910390fd5b5050565b60006001600160a01b038316158015610c3257506001600160a01b038216155b15610c4157506007541561049b565b6001600160a01b03808316600090815260066020526040902060020154908416610c8a576004546001600160a01b038481169116148015610c825750808510155b91505061049b565b6001600160a01b03808516600090815260066020526040902060020154908416610cd4576005546001600160a01b038681169116148015610ccb5750808611155b9250505061049b565b6001600160a01b038581166000908152600660205260409020600301548116908516148015610d035750858110155b8015610d0f5750818610155b9695505050505050565b60008083836001600160a01b03821615801590610d605750610d3a826104bd565b1580610d6057506001600160a01b03821660009081526006602052604090206002015487115b15610d6a57600091505b6001600160a01b03811615801590610dac5750610d86816104bd565b1580610dac57506001600160a01b03811660009081526006602052604090206002015487105b15610db5575060005b6001600160a01b038216158015610dd357506001600160a01b038116155b15610dfa57600454610def9088906001600160a01b0316610e92565b9350935050506104b5565b6001600160a01b038216610e1257610def8782610f68565b6001600160a01b038116610e2a57610def8783610e92565b610e348783610e92565b935093505050935093915050565b600080546001600160a01b038381166001600160a01b0319831681178455604051919092169283917f8be0079c531659141344cd1fd0a4f28419497f9722a3daafe3b4186f6b6457e09190a35050565b60045460009081906001600160a01b038481169116148015610ecf57506001600160a01b0383166000908152600660205260409020600201548410155b15610edf57506000905081610f61565b6001600160a01b038084166000908152600660205260409020600301548491165b6001600160a01b03821615801590610f205750610f1e868383610c12565b155b15610f5b57506001600160a01b0390811660009081526006602052604080822060039081015484168084529190922090910154909116610f00565b90925090505b9250929050565b60055460009081906001600160a01b038481169116148015610fa557506001600160a01b0383166000908152600660205260409020600201548411155b15610fb557508190506000610f61565b6001600160a01b038084166000908152600660205260409020600401548491165b6001600160a01b03821615801590610ff65750610ff4868284610c12565b155b1561103157506001600160a01b0390811660009081526006602052604080822060049081015484168084529190922090910154909116610fd6565b9590945092505050565b80356001600160a01b038116811461105257600080fd5b919050565b60006020828403121561106957600080fd5b61049b8261103b565b60006020828403121561108457600080fd5b5035919050565b6000806000606084860312156110a057600080fd5b6110a98461103b565b92506110b76020850161103b565b91506110c56040850161103b565b90509250925092565b6000806000606084860312156110e357600080fd5b833592506110b76020850161103b565b600060208083528351808285015260005b8181101561112057858101830151858201604001528201611104565b506000604082860101526040601f19601f8301168501019250505092915050565b600080600080600060a0868803121561115957600080fd5b6111628661103b565b9450602086013593506040860135925061117e6060870161103b565b915061118c6080870161103b565b90509295509295909350565b634e487b7160e01b600052603260045260246000fd5b818103818111156111cf57634e487b7160e01b600052601160045260246000fd5b92915050565b634e487b7160e01b600052603160045260246000fdfea2646970667358221220f5a03b843ba0d8ae670f92a25869675e9bf0631dd401bc65a4522b62d53ee00264736f6c63430008140033",
  "devdoc": {
    "errors": {
      "OwnableInvalidOwner(address)": [
        {
          "details": "The owner is not a valid owner account. (eg. `address(0)`)"
        }
      ],
      "OwnableUnauthorizedAccount(address)": [
        {
          "details": "The caller account is not authorized to perform an operation."
        }
      ]
    },
    "kind": "dev",
    "methods": {
      "owner()": {
        "details": "Returns the address of the current owner."
      },
      "renounceOwnership()": {
        "details": "Leaves the contract without owner. It will not be possible to call `onlyOwner` functions. Can only be called by the current owner. NOTE: Renouncing ownership will leave the contract without an owner, thereby disabling any functionality that is only available to the owner."
      },
      "transferOwnership(address)": {
        "details": "Transfers ownership of the contract to a new account (`newOwner`). Can only be called by the current owner."
      }
    },
    "version": 1
  },
  "userdoc": {
    "kind": "user",
    "methods": {},
    "version": 1
  },
  "storageLayout": {
    "storage": [
      {
        "astId": 8,
        "contract": "contracts/SortedTroves.sol:SortedTroves",
        "label": "_owner",
        "offset": 0,
        "slot": "0",
        "type": "t_address"
      },
      {
        "astId": 13280,
        "contract": "contracts/SortedTroves.sol:SortedTroves",
        "label": "borrowerOperationsAddress",
        "offset": 0,
        "slot": "1",
        "type": "t_address"
      },
      {
        "astId": 13282,
        "contract": "contracts/SortedTroves.sol:SortedTroves",
        "label": "troveManagerAddress",
        "offset": 0,
        "slot": "2",
        "type": "t_address"
      },
      {
        "astId": 13284,
        "contract": "contracts/SortedTroves.sol:SortedTroves",
        "label": "redemptionOperationsAddress",
        "offset": 0,
        "slot": "3",
        "type": "t_address"
      },
      {
        "astId": 13311,
        "contract": "contracts/SortedTroves.sol:SortedTroves",
        "label": "data",
        "offset": 0,
        "slot": "4",
        "type": "t_struct(Data)13308_storage"
      }
    ],
    "types": {
      "t_address": {
        "encoding": "inplace",
        "label": "address",
        "numberOfBytes": "20"
      },
      "t_array(t_address)dyn_storage": {
        "base": "t_address",
        "encoding": "dynamic_array",
        "label": "address[]",
        "numberOfBytes": "32"
      },
      "t_bool": {
        "encoding": "inplace",
        "label": "bool",
        "numberOfBytes": "1"
      },
      "t_mapping(t_address,t_struct(Node)13295_storage)": {
        "encoding": "mapping",
        "key": "t_address",
        "label": "mapping(address => struct SortedTroves.Node)",
        "numberOfBytes": "32",
        "value": "t_struct(Node)13295_storage"
      },
      "t_struct(Data)13308_storage": {
        "encoding": "inplace",
        "label": "struct SortedTroves.Data",
        "members": [
          {
            "astId": 13297,
            "contract": "contracts/SortedTroves.sol:SortedTroves",
            "label": "head",
            "offset": 0,
            "slot": "0",
            "type": "t_address"
          },
          {
            "astId": 13299,
            "contract": "contracts/SortedTroves.sol:SortedTroves",
            "label": "tail",
            "offset": 0,
            "slot": "1",
            "type": "t_address"
          },
          {
            "astId": 13304,
            "contract": "contracts/SortedTroves.sol:SortedTroves",
            "label": "nodes",
            "offset": 0,
            "slot": "2",
            "type": "t_mapping(t_address,t_struct(Node)13295_storage)"
          },
          {
            "astId": 13307,
            "contract": "contracts/SortedTroves.sol:SortedTroves",
            "label": "list",
            "offset": 0,
            "slot": "3",
            "type": "t_array(t_address)dyn_storage"
          }
        ],
        "numberOfBytes": "128"
      },
      "t_struct(Node)13295_storage": {
        "encoding": "inplace",
        "label": "struct SortedTroves.Node",
        "members": [
          {
            "astId": 13286,
            "contract": "contracts/SortedTroves.sol:SortedTroves",
            "label": "listIndex",
            "offset": 0,
            "slot": "0",
            "type": "t_uint256"
          },
          {
            "astId": 13288,
            "contract": "contracts/SortedTroves.sol:SortedTroves",
            "label": "exists",
            "offset": 0,
            "slot": "1",
            "type": "t_bool"
          },
          {
            "astId": 13290,
            "contract": "contracts/SortedTroves.sol:SortedTroves",
            "label": "usedCR",
            "offset": 0,
            "slot": "2",
            "type": "t_uint256"
          },
          {
            "astId": 13292,
            "contract": "contracts/SortedTroves.sol:SortedTroves",
            "label": "nextId",
            "offset": 0,
            "slot": "3",
            "type": "t_address"
          },
          {
            "astId": 13294,
            "contract": "contracts/SortedTroves.sol:SortedTroves",
            "label": "prevId",
            "offset": 0,
            "slot": "4",
            "type": "t_address"
          }
        ],
        "numberOfBytes": "160"
      },
      "t_uint256": {
        "encoding": "inplace",
        "label": "uint256",
        "numberOfBytes": "32"
      }
    }
  }
}