{
  "address": "0x5FC8d32690cc91D4c39d9d3abcBD16989F875707",
  "abi": [
    {
      "inputs": [],
      "name": "FeeExceedMaxPercentage",
      "type": "error"
    },
    {
      "inputs": [],
      "name": "NotContract",
      "type": "error"
    },
    {
      "inputs": [],
      "name": "NotFromBOorTroveMorSP",
      "type": "error"
    },
    {
      "inputs": [
        {
          "internalType": "address",
          "name": "owner",
          "type": "address"
        }
      ],
      "name": "OwnableInvalidOwner",
      "type": "error"
    },
    {
      "inputs": [
        {
          "internalType": "address",
          "name": "account",
          "type": "address"
        }
      ],
      "name": "OwnableUnauthorizedAccount",
      "type": "error"
    },
    {
      "inputs": [],
      "name": "ZeroAddress",
      "type": "error"
    },
    {
      "anonymous": false,
      "inputs": [
        {
          "indexed": true,
          "internalType": "address",
          "name": "previousOwner",
          "type": "address"
        },
        {
          "indexed": true,
          "internalType": "address",
          "name": "newOwner",
          "type": "address"
        }
      ],
      "name": "OwnershipTransferred",
      "type": "event"
    },
    {
      "anonymous": false,
      "inputs": [
        {
          "indexed": false,
          "internalType": "address",
          "name": "_borrowerOperationsAddress",
          "type": "address"
        },
        {
          "indexed": false,
          "internalType": "address",
          "name": "_troveManagerAddress",
          "type": "address"
        },
        {
          "indexed": false,
          "internalType": "address",
          "name": "_redemptionOperationsAddress",
          "type": "address"
        },
        {
          "indexed": false,
          "internalType": "address",
          "name": "_liquidationOperationsAddress",
          "type": "address"
        },
        {
          "indexed": false,
          "internalType": "address",
          "name": "_stabilityPoolManagerAddress",
          "type": "address"
        },
        {
          "indexed": false,
          "internalType": "address",
          "name": "_priceFeedAddress",
          "type": "address"
        }
      ],
      "name": "StoragePoolInitialized",
      "type": "event"
    },
    {
      "anonymous": false,
      "inputs": [
        {
          "indexed": false,
          "internalType": "address",
          "name": "_tokenAddress",
          "type": "address"
        },
        {
          "indexed": false,
          "internalType": "bool",
          "name": "_isColl",
          "type": "bool"
        },
        {
          "indexed": false,
          "internalType": "enum IBase.PoolType",
          "name": "_poolType",
          "type": "uint8"
        },
        {
          "indexed": false,
          "internalType": "uint256",
          "name": "_updatedAmount",
          "type": "uint256"
        }
      ],
      "name": "StoragePoolValueUpdated",
      "type": "event"
    },
    {
      "inputs": [],
      "name": "BORROWING_FEE_FLOOR",
      "outputs": [
        {
          "internalType": "uint256",
          "name": "",
          "type": "uint256"
        }
      ],
      "stateMutability": "view",
      "type": "function"
    },
    {
      "inputs": [],
      "name": "CCR",
      "outputs": [
        {
          "internalType": "uint256",
          "name": "",
          "type": "uint256"
        }
      ],
      "stateMutability": "view",
      "type": "function"
    },
    {
      "inputs": [],
      "name": "MAX_BORROWING_FEE",
      "outputs": [
        {
          "internalType": "uint256",
          "name": "",
          "type": "uint256"
        }
      ],
      "stateMutability": "view",
      "type": "function"
    },
    {
      "inputs": [],
      "name": "MCR",
      "outputs": [
        {
          "internalType": "uint256",
          "name": "",
          "type": "uint256"
        }
      ],
      "stateMutability": "view",
      "type": "function"
    },
    {
      "inputs": [],
      "name": "NAME",
      "outputs": [
        {
          "internalType": "string",
          "name": "",
          "type": "string"
        }
      ],
      "stateMutability": "view",
      "type": "function"
    },
    {
      "inputs": [],
      "name": "PERCENT_DIVISOR",
      "outputs": [
        {
          "internalType": "uint256",
          "name": "",
          "type": "uint256"
        }
      ],
      "stateMutability": "view",
      "type": "function"
    },
    {
      "inputs": [],
      "name": "REDEMPTION_FEE_FLOOR",
      "outputs": [
        {
          "internalType": "uint256",
          "name": "",
          "type": "uint256"
        }
      ],
      "stateMutability": "view",
      "type": "function"
    },
    {
      "inputs": [],
      "name": "STABLE_COIN_GAS_COMPENSATION",
      "outputs": [
        {
          "internalType": "uint256",
          "name": "",
          "type": "uint256"
        }
      ],
      "stateMutability": "view",
      "type": "function"
    },
    {
      "inputs": [],
      "name": "SWAP_BASE_FEE",
      "outputs": [
        {
          "internalType": "uint32",
          "name": "",
          "type": "uint32"
        }
      ],
      "stateMutability": "view",
      "type": "function"
    },
    {
      "inputs": [],
      "name": "SWAP_FEE_PRECISION",
      "outputs": [
        {
          "internalType": "uint32",
          "name": "",
          "type": "uint32"
        }
      ],
      "stateMutability": "view",
      "type": "function"
    },
    {
      "inputs": [],
      "name": "_100pct",
      "outputs": [
        {
          "internalType": "uint256",
          "name": "",
          "type": "uint256"
        }
      ],
      "stateMutability": "view",
      "type": "function"
    },
    {
      "inputs": [
        {
          "internalType": "address",
          "name": "_tokenAddress",
          "type": "address"
        },
        {
          "internalType": "bool",
          "name": "_isColl",
          "type": "bool"
        },
        {
          "internalType": "enum IBase.PoolType",
          "name": "_poolType",
          "type": "uint8"
        },
        {
          "internalType": "uint256",
          "name": "_amount",
          "type": "uint256"
        }
      ],
      "name": "addValue",
      "outputs": [],
      "stateMutability": "nonpayable",
      "type": "function"
    },
    {
      "inputs": [],
      "name": "borrowerOperationsAddress",
      "outputs": [
        {
          "internalType": "address",
          "name": "",
          "type": "address"
        }
      ],
      "stateMutability": "view",
      "type": "function"
    },
    {
      "inputs": [],
      "name": "checkRecoveryMode",
      "outputs": [
        {
          "internalType": "bool",
          "name": "isInRecoveryMode",
          "type": "bool"
        },
        {
          "internalType": "uint256",
          "name": "TCR",
          "type": "uint256"
        },
        {
          "internalType": "uint256",
          "name": "entireSystemColl",
          "type": "uint256"
        },
        {
          "internalType": "uint256",
          "name": "entireSystemDebt",
          "type": "uint256"
        }
      ],
      "stateMutability": "view",
      "type": "function"
    },
    {
      "inputs": [
        {
          "internalType": "uint256",
          "name": "",
          "type": "uint256"
        }
      ],
      "name": "collTokenAddresses",
      "outputs": [
        {
          "internalType": "address",
          "name": "",
          "type": "address"
        }
      ],
      "stateMutability": "view",
      "type": "function"
    },
    {
      "inputs": [
        {
          "internalType": "uint256",
          "name": "",
          "type": "uint256"
        }
      ],
      "name": "debtTokenAddresses",
      "outputs": [
        {
          "internalType": "address",
          "name": "",
          "type": "address"
        }
      ],
      "stateMutability": "view",
      "type": "function"
    },
    {
      "inputs": [],
      "name": "getEntireSystemColl",
      "outputs": [
        {
          "internalType": "uint256",
          "name": "entireSystemColl",
          "type": "uint256"
        }
      ],
      "stateMutability": "view",
      "type": "function"
    },
    {
      "inputs": [],
      "name": "getEntireSystemDebt",
      "outputs": [
        {
          "internalType": "uint256",
          "name": "entireSystemDebt",
          "type": "uint256"
        }
      ],
      "stateMutability": "view",
      "type": "function"
    },
    {
      "inputs": [
        {
          "internalType": "address",
          "name": "_tokenAddress",
          "type": "address"
        },
        {
          "internalType": "bool",
          "name": "_isColl",
          "type": "bool"
        }
      ],
      "name": "getTokenTotalAmount",
      "outputs": [
        {
          "internalType": "uint256",
          "name": "",
          "type": "uint256"
        }
      ],
      "stateMutability": "view",
      "type": "function"
    },
    {
      "inputs": [
        {
          "internalType": "address",
          "name": "_tokenAddress",
          "type": "address"
        },
        {
          "internalType": "bool",
          "name": "_isColl",
          "type": "bool"
        },
        {
          "internalType": "enum IBase.PoolType",
          "name": "_poolType",
          "type": "uint8"
        }
      ],
      "name": "getValue",
      "outputs": [
        {
          "internalType": "uint256",
          "name": "",
          "type": "uint256"
        }
      ],
      "stateMutability": "view",
      "type": "function"
    },
    {
      "inputs": [],
      "name": "liquidationOperationsAddress",
      "outputs": [
        {
          "internalType": "address",
          "name": "",
          "type": "address"
        }
      ],
      "stateMutability": "view",
      "type": "function"
    },
    {
      "inputs": [],
      "name": "owner",
      "outputs": [
        {
          "internalType": "address",
          "name": "",
          "type": "address"
        }
      ],
      "stateMutability": "view",
      "type": "function"
    },
    {
      "inputs": [],
      "name": "priceFeed",
      "outputs": [
        {
          "internalType": "contract IPriceFeed",
          "name": "",
          "type": "address"
        }
      ],
      "stateMutability": "view",
      "type": "function"
    },
    {
      "inputs": [],
      "name": "redemptionOperationsAddress",
      "outputs": [
        {
          "internalType": "address",
          "name": "",
          "type": "address"
        }
      ],
      "stateMutability": "view",
      "type": "function"
    },
    {
      "inputs": [],
      "name": "renounceOwnership",
      "outputs": [],
      "stateMutability": "nonpayable",
      "type": "function"
    },
    {
      "inputs": [
        {
          "internalType": "address",
          "name": "_borrowerOperationsAddress",
          "type": "address"
        },
        {
          "internalType": "address",
          "name": "_troveManagerAddress",
          "type": "address"
        },
        {
          "internalType": "address",
          "name": "_redemptionOperationsAddress",
          "type": "address"
        },
        {
          "internalType": "address",
          "name": "_liquidationOperationsAddress",
          "type": "address"
        },
        {
          "internalType": "address",
          "name": "_stabilityPoolManagerAddress",
          "type": "address"
        },
        {
          "internalType": "address",
          "name": "_priceFeedAddress",
          "type": "address"
        }
      ],
      "name": "setAddresses",
      "outputs": [],
      "stateMutability": "nonpayable",
      "type": "function"
    },
    {
      "inputs": [],
      "name": "stabilityPoolManagerAddress",
      "outputs": [
        {
          "internalType": "address",
          "name": "",
          "type": "address"
        }
      ],
      "stateMutability": "view",
      "type": "function"
    },
    {
      "inputs": [
        {
          "internalType": "address",
          "name": "_tokenAddress",
          "type": "address"
        },
        {
          "internalType": "bool",
          "name": "_isColl",
          "type": "bool"
        },
        {
          "internalType": "enum IBase.PoolType",
          "name": "_poolType",
          "type": "uint8"
        },
        {
          "internalType": "uint256",
          "name": "_amount",
          "type": "uint256"
        }
      ],
      "name": "subtractValue",
      "outputs": [],
      "stateMutability": "nonpayable",
      "type": "function"
    },
    {
      "inputs": [
        {
          "internalType": "address",
          "name": "_tokenAddress",
          "type": "address"
        },
        {
          "internalType": "bool",
          "name": "_isColl",
          "type": "bool"
        },
        {
          "internalType": "enum IBase.PoolType",
          "name": "_fromType",
          "type": "uint8"
        },
        {
          "internalType": "enum IBase.PoolType",
          "name": "_toType",
          "type": "uint8"
        },
        {
          "internalType": "uint256",
          "name": "_amount",
          "type": "uint256"
        }
      ],
      "name": "transferBetweenTypes",
      "outputs": [],
      "stateMutability": "nonpayable",
      "type": "function"
    },
    {
      "inputs": [
        {
          "internalType": "address",
          "name": "newOwner",
          "type": "address"
        }
      ],
      "name": "transferOwnership",
      "outputs": [],
      "stateMutability": "nonpayable",
      "type": "function"
    },
    {
      "inputs": [],
      "name": "troveManagerAddress",
      "outputs": [
        {
          "internalType": "address",
          "name": "",
          "type": "address"
        }
      ],
      "stateMutability": "view",
      "type": "function"
    },
    {
      "inputs": [
        {
          "internalType": "address",
          "name": "_receiver",
          "type": "address"
        },
        {
          "internalType": "address",
          "name": "_tokenAddress",
          "type": "address"
        },
        {
          "internalType": "bool",
          "name": "_isColl",
          "type": "bool"
        },
        {
          "internalType": "enum IBase.PoolType",
          "name": "_poolType",
          "type": "uint8"
        },
        {
          "internalType": "uint256",
          "name": "_amount",
          "type": "uint256"
        }
      ],
      "name": "withdrawalValue",
      "outputs": [],
      "stateMutability": "nonpayable",
      "type": "function"
    }
  ],
  "transactionHash": "0xde7ecae8cf3904084b6bf1f59802be2a63396260e4af452f5f39dbaecd487e3a",
  "args": [],
  "numDeployments": 1,
  "solcInputHash": "a6d55ae1f6eb61d657352227caab6412",
  "bytecode": "0x608060405234801561001057600080fd5b50338061003757604051631e4fbdf760e01b81526000600482015260240160405180910390fd5b61004081610046565b50610096565b600080546001600160a01b038381166001600160a01b0319831681178455604051919092169283917f8be0079c531659141344cd1fd0a4f28419497f9722a3daafe3b4186f6b6457e09190a35050565b6114ed806100a56000396000f3fe608060405234801561001057600080fd5b50600436106101f05760003560e01c8063795d26c31161010f578063b403b997116100a2578063e67729e311610071578063e67729e314610435578063e85375341461043f578063f2fde38b14610452578063f92d34331461022b57600080fd5b8063b403b997146103e9578063b7f8cf9b146103fc578063d05f35001461040f578063e24404841461042257600080fd5b80638e2f0dcf116100de5780638e2f0dcf14610379578063a33d8e141461038c578063a3f4df7e1461039f578063b09f902c146103d657600080fd5b8063795d26c314610348578063887105d3146103505780638d63c665146103585780638da5cb5b1461036857600080fd5b80635a4d28bb1161018757806371a9d4181161015657806371a9d4181461030457806372fe25aa14610317578063741bef1a14610326578063794e57241461033957600080fd5b80635a4d28bb146102c35780635ebdb11a146102d65780636cfb6bf9146102e9578063715018a6146102fc57600080fd5b806343a124fa116101c357806343a124fa146102645780634870dd9a1461028e578063502afb04146102965780635733d58f146102b457600080fd5b806312e1aab4146101f5578063240926691461020a57806328d28b5b1461022b5780632be2615a14610239575b600080fd5b6102086102033660046110d7565b610465565b005b61021866b1a2bc2ec5000081565b6040519081526020015b60405180910390f35b6102186611c37937e0800081565b60035461024c906001600160a01b031681565b6040516001600160a01b039091168152602001610222565b61026c61047f565b6040805194151585526020850193909352918301526060820152608001610222565b61021860c881565b61029f610bb881565b60405163ffffffff9091168152602001610222565b6102186714d1120d7b16000081565b60025461024c906001600160a01b031681565b6102086102e4366004611124565b61056c565b6102086102f7366004611182565b610752565b61020861085e565b61024c6103123660046111f6565b610872565b610218670de0b6b3a764000081565b60065461024c906001600160a01b031681565b610218670f43fc2c04ee000081565b61021861089c565b6102186109cc565b610218680ad78ebc5ac620000081565b6000546001600160a01b031661024c565b60055461024c906001600160a01b031681565b61024c61039a3660046111f6565b610af8565b6103c96040518060400160405280600b81526020016a14dd1bdc9859d9541bdbdb60aa1b81525081565b604051610222919061120f565b6102186103e436600461125d565b610b08565b6102086103f7366004611294565b610b38565b60015461024c906001600160a01b031681565b61021861041d3660046112d3565b610bbf565b6102086104303660046110d7565b610c26565b61029f620f424081565b60045461024c906001600160a01b031681565b610208610460366004611318565b610e2a565b61046d610e68565b61047984848484610ef1565b50505050565b600080600080306001600160a01b031663887105d36040518163ffffffff1660e01b8152600401602060405180830381865afa1580156104c3573d6000803e3d6000fd5b505050506040513d601f19601f820116820180604052508101906104e7919061133a565b9150306001600160a01b031663795d26c36040518163ffffffff1660e01b8152600401602060405180830381865afa158015610527573d6000803e3d6000fd5b505050506040513d601f19601f8201168201806040525081019061054b919061133a565b90506105578282610f9c565b92506714d1120d7b1600008310935090919293565b610574610e68565b6001600160a01b038516600090815260076020908152604080832087151584529091529020600381015460ff166105c65760405162461bcd60e51b81526004016105bd90611353565b60405180910390fd5b818160020160008660028111156105df576105df611398565b60028111156105f0576105f0611398565b8152602001908152602001600020600082825461060d91906113c4565b925050819055507f9cdc80e7ef9e06e67df996a29f1e4f72fe5b33458cbb0924cb4b5d6c24be215e86868684600201600089600281111561065057610650611398565b600281111561066157610661611398565b81526020019081526020016000205460405161068094939291906113d7565b60405180910390a1818160020160008560028111156106a1576106a1611398565b60028111156106b2576106b2611398565b815260200190815260200160002060008282546106cf919061141f565b925050819055507f9cdc80e7ef9e06e67df996a29f1e4f72fe5b33458cbb0924cb4b5d6c24be215e86868584600201600088600281111561071257610712611398565b600281111561072357610723611398565b81526020019081526020016000205460405161074294939291906113d7565b60405180910390a1505050505050565b61075a610fd2565b61076386610fff565b61076c85610fff565b61077584610fff565b61077e83610fff565b61078782610fff565b61079081610fff565b600180546001600160a01b038881166001600160a01b0319928316811790935560028054898316908416811790915560038054898416908516811790915560048054898516908616811790915560058054898616908716811790915560068054958916959096168517909555604080519687526020870193909352918501526060840152608083019190915260a08201527f954ea1c03f74511a05013f2fb599edaab4596ae212080d07af723c9a8b1bd0439060c00160405180910390a161085661085e565b505050505050565b610866610fd2565b610870600061104e565b565b6008818154811061088257600080fd5b6000918252602090912001546001600160a01b0316905081565b6006546000906001600160a01b0316815b6009548110156109c757816001600160a01b031663fa76dcf2600983815481106108d9576108d9611432565b9060005260206000200160009054906101000a90046001600160a01b0316600760006009868154811061090e5761090e611432565b6000918252602080832091909101546001600160a01b0390811684528382019490945260409283018220828052905281902060010154905160e085901b6001600160e01b03191681529290911660048301526024820152604401602060405180830381865afa158015610985573d6000803e3d6000fd5b505050506040513d601f19601f820116820180604052508101906109a9919061133a565b6109b3908461141f565b9250806109bf81611448565b9150506108ad565b505090565b6006546000906001600160a01b0316815b6008548110156109c757816001600160a01b031663fa76dcf260088381548110610a0957610a09611432565b9060005260206000200160009054906101000a90046001600160a01b03166007600060088681548110610a3e57610a3e611432565b6000918252602080832091909101546001600160a01b039081168452838201949094526040928301822060018084529152908290200154905160e085901b6001600160e01b03191681529290911660048301526024820152604401602060405180830381865afa158015610ab6573d6000803e3d6000fd5b505050506040513d601f19601f82011682018060405250810190610ada919061133a565b610ae4908461141f565b925080610af081611448565b9150506109dd565b6009818154811061088257600080fd5b6001600160a01b038216600090815260076020908152604080832084151584529091529020600101545b92915050565b610b40610e68565b610b4c84848484610ef1565b60405163a9059cbb60e01b81526001600160a01b0386811660048301526024820183905285169063a9059cbb906044016020604051808303816000875af1158015610b9b573d6000803e3d6000fd5b505050506040513d601f19601f820116820180604052508101906108569190611461565b6001600160a01b03831660009081526007602090815260408083208515158452909152812060029081019082908490811115610bfd57610bfd611398565b6002811115610c0e57610c0e611398565b81526020019081526020016000205490509392505050565b610c2e610e68565b6001600160a01b038416600090815260076020908152604080832086151584529091529020600381015460ff16610d46576001600160a01b0385166000818152600760209081526040808320881580158552925290912060038101805460ff1916600117905580546001600160a01b031916909217909155610cfa57600880546001810182556000919091527ff3f7a9fe364faab93b216da50a3214154f22a0a2b415b23a84c8169e8b636ee30180546001600160a01b0319166001600160a01b038716179055610d46565b600980546001810182556000919091527f6e1540171b6c0c960b71a7020d9f60077f6af931a8bbf590da0223dacf75c7af0180546001600160a01b0319166001600160a01b0387161790555b81816002016000856002811115610d5f57610d5f611398565b6002811115610d7057610d70611398565b81526020019081526020016000206000828254610d8d919061141f565b9250508190555081816001016000828254610da8919061141f565b925050819055507f9cdc80e7ef9e06e67df996a29f1e4f72fe5b33458cbb0924cb4b5d6c24be215e858585846002016000886002811115610deb57610deb611398565b6002811115610dfc57610dfc611398565b815260200190815260200160002054604051610e1b94939291906113d7565b60405180910390a15050505050565b610e32610fd2565b6001600160a01b038116610e5c57604051631e4fbdf760e01b8152600060048201526024016105bd565b610e658161104e565b50565b6001546001600160a01b03163314801590610e8e57506002546001600160a01b03163314155b8015610ea557506005546001600160a01b03163314155b8015610ebc57506003546001600160a01b03163314155b8015610ed357506004546001600160a01b03163314155b156108705760405163229a92c760e21b815260040160405180910390fd5b6001600160a01b038416600090815260076020908152604080832086151584529091529020600381015460ff16610f3a5760405162461bcd60e51b81526004016105bd90611353565b81816002016000856002811115610f5357610f53611398565b6002811115610f6457610f64611398565b81526020019081526020016000206000828254610f8191906113c4565b9250508190555081816001016000828254610da891906113c4565b60008115610fc85781610fb7670de0b6b3a76400008561147e565b610fc19190611495565b9050610b32565b5060001992915050565b6000546001600160a01b031633146108705760405163118cdaa760e01b81523360048201526024016105bd565b6001600160a01b0381166110265760405163d92e233d60e01b815260040160405180910390fd5b803b600081900361104a57604051636f7c43f160e01b815260040160405180910390fd5b5050565b600080546001600160a01b038381166001600160a01b0319831681178455604051919092169283917f8be0079c531659141344cd1fd0a4f28419497f9722a3daafe3b4186f6b6457e09190a35050565b80356001600160a01b03811681146110b557600080fd5b919050565b8015158114610e6557600080fd5b8035600381106110b557600080fd5b600080600080608085870312156110ed57600080fd5b6110f68561109e565b93506020850135611106816110ba565b9250611114604086016110c8565b9396929550929360600135925050565b600080600080600060a0868803121561113c57600080fd5b6111458661109e565b94506020860135611155816110ba565b9350611163604087016110c8565b9250611171606087016110c8565b949793965091946080013592915050565b60008060008060008060c0878903121561119b57600080fd5b6111a48761109e565b95506111b26020880161109e565b94506111c06040880161109e565b93506111ce6060880161109e565b92506111dc6080880161109e565b91506111ea60a0880161109e565b90509295509295509295565b60006020828403121561120857600080fd5b5035919050565b600060208083528351808285015260005b8181101561123c57858101830151858201604001528201611220565b506000604082860101526040601f19601f8301168501019250505092915050565b6000806040838503121561127057600080fd5b6112798361109e565b91506020830135611289816110ba565b809150509250929050565b600080600080600060a086880312156112ac57600080fd5b6112b58661109e565b94506112c36020870161109e565b93506040860135611163816110ba565b6000806000606084860312156112e857600080fd5b6112f18461109e565b92506020840135611301816110ba565b915061130f604085016110c8565b90509250925092565b60006020828403121561132a57600080fd5b6113338261109e565b9392505050565b60006020828403121561134c57600080fd5b5051919050565b60208082526025908201527f53746f72616765506f6f6c3a20506f6f6c456e74727920646f6573206e6f7420604082015264195e1a5cdd60da1b606082015260800190565b634e487b7160e01b600052602160045260246000fd5b634e487b7160e01b600052601160045260246000fd5b81810381811115610b3257610b326113ae565b6001600160a01b03851681528315156020820152608081016003841061140d57634e487b7160e01b600052602160045260246000fd5b60408201939093526060015292915050565b80820180821115610b3257610b326113ae565b634e487b7160e01b600052603260045260246000fd5b60006001820161145a5761145a6113ae565b5060010190565b60006020828403121561147357600080fd5b8151611333816110ba565b8082028115828204841417610b3257610b326113ae565b6000826114b257634e487b7160e01b600052601260045260246000fd5b50049056fea2646970667358221220753fcddaf17bd4d8a56aaf47b10542661955706b6ee44fe758d71c5ad21e729064736f6c63430008140033",
  "devdoc": {
    "errors": {
      "OwnableInvalidOwner(address)": [
        {
          "details": "The owner is not a valid owner account. (eg. `address(0)`)"
        }
      ],
      "OwnableUnauthorizedAccount(address)": [
        {
          "details": "The caller account is not authorized to perform an operation."
        }
      ]
    },
    "kind": "dev",
    "methods": {
      "owner()": {
        "details": "Returns the address of the current owner."
      },
      "renounceOwnership()": {
        "details": "Leaves the contract without owner. It will not be possible to call `onlyOwner` functions. Can only be called by the current owner. NOTE: Renouncing ownership will leave the contract without an owner, thereby disabling any functionality that is only available to the owner."
      },
      "transferOwnership(address)": {
        "details": "Transfers ownership of the contract to a new account (`newOwner`). Can only be called by the current owner."
      }
    },
    "version": 1
  },
  "userdoc": {
    "kind": "user",
    "methods": {},
    "version": 1
  },
  "storageLayout": {
    "storage": [
      {
        "astId": 8,
        "contract": "contracts/StoragePool.sol:StoragePool",
        "label": "_owner",
        "offset": 0,
        "slot": "0",
        "type": "t_address"
      },
      {
        "astId": 16712,
        "contract": "contracts/StoragePool.sol:StoragePool",
        "label": "borrowerOperationsAddress",
        "offset": 0,
        "slot": "1",
        "type": "t_address"
      },
      {
        "astId": 16714,
        "contract": "contracts/StoragePool.sol:StoragePool",
        "label": "troveManagerAddress",
        "offset": 0,
        "slot": "2",
        "type": "t_address"
      },
      {
        "astId": 16716,
        "contract": "contracts/StoragePool.sol:StoragePool",
        "label": "redemptionOperationsAddress",
        "offset": 0,
        "slot": "3",
        "type": "t_address"
      },
      {
        "astId": 16718,
        "contract": "contracts/StoragePool.sol:StoragePool",
        "label": "liquidationOperationsAddress",
        "offset": 0,
        "slot": "4",
        "type": "t_address"
      },
      {
        "astId": 16720,
        "contract": "contracts/StoragePool.sol:StoragePool",
        "label": "stabilityPoolManagerAddress",
        "offset": 0,
        "slot": "5",
        "type": "t_address"
      },
      {
        "astId": 16723,
        "contract": "contracts/StoragePool.sol:StoragePool",
        "label": "priceFeed",
        "offset": 0,
        "slot": "6",
        "type": "t_contract(IPriceFeed)8583"
      },
      {
        "astId": 16742,
        "contract": "contracts/StoragePool.sol:StoragePool",
        "label": "poolEntries",
        "offset": 0,
        "slot": "7",
        "type": "t_mapping(t_address,t_mapping(t_bool,t_struct(PoolEntry)16735_storage))"
      },
      {
        "astId": 16745,
        "contract": "contracts/StoragePool.sol:StoragePool",
        "label": "collTokenAddresses",
        "offset": 0,
        "slot": "8",
        "type": "t_array(t_address)dyn_storage"
      },
      {
        "astId": 16748,
        "contract": "contracts/StoragePool.sol:StoragePool",
        "label": "debtTokenAddresses",
        "offset": 0,
        "slot": "9",
        "type": "t_array(t_address)dyn_storage"
      }
    ],
    "types": {
      "t_address": {
        "encoding": "inplace",
        "label": "address",
        "numberOfBytes": "20"
      },
      "t_array(t_address)dyn_storage": {
        "base": "t_address",
        "encoding": "dynamic_array",
        "label": "address[]",
        "numberOfBytes": "32"
      },
      "t_bool": {
        "encoding": "inplace",
        "label": "bool",
        "numberOfBytes": "1"
      },
      "t_contract(IPriceFeed)8583": {
        "encoding": "inplace",
        "label": "contract IPriceFeed",
        "numberOfBytes": "20"
      },
      "t_enum(PoolType)8017": {
        "encoding": "inplace",
        "label": "enum IBase.PoolType",
        "numberOfBytes": "1"
      },
      "t_mapping(t_address,t_mapping(t_bool,t_struct(PoolEntry)16735_storage))": {
        "encoding": "mapping",
        "key": "t_address",
        "label": "mapping(address => mapping(bool => struct StoragePool.PoolEntry))",
        "numberOfBytes": "32",
        "value": "t_mapping(t_bool,t_struct(PoolEntry)16735_storage)"
      },
      "t_mapping(t_bool,t_struct(PoolEntry)16735_storage)": {
        "encoding": "mapping",
        "key": "t_bool",
        "label": "mapping(bool => struct StoragePool.PoolEntry)",
        "numberOfBytes": "32",
        "value": "t_struct(PoolEntry)16735_storage"
      },
      "t_mapping(t_enum(PoolType)8017,t_uint256)": {
        "encoding": "mapping",
        "key": "t_enum(PoolType)8017",
        "label": "mapping(enum IBase.PoolType => uint256)",
        "numberOfBytes": "32",
        "value": "t_uint256"
      },
      "t_struct(PoolEntry)16735_storage": {
        "encoding": "inplace",
        "label": "struct StoragePool.PoolEntry",
        "members": [
          {
            "astId": 16725,
            "contract": "contracts/StoragePool.sol:StoragePool",
            "label": "tokenAddress",
            "offset": 0,
            "slot": "0",
            "type": "t_address"
          },
          {
            "astId": 16727,
            "contract": "contracts/StoragePool.sol:StoragePool",
            "label": "totalAmount",
            "offset": 0,
            "slot": "1",
            "type": "t_uint256"
          },
          {
            "astId": 16732,
            "contract": "contracts/StoragePool.sol:StoragePool",
            "label": "poolTypes",
            "offset": 0,
            "slot": "2",
            "type": "t_mapping(t_enum(PoolType)8017,t_uint256)"
          },
          {
            "astId": 16734,
            "contract": "contracts/StoragePool.sol:StoragePool",
            "label": "exists",
            "offset": 0,
            "slot": "3",
            "type": "t_bool"
          }
        ],
        "numberOfBytes": "128"
      },
      "t_uint256": {
        "encoding": "inplace",
        "label": "uint256",
        "numberOfBytes": "32"
      }
    }
  }
}