{
  "address": "0x5FC8d32690cc91D4c39d9d3abcBD16989F875707",
  "abi": [
    {
      "inputs": [],
      "name": "FeeExceedMaxPercentage",
      "type": "error"
    },
    {
      "inputs": [],
      "name": "NotContract",
      "type": "error"
    },
    {
      "inputs": [],
      "name": "NotFromBOorTroveMorSP",
      "type": "error"
    },
    {
      "inputs": [
        {
          "internalType": "address",
          "name": "owner",
          "type": "address"
        }
      ],
      "name": "OwnableInvalidOwner",
      "type": "error"
    },
    {
      "inputs": [
        {
          "internalType": "address",
          "name": "account",
          "type": "address"
        }
      ],
      "name": "OwnableUnauthorizedAccount",
      "type": "error"
    },
    {
      "inputs": [],
      "name": "PoolEntryDoesntExist",
      "type": "error"
    },
    {
      "inputs": [],
      "name": "ZeroAddress",
      "type": "error"
    },
    {
      "anonymous": false,
      "inputs": [
        {
          "indexed": true,
          "internalType": "address",
          "name": "previousOwner",
          "type": "address"
        },
        {
          "indexed": true,
          "internalType": "address",
          "name": "newOwner",
          "type": "address"
        }
      ],
      "name": "OwnershipTransferred",
      "type": "event"
    },
    {
      "anonymous": false,
      "inputs": [
        {
          "indexed": false,
          "internalType": "address",
          "name": "_borrowerOperationsAddress",
          "type": "address"
        },
        {
          "indexed": false,
          "internalType": "address",
          "name": "_troveManagerAddress",
          "type": "address"
        },
        {
          "indexed": false,
          "internalType": "address",
          "name": "_redemptionOperationsAddress",
          "type": "address"
        },
        {
          "indexed": false,
          "internalType": "address",
          "name": "_liquidationOperationsAddress",
          "type": "address"
        },
        {
          "indexed": false,
          "internalType": "address",
          "name": "_stabilityPoolManagerAddress",
          "type": "address"
        },
        {
          "indexed": false,
          "internalType": "address",
          "name": "_priceFeedAddress",
          "type": "address"
        }
      ],
      "name": "StoragePoolInitialized",
      "type": "event"
    },
    {
      "anonymous": false,
      "inputs": [
        {
          "indexed": false,
          "internalType": "address",
          "name": "_tokenAddress",
          "type": "address"
        },
        {
          "indexed": false,
          "internalType": "bool",
          "name": "_isColl",
          "type": "bool"
        },
        {
          "indexed": false,
          "internalType": "enum IBase.PoolType",
          "name": "_poolType",
          "type": "uint8"
        },
        {
          "indexed": false,
          "internalType": "uint256",
          "name": "_updatedAmount",
          "type": "uint256"
        }
      ],
      "name": "StoragePoolValueUpdated",
      "type": "event"
    },
    {
      "inputs": [],
      "name": "BORROWING_FEE_FLOOR",
      "outputs": [
        {
          "internalType": "uint256",
          "name": "",
          "type": "uint256"
        }
      ],
      "stateMutability": "view",
      "type": "function"
    },
    {
      "inputs": [],
      "name": "CCR",
      "outputs": [
        {
          "internalType": "uint256",
          "name": "",
          "type": "uint256"
        }
      ],
      "stateMutability": "view",
      "type": "function"
    },
    {
      "inputs": [],
      "name": "GOV_STAKING_ADDRESS",
      "outputs": [
        {
          "internalType": "address",
          "name": "",
          "type": "address"
        }
      ],
      "stateMutability": "view",
      "type": "function"
    },
    {
      "inputs": [],
      "name": "GOV_SWAP_FEE",
      "outputs": [
        {
          "internalType": "uint32",
          "name": "",
          "type": "uint32"
        }
      ],
      "stateMutability": "view",
      "type": "function"
    },
    {
      "inputs": [],
      "name": "MAX_BORROWING_FEE",
      "outputs": [
        {
          "internalType": "uint256",
          "name": "",
          "type": "uint256"
        }
      ],
      "stateMutability": "view",
      "type": "function"
    },
    {
      "inputs": [],
      "name": "MCR",
      "outputs": [
        {
          "internalType": "uint256",
          "name": "",
          "type": "uint256"
        }
      ],
      "stateMutability": "view",
      "type": "function"
    },
    {
      "inputs": [],
      "name": "NAME",
      "outputs": [
        {
          "internalType": "string",
          "name": "",
          "type": "string"
        }
      ],
      "stateMutability": "view",
      "type": "function"
    },
    {
      "inputs": [],
      "name": "PERCENT_DIVISOR",
      "outputs": [
        {
          "internalType": "uint256",
          "name": "",
          "type": "uint256"
        }
      ],
      "stateMutability": "view",
      "type": "function"
    },
    {
      "inputs": [],
      "name": "REDEMPTION_FEE_FLOOR",
      "outputs": [
        {
          "internalType": "uint256",
          "name": "",
          "type": "uint256"
        }
      ],
      "stateMutability": "view",
      "type": "function"
    },
    {
      "inputs": [],
      "name": "STABLE_COIN_GAS_COMPENSATION",
      "outputs": [
        {
          "internalType": "uint256",
          "name": "",
          "type": "uint256"
        }
      ],
      "stateMutability": "view",
      "type": "function"
    },
    {
      "inputs": [],
      "name": "SWAP_BASE_FEE",
      "outputs": [
        {
          "internalType": "uint32",
          "name": "",
          "type": "uint32"
        }
      ],
      "stateMutability": "view",
      "type": "function"
    },
    {
      "inputs": [],
      "name": "SWAP_FEE_PRECISION",
      "outputs": [
        {
          "internalType": "uint32",
          "name": "",
          "type": "uint32"
        }
      ],
      "stateMutability": "view",
      "type": "function"
    },
    {
      "inputs": [],
      "name": "_100pct",
      "outputs": [
        {
          "internalType": "uint256",
          "name": "",
          "type": "uint256"
        }
      ],
      "stateMutability": "view",
      "type": "function"
    },
    {
      "inputs": [
        {
          "internalType": "address",
          "name": "_tokenAddress",
          "type": "address"
        },
        {
          "internalType": "bool",
          "name": "_isColl",
          "type": "bool"
        },
        {
          "internalType": "enum IBase.PoolType",
          "name": "_poolType",
          "type": "uint8"
        },
        {
          "internalType": "uint256",
          "name": "_amount",
          "type": "uint256"
        }
      ],
      "name": "addValue",
      "outputs": [],
      "stateMutability": "nonpayable",
      "type": "function"
    },
    {
      "inputs": [],
      "name": "borrowerOperationsAddress",
      "outputs": [
        {
          "internalType": "address",
          "name": "",
          "type": "address"
        }
      ],
      "stateMutability": "view",
      "type": "function"
    },
    {
      "inputs": [],
      "name": "checkRecoveryMode",
      "outputs": [
        {
          "internalType": "bool",
          "name": "isInRecoveryMode",
          "type": "bool"
        },
        {
          "internalType": "uint256",
          "name": "TCR",
          "type": "uint256"
        },
        {
          "internalType": "uint256",
          "name": "entireSystemColl",
          "type": "uint256"
        },
        {
          "internalType": "uint256",
          "name": "entireSystemDebt",
          "type": "uint256"
        }
      ],
      "stateMutability": "view",
      "type": "function"
    },
    {
      "inputs": [
        {
          "internalType": "uint256",
          "name": "",
          "type": "uint256"
        }
      ],
      "name": "collTokenAddresses",
      "outputs": [
        {
          "internalType": "address",
          "name": "",
          "type": "address"
        }
      ],
      "stateMutability": "view",
      "type": "function"
    },
    {
      "inputs": [
        {
          "internalType": "uint256",
          "name": "",
          "type": "uint256"
        }
      ],
      "name": "debtTokenAddresses",
      "outputs": [
        {
          "internalType": "address",
          "name": "",
          "type": "address"
        }
      ],
      "stateMutability": "view",
      "type": "function"
    },
    {
      "inputs": [],
      "name": "getEntireSystemColl",
      "outputs": [
        {
          "internalType": "uint256",
          "name": "entireSystemColl",
          "type": "uint256"
        }
      ],
      "stateMutability": "view",
      "type": "function"
    },
    {
      "inputs": [],
      "name": "getEntireSystemDebt",
      "outputs": [
        {
          "internalType": "uint256",
          "name": "entireSystemDebt",
          "type": "uint256"
        }
      ],
      "stateMutability": "view",
      "type": "function"
    },
    {
      "inputs": [
        {
          "internalType": "address",
          "name": "_tokenAddress",
          "type": "address"
        },
        {
          "internalType": "bool",
          "name": "_isColl",
          "type": "bool"
        }
      ],
      "name": "getTokenTotalAmount",
      "outputs": [
        {
          "internalType": "uint256",
          "name": "",
          "type": "uint256"
        }
      ],
      "stateMutability": "view",
      "type": "function"
    },
    {
      "inputs": [
        {
          "internalType": "address",
          "name": "_tokenAddress",
          "type": "address"
        },
        {
          "internalType": "bool",
          "name": "_isColl",
          "type": "bool"
        },
        {
          "internalType": "enum IBase.PoolType",
          "name": "_poolType",
          "type": "uint8"
        }
      ],
      "name": "getValue",
      "outputs": [
        {
          "internalType": "uint256",
          "name": "",
          "type": "uint256"
        }
      ],
      "stateMutability": "view",
      "type": "function"
    },
    {
      "inputs": [],
      "name": "liquidationOperationsAddress",
      "outputs": [
        {
          "internalType": "address",
          "name": "",
          "type": "address"
        }
      ],
      "stateMutability": "view",
      "type": "function"
    },
    {
      "inputs": [],
      "name": "owner",
      "outputs": [
        {
          "internalType": "address",
          "name": "",
          "type": "address"
        }
      ],
      "stateMutability": "view",
      "type": "function"
    },
    {
      "inputs": [],
      "name": "priceFeed",
      "outputs": [
        {
          "internalType": "contract IPriceFeed",
          "name": "",
          "type": "address"
        }
      ],
      "stateMutability": "view",
      "type": "function"
    },
    {
      "inputs": [],
      "name": "redemptionOperationsAddress",
      "outputs": [
        {
          "internalType": "address",
          "name": "",
          "type": "address"
        }
      ],
      "stateMutability": "view",
      "type": "function"
    },
    {
      "inputs": [],
      "name": "renounceOwnership",
      "outputs": [],
      "stateMutability": "nonpayable",
      "type": "function"
    },
    {
      "inputs": [
        {
          "internalType": "address",
          "name": "_borrowerOperationsAddress",
          "type": "address"
        },
        {
          "internalType": "address",
          "name": "_troveManagerAddress",
          "type": "address"
        },
        {
          "internalType": "address",
          "name": "_redemptionOperationsAddress",
          "type": "address"
        },
        {
          "internalType": "address",
          "name": "_liquidationOperationsAddress",
          "type": "address"
        },
        {
          "internalType": "address",
          "name": "_stabilityPoolManagerAddress",
          "type": "address"
        },
        {
          "internalType": "address",
          "name": "_priceFeedAddress",
          "type": "address"
        }
      ],
      "name": "setAddresses",
      "outputs": [],
      "stateMutability": "nonpayable",
      "type": "function"
    },
    {
      "inputs": [],
      "name": "stabilityPoolManagerAddress",
      "outputs": [
        {
          "internalType": "address",
          "name": "",
          "type": "address"
        }
      ],
      "stateMutability": "view",
      "type": "function"
    },
    {
      "inputs": [
        {
          "internalType": "address",
          "name": "_tokenAddress",
          "type": "address"
        },
        {
          "internalType": "bool",
          "name": "_isColl",
          "type": "bool"
        },
        {
          "internalType": "enum IBase.PoolType",
          "name": "_poolType",
          "type": "uint8"
        },
        {
          "internalType": "uint256",
          "name": "_amount",
          "type": "uint256"
        }
      ],
      "name": "subtractValue",
      "outputs": [],
      "stateMutability": "nonpayable",
      "type": "function"
    },
    {
      "inputs": [
        {
          "internalType": "address",
          "name": "_tokenAddress",
          "type": "address"
        },
        {
          "internalType": "bool",
          "name": "_isColl",
          "type": "bool"
        },
        {
          "internalType": "enum IBase.PoolType",
          "name": "_fromType",
          "type": "uint8"
        },
        {
          "internalType": "enum IBase.PoolType",
          "name": "_toType",
          "type": "uint8"
        },
        {
          "internalType": "uint256",
          "name": "_amount",
          "type": "uint256"
        }
      ],
      "name": "transferBetweenTypes",
      "outputs": [],
      "stateMutability": "nonpayable",
      "type": "function"
    },
    {
      "inputs": [
        {
          "internalType": "address",
          "name": "newOwner",
          "type": "address"
        }
      ],
      "name": "transferOwnership",
      "outputs": [],
      "stateMutability": "nonpayable",
      "type": "function"
    },
    {
      "inputs": [],
      "name": "troveManagerAddress",
      "outputs": [
        {
          "internalType": "address",
          "name": "",
          "type": "address"
        }
      ],
      "stateMutability": "view",
      "type": "function"
    },
    {
      "inputs": [
        {
          "internalType": "address",
          "name": "_receiver",
          "type": "address"
        },
        {
          "internalType": "address",
          "name": "_tokenAddress",
          "type": "address"
        },
        {
          "internalType": "bool",
          "name": "_isColl",
          "type": "bool"
        },
        {
          "internalType": "enum IBase.PoolType",
          "name": "_poolType",
          "type": "uint8"
        },
        {
          "internalType": "uint256",
          "name": "_amount",
          "type": "uint256"
        }
      ],
      "name": "withdrawalValue",
      "outputs": [],
      "stateMutability": "nonpayable",
      "type": "function"
    }
  ],
  "transactionHash": "0xfc0256aac57b0882ad0a87cb1181c03d0dabe793b13b06128592ded59438d469",
  "args": [],
  "numDeployments": 1,
  "solcInputHash": "6cd4b693370de6782d041c6552000a4d",
  "bytecode": "0x608060405234801561001057600080fd5b50338061003757604051631e4fbdf760e01b81526000600482015260240160405180910390fd5b61004081610046565b50610096565b600080546001600160a01b038381166001600160a01b0319831681178455604051919092169283917f8be0079c531659141344cd1fd0a4f28419497f9722a3daafe3b4186f6b6457e09190a35050565b61142d806100a56000396000f3fe608060405234801561001057600080fd5b50600436106102065760003560e01c8063795d26c31161011a578063b403b997116100ad578063e67729e31161007c578063e67729e314610466578063e853753414610470578063ec671c8314610483578063f2fde38b1461048d578063f92d34331461027457600080fd5b8063b403b9971461041a578063b7f8cf9b1461042d578063d05f350014610440578063e24404841461045357600080fd5b80638e2f0dcf116100e95780638e2f0dcf146103aa578063a33d8e14146103bd578063a3f4df7e146103d0578063b09f902c1461040757600080fd5b8063795d26c314610379578063887105d3146103815780638d63c665146103895780638da5cb5b1461039957600080fd5b80635733d58f1161019d578063715018a61161016c578063715018a61461032d57806371a9d4181461033557806372fe25aa14610348578063741bef1a14610357578063794e57241461036a57600080fd5b80635733d58f146102e55780635a4d28bb146102f45780635ebdb11a146103075780636cfb6bf91461031a57600080fd5b80632be2615a116101d95780632be2615a1461028257806343a124fa146102955780634870dd9a146102bf578063502afb04146102c757600080fd5b806309230ad31461020b57806312e1aab414610243578063240926691461025857806328d28b5b14610274575b600080fd5b61022673f39fd6e51aad88f6f4ce6ab8827279cfffb9226681565b6040516001600160a01b0390911681526020015b60405180910390f35b61025661025136600461105c565b6104a0565b005b61026666b1a2bc2ec5000081565b60405190815260200161023a565b6102666611c37937e0800081565b600354610226906001600160a01b031681565b61029d6104ba565b604080519415158552602085019390935291830152606082015260800161023a565b61026660c881565b6102d0610bb881565b60405163ffffffff909116815260200161023a565b6102666714d1120d7b16000081565b600254610226906001600160a01b031681565b6102566103153660046110a9565b6104f3565b610256610328366004611107565b6106d1565b6102566107dd565b61022661034336600461117b565b6107f1565b610266670de0b6b3a764000081565b600654610226906001600160a01b031681565b610266670f43fc2c04ee000081565b61026661081b565b61026661094b565b610266680ad78ebc5ac620000081565b6000546001600160a01b0316610226565b600554610226906001600160a01b031681565b6102266103cb36600461117b565b610a77565b6103fa6040518060400160405280600b81526020016a14dd1bdc9859d9541bdbdb60aa1b81525081565b60405161023a9190611194565b6102666104153660046111e2565b610a87565b610256610428366004611219565b610ab7565b600154610226906001600160a01b031681565b61026661044e366004611258565b610b3e565b61025661046136600461105c565b610ba5565b6102d0620f424081565b600454610226906001600160a01b031681565b6102d06207a12081565b61025661049b36600461129d565b610da9565b6104a8610dec565b6104b484848484610e75565b50505050565b6000806000806104c861094b565b91506104d261081b565b90506104de8282610f21565b92506714d1120d7b1600008310935090919293565b6104fb610dec565b6001600160a01b038516600090815260076020908152604080832087151584529091529020600381015460ff16610545576040516363fdfe3960e01b815260040160405180910390fd5b8181600201600086600281111561055e5761055e6112bf565b600281111561056f5761056f6112bf565b8152602001908152602001600020600082825461058c91906112eb565b925050819055507f9cdc80e7ef9e06e67df996a29f1e4f72fe5b33458cbb0924cb4b5d6c24be215e8686868460020160008960028111156105cf576105cf6112bf565b60028111156105e0576105e06112bf565b8152602001908152602001600020546040516105ff94939291906112fe565b60405180910390a181816002016000856002811115610620576106206112bf565b6002811115610631576106316112bf565b8152602001908152602001600020600082825461064e9190611346565b925050819055507f9cdc80e7ef9e06e67df996a29f1e4f72fe5b33458cbb0924cb4b5d6c24be215e868685846002016000886002811115610691576106916112bf565b60028111156106a2576106a26112bf565b8152602001908152602001600020546040516106c194939291906112fe565b60405180910390a1505050505050565b6106d9610f57565b6106e286610f84565b6106eb85610f84565b6106f484610f84565b6106fd83610f84565b61070682610f84565b61070f81610f84565b600180546001600160a01b038881166001600160a01b0319928316811790935560028054898316908416811790915560038054898416908516811790915560048054898516908616811790915560058054898616908716811790915560068054958916959096168517909555604080519687526020870193909352918501526060840152608083019190915260a08201527f954ea1c03f74511a05013f2fb599edaab4596ae212080d07af723c9a8b1bd0439060c00160405180910390a16107d56107dd565b505050505050565b6107e5610f57565b6107ef6000610fd3565b565b6008818154811061080157600080fd5b6000918252602090912001546001600160a01b0316905081565b6006546000906001600160a01b0316815b60095481101561094657816001600160a01b031663fa76dcf26009838154811061085857610858611359565b9060005260206000200160009054906101000a90046001600160a01b0316600760006009868154811061088d5761088d611359565b6000918252602080832091909101546001600160a01b0390811684528382019490945260409283018220828052905281902060010154905160e085901b6001600160e01b03191681529290911660048301526024820152604401602060405180830381865afa158015610904573d6000803e3d6000fd5b505050506040513d601f19601f82011682018060405250810190610928919061136f565b6109329084611346565b92508061093e81611388565b91505061082c565b505090565b6006546000906001600160a01b0316815b60085481101561094657816001600160a01b031663fa76dcf26008838154811061098857610988611359565b9060005260206000200160009054906101000a90046001600160a01b031660076000600886815481106109bd576109bd611359565b6000918252602080832091909101546001600160a01b039081168452838201949094526040928301822060018084529152908290200154905160e085901b6001600160e01b03191681529290911660048301526024820152604401602060405180830381865afa158015610a35573d6000803e3d6000fd5b505050506040513d601f19601f82011682018060405250810190610a59919061136f565b610a639084611346565b925080610a6f81611388565b91505061095c565b6009818154811061080157600080fd5b6001600160a01b038216600090815260076020908152604080832084151584529091529020600101545b92915050565b610abf610dec565b610acb84848484610e75565b60405163a9059cbb60e01b81526001600160a01b0386811660048301526024820183905285169063a9059cbb906044016020604051808303816000875af1158015610b1a573d6000803e3d6000fd5b505050506040513d601f19601f820116820180604052508101906107d591906113a1565b6001600160a01b03831660009081526007602090815260408083208515158452909152812060029081019082908490811115610b7c57610b7c6112bf565b6002811115610b8d57610b8d6112bf565b81526020019081526020016000205490509392505050565b610bad610dec565b6001600160a01b038416600090815260076020908152604080832086151584529091529020600381015460ff16610cc5576001600160a01b0385166000818152600760209081526040808320881580158552925290912060038101805460ff1916600117905580546001600160a01b031916909217909155610c7957600880546001810182556000919091527ff3f7a9fe364faab93b216da50a3214154f22a0a2b415b23a84c8169e8b636ee30180546001600160a01b0319166001600160a01b038716179055610cc5565b600980546001810182556000919091527f6e1540171b6c0c960b71a7020d9f60077f6af931a8bbf590da0223dacf75c7af0180546001600160a01b0319166001600160a01b0387161790555b81816002016000856002811115610cde57610cde6112bf565b6002811115610cef57610cef6112bf565b81526020019081526020016000206000828254610d0c9190611346565b9250508190555081816001016000828254610d279190611346565b925050819055507f9cdc80e7ef9e06e67df996a29f1e4f72fe5b33458cbb0924cb4b5d6c24be215e858585846002016000886002811115610d6a57610d6a6112bf565b6002811115610d7b57610d7b6112bf565b815260200190815260200160002054604051610d9a94939291906112fe565b60405180910390a15050505050565b610db1610f57565b6001600160a01b038116610de057604051631e4fbdf760e01b8152600060048201526024015b60405180910390fd5b610de981610fd3565b50565b6001546001600160a01b03163314801590610e1257506002546001600160a01b03163314155b8015610e2957506005546001600160a01b03163314155b8015610e4057506003546001600160a01b03163314155b8015610e5757506004546001600160a01b03163314155b156107ef5760405163229a92c760e21b815260040160405180910390fd5b6001600160a01b038416600090815260076020908152604080832086151584529091529020600381015460ff16610ebf576040516363fdfe3960e01b815260040160405180910390fd5b81816002016000856002811115610ed857610ed86112bf565b6002811115610ee957610ee96112bf565b81526020019081526020016000206000828254610f0691906112eb565b9250508190555081816001016000828254610d2791906112eb565b60008115610f4d5781610f3c670de0b6b3a7640000856113be565b610f4691906113d5565b9050610ab1565b5060001992915050565b6000546001600160a01b031633146107ef5760405163118cdaa760e01b8152336004820152602401610dd7565b6001600160a01b038116610fab5760405163d92e233d60e01b815260040160405180910390fd5b803b6000819003610fcf57604051636f7c43f160e01b815260040160405180910390fd5b5050565b600080546001600160a01b038381166001600160a01b0319831681178455604051919092169283917f8be0079c531659141344cd1fd0a4f28419497f9722a3daafe3b4186f6b6457e09190a35050565b80356001600160a01b038116811461103a57600080fd5b919050565b8015158114610de957600080fd5b80356003811061103a57600080fd5b6000806000806080858703121561107257600080fd5b61107b85611023565b9350602085013561108b8161103f565b92506110996040860161104d565b9396929550929360600135925050565b600080600080600060a086880312156110c157600080fd5b6110ca86611023565b945060208601356110da8161103f565b93506110e86040870161104d565b92506110f66060870161104d565b949793965091946080013592915050565b60008060008060008060c0878903121561112057600080fd5b61112987611023565b955061113760208801611023565b945061114560408801611023565b935061115360608801611023565b925061116160808801611023565b915061116f60a08801611023565b90509295509295509295565b60006020828403121561118d57600080fd5b5035919050565b600060208083528351808285015260005b818110156111c1578581018301518582016040015282016111a5565b506000604082860101526040601f19601f8301168501019250505092915050565b600080604083850312156111f557600080fd5b6111fe83611023565b9150602083013561120e8161103f565b809150509250929050565b600080600080600060a0868803121561123157600080fd5b61123a86611023565b945061124860208701611023565b935060408601356110e88161103f565b60008060006060848603121561126d57600080fd5b61127684611023565b925060208401356112868161103f565b91506112946040850161104d565b90509250925092565b6000602082840312156112af57600080fd5b6112b882611023565b9392505050565b634e487b7160e01b600052602160045260246000fd5b634e487b7160e01b600052601160045260246000fd5b81810381811115610ab157610ab16112d5565b6001600160a01b03851681528315156020820152608081016003841061133457634e487b7160e01b600052602160045260246000fd5b60408201939093526060015292915050565b80820180821115610ab157610ab16112d5565b634e487b7160e01b600052603260045260246000fd5b60006020828403121561138157600080fd5b5051919050565b60006001820161139a5761139a6112d5565b5060010190565b6000602082840312156113b357600080fd5b81516112b88161103f565b8082028115828204841417610ab157610ab16112d5565b6000826113f257634e487b7160e01b600052601260045260246000fd5b50049056fea2646970667358221220bb76c74e52960dac499edf876ee3fad3a2e0ce787154472051b4346d31bfdb5b64736f6c63430008140033",
  "devdoc": {
    "errors": {
      "OwnableInvalidOwner(address)": [
        {
          "details": "The owner is not a valid owner account. (eg. `address(0)`)"
        }
      ],
      "OwnableUnauthorizedAccount(address)": [
        {
          "details": "The caller account is not authorized to perform an operation."
        }
      ]
    },
    "kind": "dev",
    "methods": {
      "owner()": {
        "details": "Returns the address of the current owner."
      },
      "renounceOwnership()": {
        "details": "Leaves the contract without owner. It will not be possible to call `onlyOwner` functions. Can only be called by the current owner. NOTE: Renouncing ownership will leave the contract without an owner, thereby disabling any functionality that is only available to the owner."
      },
      "transferOwnership(address)": {
        "details": "Transfers ownership of the contract to a new account (`newOwner`). Can only be called by the current owner."
      }
    },
    "version": 1
  },
  "userdoc": {
    "kind": "user",
    "methods": {},
    "version": 1
  },
  "storageLayout": {
    "storage": [
      {
        "astId": 8,
        "contract": "contracts/StoragePool.sol:StoragePool",
        "label": "_owner",
        "offset": 0,
        "slot": "0",
        "type": "t_address"
      },
      {
        "astId": 19609,
        "contract": "contracts/StoragePool.sol:StoragePool",
        "label": "borrowerOperationsAddress",
        "offset": 0,
        "slot": "1",
        "type": "t_address"
      },
      {
        "astId": 19611,
        "contract": "contracts/StoragePool.sol:StoragePool",
        "label": "troveManagerAddress",
        "offset": 0,
        "slot": "2",
        "type": "t_address"
      },
      {
        "astId": 19613,
        "contract": "contracts/StoragePool.sol:StoragePool",
        "label": "redemptionOperationsAddress",
        "offset": 0,
        "slot": "3",
        "type": "t_address"
      },
      {
        "astId": 19615,
        "contract": "contracts/StoragePool.sol:StoragePool",
        "label": "liquidationOperationsAddress",
        "offset": 0,
        "slot": "4",
        "type": "t_address"
      },
      {
        "astId": 19617,
        "contract": "contracts/StoragePool.sol:StoragePool",
        "label": "stabilityPoolManagerAddress",
        "offset": 0,
        "slot": "5",
        "type": "t_address"
      },
      {
        "astId": 19620,
        "contract": "contracts/StoragePool.sol:StoragePool",
        "label": "priceFeed",
        "offset": 0,
        "slot": "6",
        "type": "t_contract(IPriceFeed)10268"
      },
      {
        "astId": 19639,
        "contract": "contracts/StoragePool.sol:StoragePool",
        "label": "poolEntries",
        "offset": 0,
        "slot": "7",
        "type": "t_mapping(t_address,t_mapping(t_bool,t_struct(PoolEntry)19632_storage))"
      },
      {
        "astId": 19642,
        "contract": "contracts/StoragePool.sol:StoragePool",
        "label": "collTokenAddresses",
        "offset": 0,
        "slot": "8",
        "type": "t_array(t_address)dyn_storage"
      },
      {
        "astId": 19645,
        "contract": "contracts/StoragePool.sol:StoragePool",
        "label": "debtTokenAddresses",
        "offset": 0,
        "slot": "9",
        "type": "t_array(t_address)dyn_storage"
      }
    ],
    "types": {
      "t_address": {
        "encoding": "inplace",
        "label": "address",
        "numberOfBytes": "20"
      },
      "t_array(t_address)dyn_storage": {
        "base": "t_address",
        "encoding": "dynamic_array",
        "label": "address[]",
        "numberOfBytes": "32"
      },
      "t_bool": {
        "encoding": "inplace",
        "label": "bool",
        "numberOfBytes": "1"
      },
      "t_contract(IPriceFeed)10268": {
        "encoding": "inplace",
        "label": "contract IPriceFeed",
        "numberOfBytes": "20"
      },
      "t_enum(PoolType)9568": {
        "encoding": "inplace",
        "label": "enum IBase.PoolType",
        "numberOfBytes": "1"
      },
      "t_mapping(t_address,t_mapping(t_bool,t_struct(PoolEntry)19632_storage))": {
        "encoding": "mapping",
        "key": "t_address",
        "label": "mapping(address => mapping(bool => struct StoragePool.PoolEntry))",
        "numberOfBytes": "32",
        "value": "t_mapping(t_bool,t_struct(PoolEntry)19632_storage)"
      },
      "t_mapping(t_bool,t_struct(PoolEntry)19632_storage)": {
        "encoding": "mapping",
        "key": "t_bool",
        "label": "mapping(bool => struct StoragePool.PoolEntry)",
        "numberOfBytes": "32",
        "value": "t_struct(PoolEntry)19632_storage"
      },
      "t_mapping(t_enum(PoolType)9568,t_uint256)": {
        "encoding": "mapping",
        "key": "t_enum(PoolType)9568",
        "label": "mapping(enum IBase.PoolType => uint256)",
        "numberOfBytes": "32",
        "value": "t_uint256"
      },
      "t_struct(PoolEntry)19632_storage": {
        "encoding": "inplace",
        "label": "struct StoragePool.PoolEntry",
        "members": [
          {
            "astId": 19622,
            "contract": "contracts/StoragePool.sol:StoragePool",
            "label": "tokenAddress",
            "offset": 0,
            "slot": "0",
            "type": "t_address"
          },
          {
            "astId": 19624,
            "contract": "contracts/StoragePool.sol:StoragePool",
            "label": "totalAmount",
            "offset": 0,
            "slot": "1",
            "type": "t_uint256"
          },
          {
            "astId": 19629,
            "contract": "contracts/StoragePool.sol:StoragePool",
            "label": "poolTypes",
            "offset": 0,
            "slot": "2",
            "type": "t_mapping(t_enum(PoolType)9568,t_uint256)"
          },
          {
            "astId": 19631,
            "contract": "contracts/StoragePool.sol:StoragePool",
            "label": "exists",
            "offset": 0,
            "slot": "3",
            "type": "t_bool"
          }
        ],
        "numberOfBytes": "128"
      },
      "t_uint256": {
        "encoding": "inplace",
        "label": "uint256",
        "numberOfBytes": "32"
      }
    }
  }
}