{
  "address": "0x610178dA211FEF7D417bC0e6FeD39F05609AD788",
  "abi": [
    {
      "inputs": [],
      "name": "ExcessiveInputAmount",
      "type": "error"
    },
    {
      "inputs": [],
      "name": "Expired",
      "type": "error"
    },
    {
      "inputs": [],
      "name": "FeeExceedMaxPercentage",
      "type": "error"
    },
    {
      "inputs": [],
      "name": "Forbidden",
      "type": "error"
    },
    {
      "inputs": [],
      "name": "IdenticalAddresses",
      "type": "error"
    },
    {
      "inputs": [],
      "name": "InsufficientAAmount",
      "type": "error"
    },
    {
      "inputs": [],
      "name": "InsufficientAmount",
      "type": "error"
    },
    {
      "inputs": [],
      "name": "InsufficientBAmount",
      "type": "error"
    },
    {
      "inputs": [],
      "name": "InsufficientInputAmount",
      "type": "error"
    },
    {
      "inputs": [],
      "name": "InsufficientLiquidity",
      "type": "error"
    },
    {
      "inputs": [],
      "name": "InsufficientOutputAmount",
      "type": "error"
    },
    {
      "inputs": [],
      "name": "InvalidPath",
      "type": "error"
    },
    {
      "inputs": [],
      "name": "NotContract",
      "type": "error"
    },
    {
      "inputs": [
        {
          "internalType": "address",
          "name": "owner",
          "type": "address"
        }
      ],
      "name": "OwnableInvalidOwner",
      "type": "error"
    },
    {
      "inputs": [
        {
          "internalType": "address",
          "name": "account",
          "type": "address"
        }
      ],
      "name": "OwnableUnauthorizedAccount",
      "type": "error"
    },
    {
      "inputs": [],
      "name": "PairDoesNotExist",
      "type": "error"
    },
    {
      "inputs": [],
      "name": "PairExists",
      "type": "error"
    },
    {
      "inputs": [],
      "name": "PairRequiresStable",
      "type": "error"
    },
    {
      "inputs": [],
      "name": "TransferFromFailed",
      "type": "error"
    },
    {
      "inputs": [],
      "name": "ZeroAddress",
      "type": "error"
    },
    {
      "anonymous": false,
      "inputs": [
        {
          "indexed": true,
          "internalType": "address",
          "name": "previousOwner",
          "type": "address"
        },
        {
          "indexed": true,
          "internalType": "address",
          "name": "newOwner",
          "type": "address"
        }
      ],
      "name": "OwnershipTransferred",
      "type": "event"
    },
    {
      "anonymous": false,
      "inputs": [
        {
          "indexed": true,
          "internalType": "address",
          "name": "token0",
          "type": "address"
        },
        {
          "indexed": true,
          "internalType": "address",
          "name": "token1",
          "type": "address"
        },
        {
          "indexed": false,
          "internalType": "address",
          "name": "pair",
          "type": "address"
        },
        {
          "indexed": false,
          "internalType": "uint256",
          "name": "",
          "type": "uint256"
        }
      ],
      "name": "PairCreated",
      "type": "event"
    },
    {
      "anonymous": false,
      "inputs": [
        {
          "indexed": false,
          "internalType": "address",
          "name": "borrowerOperations",
          "type": "address"
        },
        {
          "indexed": false,
          "internalType": "address",
          "name": "troveManager",
          "type": "address"
        },
        {
          "indexed": false,
          "internalType": "address",
          "name": "priceFeed",
          "type": "address"
        },
        {
          "indexed": false,
          "internalType": "address",
          "name": "debtTokenManager",
          "type": "address"
        }
      ],
      "name": "SwapOperationsInitialized",
      "type": "event"
    },
    {
      "inputs": [],
      "name": "BORROWING_FEE_FLOOR",
      "outputs": [
        {
          "internalType": "uint256",
          "name": "",
          "type": "uint256"
        }
      ],
      "stateMutability": "view",
      "type": "function"
    },
    {
      "inputs": [],
      "name": "CCR",
      "outputs": [
        {
          "internalType": "uint256",
          "name": "",
          "type": "uint256"
        }
      ],
      "stateMutability": "view",
      "type": "function"
    },
    {
      "inputs": [],
      "name": "GOV_STAKING_ADDRESS",
      "outputs": [
        {
          "internalType": "address",
          "name": "",
          "type": "address"
        }
      ],
      "stateMutability": "view",
      "type": "function"
    },
    {
      "inputs": [],
      "name": "GOV_SWAP_FEE",
      "outputs": [
        {
          "internalType": "uint32",
          "name": "",
          "type": "uint32"
        }
      ],
      "stateMutability": "view",
      "type": "function"
    },
    {
      "inputs": [],
      "name": "MAX_BORROWING_FEE",
      "outputs": [
        {
          "internalType": "uint256",
          "name": "",
          "type": "uint256"
        }
      ],
      "stateMutability": "view",
      "type": "function"
    },
    {
      "inputs": [],
      "name": "MCR",
      "outputs": [
        {
          "internalType": "uint256",
          "name": "",
          "type": "uint256"
        }
      ],
      "stateMutability": "view",
      "type": "function"
    },
    {
      "inputs": [],
      "name": "PERCENT_DIVISOR",
      "outputs": [
        {
          "internalType": "uint256",
          "name": "",
          "type": "uint256"
        }
      ],
      "stateMutability": "view",
      "type": "function"
    },
    {
      "inputs": [],
      "name": "REDEMPTION_FEE_FLOOR",
      "outputs": [
        {
          "internalType": "uint256",
          "name": "",
          "type": "uint256"
        }
      ],
      "stateMutability": "view",
      "type": "function"
    },
    {
      "inputs": [],
      "name": "STABLE_COIN_GAS_COMPENSATION",
      "outputs": [
        {
          "internalType": "uint256",
          "name": "",
          "type": "uint256"
        }
      ],
      "stateMutability": "view",
      "type": "function"
    },
    {
      "inputs": [],
      "name": "SWAP_BASE_FEE",
      "outputs": [
        {
          "internalType": "uint32",
          "name": "",
          "type": "uint32"
        }
      ],
      "stateMutability": "view",
      "type": "function"
    },
    {
      "inputs": [],
      "name": "SWAP_FEE_PRECISION",
      "outputs": [
        {
          "internalType": "uint32",
          "name": "",
          "type": "uint32"
        }
      ],
      "stateMutability": "view",
      "type": "function"
    },
    {
      "inputs": [],
      "name": "_100pct",
      "outputs": [
        {
          "internalType": "uint256",
          "name": "",
          "type": "uint256"
        }
      ],
      "stateMutability": "view",
      "type": "function"
    },
    {
      "inputs": [
        {
          "internalType": "address",
          "name": "tokenA",
          "type": "address"
        },
        {
          "internalType": "address",
          "name": "tokenB",
          "type": "address"
        },
        {
          "internalType": "uint256",
          "name": "amountADesired",
          "type": "uint256"
        },
        {
          "internalType": "uint256",
          "name": "amountBDesired",
          "type": "uint256"
        },
        {
          "internalType": "uint256",
          "name": "amountAMin",
          "type": "uint256"
        },
        {
          "internalType": "uint256",
          "name": "amountBMin",
          "type": "uint256"
        },
        {
          "components": [
            {
              "internalType": "address",
              "name": "upperHint",
              "type": "address"
            },
            {
              "internalType": "address",
              "name": "lowerHint",
              "type": "address"
            },
            {
              "internalType": "uint256",
              "name": "maxFeePercentage",
              "type": "uint256"
            }
          ],
          "internalType": "struct IBase.MintMeta",
          "name": "_mintMeta",
          "type": "tuple"
        },
        {
          "internalType": "uint256",
          "name": "deadline",
          "type": "uint256"
        }
      ],
      "name": "addLiquidity",
      "outputs": [
        {
          "internalType": "uint256",
          "name": "amountA",
          "type": "uint256"
        },
        {
          "internalType": "uint256",
          "name": "amountB",
          "type": "uint256"
        },
        {
          "internalType": "uint256",
          "name": "liquidity",
          "type": "uint256"
        }
      ],
      "stateMutability": "nonpayable",
      "type": "function"
    },
    {
      "inputs": [
        {
          "internalType": "address",
          "name": "tokenA",
          "type": "address"
        },
        {
          "internalType": "address",
          "name": "tokenB",
          "type": "address"
        },
        {
          "internalType": "uint256",
          "name": "amountADesired",
          "type": "uint256"
        },
        {
          "internalType": "uint256",
          "name": "amountBDesired",
          "type": "uint256"
        },
        {
          "internalType": "uint256",
          "name": "amountAMin",
          "type": "uint256"
        },
        {
          "internalType": "uint256",
          "name": "amountBMin",
          "type": "uint256"
        },
        {
          "components": [
            {
              "internalType": "address",
              "name": "upperHint",
              "type": "address"
            },
            {
              "internalType": "address",
              "name": "lowerHint",
              "type": "address"
            },
            {
              "internalType": "uint256",
              "name": "maxFeePercentage",
              "type": "uint256"
            }
          ],
          "internalType": "struct IBase.MintMeta",
          "name": "_mintMeta",
          "type": "tuple"
        },
        {
          "internalType": "uint256",
          "name": "deadline",
          "type": "uint256"
        },
        {
          "internalType": "uint8[]",
          "name": "v",
          "type": "uint8[]"
        },
        {
          "internalType": "bytes32[]",
          "name": "r",
          "type": "bytes32[]"
        },
        {
          "internalType": "bytes32[]",
          "name": "s",
          "type": "bytes32[]"
        }
      ],
      "name": "addLiquidityWithPermit",
      "outputs": [
        {
          "internalType": "uint256",
          "name": "amountA",
          "type": "uint256"
        },
        {
          "internalType": "uint256",
          "name": "amountB",
          "type": "uint256"
        },
        {
          "internalType": "uint256",
          "name": "liquidity",
          "type": "uint256"
        }
      ],
      "stateMutability": "nonpayable",
      "type": "function"
    },
    {
      "inputs": [
        {
          "internalType": "uint256",
          "name": "",
          "type": "uint256"
        }
      ],
      "name": "allPairs",
      "outputs": [
        {
          "internalType": "address",
          "name": "",
          "type": "address"
        }
      ],
      "stateMutability": "view",
      "type": "function"
    },
    {
      "inputs": [],
      "name": "allPairsLength",
      "outputs": [
        {
          "internalType": "uint256",
          "name": "",
          "type": "uint256"
        }
      ],
      "stateMutability": "view",
      "type": "function"
    },
    {
      "inputs": [],
      "name": "borrowerOperations",
      "outputs": [
        {
          "internalType": "contract IBorrowerOperations",
          "name": "",
          "type": "address"
        }
      ],
      "stateMutability": "view",
      "type": "function"
    },
    {
      "inputs": [
        {
          "internalType": "address",
          "name": "tokenA",
          "type": "address"
        },
        {
          "internalType": "address",
          "name": "tokenB",
          "type": "address"
        }
      ],
      "name": "createPair",
      "outputs": [
        {
          "internalType": "address",
          "name": "pair",
          "type": "address"
        }
      ],
      "stateMutability": "nonpayable",
      "type": "function"
    },
    {
      "inputs": [],
      "name": "debtTokenManager",
      "outputs": [
        {
          "internalType": "contract IDebtTokenManager",
          "name": "",
          "type": "address"
        }
      ],
      "stateMutability": "view",
      "type": "function"
    },
    {
      "inputs": [
        {
          "internalType": "uint256",
          "name": "amountOut",
          "type": "uint256"
        },
        {
          "internalType": "uint256",
          "name": "reserveIn",
          "type": "uint256"
        },
        {
          "internalType": "uint256",
          "name": "reserveOut",
          "type": "uint256"
        },
        {
          "internalType": "uint32",
          "name": "swapFee",
          "type": "uint32"
        }
      ],
      "name": "getAmountIn",
      "outputs": [
        {
          "internalType": "uint256",
          "name": "amountIn",
          "type": "uint256"
        }
      ],
      "stateMutability": "pure",
      "type": "function"
    },
    {
      "inputs": [
        {
          "internalType": "uint256",
          "name": "amountIn",
          "type": "uint256"
        },
        {
          "internalType": "uint256",
          "name": "reserveIn",
          "type": "uint256"
        },
        {
          "internalType": "uint256",
          "name": "reserveOut",
          "type": "uint256"
        },
        {
          "internalType": "uint32",
          "name": "swapFee",
          "type": "uint32"
        }
      ],
      "name": "getAmountOut",
      "outputs": [
        {
          "internalType": "uint256",
          "name": "amountOut",
          "type": "uint256"
        }
      ],
      "stateMutability": "pure",
      "type": "function"
    },
    {
      "inputs": [
        {
          "internalType": "uint256",
          "name": "amountOut",
          "type": "uint256"
        },
        {
          "internalType": "address[]",
          "name": "path",
          "type": "address[]"
        }
      ],
      "name": "getAmountsIn",
      "outputs": [
        {
          "internalType": "uint256[]",
          "name": "amounts",
          "type": "uint256[]"
        }
      ],
      "stateMutability": "view",
      "type": "function"
    },
    {
      "inputs": [
        {
          "internalType": "uint256",
          "name": "amountIn",
          "type": "uint256"
        },
        {
          "internalType": "address[]",
          "name": "path",
          "type": "address[]"
        }
      ],
      "name": "getAmountsOut",
      "outputs": [
        {
          "internalType": "uint256[]",
          "name": "amounts",
          "type": "uint256[]"
        }
      ],
      "stateMutability": "view",
      "type": "function"
    },
    {
      "inputs": [
        {
          "internalType": "address",
          "name": "",
          "type": "address"
        },
        {
          "internalType": "address",
          "name": "",
          "type": "address"
        }
      ],
      "name": "getPair",
      "outputs": [
        {
          "internalType": "address",
          "name": "",
          "type": "address"
        }
      ],
      "stateMutability": "view",
      "type": "function"
    },
    {
      "inputs": [
        {
          "internalType": "uint256",
          "name": "stableToMintIn",
          "type": "uint256"
        },
        {
          "internalType": "uint256",
          "name": "debtOutMin",
          "type": "uint256"
        },
        {
          "internalType": "address",
          "name": "debtTokenAddress",
          "type": "address"
        },
        {
          "internalType": "address",
          "name": "to",
          "type": "address"
        },
        {
          "components": [
            {
              "internalType": "address",
              "name": "upperHint",
              "type": "address"
            },
            {
              "internalType": "address",
              "name": "lowerHint",
              "type": "address"
            },
            {
              "internalType": "uint256",
              "name": "maxFeePercentage",
              "type": "uint256"
            }
          ],
          "internalType": "struct IBase.MintMeta",
          "name": "_mintMeta",
          "type": "tuple"
        },
        {
          "internalType": "uint256",
          "name": "deadline",
          "type": "uint256"
        }
      ],
      "name": "openLongPosition",
      "outputs": [
        {
          "internalType": "uint256[]",
          "name": "amounts",
          "type": "uint256[]"
        }
      ],
      "stateMutability": "nonpayable",
      "type": "function"
    },
    {
      "inputs": [
        {
          "internalType": "uint256",
          "name": "debtToMintIn",
          "type": "uint256"
        },
        {
          "internalType": "uint256",
          "name": "stableOutMin",
          "type": "uint256"
        },
        {
          "internalType": "address",
          "name": "debtTokenAddress",
          "type": "address"
        },
        {
          "internalType": "address",
          "name": "to",
          "type": "address"
        },
        {
          "components": [
            {
              "internalType": "address",
              "name": "upperHint",
              "type": "address"
            },
            {
              "internalType": "address",
              "name": "lowerHint",
              "type": "address"
            },
            {
              "internalType": "uint256",
              "name": "maxFeePercentage",
              "type": "uint256"
            }
          ],
          "internalType": "struct IBase.MintMeta",
          "name": "_mintMeta",
          "type": "tuple"
        },
        {
          "internalType": "uint256",
          "name": "deadline",
          "type": "uint256"
        }
      ],
      "name": "openShortPosition",
      "outputs": [
        {
          "internalType": "uint256[]",
          "name": "amounts",
          "type": "uint256[]"
        }
      ],
      "stateMutability": "nonpayable",
      "type": "function"
    },
    {
      "inputs": [],
      "name": "owner",
      "outputs": [
        {
          "internalType": "address",
          "name": "",
          "type": "address"
        }
      ],
      "stateMutability": "view",
      "type": "function"
    },
    {
      "inputs": [],
      "name": "priceFeedAddress",
      "outputs": [
        {
          "internalType": "address",
          "name": "",
          "type": "address"
        }
      ],
      "stateMutability": "view",
      "type": "function"
    },
    {
      "inputs": [
        {
          "internalType": "uint256",
          "name": "amountA",
          "type": "uint256"
        },
        {
          "internalType": "uint256",
          "name": "reserveA",
          "type": "uint256"
        },
        {
          "internalType": "uint256",
          "name": "reserveB",
          "type": "uint256"
        }
      ],
      "name": "quote",
      "outputs": [
        {
          "internalType": "uint256",
          "name": "amountB",
          "type": "uint256"
        }
      ],
      "stateMutability": "pure",
      "type": "function"
    },
    {
      "inputs": [
        {
          "internalType": "address",
          "name": "tokenA",
          "type": "address"
        },
        {
          "internalType": "address",
          "name": "tokenB",
          "type": "address"
        },
        {
          "internalType": "uint256",
          "name": "liquidity",
          "type": "uint256"
        },
        {
          "internalType": "uint256",
          "name": "amountAMin",
          "type": "uint256"
        },
        {
          "internalType": "uint256",
          "name": "amountBMin",
          "type": "uint256"
        },
        {
          "internalType": "address",
          "name": "_upperHint",
          "type": "address"
        },
        {
          "internalType": "address",
          "name": "_lowerHint",
          "type": "address"
        },
        {
          "internalType": "uint256",
          "name": "deadline",
          "type": "uint256"
        }
      ],
      "name": "removeLiquidity",
      "outputs": [
        {
          "internalType": "uint256",
          "name": "amountA",
          "type": "uint256"
        },
        {
          "internalType": "uint256",
          "name": "amountB",
          "type": "uint256"
        }
      ],
      "stateMutability": "nonpayable",
      "type": "function"
    },
    {
      "inputs": [],
      "name": "renounceOwnership",
      "outputs": [],
      "stateMutability": "nonpayable",
      "type": "function"
    },
    {
      "inputs": [
        {
          "internalType": "address",
          "name": "_borrowerOperationsAddress",
          "type": "address"
        },
        {
          "internalType": "address",
          "name": "_troveManagerAddress",
          "type": "address"
        },
        {
          "internalType": "address",
          "name": "_priceFeedAddress",
          "type": "address"
        },
        {
          "internalType": "address",
          "name": "_debtTokenManager",
          "type": "address"
        }
      ],
      "name": "setAddresses",
      "outputs": [],
      "stateMutability": "nonpayable",
      "type": "function"
    },
    {
      "inputs": [
        {
          "internalType": "uint256",
          "name": "amountIn",
          "type": "uint256"
        },
        {
          "internalType": "uint256",
          "name": "amountOutMin",
          "type": "uint256"
        },
        {
          "internalType": "address[]",
          "name": "path",
          "type": "address[]"
        },
        {
          "internalType": "address",
          "name": "to",
          "type": "address"
        },
        {
          "internalType": "uint256",
          "name": "deadline",
          "type": "uint256"
        }
      ],
      "name": "swapExactTokensForTokens",
      "outputs": [
        {
          "internalType": "uint256[]",
          "name": "amounts",
          "type": "uint256[]"
        }
      ],
      "stateMutability": "nonpayable",
      "type": "function"
    },
    {
      "inputs": [
        {
          "internalType": "uint256",
          "name": "amountIn",
          "type": "uint256"
        },
        {
          "internalType": "uint256",
          "name": "amountOutMin",
          "type": "uint256"
        },
        {
          "internalType": "address[]",
          "name": "path",
          "type": "address[]"
        },
        {
          "internalType": "address",
          "name": "to",
          "type": "address"
        },
        {
          "internalType": "uint256",
          "name": "deadline",
          "type": "uint256"
        },
        {
          "internalType": "uint8",
          "name": "v",
          "type": "uint8"
        },
        {
          "internalType": "bytes32",
          "name": "r",
          "type": "bytes32"
        },
        {
          "internalType": "bytes32",
          "name": "s",
          "type": "bytes32"
        }
      ],
      "name": "swapExactTokensForTokensWithPermit",
      "outputs": [
        {
          "internalType": "uint256[]",
          "name": "amounts",
          "type": "uint256[]"
        }
      ],
      "stateMutability": "nonpayable",
      "type": "function"
    },
    {
      "inputs": [
        {
          "internalType": "uint256",
          "name": "amountOut",
          "type": "uint256"
        },
        {
          "internalType": "uint256",
          "name": "amountInMax",
          "type": "uint256"
        },
        {
          "internalType": "address[]",
          "name": "path",
          "type": "address[]"
        },
        {
          "internalType": "address",
          "name": "to",
          "type": "address"
        },
        {
          "internalType": "uint256",
          "name": "deadline",
          "type": "uint256"
        }
      ],
      "name": "swapTokensForExactTokens",
      "outputs": [
        {
          "internalType": "uint256[]",
          "name": "amounts",
          "type": "uint256[]"
        }
      ],
      "stateMutability": "nonpayable",
      "type": "function"
    },
    {
      "inputs": [
        {
          "internalType": "address",
          "name": "newOwner",
          "type": "address"
        }
      ],
      "name": "transferOwnership",
      "outputs": [],
      "stateMutability": "nonpayable",
      "type": "function"
    },
    {
      "inputs": [],
      "name": "troveManager",
      "outputs": [
        {
          "internalType": "contract ITroveManager",
          "name": "",
          "type": "address"
        }
      ],
      "stateMutability": "view",
      "type": "function"
    }
  ],
  "transactionHash": "0xfcd8c458c7446f2e5bc732aaf0234e98ba1cad32793b190d27e8020636e1b5ba",
  "args": [],
  "numDeployments": 1,
  "solcInputHash": "dcc8b62488fab3f4225a1fd8129e4b84",
  "bytecode": "0x60806040523480156200001157600080fd5b5033806200003957604051631e4fbdf760e01b81526000600482015260240160405180910390fd5b62000044816200004b565b506200009b565b600080546001600160a01b038381166001600160a01b0319831681178455604051919092169283917f8be0079c531659141344cd1fd0a4f28419497f9722a3daafe3b4186f6b6457e09190a35050565b61579a80620000ab6000396000f3fe608060405234801561001057600080fd5b50600436106102275760003560e01c8063715018a611610130578063ad615dec116100b8578063e67729e31161007c578063e67729e3146104cd578063e6a43905146104d7578063ec671c831461050b578063f2fde38b14610515578063f92d3433146102b357600080fd5b8063ad615dec1461046e578063c08c625514610481578063c9c6539614610494578063d06ca61f146104a7578063e0abca0b146104ba57600080fd5b806383d4336d116100ff57806383d4336d146103ff5780638803dbee146104275780638d63c6651461043a5780638da5cb5b1461044a5780639cd076151461045b57600080fd5b8063715018a6146103c657806372fe25aa146103ce57806377553ad4146103dd578063794e5724146103f057600080fd5b80634a945f8d116101b35780635733d58f116101825780635733d58f1461035b578063574f2ba31461036a57806359827d47146103725780635ebe30c7146103855780636549192a1461039857600080fd5b80634a945f8d14610302578063502afb04146103175780635106046414610335578063522a86fe1461034857600080fd5b806328d28b5b116101fa57806328d28b5b146102b357806334ab0945146102c157806338ed1739146102d45780633d83908a146102e75780634870dd9a146102fa57600080fd5b806309230ad31461022c5780631e3dd18b146102645780631f00ca74146102775780632409266914610297575b600080fd5b61024773f39fd6e51aad88f6f4ce6ab8827279cfffb9226681565b6040516001600160a01b0390911681526020015b60405180910390f35b610247610272366004612cbe565b610528565b61028a610285366004612d67565b610552565b60405161025b9190612e12565b6102a566b1a2bc2ec5000081565b60405190815260200161025b565b6102a56611c37937e0800081565b61028a6102cf366004612ec2565b6106bc565b61028a6102e2366004612f6c565b6107fb565b600154610247906001600160a01b031681565b6102a560c881565b610315610310366004612fdf565b6109c5565b005b610320610bb881565b60405163ffffffff909116815260200161025b565b6102a561034336600461304d565b610a8c565b600454610247906001600160a01b031681565b6102a56714d1120d7b16000081565b6006546102a5565b61028a610380366004612ec2565b610b39565b61028a610393366004613094565b610c2f565b6103ab6103a63660046131e7565b610cde565b6040805193845260208401929092529082015260600161025b565b610315610e7a565b6102a5670de0b6b3a764000081565b600254610247906001600160a01b031681565b6102a5670f43fc2c04ee000081565b61041261040d3660046132de565b610e8e565b6040805192835260208301919091520161025b565b61028a610435366004612f6c565b611415565b6102a5680ad78ebc5ac620000081565b6000546001600160a01b0316610247565b6102a561046936600461304d565b6114b3565b6102a561047c366004613363565b611566565b6103ab61048f36600461338f565b6115cf565b6102476104a2366004613409565b611cc0565b61028a6104b5366004612d67565b612064565b600354610247906001600160a01b031681565b610320620f424081565b6102476104e5366004613409565b60056020908152600092835260408084209091529082529020546001600160a01b031681565b6103206207a12081565b610315610523366004613442565b6121b0565b6006818154811061053857600080fd5b6000918252602090912001546001600160a01b0316905081565b6060600282511015610577576040516320db826760e01b815260040160405180910390fd5b815167ffffffffffffffff81111561059157610591612cd7565b6040519080825280602002602001820160405280156105ba578160200160208202803683370190505b5090508281600183516105cd919061347c565b815181106105dd576105dd61348f565b6020026020010181815250506000600183516105f9919061347c565b90505b80156106b5576000808061064c8661061560018761347c565b815181106106255761062561348f565b602002602001015187868151811061063f5761063f61348f565b60200260200101516121f3565b9250925092506106778585815181106106675761066761348f565b60200260200101518484846114b3565b8561068360018761347c565b815181106106935761069361348f565b60200260200101818152505050505080806106ad906134a5565b9150506105fc565b5092915050565b606081428110156106e057604051630407b05b60e31b815260040160405180910390fd5b60408051600280825260608201835260009260208301908036833701905050905086816000815181106107155761071561348f565b60200260200101906001600160a01b031690816001600160a01b031681525050600460009054906101000a90046001600160a01b03166001600160a01b0316631bd817c96040518163ffffffff1660e01b8152600401602060405180830381865afa158015610788573d6000803e3d6000fd5b505050506040513d601f19601f820116820180604052508101906107ac91906134bc565b816001815181106107bf576107bf61348f565b60200260200101906001600160a01b031690816001600160a01b0316815250506107ec8989838989612340565b9250505b509695505050505050565b6060814281101561081f57604051630407b05b60e31b815260040160405180910390fd5b61085c8887878080602002602001604051908101604052809392919081815260200183836020028082843760009201919091525061206492505050565b915086826001845161086e919061347c565b8151811061087e5761087e61348f565b602002602001015110156108a5576040516342301c2360e01b815260040160405180910390fd5b610986868660008181106108bb576108bb61348f565b90506020020160208101906108d09190613442565b33600560008a8a60008181106108e8576108e861348f565b90506020020160208101906108fd9190613442565b6001600160a01b03166001600160a01b0316815260200190815260200160002060008a8a60018181106109325761093261348f565b90506020020160208101906109479190613442565b6001600160a01b039081168252602082019290925260400160009081205487519216918791906109795761097961348f565b60200260200101516125fe565b6107f08287878080602002602001604051908101604052809392919081815260200183836020028082843760009201919091525089925061278f915050565b6109cd612976565b6109d6846129a3565b6109df836129a3565b6109e8826129a3565b6109f1816129a3565b600280546001600160a01b038681166001600160a01b031992831681179093556001805487831690841681179091556003805487841690851681179091556004805493871693909416831790935560408051948552602085019190915283019190915260608201527f1409d816dbb5d0b4943f2f83f2d88ae2e69c834a03e8cc4f41e3878f71f0f0bc9060800160405180910390a150505050565b600084600003610aaf5760405163098fb56160e01b815260040160405180910390fd5b831580610aba575082155b15610ad85760405163bb55fd2760e01b815260040160405180910390fd5b6000610ae783620f42406134d9565b610af79063ffffffff16876134f6565b90506000610b0585836134f6565b9050600082610b17620f4240896134f6565b610b21919061350d565b9050610b2d8183613520565b98975050505050505050565b60608142811015610b5d57604051630407b05b60e31b815260040160405180910390fd5b60408051600280825260608201835260009260208301908036833750506004805460408051631bd817c960e01b815290519495506001600160a01b0390911693631bd817c99350818301926020928290030181865afa158015610bc4573d6000803e3d6000fd5b505050506040513d601f19601f82011682018060405250810190610be891906134bc565b81600081518110610bfb57610bfb61348f565b60200260200101906001600160a01b031690816001600160a01b03168152505086816001815181106107bf576107bf61348f565b606087876000818110610c4457610c4461348f565b9050602002016020810190610c599190613442565b6001600160a01b031663d505accf33308d898989896040518863ffffffff1660e01b8152600401610c909796959493929190613542565b600060405180830381600087803b158015610caa57600080fd5b505af1158015610cbe573d6000803e3d6000fd5b50505050610cd08a8a8a8a8a8a6107fb565b9a9950505050505050505050565b60008060008d6001600160a01b031663d505accf33308f8b8b600081518110610d0957610d0961348f565b60200260200101518b600081518110610d2457610d2461348f565b60200260200101518b600081518110610d3f57610d3f61348f565b60200260200101516040518863ffffffff1660e01b8152600401610d699796959493929190613542565b600060405180830381600087803b158015610d8357600080fd5b505af1158015610d97573d6000803e3d6000fd5b505050508c6001600160a01b031663d505accf33308e8b8b600181518110610dc157610dc161348f565b60200260200101518b600181518110610ddc57610ddc61348f565b60200260200101518b600181518110610df757610df761348f565b60200260200101516040518863ffffffff1660e01b8152600401610e219796959493929190613542565b600060405180830381600087803b158015610e3b57600080fd5b505af1158015610e4f573d6000803e3d6000fd5b50505050610e638e8e8e8e8e8e8e8e6115cf565b9250925092509b509b509b98505050505050505050565b610e82612976565b610e8c60006129f2565b565b6000808242811015610eb357604051630407b05b60e31b815260040160405180910390fd5b610efe6040518060c0016040528060006001600160a01b0316815260200160006001600160a01b03168152602001600081526020016000815260200160008152602001600081525090565b610f088c8c612a42565b8260000183602001826001600160a01b03166001600160a01b0316815250826001600160a01b03166001600160a01b031681525050506000600560008e6001600160a01b03166001600160a01b0316815260200190815260200160002060008d6001600160a01b03166001600160a01b0316815260200190815260200160002060009054906101000a90046001600160a01b03169050806001600160a01b031663de7bf0a2338d600160009054906101000a90046001600160a01b03166001600160a01b031663fa973daa33886000015160006040518463ffffffff1660e01b8152600401611018939291906001600160a01b039384168152919092166020820152901515604082015260600190565b602060405180830381865afa158015611035573d6000803e3d6000fd5b505050506040513d601f19601f820116820180604052508101906110599190613583565b6001546020880151604051637d4b9ed560e11b81523360048201526001600160a01b0391821660248201526000604482015291169063fa973daa90606401602060405180830381865afa1580156110b4573d6000803e3d6000fd5b505050506040513d601f19601f820116820180604052508101906110d89190613583565b6040516001600160e01b031960e087901b1681526001600160a01b0390941660048501526024840192909252604483015260648201526084016080604051808303816000875af1158015611130573d6000803e3d6000fd5b505050506040513d601f19601f82011682018060405250810190611154919061359c565b60a08601526080850181905260608501919091526040840191909152151580611180575060a082015115155b15611390576060826080015160001415801561119f575060a083015115155b15611270576040805160028082526060820190925290816020015b60408051808201909152600080825260208201528152602001906001900390816111ba579050509050604051806040016040528084600001516001600160a01b0316815260200184608001518152508160008151811061121c5761121c61348f565b6020026020010181905250604051806040016040528084602001516001600160a01b031681526020018460a00151815250816001815181106112605761126061348f565b6020026020010181905250611326565b60408051600180825281830190925290816020015b604080518082019091526000808252602082015281526020019060019003908161128557905050905082608001516000036112e557604051806040016040528084602001516001600160a01b031681526020018460a00151815250611307565b6040805180820190915283516001600160a01b03168152608084015160208201525b8160008151811061131a5761131a61348f565b60200260200101819052505b60025460405163483cbfcd60e01b81526001600160a01b039091169063483cbfcd9061135c90339085908e908e90600401613621565b600060405180830381600087803b15801561137657600080fd5b505af115801561138a573d6000803e3d6000fd5b50505050505b81516001600160a01b038e81169116146113b357816060015182604001516113be565b816040015182606001515b9095509350898510156113e457604051638dc525d160e01b815260040160405180910390fd5b888410156114055760405163ef71d09160e01b815260040160405180910390fd5b5050509850989650505050505050565b6060814281101561143957604051630407b05b60e31b815260040160405180910390fd5b6114768887878080602002602001604051908101604052809392919081815260200183836020028082843760009201919091525061055292505050565b9150868260008151811061148c5761148c61348f565b602002602001015111156108a55760405163e1b0da4f60e01b815260040160405180910390fd5b6000846000036114d6576040516342301c2360e01b815260040160405180910390fd5b8315806114e1575082155b156114ff5760405163bb55fd2760e01b815260040160405180910390fd5b6000620f424061150f87876134f6565b61151991906134f6565b9050600061152a84620f42406134d9565b63ffffffff1661153a888761347c565b61154491906134f6565b90506115508183613520565b61155b90600161350d565b979650505050505050565b60008360000361158957604051632ca2f52b60e11b815260040160405180910390fd5b821580611594575081155b156115b25760405163bb55fd2760e01b815260040160405180910390fd5b826115bd83866134f6565b6115c79190613520565b949350505050565b600080600083428110156115f657604051630407b05b60e31b815260040160405180910390fd5b61163f6040518060e0016040528060006001600160a01b031681526020016000815260200160008152602001600081526020016000815260200160008152602001600081525090565b600560008e6001600160a01b03166001600160a01b0316815260200190815260200160002060008d6001600160a01b03166001600160a01b0316815260200190815260200160002060009054906101000a90046001600160a01b031681600001906001600160a01b031690816001600160a01b0316815250506116e660405180604001604052806008815260200167706169723a20257360c01b8152508260000151612ba7565b80516001600160a01b031661170e5760405163317f12fd60e21b815260040160405180910390fd5b60008061171b8f8f6121f3565b509150915081600014801561172e575080155b1561173e578c96508b95506117c8565b600061174b8e8484611566565b90508c8111611780578a8110156117755760405163ef71d09160e01b815260040160405180910390fd5b8d97509550856117c6565b600061178d8e8486611566565b90508e81111561179f5761179f61365c565b8c8110156117c057604051638dc525d160e01b815260040160405180910390fd5b97508c96505b505b50506040516370a0823160e01b81523360048201526001600160a01b038e16906370a0823190602401602060405180830381865afa15801561180e573d6000803e3d6000fd5b505050506040513d601f19601f820116820180604052508101906118329190613583565b60208201526040516370a0823160e01b81523360048201526001600160a01b038d16906370a0823190602401602060405180830381865afa15801561187b573d6000803e3d6000fd5b505050506040513d601f19601f8201168201806040525081019061189f9190613583565b604082015260208101516118b39086612bec565b606082015260408101516118c79085612bec565b608082015260608101516118db908661347c565b60a082015260808101516118ef908561347c565b60c082015260a0810151151580611909575060c081015115155b15611b0f5760608160a00151600014158015611928575060c082015115155b156119f1576040805160028082526060820190925290816020015b604080518082019091526000808252602082015281526020019060019003908161194357905050905060405180604001604052808f6001600160a01b031681526020018360a00151815250816000815181106119a1576119a161348f565b602002602001018190525060405180604001604052808e6001600160a01b031681526020018360c00151815250816001815181106119e1576119e161348f565b6020026020010181905250611aa4565b60408051600180825281830190925290816020015b6040805180820190915260008082526020820152815260200190600190039081611a065790505090508160a00151600003611a625760405180604001604052808e6001600160a01b031681526020018360c00151815250611a85565b60405180604001604052808f6001600160a01b031681526020018360a001518152505b81600081518110611a9857611a9861348f565b60200260200101819052505b60025482516040516378d5f8d560e11b81526001600160a01b039092169163f1abf1aa91611adb9133919086908e90600401613672565b600060405180830381600087803b158015611af557600080fd5b505af1158015611b09573d6000803e3d6000fd5b50505050505b611b456040518060400160405280601081526020016f66726f6d42616c616e6365413a20257360801b8152508260600151612c06565b611b7b6040518060400160405280601081526020016f66726f6d42616c616e6365423a20257360801b8152508260800151612c06565b611ba960405180604001604052806008815260200167706169723a20257360c01b8152508260000151612ba7565b611bd96040518060400160405280600e81526020016d6d73672e73656e6465723a20257360901b81525033612ba7565b611c056040518060400160405280600a815260200169746f6b656e413a20257360b01b8152508e612ba7565b606081015115611c2357611c238d33836000015184606001516125fe565b608081015115611c4157611c418c33836000015184608001516125fe565b80516040516335313c2160e11b81523360048201526001600160a01b0390911690636a627842906024016020604051808303816000875af1158015611c8a573d6000803e3d6000fd5b505050506040513d601f19601f82011682018060405250810190611cae9190613583565b92505050985098509895505050505050565b6000611cca612976565b816001600160a01b0316836001600160a01b031603611cfc57604051630bd969eb60e41b815260040160405180910390fd5b6004805460408051631bd817c960e01b815290516001600160a01b0390921692631bd817c99282820192602092908290030181865afa158015611d43573d6000803e3d6000fd5b505050506040513d601f19601f82011682018060405250810190611d6791906134bc565b6001600160a01b0316836001600160a01b031614158015611e0457506004805460408051631bd817c960e01b815290516001600160a01b0390921692631bd817c99282820192602092908290030181865afa158015611dca573d6000803e3d6000fd5b505050506040513d601f19601f82011682018060405250810190611dee91906134bc565b6001600160a01b0316826001600160a01b031614155b15611e2257604051632b6d678960e21b815260040160405180910390fd5b600080611e2f8585612a42565b90925090506001600160a01b038216611e5b5760405163d92e233d60e01b815260040160405180910390fd5b6001600160a01b03828116600090815260056020908152604080832085851684529091529020541615611ea157604051633d77e89160e01b815260040160405180910390fd5b600060405180602001611eb390612cb1565b601f1982820381018352601f9091011660408190526bffffffffffffffffffffffff19606086811b8216602084015285901b166034820152909150600090604801604051602081830303815290604052805190602001209050808251602084016000f560048054600354604051637c643b2f60e11b81526001600160a01b0389811694820194909452878416602482015291831660448301528216606482015291965086169063f8c8765e90608401600060405180830381600087803b158015611f7c57600080fd5b505af1158015611f90573d6000803e3d6000fd5b505050506001600160a01b0384811660008181526005602081815260408084208987168086529083528185208054978d166001600160a01b031998891681179091559383528185208686528352818520805488168517905560068054600181018255958190527ff652222313e28459528d920b65115c16c04f3efc82aaedc97be59f3f377c0d3f9095018054909716841790965592548351928352908201527f0d3648bd0f6ba80134a33ba9275ac585d9d315f0ad8355cddefde31afa28d0e9910160405180910390a35050505092915050565b6060600282511015612089576040516320db826760e01b815260040160405180910390fd5b815167ffffffffffffffff8111156120a3576120a3612cd7565b6040519080825280602002602001820160405280156120cc578160200160208202803683370190505b50905082816000815181106120e3576120e361348f565b60200260200101818152505060005b60018351612100919061347c565b8110156106b55760008060006121478685815181106121215761212161348f565b602002602001015187866001612137919061350d565b8151811061063f5761063f61348f565b9250925092506121728585815181106121625761216261348f565b6020026020010151848484610a8c565b8561217e86600161350d565b8151811061218e5761218e61348f565b60200260200101818152505050505080806121a8906136c7565b9150506120f2565b6121b8612976565b6001600160a01b0381166121e757604051631e4fbdf760e01b8152600060048201526024015b60405180910390fd5b6121f0816129f2565b50565b6001600160a01b03808316600090815260056020908152604080832085851684528252808320548151631a995bed60e31b815291519394859485949290911692839263d4cadf68926004808401938290030181865afa15801561225a573d6000803e3d6000fd5b505050506040513d601f19601f8201168201806040525081019061227e91906136e0565b9150600080826001600160a01b0316630902f1ac6040518163ffffffff1660e01b8152600401606060405180830381865afa1580156122c1573d6000803e3d6000fd5b505050506040513d601f19601f820116820180604052508101906122e59190613714565b506001600160701b031691506001600160701b0316915060006123088989612a42565b509050806001600160a01b0316896001600160a01b03161461232b57818361232e565b82825b909a9099509497509395505050505050565b60606000600560008660008151811061235b5761235b61348f565b60200260200101516001600160a01b03166001600160a01b031681526020019081526020016000206000866001815181106123985761239861348f565b6020908102919091018101516001600160a01b0390811683529082019290925260400160002054169050806123e05760405163317f12fd60e21b815260040160405180910390fd5b6123ea8786612064565b91508582600184516123fc919061347c565b8151811061240c5761240c61348f565b60200260200101511015612433576040516342301c2360e01b815260040160405180910390fd5b60045485516001600160a01b039091169063a95bbced90879060009061245b5761245b61348f565b60200260200101516040518263ffffffff1660e01b815260040161248e91906001600160a01b0391909116815260200190565b602060405180830381865afa1580156124ab573d6000803e3d6000fd5b505050506040513d601f19601f820116820180604052508101906124cf91906134bc565b50604080516001808252818301909252600091816020015b60408051808201909152600080825260208201528152602001906001900390816124e757905050905060405180604001604052808760008151811061252e5761252e61348f565b60200260200101516001600160a01b03168152602001846000815181106125575761255761348f565b6020026020010151815250816000815181106125755761257561348f565b60209081029190910101526002546040516378d5f8d560e11b81526001600160a01b039091169063f1abf1aa906125b6903390869086908a90600401613672565b600060405180830381600087803b1580156125d057600080fd5b505af11580156125e4573d6000803e3d6000fd5b505050506125f383878761278f565b505095945050505050565b604080516001600160a01b0385811660248301528481166044830152606480830185905283518084039091018152608490920183526020820180516001600160e01b03166323b872dd60e01b1790529151600092839290881691612662919061377f565b6000604051808303816000865af19150503d806000811461269f576040519150601f19603f3d011682016040523d82523d6000602084013e6126a4565b606091505b50915091506126d66040518060400160405280600b81526020016a737563636573733a20257360a81b81525083612c4b565b61270160405180604001604052806008815260200167646174613a20257360c01b8152508251612c06565b61273f6040518060400160405280600981526020016864617461323a20257360b81b8152508280602001905181019061273a919061379b565b612c4b565b811580612769575060008151118015612769575080806020019051810190612767919061379b565b155b1561278757604051631e4e7d0960e21b815260040160405180910390fd5b505050505050565b60005b600183516127a0919061347c565b811015612970576000808483815181106127bc576127bc61348f565b6020026020010151858460016127d2919061350d565b815181106127e2576127e261348f565b60200260200101519150915060006127fa8383612a42565b50905060008761280b86600161350d565b8151811061281b5761281b61348f565b60200260200101519050600080836001600160a01b0316866001600160a01b0316146128495782600061284d565b6000835b91509150600060028a51612861919061347c565b881061286d57886128cb565b6001600160a01b0386166000908152600560205260408120908b6128928b600261350d565b815181106128a2576128a261348f565b6020908102919091018101516001600160a01b0390811683529082019290925260400160002054165b6001600160a01b0388811660009081526005602090815260408083208b85168452909152908190205490516336cd320560e11b8152600481018790526024810186905283831660448201529293501690636d9a640a90606401600060405180830381600087803b15801561293e57600080fd5b505af1158015612952573d6000803e3d6000fd5b50505050505050505050508080612968906136c7565b915050612792565b50505050565b6000546001600160a01b03163314610e8c5760405163118cdaa760e01b81523360048201526024016121de565b6001600160a01b0381166129ca5760405163d92e233d60e01b815260040160405180910390fd5b803b60008190036129ee57604051636f7c43f160e01b815260040160405180910390fd5b5050565b600080546001600160a01b038381166001600160a01b0319831681178455604051919092169283917f8be0079c531659141344cd1fd0a4f28419497f9722a3daafe3b4186f6b6457e09190a35050565b600080826001600160a01b0316846001600160a01b031603612a7757604051630bd969eb60e41b815260040160405180910390fd5b6001600160a01b0384161580612a9457506001600160a01b038316155b15612ab25760405163d92e233d60e01b815260040160405180910390fd5b6000600460009054906101000a90046001600160a01b03166001600160a01b0316631bd817c96040518163ffffffff1660e01b8152600401602060405180830381865afa158015612b07573d6000803e3d6000fd5b505050506040513d601f19601f82011682018060405250810190612b2b91906134bc565b9050806001600160a01b0316856001600160a01b031603612b525784849250925050612ba0565b806001600160a01b0316846001600160a01b031603612b775783859250925050612ba0565b836001600160a01b0316856001600160a01b031610612b97578385612b9a565b84845b92509250505b9250929050565b6129ee8282604051602401612bbd9291906137e9565b60408051601f198184030181529190526020810180516001600160e01b031663319af33360e01b179052612c8c565b6000818310612bfb5781612bfd565b825b90505b92915050565b6129ee8282604051602401612c1c929190613813565b60408051601f198184030181529190526020810180516001600160e01b0316632d839cb360e21b179052612c8c565b6129ee8282604051602401612c61929190613835565b60408051601f198184030181529190526020810180516001600160e01b031663c3b5563560e01b1790525b6121f08160006a636f6e736f6c652e6c6f679050600080835160208501845afa505050565b611f0b8061385a83390190565b600060208284031215612cd057600080fd5b5035919050565b634e487b7160e01b600052604160045260246000fd5b604051601f8201601f1916810167ffffffffffffffff81118282101715612d1657612d16612cd7565b604052919050565b600067ffffffffffffffff821115612d3857612d38612cd7565b5060051b60200190565b6001600160a01b03811681146121f057600080fd5b8035612d6281612d42565b919050565b60008060408385031215612d7a57600080fd5b8235915060208084013567ffffffffffffffff811115612d9957600080fd5b8401601f81018613612daa57600080fd5b8035612dbd612db882612d1e565b612ced565b81815260059190911b82018301908381019088831115612ddc57600080fd5b928401925b82841015612e03578335612df481612d42565b82529284019290840190612de1565b80955050505050509250929050565b6020808252825182820181905260009190848201906040850190845b81811015612e4a57835183529284019291840191600101612e2e565b50909695505050505050565b600060608284031215612e6857600080fd5b6040516060810181811067ffffffffffffffff82111715612e8b57612e8b612cd7565b6040529050808235612e9c81612d42565b81526020830135612eac81612d42565b6020820152604092830135920191909152919050565b6000806000806000806101008789031215612edc57600080fd5b86359550602087013594506040870135612ef581612d42565b93506060870135612f0581612d42565b9250612f148860808901612e56565b915060e087013590509295509295509295565b60008083601f840112612f3957600080fd5b50813567ffffffffffffffff811115612f5157600080fd5b6020830191508360208260051b8501011115612ba057600080fd5b60008060008060008060a08789031215612f8557600080fd5b8635955060208701359450604087013567ffffffffffffffff811115612faa57600080fd5b612fb689828a01612f27565b9095509350506060870135612fca81612d42565b80925050608087013590509295509295509295565b60008060008060808587031215612ff557600080fd5b843561300081612d42565b9350602085013561301081612d42565b9250604085013561302081612d42565b9150606085013561303081612d42565b939692955090935050565b63ffffffff811681146121f057600080fd5b6000806000806080858703121561306357600080fd5b84359350602085013592506040850135915060608501356130308161303b565b803560ff81168114612d6257600080fd5b60008060008060008060008060006101008a8c0312156130b357600080fd5b8935985060208a0135975060408a013567ffffffffffffffff8111156130d857600080fd5b6130e48c828d01612f27565b90985096505060608a01356130f881612d42565b945060808a0135935061310d60a08b01613083565b925060c08a0135915060e08a013590509295985092959850929598565b600082601f83011261313b57600080fd5b8135602061314b612db883612d1e565b82815260059290921b8401810191818101908684111561316a57600080fd5b8286015b848110156107f05761317f81613083565b835291830191830161316e565b600082601f83011261319d57600080fd5b813560206131ad612db883612d1e565b82815260059290921b840181019181810190868411156131cc57600080fd5b8286015b848110156107f057803583529183019183016131d0565b60008060008060008060008060008060006101a08c8e03121561320957600080fd5b6132128c612d57565b9a5061322060208d01612d57565b995060408c0135985060608c0135975060808c0135965060a08c0135955061324b8d60c08e01612e56565b94506101208c0135935067ffffffffffffffff806101408e0135111561327057600080fd5b6132818e6101408f01358f0161312a565b9350806101608e0135111561329557600080fd5b6132a68e6101608f01358f0161318c565b9250806101808e013511156132ba57600080fd5b506132cc8d6101808e01358e0161318c565b90509295989b509295989b9093969950565b600080600080600080600080610100898b0312156132fb57600080fd5b883561330681612d42565b9750602089013561331681612d42565b965060408901359550606089013594506080890135935060a089013561333b81612d42565b925060c089013561334b81612d42565b8092505060e089013590509295985092959890939650565b60008060006060848603121561337857600080fd5b505081359360208301359350604090920135919050565b600080600080600080600080610140898b0312156133ac57600080fd5b88356133b781612d42565b975060208901356133c781612d42565b965060408901359550606089013594506080890135935060a089013592506133f28a60c08b01612e56565b915061012089013590509295985092959890939650565b6000806040838503121561341c57600080fd5b823561342781612d42565b9150602083013561343781612d42565b809150509250929050565b60006020828403121561345457600080fd5b813561345f81612d42565b9392505050565b634e487b7160e01b600052601160045260246000fd5b81810381811115612c0057612c00613466565b634e487b7160e01b600052603260045260246000fd5b6000816134b4576134b4613466565b506000190190565b6000602082840312156134ce57600080fd5b815161345f81612d42565b63ffffffff8281168282160390808211156106b5576106b5613466565b8082028115828204841417612c0057612c00613466565b80820180821115612c0057612c00613466565b60008261353d57634e487b7160e01b600052601260045260246000fd5b500490565b6001600160a01b0397881681529590961660208601526040850193909352606084019190915260ff16608083015260a082015260c081019190915260e00190565b60006020828403121561359557600080fd5b5051919050565b600080600080608085870312156135b257600080fd5b505082516020840151604085015160609095015191969095509092509050565b600081518084526020808501945080840160005b8381101561361657815180516001600160a01b0316885283015183880152604090960195908201906001016135e6565b509495945050505050565b600060018060a01b0380871683526080602084015261364360808401876135d2565b9481166040840152929092166060909101525092915050565b634e487b7160e01b600052600160045260246000fd5b600060018060a01b038087168352808616602084015260c0604084015261369c60c08401866135d2565b915080845116606084015280602085015116608084015250604083015160a083015295945050505050565b6000600182016136d9576136d9613466565b5060010190565b6000602082840312156136f257600080fd5b815161345f8161303b565b80516001600160701b0381168114612d6257600080fd5b60008060006060848603121561372957600080fd5b613732846136fd565b9250613740602085016136fd565b915060408401516137508161303b565b809150509250925092565b60005b8381101561377657818101518382015260200161375e565b50506000910152565b6000825161379181846020870161375b565b9190910192915050565b6000602082840312156137ad57600080fd5b8151801515811461345f57600080fd5b600081518084526137d581602086016020860161375b565b601f01601f19169290920160200192915050565b6040815260006137fc60408301856137bd565b905060018060a01b03831660208301529392505050565b60408152600061382660408301856137bd565b90508260208301529392505050565b60408152600061384860408301856137bd565b90508215156020830152939250505056fe60806040526001600d5534801561001557600080fd5b5060408051808201825260048152630537761760e41b6020918201528151808301835260018152603160f81b9082015281517f8b73c3c69bb8fe3d512ecc4cf759cc79239f7b179b0ffacaa9a75d522b39400f818301527fbce316f0d9d2a3affa97de1d99bb2aac0538e2666d0d8545545ead241ef0ccab818401527fc89efdaa54c0f20c7adf612882df0950f5a951637e0307cdcb4c672f298b8bc660608201524660808201523060a0808301919091528351808303909101815260c09091019092528151910120600355600580546001600160a01b03191633179055611e09806101026000396000f3fe608060405234801561001057600080fd5b50600436106102275760003560e01c806370a0823111610130578063bc25cf77116100b8578063e67729e31161007c578063e67729e31461052a578063ec671c8314610534578063f8c8765e1461053e578063f92d343314610304578063fff6cae91461055157600080fd5b8063bc25cf771461049e578063d21220a7146104b1578063d4cadf68146104c4578063dd62ed3e146104cc578063de7bf0a2146104f757600080fd5b80637ecebe00116100ff5780637ecebe001461042f5780638b33b4b21461044f5780638d63c6651461046257806395d89b4114610472578063ba9a7a561461049557600080fd5b806370a08231146103de57806372fe25aa146103fe578063741bef1a1461040d578063794e57241461042057600080fd5b80633644e515116101b35780635733d58f116101825780635733d58f146103955780635909c0d5146103a45780635a3d5493146103ad5780636a627842146103b65780636d9a640a146103c957600080fd5b80633644e515146103535780634870dd9a1461035c578063502afb0414610364578063522a86fe1461038257600080fd5b806318160ddd116101fa57806318160ddd146102df57806324092669146102f657806328d28b5b1461030457806330adf81f14610312578063313ce5671461033957600080fd5b806306fdde031461022c5780630902f1ac1461026557806309230ad3146102995780630dfe1681146102cc575b600080fd5b61024f604051806040016040528060048152602001630537761760e41b81525081565b60405161025c9190611a1b565b60405180910390f35b61026d610559565b604080516001600160701b03948516815293909216602084015263ffffffff169082015260600161025c565b6102b473f39fd6e51aad88f6f4ce6ab8827279cfffb9226681565b6040516001600160a01b03909116815260200161025c565b6008546102b4906001600160a01b031681565b6102e860005481565b60405190815260200161025c565b6102e866b1a2bc2ec5000081565b6102e86611c37937e0800081565b6102e87f6e71edae12b1b97f4d1f60370fef10105fa2faae0126114a169c64845d6126c981565b610341601281565b60405160ff909116815260200161025c565b6102e860035481565b6102e860c881565b61036d610bb881565b60405163ffffffff909116815260200161025c565b6007546102b4906001600160a01b031681565b6102e86714d1120d7b16000081565b6102e8600b5481565b6102e8600c5481565b6102e86103c4366004611a65565b610583565b6103dc6103d7366004611a80565b6107e2565b005b6102e86103ec366004611a65565b60016020526000908152604090205481565b6102e8670de0b6b3a764000081565b6006546102b4906001600160a01b031681565b6102e8670f43fc2c04ee000081565b6102e861043d366004611a65565b60046020526000908152604090205481565b6005546102b4906001600160a01b031681565b6102e8680ad78ebc5ac620000081565b61024f604051806040016040528060048152602001630535741560e41b81525081565b6102e86103e881565b6103dc6104ac366004611a65565b610cd6565b6009546102b4906001600160a01b031681565b61036d610dea565b6102e86104da366004611ab5565b600260209081526000928352604080842090915290825290205481565b61050a610505366004611ae8565b610f86565b60408051948552602085019390935291830152606082015260800161025c565b61036d620f424081565b61036d6207a12081565b6103dc61054c366004611b21565b61137f565b6103dc6113fa565b600a546001600160701b0380821692600160701b830490911691600160e01b900463ffffffff1690565b6000600d546000036105a8576040516303cb96db60e21b815260040160405180910390fd5b6000600d556105b561151f565b6000806105c0610559565b506008546040516370a0823160e01b81523060048201529294509092506000916001600160a01b03909116906370a0823190602401602060405180830381865afa158015610612573d6000803e3d6000fd5b505050506040513d601f19601f820116820180604052508101906106369190611b75565b6009546040516370a0823160e01b81523060048201529192506000916001600160a01b03909116906370a0823190602401602060405180830381865afa158015610684573d6000803e3d6000fd5b505050506040513d601f19601f820116820180604052508101906106a89190611b75565b905060006106bf6001600160701b03861684611ba4565b905060006106d66001600160701b03861684611ba4565b60008054919250819003610717576103e86106f96106f48486611bb7565b61154c565b6107039190611ba4565b975061071260006103e86115bc565b61075e565b61075b6001600160701b03881661072e8386611bb7565b6107389190611be4565b6001600160701b03881661074c8486611bb7565b6107569190611be4565b611645565b97505b8760000361077f57604051633489be7560e21b815260040160405180910390fd5b61078989896115bc565b6107958585898961165f565b604080518481526020810184905233917f4c209b5fc8ad50758f13e2e1088ba56a560dff690a1c6fef26394f4c03821c4f910160405180910390a250506001600d55509395945050505050565b600d54600003610805576040516303cb96db60e21b815260040160405180910390fd5b6000600d5561081261151f565b8215801561081e575081155b1561083c576040516342301c2360e01b815260040160405180910390fd5b600a546001600160701b03168311806108665750600a54600160701b90046001600160701b031682115b156108845760405163bb55fd2760e01b815260040160405180910390fd5b60085460095460009182916001600160a01b03918216919081169085168214806108bf5750806001600160a01b0316856001600160a01b0316145b156108dd57604051630521f43160e31b815260040160405180910390fd5b86156108ee576108ee828689611824565b85156108ff576108ff818688611824565b6040516370a0823160e01b81523060048201526001600160a01b038316906370a0823190602401602060405180830381865afa158015610943573d6000803e3d6000fd5b505050506040513d601f19601f820116820180604052508101906109679190611b75565b6040516370a0823160e01b81523060048201529094506001600160a01b038216906370a0823190602401602060405180830381865afa1580156109ae573d6000803e3d6000fd5b505050506040513d601f19601f820116820180604052508101906109d29190611b75565b600a549093506000906109ef9089906001600160701b0316611ba4565b85116109fc576000610a1d565b600a54610a139089906001600160701b0316611ba4565b610a1d9086611ba4565b600a54909150600090610a41908990600160701b90046001600160701b0316611ba4565b8511610a4e576000610a76565b600a54610a6c908990600160701b90046001600160701b0316611ba4565b610a769086611ba4565b905081158015610a84575080155b15610aa25760405163098fb56160e01b815260040160405180910390fd5b6000610aac610dea565b90506000610ac063ffffffff831685611bb7565b610acd620f42408a611bb7565b610ad79190611ba4565b90506000610aeb63ffffffff841685611bb7565b610af8620f42408a611bb7565b610b029190611ba4565b9050610b126002620f4240611cdc565b600a54610b31906001600160701b03600160701b820481169116611bb7565b610b3b9190611bb7565b610b458284611bb7565b1015610b645760405163a932492f60e01b815260040160405180910390fd5b50508215610bd3576000610b7c6002620f4240611cdc565b6207a120610b9063ffffffff851687611bb7565b610b9a9190611bb7565b610ba49190611be4565b9050610bc58673f39fd6e51aad88f6f4ce6ab8827279cfffb9226683611824565b610bcf8189611ba4565b9750505b8115610c40576000610be96002620f4240611cdc565b6207a120610bfd63ffffffff851686611bb7565b610c079190611bb7565b610c119190611be4565b9050610c328573f39fd6e51aad88f6f4ce6ab8827279cfffb9226683611824565b610c3c8188611ba4565b9650505b600a54610c6490889088906001600160701b0380821691600160701b90041661165f565b60408051848152602081018490529081018b9052606081018a905263ffffffff821660808201526001600160a01b0389169033907f485fd455f44df610bbdb723335bb24947ffc723ae537fb9f82dc8e5ee6f63b019060a00160405180910390a350506001600d555050505050505050565b600d54600003610cf9576040516303cb96db60e21b815260040160405180910390fd5b6000600d55600854600954600a546040516370a0823160e01b81523060048201526001600160a01b039384169390921691610d9891849186916001600160701b03169083906370a08231906024015b602060405180830381865afa158015610d65573d6000803e3d6000fd5b505050506040513d601f19601f82011682018060405250810190610d899190611b75565b610d939190611ba4565b611824565b600a546040516370a0823160e01b8152306004820152610de09183918691600160701b90046001600160701b0316906001600160a01b038416906370a0823190602401610d48565b50506001600d5550565b600954600754604051633803473960e01b81526001600160a01b039283166004820181905260009390921690633803473990602401602060405180830381865afa158015610e3c573d6000803e3d6000fd5b505050506040513d601f19601f82011682018060405250810190610e609190611ceb565b610e6d57610bb891505090565b600054600003610e8057610bb891505090565b6006546040516341976e0960e01b81526001600160a01b03838116600483015260009216906341976e0990602401602060405180830381865afa158015610ecb573d6000803e3d6000fd5b505050506040513d601f19601f82011682018060405250810190610eef9190611b75565b600a549091506000906001600160701b03600160701b8204811691610f1e91670de0b6b3a76400009116611bb7565b610f289190611be4565b905080821015610f3d57610bb8935050505090565b600081610f52670de0b6b3a764000085611bb7565b610f5c9190611be4565b9050670de0b6b3a7640000610f73610bb883611bb7565b610f7d9190611be4565b94505050505090565b600080600080600d54600003610faf576040516303cb96db60e21b815260040160405180910390fd5b6000600d55610fbc61151f565b600080610fc7610559565b506008546040516370a0823160e01b81523060048201529294509092506000916001600160a01b03909116906370a0823190602401602060405180830381865afa158015611019573d6000803e3d6000fd5b505050506040513d601f19601f8201168201806040525081019061103d9190611b75565b6009546040516370a0823160e01b81523060048201529192506000916001600160a01b03909116906370a0823190602401602060405180830381865afa15801561108b573d6000803e3d6000fd5b505050506040513d601f19601f820116820180604052508101906110af9190611b75565b600054909150806110c0848e611bb7565b6110ca9190611be4565b9850806110d7838e611bb7565b6110e19190611be4565b97508815806110ee575087155b1561110c5760405163749383ad60e01b815260040160405180910390fd5b6111168d8d611946565b506111218a89611645565b955061112d8988611645565b9450851561119a57600854604051632770a7eb60e21b8152306004820152602481018890526001600160a01b0390911690639dc29fac90604401600060405180830381600087803b15801561118157600080fd5b505af1158015611195573d6000803e3d6000fd5b505050505b841561120557600954604051632770a7eb60e21b8152306004820152602481018790526001600160a01b0390911690639dc29fac90604401600060405180830381600087803b1580156111ec57600080fd5b505af1158015611200573d6000803e3d6000fd5b505050505b600854611220906001600160a01b03168d610d93898c611ba4565b60095461123b906001600160a01b03168d610d93888b611ba4565b6008546040516370a0823160e01b81523060048201526001600160a01b03909116906370a0823190602401602060405180830381865afa158015611283573d6000803e3d6000fd5b505050506040513d601f19601f820116820180604052508101906112a79190611b75565b6009546040516370a0823160e01b81523060048201529193506001600160a01b0316906370a0823190602401602060405180830381865afa1580156112f0573d6000803e3d6000fd5b505050506040513d601f19601f820116820180604052508101906113149190611b75565b90506113228282868661165f565b60408051898152602081018990526001600160a01b038e169133917fdccd412f0b1252819cb1fd330b93224ca42612892bb3f4f789976e6d81936496910160405180910390a3505050506001600d81905550945094509450949050565b6005546001600160a01b031633146113aa57604051631dd2188d60e31b815260040160405180910390fd5b600880546001600160a01b039586166001600160a01b0319918216179091556009805494861694821694909417909355600780549285169284169290921790915560068054919093169116179055565b600d5460000361141d576040516303cb96db60e21b815260040160405180910390fd5b6000600d556008546040516370a0823160e01b8152306004820152611518916001600160a01b0316906370a0823190602401602060405180830381865afa15801561146c573d6000803e3d6000fd5b505050506040513d601f19601f820116820180604052508101906114909190611b75565b6009546040516370a0823160e01b81523060048201526001600160a01b03909116906370a0823190602401602060405180830381865afa1580156114d8573d6000803e3d6000fd5b505050506040513d601f19601f820116820180604052508101906114fc9190611b75565b600a546001600160701b0380821691600160701b90041661165f565b6001600d55565b6005546001600160a01b0316331461154a5760405163091664d760e11b815260040160405180910390fd5b565b600060038211156115ad5750806000611566600283611be4565b611571906001611d14565b90505b818110156115a75790508060028161158c8186611be4565b6115969190611d14565b6115a09190611be4565b9050611574565b50919050565b81156115b7575060015b919050565b806000808282546115cd9190611d14565b90915550506001600160a01b038216600090815260016020526040812080548392906115fa908490611d14565b90915550506040518181526001600160a01b038316906000907fddf252ad1be2c89b69c2b068fc378daa952ba7f163c4a11628f55a4df523b3ef906020015b60405180910390a35050565b60008183106116545781611656565b825b90505b92915050565b6001600160701b0384118061167a57506001600160701b0383115b1561169857604051631a93c68960e11b815260040160405180910390fd5b60006116a964010000000042611d27565b600a549091506000906116c990600160e01b900463ffffffff1683611d3b565b905060008163ffffffff161180156116e957506001600160701b03841615155b80156116fd57506001600160701b03831615155b1561178c578063ffffffff1661172585611716866119c9565b6001600160e01b0316906119e2565b6001600160e01b03166117389190611bb7565b600b60008282546117499190611d14565b909155505063ffffffff811661176284611716876119c9565b6001600160e01b03166117759190611bb7565b600c60008282546117869190611d14565b90915550505b600a805463ffffffff8416600160e01b026001600160e01b036001600160701b03898116600160701b9081026001600160e01b03199095168c83161794909417918216831794859055604080519382169282169290921783529290930490911660208201527f1c411e9a96e071241c2f21f7726b17ae89e3cab4c78be50e062b03a9fffbbad1910160405180910390a1505050505050565b604080518082018252601981527f7472616e7366657228616464726573732c75696e74323536290000000000000060209182015281516001600160a01b0385811660248301526044808301869052845180840390910181526064909201845291810180516001600160e01b031663a9059cbb60e01b179052915160009283928716916118b09190611d5f565b6000604051808303816000865af19150503d80600081146118ed576040519150601f19603f3d011682016040523d82523d6000602084013e6118f2565b606091505b509150915081158061192157506000815111801561192157508080602001905181019061191f9190611ceb565b155b1561193f576040516312171d8360e31b815260040160405180910390fd5b5050505050565b6001600160a01b0382166000908152600160205260408120805483929061196e908490611ba4565b92505081905550806000808282546119869190611ba4565b90915550506040518181526000906001600160a01b038416907fddf252ad1be2c89b69c2b068fc378daa952ba7f163c4a11628f55a4df523b3ef90602001611639565b6000611659600160701b6001600160701b038416611d7b565b60006116566001600160701b03831684611dad565b60005b83811015611a125781810151838201526020016119fa565b50506000910152565b6020815260008251806020840152611a3a8160408501602087016119f7565b601f01601f19169190910160400192915050565b80356001600160a01b03811681146115b757600080fd5b600060208284031215611a7757600080fd5b61165682611a4e565b600080600060608486031215611a9557600080fd5b8335925060208401359150611aac60408501611a4e565b90509250925092565b60008060408385031215611ac857600080fd5b611ad183611a4e565b9150611adf60208401611a4e565b90509250929050565b60008060008060808587031215611afe57600080fd5b611b0785611a4e565b966020860135965060408601359560600135945092505050565b60008060008060808587031215611b3757600080fd5b611b4085611a4e565b9350611b4e60208601611a4e565b9250611b5c60408601611a4e565b9150611b6a60608601611a4e565b905092959194509250565b600060208284031215611b8757600080fd5b5051919050565b634e487b7160e01b600052601160045260246000fd5b8181038181111561165957611659611b8e565b808202811582820484141761165957611659611b8e565b634e487b7160e01b600052601260045260246000fd5b600082611bf357611bf3611bce565b500490565b600181815b80851115611c33578160001904821115611c1957611c19611b8e565b80851615611c2657918102915b93841c9390800290611bfd565b509250929050565b600082611c4a57506001611659565b81611c5757506000611659565b8160018114611c6d5760028114611c7757611c93565b6001915050611659565b60ff841115611c8857611c88611b8e565b50506001821b611659565b5060208310610133831016604e8410600b8410161715611cb6575081810a611659565b611cc08383611bf8565b8060001904821115611cd457611cd4611b8e565b029392505050565b600061165660ff841683611c3b565b600060208284031215611cfd57600080fd5b81518015158114611d0d57600080fd5b9392505050565b8082018082111561165957611659611b8e565b600082611d3657611d36611bce565b500690565b63ffffffff828116828216039080821115611d5857611d58611b8e565b5092915050565b60008251611d718184602087016119f7565b9190910192915050565b6001600160e01b03828116828216818102831692918115828504821417611da457611da4611b8e565b50505092915050565b60006001600160e01b0383811680611dc757611dc7611bce565b9216919091049291505056fea264697066735822122081fa2eedffb022ceecc10055a7dacbbbc7c935c3bfe420e1e44083bdd672795f64736f6c63430008140033a264697066735822122052359e665fcfcfbeee0d927c8bcd09ac63ad793a8a4d9db95bf933e8e09b160e64736f6c63430008140033",
  "devdoc": {
    "errors": {
      "OwnableInvalidOwner(address)": [
        {
          "details": "The owner is not a valid owner account. (eg. `address(0)`)"
        }
      ],
      "OwnableUnauthorizedAccount(address)": [
        {
          "details": "The caller account is not authorized to perform an operation."
        }
      ]
    },
    "kind": "dev",
    "methods": {
      "owner()": {
        "details": "Returns the address of the current owner."
      },
      "renounceOwnership()": {
        "details": "Leaves the contract without owner. It will not be possible to call `onlyOwner` functions. Can only be called by the current owner. NOTE: Renouncing ownership will leave the contract without an owner, thereby disabling any functionality that is only available to the owner."
      },
      "transferOwnership(address)": {
        "details": "Transfers ownership of the contract to a new account (`newOwner`). Can only be called by the current owner."
      }
    },
    "version": 1
  },
  "userdoc": {
    "kind": "user",
    "methods": {},
    "version": 1
  },
  "storageLayout": {
    "storage": [
      {
        "astId": 8,
        "contract": "contracts/SwapOperations.sol:SwapOperations",
        "label": "_owner",
        "offset": 0,
        "slot": "0",
        "type": "t_address"
      },
      {
        "astId": 2914,
        "contract": "contracts/SwapOperations.sol:SwapOperations",
        "label": "troveManager",
        "offset": 0,
        "slot": "1",
        "type": "t_contract(ITroveManager)2762"
      },
      {
        "astId": 2917,
        "contract": "contracts/SwapOperations.sol:SwapOperations",
        "label": "borrowerOperations",
        "offset": 0,
        "slot": "2",
        "type": "t_contract(IBorrowerOperations)1329"
      },
      {
        "astId": 2919,
        "contract": "contracts/SwapOperations.sol:SwapOperations",
        "label": "priceFeedAddress",
        "offset": 0,
        "slot": "3",
        "type": "t_address"
      },
      {
        "astId": 2922,
        "contract": "contracts/SwapOperations.sol:SwapOperations",
        "label": "debtTokenManager",
        "offset": 0,
        "slot": "4",
        "type": "t_contract(IDebtTokenManager)1579"
      },
      {
        "astId": 2928,
        "contract": "contracts/SwapOperations.sol:SwapOperations",
        "label": "getPair",
        "offset": 0,
        "slot": "5",
        "type": "t_mapping(t_address,t_mapping(t_address,t_address))"
      },
      {
        "astId": 2931,
        "contract": "contracts/SwapOperations.sol:SwapOperations",
        "label": "allPairs",
        "offset": 0,
        "slot": "6",
        "type": "t_array(t_address)dyn_storage"
      }
    ],
    "types": {
      "t_address": {
        "encoding": "inplace",
        "label": "address",
        "numberOfBytes": "20"
      },
      "t_array(t_address)dyn_storage": {
        "base": "t_address",
        "encoding": "dynamic_array",
        "label": "address[]",
        "numberOfBytes": "32"
      },
      "t_contract(IBorrowerOperations)1329": {
        "encoding": "inplace",
        "label": "contract IBorrowerOperations",
        "numberOfBytes": "20"
      },
      "t_contract(IDebtTokenManager)1579": {
        "encoding": "inplace",
        "label": "contract IDebtTokenManager",
        "numberOfBytes": "20"
      },
      "t_contract(ITroveManager)2762": {
        "encoding": "inplace",
        "label": "contract ITroveManager",
        "numberOfBytes": "20"
      },
      "t_mapping(t_address,t_address)": {
        "encoding": "mapping",
        "key": "t_address",
        "label": "mapping(address => address)",
        "numberOfBytes": "32",
        "value": "t_address"
      },
      "t_mapping(t_address,t_mapping(t_address,t_address))": {
        "encoding": "mapping",
        "key": "t_address",
        "label": "mapping(address => mapping(address => address))",
        "numberOfBytes": "32",
        "value": "t_mapping(t_address,t_address)"
      }
    }
  }
}