{
  "address": "0x610178dA211FEF7D417bC0e6FeD39F05609AD788",
  "abi": [
    {
      "inputs": [],
      "name": "ExcessiveInputAmount",
      "type": "error"
    },
    {
      "inputs": [],
      "name": "Expired",
      "type": "error"
    },
    {
      "inputs": [],
      "name": "FeeExceedMaxPercentage",
      "type": "error"
    },
    {
      "inputs": [],
      "name": "Forbidden",
      "type": "error"
    },
    {
      "inputs": [],
      "name": "IdenticalAddresses",
      "type": "error"
    },
    {
      "inputs": [],
      "name": "InsufficientAAmount",
      "type": "error"
    },
    {
      "inputs": [],
      "name": "InsufficientAmount",
      "type": "error"
    },
    {
      "inputs": [],
      "name": "InsufficientBAmount",
      "type": "error"
    },
    {
      "inputs": [],
      "name": "InsufficientInputAmount",
      "type": "error"
    },
    {
      "inputs": [],
      "name": "InsufficientLiquidity",
      "type": "error"
    },
    {
      "inputs": [],
      "name": "InsufficientOutputAmount",
      "type": "error"
    },
    {
      "inputs": [],
      "name": "InvalidPath",
      "type": "error"
    },
    {
      "inputs": [],
      "name": "NotContract",
      "type": "error"
    },
    {
      "inputs": [
        {
          "internalType": "address",
          "name": "owner",
          "type": "address"
        }
      ],
      "name": "OwnableInvalidOwner",
      "type": "error"
    },
    {
      "inputs": [
        {
          "internalType": "address",
          "name": "account",
          "type": "address"
        }
      ],
      "name": "OwnableUnauthorizedAccount",
      "type": "error"
    },
    {
      "inputs": [],
      "name": "PairDoesNotExist",
      "type": "error"
    },
    {
      "inputs": [],
      "name": "PairExists",
      "type": "error"
    },
    {
      "inputs": [],
      "name": "TransferFromFailed",
      "type": "error"
    },
    {
      "inputs": [],
      "name": "ZeroAddress",
      "type": "error"
    },
    {
      "anonymous": false,
      "inputs": [
        {
          "indexed": true,
          "internalType": "address",
          "name": "previousOwner",
          "type": "address"
        },
        {
          "indexed": true,
          "internalType": "address",
          "name": "newOwner",
          "type": "address"
        }
      ],
      "name": "OwnershipTransferred",
      "type": "event"
    },
    {
      "anonymous": false,
      "inputs": [
        {
          "indexed": true,
          "internalType": "address",
          "name": "token0",
          "type": "address"
        },
        {
          "indexed": true,
          "internalType": "address",
          "name": "token1",
          "type": "address"
        },
        {
          "indexed": false,
          "internalType": "address",
          "name": "pair",
          "type": "address"
        },
        {
          "indexed": false,
          "internalType": "uint256",
          "name": "",
          "type": "uint256"
        }
      ],
      "name": "PairCreated",
      "type": "event"
    },
    {
      "anonymous": false,
      "inputs": [
        {
          "indexed": false,
          "internalType": "address",
          "name": "borrowerOperations",
          "type": "address"
        },
        {
          "indexed": false,
          "internalType": "address",
          "name": "troveManager",
          "type": "address"
        },
        {
          "indexed": false,
          "internalType": "address",
          "name": "priceFeed",
          "type": "address"
        },
        {
          "indexed": false,
          "internalType": "address",
          "name": "debtTokenManager",
          "type": "address"
        }
      ],
      "name": "SwapOperationsInitialized",
      "type": "event"
    },
    {
      "inputs": [],
      "name": "BORROWING_FEE_FLOOR",
      "outputs": [
        {
          "internalType": "uint256",
          "name": "",
          "type": "uint256"
        }
      ],
      "stateMutability": "view",
      "type": "function"
    },
    {
      "inputs": [],
      "name": "CCR",
      "outputs": [
        {
          "internalType": "uint256",
          "name": "",
          "type": "uint256"
        }
      ],
      "stateMutability": "view",
      "type": "function"
    },
    {
      "inputs": [],
      "name": "MAX_BORROWING_FEE",
      "outputs": [
        {
          "internalType": "uint256",
          "name": "",
          "type": "uint256"
        }
      ],
      "stateMutability": "view",
      "type": "function"
    },
    {
      "inputs": [],
      "name": "MCR",
      "outputs": [
        {
          "internalType": "uint256",
          "name": "",
          "type": "uint256"
        }
      ],
      "stateMutability": "view",
      "type": "function"
    },
    {
      "inputs": [],
      "name": "PERCENT_DIVISOR",
      "outputs": [
        {
          "internalType": "uint256",
          "name": "",
          "type": "uint256"
        }
      ],
      "stateMutability": "view",
      "type": "function"
    },
    {
      "inputs": [],
      "name": "REDEMPTION_FEE_FLOOR",
      "outputs": [
        {
          "internalType": "uint256",
          "name": "",
          "type": "uint256"
        }
      ],
      "stateMutability": "view",
      "type": "function"
    },
    {
      "inputs": [],
      "name": "STABLE_COIN_GAS_COMPENSATION",
      "outputs": [
        {
          "internalType": "uint256",
          "name": "",
          "type": "uint256"
        }
      ],
      "stateMutability": "view",
      "type": "function"
    },
    {
      "inputs": [],
      "name": "SWAP_BASE_FEE",
      "outputs": [
        {
          "internalType": "uint32",
          "name": "",
          "type": "uint32"
        }
      ],
      "stateMutability": "view",
      "type": "function"
    },
    {
      "inputs": [],
      "name": "SWAP_FEE_PRECISION",
      "outputs": [
        {
          "internalType": "uint32",
          "name": "",
          "type": "uint32"
        }
      ],
      "stateMutability": "view",
      "type": "function"
    },
    {
      "inputs": [],
      "name": "_100pct",
      "outputs": [
        {
          "internalType": "uint256",
          "name": "",
          "type": "uint256"
        }
      ],
      "stateMutability": "view",
      "type": "function"
    },
    {
      "inputs": [
        {
          "internalType": "address",
          "name": "tokenA",
          "type": "address"
        },
        {
          "internalType": "address",
          "name": "tokenB",
          "type": "address"
        },
        {
          "internalType": "uint256",
          "name": "amountADesired",
          "type": "uint256"
        },
        {
          "internalType": "uint256",
          "name": "amountBDesired",
          "type": "uint256"
        },
        {
          "internalType": "uint256",
          "name": "amountAMin",
          "type": "uint256"
        },
        {
          "internalType": "uint256",
          "name": "amountBMin",
          "type": "uint256"
        },
        {
          "internalType": "uint256",
          "name": "_maxMintFeePercentage",
          "type": "uint256"
        },
        {
          "internalType": "uint256",
          "name": "deadline",
          "type": "uint256"
        }
      ],
      "name": "addLiquidity",
      "outputs": [
        {
          "internalType": "uint256",
          "name": "amountA",
          "type": "uint256"
        },
        {
          "internalType": "uint256",
          "name": "amountB",
          "type": "uint256"
        },
        {
          "internalType": "uint256",
          "name": "liquidity",
          "type": "uint256"
        }
      ],
      "stateMutability": "nonpayable",
      "type": "function"
    },
    {
      "inputs": [
        {
          "internalType": "uint256",
          "name": "",
          "type": "uint256"
        }
      ],
      "name": "allPairs",
      "outputs": [
        {
          "internalType": "address",
          "name": "",
          "type": "address"
        }
      ],
      "stateMutability": "view",
      "type": "function"
    },
    {
      "inputs": [],
      "name": "allPairsLength",
      "outputs": [
        {
          "internalType": "uint256",
          "name": "",
          "type": "uint256"
        }
      ],
      "stateMutability": "view",
      "type": "function"
    },
    {
      "inputs": [],
      "name": "borrowerOperations",
      "outputs": [
        {
          "internalType": "contract IBorrowerOperations",
          "name": "",
          "type": "address"
        }
      ],
      "stateMutability": "view",
      "type": "function"
    },
    {
      "inputs": [
        {
          "internalType": "address",
          "name": "tokenA",
          "type": "address"
        },
        {
          "internalType": "address",
          "name": "tokenB",
          "type": "address"
        }
      ],
      "name": "createPair",
      "outputs": [
        {
          "internalType": "address",
          "name": "pair",
          "type": "address"
        }
      ],
      "stateMutability": "nonpayable",
      "type": "function"
    },
    {
      "inputs": [],
      "name": "debtTokenManager",
      "outputs": [
        {
          "internalType": "contract IDebtTokenManager",
          "name": "",
          "type": "address"
        }
      ],
      "stateMutability": "view",
      "type": "function"
    },
    {
      "inputs": [
        {
          "internalType": "uint256",
          "name": "amountOut",
          "type": "uint256"
        },
        {
          "internalType": "uint256",
          "name": "reserveIn",
          "type": "uint256"
        },
        {
          "internalType": "uint256",
          "name": "reserveOut",
          "type": "uint256"
        },
        {
          "internalType": "uint32",
          "name": "swapFee",
          "type": "uint32"
        }
      ],
      "name": "getAmountIn",
      "outputs": [
        {
          "internalType": "uint256",
          "name": "amountIn",
          "type": "uint256"
        }
      ],
      "stateMutability": "pure",
      "type": "function"
    },
    {
      "inputs": [
        {
          "internalType": "uint256",
          "name": "amountIn",
          "type": "uint256"
        },
        {
          "internalType": "uint256",
          "name": "reserveIn",
          "type": "uint256"
        },
        {
          "internalType": "uint256",
          "name": "reserveOut",
          "type": "uint256"
        },
        {
          "internalType": "uint32",
          "name": "swapFee",
          "type": "uint32"
        }
      ],
      "name": "getAmountOut",
      "outputs": [
        {
          "internalType": "uint256",
          "name": "amountOut",
          "type": "uint256"
        }
      ],
      "stateMutability": "pure",
      "type": "function"
    },
    {
      "inputs": [
        {
          "internalType": "uint256",
          "name": "amountOut",
          "type": "uint256"
        },
        {
          "internalType": "address[]",
          "name": "path",
          "type": "address[]"
        }
      ],
      "name": "getAmountsIn",
      "outputs": [
        {
          "internalType": "uint256[]",
          "name": "amounts",
          "type": "uint256[]"
        }
      ],
      "stateMutability": "view",
      "type": "function"
    },
    {
      "inputs": [
        {
          "internalType": "uint256",
          "name": "amountIn",
          "type": "uint256"
        },
        {
          "internalType": "address[]",
          "name": "path",
          "type": "address[]"
        }
      ],
      "name": "getAmountsOut",
      "outputs": [
        {
          "internalType": "uint256[]",
          "name": "amounts",
          "type": "uint256[]"
        }
      ],
      "stateMutability": "view",
      "type": "function"
    },
    {
      "inputs": [
        {
          "internalType": "address",
          "name": "",
          "type": "address"
        },
        {
          "internalType": "address",
          "name": "",
          "type": "address"
        }
      ],
      "name": "getPair",
      "outputs": [
        {
          "internalType": "address",
          "name": "",
          "type": "address"
        }
      ],
      "stateMutability": "view",
      "type": "function"
    },
    {
      "inputs": [
        {
          "internalType": "uint256",
          "name": "stableToMintIn",
          "type": "uint256"
        },
        {
          "internalType": "uint256",
          "name": "debtOutMin",
          "type": "uint256"
        },
        {
          "internalType": "address",
          "name": "debtTokenAddress",
          "type": "address"
        },
        {
          "internalType": "address",
          "name": "to",
          "type": "address"
        },
        {
          "internalType": "uint256",
          "name": "_maxMintFeePercentage",
          "type": "uint256"
        },
        {
          "internalType": "uint256",
          "name": "deadline",
          "type": "uint256"
        }
      ],
      "name": "openLongPosition",
      "outputs": [
        {
          "internalType": "uint256[]",
          "name": "amounts",
          "type": "uint256[]"
        }
      ],
      "stateMutability": "nonpayable",
      "type": "function"
    },
    {
      "inputs": [
        {
          "internalType": "uint256",
          "name": "debtToMintIn",
          "type": "uint256"
        },
        {
          "internalType": "uint256",
          "name": "stableOutMin",
          "type": "uint256"
        },
        {
          "internalType": "address",
          "name": "debtTokenAddress",
          "type": "address"
        },
        {
          "internalType": "address",
          "name": "to",
          "type": "address"
        },
        {
          "internalType": "uint256",
          "name": "_maxMintFeePercentage",
          "type": "uint256"
        },
        {
          "internalType": "uint256",
          "name": "deadline",
          "type": "uint256"
        }
      ],
      "name": "openShortPosition",
      "outputs": [
        {
          "internalType": "uint256[]",
          "name": "amounts",
          "type": "uint256[]"
        }
      ],
      "stateMutability": "nonpayable",
      "type": "function"
    },
    {
      "inputs": [],
      "name": "owner",
      "outputs": [
        {
          "internalType": "address",
          "name": "",
          "type": "address"
        }
      ],
      "stateMutability": "view",
      "type": "function"
    },
    {
      "inputs": [],
      "name": "priceFeedAddress",
      "outputs": [
        {
          "internalType": "address",
          "name": "",
          "type": "address"
        }
      ],
      "stateMutability": "view",
      "type": "function"
    },
    {
      "inputs": [
        {
          "internalType": "uint256",
          "name": "amountA",
          "type": "uint256"
        },
        {
          "internalType": "uint256",
          "name": "reserveA",
          "type": "uint256"
        },
        {
          "internalType": "uint256",
          "name": "reserveB",
          "type": "uint256"
        }
      ],
      "name": "quote",
      "outputs": [
        {
          "internalType": "uint256",
          "name": "amountB",
          "type": "uint256"
        }
      ],
      "stateMutability": "pure",
      "type": "function"
    },
    {
      "inputs": [
        {
          "internalType": "address",
          "name": "tokenA",
          "type": "address"
        },
        {
          "internalType": "address",
          "name": "tokenB",
          "type": "address"
        },
        {
          "internalType": "uint256",
          "name": "liquidity",
          "type": "uint256"
        },
        {
          "internalType": "uint256",
          "name": "amountAMin",
          "type": "uint256"
        },
        {
          "internalType": "uint256",
          "name": "amountBMin",
          "type": "uint256"
        },
        {
          "internalType": "uint256",
          "name": "deadline",
          "type": "uint256"
        }
      ],
      "name": "removeLiquidity",
      "outputs": [
        {
          "internalType": "uint256",
          "name": "amountA",
          "type": "uint256"
        },
        {
          "internalType": "uint256",
          "name": "amountB",
          "type": "uint256"
        }
      ],
      "stateMutability": "nonpayable",
      "type": "function"
    },
    {
      "inputs": [],
      "name": "renounceOwnership",
      "outputs": [],
      "stateMutability": "nonpayable",
      "type": "function"
    },
    {
      "inputs": [
        {
          "internalType": "address",
          "name": "_borrowerOperationsAddress",
          "type": "address"
        },
        {
          "internalType": "address",
          "name": "_troveManagerAddress",
          "type": "address"
        },
        {
          "internalType": "address",
          "name": "_priceFeedAddress",
          "type": "address"
        },
        {
          "internalType": "address",
          "name": "_debtTokenManager",
          "type": "address"
        }
      ],
      "name": "setAddresses",
      "outputs": [],
      "stateMutability": "nonpayable",
      "type": "function"
    },
    {
      "inputs": [
        {
          "internalType": "uint256",
          "name": "amountIn",
          "type": "uint256"
        },
        {
          "internalType": "uint256",
          "name": "amountOutMin",
          "type": "uint256"
        },
        {
          "internalType": "address[]",
          "name": "path",
          "type": "address[]"
        },
        {
          "internalType": "address",
          "name": "to",
          "type": "address"
        },
        {
          "internalType": "uint256",
          "name": "deadline",
          "type": "uint256"
        }
      ],
      "name": "swapExactTokensForTokens",
      "outputs": [
        {
          "internalType": "uint256[]",
          "name": "amounts",
          "type": "uint256[]"
        }
      ],
      "stateMutability": "nonpayable",
      "type": "function"
    },
    {
      "inputs": [
        {
          "internalType": "uint256",
          "name": "amountOut",
          "type": "uint256"
        },
        {
          "internalType": "uint256",
          "name": "amountInMax",
          "type": "uint256"
        },
        {
          "internalType": "address[]",
          "name": "path",
          "type": "address[]"
        },
        {
          "internalType": "address",
          "name": "to",
          "type": "address"
        },
        {
          "internalType": "uint256",
          "name": "deadline",
          "type": "uint256"
        }
      ],
      "name": "swapTokensForExactTokens",
      "outputs": [
        {
          "internalType": "uint256[]",
          "name": "amounts",
          "type": "uint256[]"
        }
      ],
      "stateMutability": "nonpayable",
      "type": "function"
    },
    {
      "inputs": [
        {
          "internalType": "address",
          "name": "newOwner",
          "type": "address"
        }
      ],
      "name": "transferOwnership",
      "outputs": [],
      "stateMutability": "nonpayable",
      "type": "function"
    },
    {
      "inputs": [],
      "name": "troveManager",
      "outputs": [
        {
          "internalType": "contract ITroveManager",
          "name": "",
          "type": "address"
        }
      ],
      "stateMutability": "view",
      "type": "function"
    }
  ],
  "transactionHash": "0xe107ddbc99be8a00c161807d12f273224c6d06a32cb992533b784f9442697a9a",
  "args": [],
  "numDeployments": 1,
  "solcInputHash": "a1ba766827c404575f799519d1eb71c4",
  "bytecode": "0x608060405234801561001057600080fd5b50338061003757604051631e4fbdf760e01b81526000600482015260240160405180910390fd5b61004081610046565b50610096565b600080546001600160a01b038381166001600160a01b0319831681178455604051919092169283917f8be0079c531659141344cd1fd0a4f28419497f9722a3daafe3b4186f6b6457e09190a35050565b614be980620000a66000396000f3fe608060405234801561001057600080fd5b50600436106101fb5760003560e01c806377553ad41161011a578063b4c892e6116100ad578063e0abca0b1161007c578063e0abca0b1461044d578063e67729e314610460578063e6a439051461046a578063f2fde38b1461049e578063f92d34331461026c57600080fd5b8063b4c892e6146103e6578063ba1ffd03146103f9578063c9c6539614610427578063d06ca61f1461043a57600080fd5b80638d63c665116100e95780638d63c6651461039f5780638da5cb5b146103af5780639cd07615146103c0578063ad615dec146103d357600080fd5b806377553ad414610357578063794e57241461036a57806381ba9ed2146103795780638803dbee1461038c57600080fd5b80634a945f8d116101925780635733d58f116101615780635733d58f14610329578063574f2ba314610338578063715018a61461034057806372fe25aa1461034857600080fd5b80634a945f8d146102d0578063502afb04146102e55780635106046414610303578063522a86fe1461031657600080fd5b806338ed1739116101ce57806338ed17391461027a5780633d83908a1461028d57806344483d53146102a05780634870dd9a146102c857600080fd5b80631e3dd18b146102005780631f00ca7414610230578063240926691461025057806328d28b5b1461026c575b600080fd5b61021361020e366004612306565b6104b1565b6040516001600160a01b0390911681526020015b60405180910390f35b61024361023e36600461235a565b6104db565b604051610227919061242b565b61025e66b1a2bc2ec5000081565b604051908152602001610227565b61025e6611c37937e0800081565b61024361028836600461246f565b610645565b600154610213906001600160a01b031681565b6102b36102ae366004612511565b61081a565b60408051928352602083019190915201610227565b61025e60c881565b6102e36102de36600461256a565b610c1f565b005b6102ee610bb881565b60405163ffffffff9091168152602001610227565b61025e6103113660046125d8565b610ce6565b600454610213906001600160a01b031681565b61025e6714d1120d7b16000081565b60065461025e565b6102e3610d93565b61025e670de0b6b3a764000081565b600254610213906001600160a01b031681565b61025e670f43fc2c04ee000081565b61024361038736600461260e565b610da7565b61024361039a36600461246f565b610eb7565b61025e680ad78ebc5ac620000081565b6000546001600160a01b0316610213565b61025e6103ce3660046125d8565b610f55565b61025e6103e136600461266a565b611008565b6102436103f436600461260e565b611071565b61040c610407366004612696565b611147565b60408051938452602084019290925290820152606001610227565b610213610435366004612701565b61164e565b61024361044836600461235a565b6118cc565b600354610213906001600160a01b031681565b6102ee620f424081565b610213610478366004612701565b60056020908152600092835260408084209091529082529020546001600160a01b031681565b6102e36104ac36600461273a565b611a18565b600681815481106104c157600080fd5b6000918252602090912001546001600160a01b0316905081565b6060600282511015610500576040516320db826760e01b815260040160405180910390fd5b815167ffffffffffffffff81111561051a5761051a61231f565b604051908082528060200260200182016040528015610543578160200160208202803683370190505b5090508281600183516105569190612774565b8151811061056657610566612787565b6020026020010181815250506000600183516105829190612774565b90505b801561063e57600080806105d58661059e600187612774565b815181106105ae576105ae612787565b60200260200101518786815181106105c8576105c8612787565b6020026020010151611a5b565b9250925092506106008585815181106105f0576105f0612787565b6020026020010151848484610f55565b8561060c600187612774565b8151811061061c5761061c612787565b60200260200101818152505050505080806106369061279d565b915050610585565b5092915050565b6060814281101561066957604051630407b05b60e31b815260040160405180910390fd5b6106a6888787808060200260200160405190810160405280939291908181526020018383602002808284376000920191909152506118cc92505050565b91508682600184516106b89190612774565b815181106106c8576106c8612787565b602002602001015110156106ef576040516342301c2360e01b815260040160405180910390fd5b6107d08686600081811061070557610705612787565b905060200201602081019061071a919061273a565b33600560008a8a600081811061073257610732612787565b9050602002016020810190610747919061273a565b6001600160a01b03166001600160a01b0316815260200190815260200160002060008a8a600181811061077c5761077c612787565b9050602002016020810190610791919061273a565b6001600160a01b039081168252602082019290925260400160009081205487519216918791906107c3576107c3612787565b6020026020010151611ba8565b61080f82878780806020026020016040519081016040528093929190818152602001838360200280828437600092019190915250899250611ca3915050565b509695505050505050565b600080824281101561083f57604051630407b05b60e31b815260040160405180910390fd5b61088a6040518060c0016040528060006001600160a01b0316815260200160006001600160a01b03168152602001600081526020016000815260200160008152602001600081525090565b6108948a8a611e8d565b6001600160a01b0390811660208481019190915291811683528b811660009081526005835260408082208d8416835290935282902054600154845193516348d4f6d960e11b81523360048201819052948416602482015291831693849363de7bf0a29391928e929116906391a9edb290604401602060405180830381865afa158015610924573d6000803e3d6000fd5b505050506040513d601f19601f8201168201806040525081019061094891906127b4565b60015460208801516040516348d4f6d960e11b81523360048201526001600160a01b0391821660248201529116906391a9edb290604401602060405180830381865afa15801561099c573d6000803e3d6000fd5b505050506040513d601f19601f820116820180604052508101906109c091906127b4565b6040516001600160e01b031960e087901b1681526001600160a01b0390941660048501526024840192909252604483015260648201526084016080604051808303816000875af1158015610a18573d6000803e3d6000fd5b505050506040513d601f19601f82011682018060405250810190610a3c91906127cd565b60a08601526080850181905260608501919091526040840191909152151580610a68575060a082015115155b15610b9c5760408051600280825260608201909252600091816020015b6040805180820190915260008082526020820152815260200190600190039081610a85579050509050604051806040016040528084600001516001600160a01b03168152602001846080015181525081600081518110610ae757610ae7612787565b6020026020010181905250604051806040016040528084602001516001600160a01b031681526020018460a0015181525081600181518110610b2b57610b2b612787565b60209081029190910101526002546040516362c5ff1160e11b81526001600160a01b039091169063c58bfe2290610b689033908590600401612852565b600060405180830381600087803b158015610b8257600080fd5b505af1158015610b96573d6000803e3d6000fd5b50505050505b81516001600160a01b038c8116911614610bbf5781606001518260400151610bca565b816040015182606001515b909550935087851015610bf057604051638dc525d160e01b815260040160405180910390fd5b86841015610c115760405163ef71d09160e01b815260040160405180910390fd5b505050965096945050505050565b610c27611ff2565b610c308461201f565b610c398361201f565b610c428261201f565b610c4b8161201f565b600280546001600160a01b038681166001600160a01b031992831681179093556001805487831690841681179091556003805487841690851681179091556004805493871693909416831790935560408051948552602085019190915283019190915260608201527f1409d816dbb5d0b4943f2f83f2d88ae2e69c834a03e8cc4f41e3878f71f0f0bc9060800160405180910390a150505050565b600084600003610d095760405163098fb56160e01b815260040160405180910390fd5b831580610d14575082155b15610d325760405163bb55fd2760e01b815260040160405180910390fd5b6000610d4183620f4240612876565b610d519063ffffffff1687612893565b90506000610d5f8583612893565b9050600082610d71620f424089612893565b610d7b91906128aa565b9050610d8781836128bd565b98975050505050505050565b610d9b611ff2565b610da5600061206e565b565b604080516002808252606080830184529260009291906020830190803683370190505090508581600081518110610de057610de0612787565b60200260200101906001600160a01b031690816001600160a01b031681525050600460009054906101000a90046001600160a01b03166001600160a01b0316631bd817c96040518163ffffffff1660e01b8152600401602060405180830381865afa158015610e53573d6000803e3d6000fd5b505050506040513d601f19601f82011682018060405250810190610e7791906128df565b81600181518110610e8a57610e8a612787565b60200260200101906001600160a01b031690816001600160a01b031681525050610d8788888388886120be565b60608142811015610edb57604051630407b05b60e31b815260040160405180910390fd5b610f18888787808060200260200160405190810160405280939291908181526020018383602002808284376000920191909152506104db92505050565b91508682600081518110610f2e57610f2e612787565b602002602001015111156106ef5760405163e1b0da4f60e01b815260040160405180910390fd5b600084600003610f78576040516342301c2360e01b815260040160405180910390fd5b831580610f83575082155b15610fa15760405163bb55fd2760e01b815260040160405180910390fd5b6000620f4240610fb18787612893565b610fbb9190612893565b90506000610fcc84620f4240612876565b63ffffffff16610fdc8887612774565b610fe69190612893565b9050610ff281836128bd565b610ffd9060016128aa565b979650505050505050565b60008360000361102b57604051632ca2f52b60e11b815260040160405180910390fd5b821580611036575081155b156110545760405163bb55fd2760e01b815260040160405180910390fd5b8261105f8386612893565b61106991906128bd565b949350505050565b6040805160028082526060808301845292600092919060208301908036833750506004805460408051631bd817c960e01b815290519495506001600160a01b0390911693631bd817c99350818301926020928290030181865afa1580156110dc573d6000803e3d6000fd5b505050506040513d601f19601f8201168201806040525081019061110091906128df565b8160008151811061111357611113612787565b60200260200101906001600160a01b031690816001600160a01b0316815250508581600181518110610e8a57610e8a612787565b6000806000834281101561116e57604051630407b05b60e31b815260040160405180910390fd5b6111b76040518060e0016040528060006001600160a01b031681526020016000815260200160008152602001600081526020016000815260200160008152602001600081525090565b600560008e6001600160a01b03166001600160a01b0316815260200190815260200160002060008d6001600160a01b03166001600160a01b0316815260200190815260200160002060009054906101000a90046001600160a01b031681600001906001600160a01b031690816001600160a01b03168152505060006001600160a01b031681600001516001600160a01b0316036112675760405163317f12fd60e21b815260040160405180910390fd5b6000806112748f8f611a5b565b5091509150816000148015611287575080155b15611297578c96508b9550611321565b60006112a48e8484611008565b90508c81116112d9578a8110156112ce5760405163ef71d09160e01b815260040160405180910390fd5b8d975095508561131f565b60006112e68e8486611008565b90508e8111156112f8576112f86128fc565b8c81101561131957604051638dc525d160e01b815260040160405180910390fd5b97508c96505b505b50506040516370a0823160e01b81523360048201526001600160a01b038e16906370a0823190602401602060405180830381865afa158015611367573d6000803e3d6000fd5b505050506040513d601f19601f8201168201806040525081019061138b91906127b4565b60208201526040516370a0823160e01b81523360048201526001600160a01b038d16906370a0823190602401602060405180830381865afa1580156113d4573d6000803e3d6000fd5b505050506040513d601f19601f820116820180604052508101906113f891906127b4565b6040820152602081015161140c90866122df565b6060820152604081015161142090856122df565b608082015260608101516114349086612774565b60a082015260808101516114489085612774565b60c082015260a0810151151580611462575060c081015115155b156115935760408051600280825260608201909252600091816020015b604080518082019091526000808252602082015281526020019060019003908161147f57905050905060405180604001604052808f6001600160a01b031681526020018360a00151815250816000815181106114dd576114dd612787565b602002602001018190525060405180604001604052808e6001600160a01b031681526020018360c001518152508160018151811061151d5761151d612787565b602090810291909101015260025482516040516362c942cf60e11b81526001600160a01b039092169163c592859e9161155f9133919086908e90600401612912565b600060405180830381600087803b15801561157957600080fd5b505af115801561158d573d6000803e3d6000fd5b50505050505b6060810151156115b1576115b18d3383600001518460600151611ba8565b6080810151156115cf576115cf8c3383600001518460800151611ba8565b80516040516335313c2160e11b81523360048201526001600160a01b0390911690636a627842906024016020604051808303816000875af1158015611618573d6000803e3d6000fd5b505050506040513d601f19601f8201168201806040525081019061163c91906127b4565b92505050985098509895505050505050565b6000611658611ff2565b816001600160a01b0316836001600160a01b03160361168a57604051630bd969eb60e41b815260040160405180910390fd5b6000806116978585611e8d565b90925090506001600160a01b0382166116c35760405163d92e233d60e01b815260040160405180910390fd5b6001600160a01b0382811660009081526005602090815260408083208585168452909152902054161561170957604051633d77e89160e01b815260040160405180910390fd5b60006040518060200161171b906122f9565b601f1982820381018352601f9091011660408190526bffffffffffffffffffffffff19606086811b8216602084015285901b166034820152909150600090604801604051602081830303815290604052805190602001209050808251602084016000f560048054600354604051637c643b2f60e11b81526001600160a01b0389811694820194909452878416602482015291831660448301528216606482015291965086169063f8c8765e90608401600060405180830381600087803b1580156117e457600080fd5b505af11580156117f8573d6000803e3d6000fd5b505050506001600160a01b0384811660008181526005602081815260408084208987168086529083528185208054978d166001600160a01b031998891681179091559383528185208686528352818520805488168517905560068054600181018255958190527ff652222313e28459528d920b65115c16c04f3efc82aaedc97be59f3f377c0d3f9095018054909716841790965592548351928352908201527f0d3648bd0f6ba80134a33ba9275ac585d9d315f0ad8355cddefde31afa28d0e9910160405180910390a35050505092915050565b60606002825110156118f1576040516320db826760e01b815260040160405180910390fd5b815167ffffffffffffffff81111561190b5761190b61231f565b604051908082528060200260200182016040528015611934578160200160208202803683370190505b509050828160008151811061194b5761194b612787565b60200260200101818152505060005b600183516119689190612774565b81101561063e5760008060006119af86858151811061198957611989612787565b60200260200101518786600161199f91906128aa565b815181106105c8576105c8612787565b9250925092506119da8585815181106119ca576119ca612787565b6020026020010151848484610ce6565b856119e68660016128aa565b815181106119f6576119f6612787565b6020026020010181815250505050508080611a109061294f565b91505061195a565b611a20611ff2565b6001600160a01b038116611a4f57604051631e4fbdf760e01b8152600060048201526024015b60405180910390fd5b611a588161206e565b50565b6001600160a01b03808316600090815260056020908152604080832085851684528252808320548151631a995bed60e31b815291519394859485949290911692839263d4cadf68926004808401938290030181865afa158015611ac2573d6000803e3d6000fd5b505050506040513d601f19601f82011682018060405250810190611ae69190612968565b9150600080826001600160a01b0316630902f1ac6040518163ffffffff1660e01b8152600401606060405180830381865afa158015611b29573d6000803e3d6000fd5b505050506040513d601f19601f82011682018060405250810190611b4d919061299c565b506001600160701b031691506001600160701b031691506000611b708989611e8d565b509050806001600160a01b0316896001600160a01b031614611b93578183611b96565b82825b909a9099509497509395505050505050565b604080516001600160a01b0385811660248301528481166044830152606480830185905283518084039091018152608490920183526020820180516001600160e01b03166323b872dd60e01b1790529151600092839290881691611c0c9190612a07565b6000604051808303816000865af19150503d8060008114611c49576040519150601f19603f3d011682016040523d82523d6000602084013e611c4e565b606091505b5091509150811580611c7d575060008151118015611c7d575080806020019051810190611c7b9190612a23565b155b15611c9b57604051631e4e7d0960e21b815260040160405180910390fd5b505050505050565b60005b60018351611cb49190612774565b811015611e8757600080848381518110611cd057611cd0612787565b602002602001015185846001611ce691906128aa565b81518110611cf657611cf6612787565b6020026020010151915091506000611d0e8383611e8d565b509050600087611d1f8660016128aa565b81518110611d2f57611d2f612787565b60200260200101519050600080836001600160a01b0316866001600160a01b031614611d5d57826000611d61565b6000835b91509150600060028a51611d759190612774565b8810611d815788611ddf565b6001600160a01b0386166000908152600560205260408120908b611da68b60026128aa565b81518110611db657611db6612787565b6020908102919091018101516001600160a01b0390811683529082019290925260400160002054165b6001600160a01b0388811660009081526005602090815260408083208b8516845282528083205481519384529183019081905263022c0d9f60e01b905292935091169063022c0d9f90611e3b9086908690869060248101612a45565b600060405180830381600087803b158015611e5557600080fd5b505af1158015611e69573d6000803e3d6000fd5b50505050505050505050508080611e7f9061294f565b915050611ca6565b50505050565b600080826001600160a01b0316846001600160a01b031603611ec257604051630bd969eb60e41b815260040160405180910390fd5b6001600160a01b0384161580611edf57506001600160a01b038316155b15611efd5760405163d92e233d60e01b815260040160405180910390fd5b6000600460009054906101000a90046001600160a01b03166001600160a01b0316631bd817c96040518163ffffffff1660e01b8152600401602060405180830381865afa158015611f52573d6000803e3d6000fd5b505050506040513d601f19601f82011682018060405250810190611f7691906128df565b9050806001600160a01b0316856001600160a01b031603611f9d5784849250925050611feb565b806001600160a01b0316846001600160a01b031603611fc25783859250925050611feb565b836001600160a01b0316856001600160a01b031610611fe2578385611fe5565b84845b92509250505b9250929050565b6000546001600160a01b03163314610da55760405163118cdaa760e01b8152336004820152602401611a46565b6001600160a01b0381166120465760405163d92e233d60e01b815260040160405180910390fd5b803b600081900361206a57604051636f7c43f160e01b815260040160405180910390fd5b5050565b600080546001600160a01b038381166001600160a01b0319831681178455604051919092169283917f8be0079c531659141344cd1fd0a4f28419497f9722a3daafe3b4186f6b6457e09190a35050565b6060600060056000866000815181106120d9576120d9612787565b60200260200101516001600160a01b03166001600160a01b0316815260200190815260200160002060008660018151811061211657612116612787565b6020908102919091018101516001600160a01b03908116835290820192909252604001600020541690508061215e5760405163317f12fd60e21b815260040160405180910390fd5b61216887866118cc565b915085826001845161217a9190612774565b8151811061218a5761218a612787565b602002602001015110156121b1576040516342301c2360e01b815260040160405180910390fd5b604080516001808252818301909252600091816020015b60408051808201909152600080825260208201528152602001906001900390816121c857905050905060405180604001604052808760008151811061220f5761220f612787565b60200260200101516001600160a01b031681526020018460008151811061223857612238612787565b60200260200101518152508160008151811061225657612256612787565b60209081029190910101526002546040516362c942cf60e11b81526001600160a01b039091169063c592859e90612297903390869086908a90600401612912565b600060405180830381600087803b1580156122b157600080fd5b505af11580156122c5573d6000803e3d6000fd5b505050506122d4838787611ca3565b505095945050505050565b60008183106122ee57816122f0565b825b90505b92915050565b61211e80612a9683390190565b60006020828403121561231857600080fd5b5035919050565b634e487b7160e01b600052604160045260246000fd5b6001600160a01b0381168114611a5857600080fd5b803561235581612335565b919050565b6000806040838503121561236d57600080fd5b8235915060208084013567ffffffffffffffff8082111561238d57600080fd5b818601915086601f8301126123a157600080fd5b8135818111156123b3576123b361231f565b8060051b604051601f19603f830116810181811085821117156123d8576123d861231f565b6040529182528482019250838101850191898311156123f657600080fd5b938501935b8285101561241b5761240c8561234a565b845293850193928501926123fb565b8096505050505050509250929050565b6020808252825182820181905260009190848201906040850190845b8181101561246357835183529284019291840191600101612447565b50909695505050505050565b60008060008060008060a0878903121561248857600080fd5b8635955060208701359450604087013567ffffffffffffffff808211156124ae57600080fd5b818901915089601f8301126124c257600080fd5b8135818111156124d157600080fd5b8a60208260051b85010111156124e657600080fd5b6020830196508095505050506124fe6060880161234a565b9150608087013590509295509295509295565b60008060008060008060c0878903121561252a57600080fd5b863561253581612335565b9550602087013561254581612335565b95989597505050506040840135936060810135936080820135935060a0909101359150565b6000806000806080858703121561258057600080fd5b843561258b81612335565b9350602085013561259b81612335565b925060408501356125ab81612335565b915060608501356125bb81612335565b939692955090935050565b63ffffffff81168114611a5857600080fd5b600080600080608085870312156125ee57600080fd5b84359350602085013592506040850135915060608501356125bb816125c6565b60008060008060008060c0878903121561262757600080fd5b8635955060208701359450604087013561264081612335565b9350606087013561265081612335565b9598949750929560808101359460a0909101359350915050565b60008060006060848603121561267f57600080fd5b505081359360208301359350604090920135919050565b600080600080600080600080610100898b0312156126b357600080fd5b88356126be81612335565b975060208901356126ce81612335565b979a9799505050506040860135956060810135956080820135955060a0820135945060c0820135935060e0909101359150565b6000806040838503121561271457600080fd5b823561271f81612335565b9150602083013561272f81612335565b809150509250929050565b60006020828403121561274c57600080fd5b813561275781612335565b9392505050565b634e487b7160e01b600052601160045260246000fd5b818103818111156122f3576122f361275e565b634e487b7160e01b600052603260045260246000fd5b6000816127ac576127ac61275e565b506000190190565b6000602082840312156127c657600080fd5b5051919050565b600080600080608085870312156127e357600080fd5b505082516020840151604085015160609095015191969095509092509050565b600081518084526020808501945080840160005b8381101561284757815180516001600160a01b031688528301518388015260409096019590820190600101612817565b509495945050505050565b6001600160a01b038316815260406020820181905260009061106990830184612803565b63ffffffff82811682821603908082111561063e5761063e61275e565b80820281158282048414176122f3576122f361275e565b808201808211156122f3576122f361275e565b6000826128da57634e487b7160e01b600052601260045260246000fd5b500490565b6000602082840312156128f157600080fd5b815161275781612335565b634e487b7160e01b600052600160045260246000fd5b6001600160a01b0385811682528416602082015260806040820181905260009061293e90830185612803565b905082606083015295945050505050565b6000600182016129615761296161275e565b5060010190565b60006020828403121561297a57600080fd5b8151612757816125c6565b80516001600160701b038116811461235557600080fd5b6000806000606084860312156129b157600080fd5b6129ba84612985565b92506129c860208501612985565b915060408401516129d8816125c6565b809150509250925092565b60005b838110156129fe5781810151838201526020016129e6565b50506000910152565b60008251612a198184602087016129e3565b9190910192915050565b600060208284031215612a3557600080fd5b8151801515811461275757600080fd5b84815283602082015260018060a01b03831660408201526080606082015260008251806080840152612a7e8160a08501602087016129e3565b601f01601f19169190910160a0019594505050505056fe60806040526001600d5534801561001557600080fd5b5060408051808201825260048152630537761760e41b6020918201528151808301835260018152603160f81b9082015281517f8b73c3c69bb8fe3d512ecc4cf759cc79239f7b179b0ffacaa9a75d522b39400f818301527fbce316f0d9d2a3affa97de1d99bb2aac0538e2666d0d8545545ead241ef0ccab818401527fc89efdaa54c0f20c7adf612882df0950f5a951637e0307cdcb4c672f298b8bc660608201524660808201523060a0808301919091528351808303909101815260c09091019092528151910120600355600580546001600160a01b0319163317905561201c806101026000396000f3fe608060405234801561001057600080fd5b50600436106102115760003560e01c806370a0823111610125578063bc25cf77116100ad578063de7bf0a21161007c578063de7bf0a2146104c6578063e67729e3146104f9578063f8c8765e14610503578063f92d3433146102e8578063fff6cae91461051657600080fd5b8063bc25cf771461046d578063d21220a714610480578063d4cadf6814610493578063dd62ed3e1461049b57600080fd5b80637ecebe00116100f45780637ecebe00146103fe5780638b33b4b21461041e5780638d63c6651461043157806395d89b4114610441578063ba9a7a561461046457600080fd5b806370a08231146103ad57806372fe25aa146103cd578063741bef1a146103dc578063794e5724146103ef57600080fd5b8063313ce567116101a8578063522a86fe11610177578063522a86fe146103665780635733d58f146103795780635909c0d5146103885780635a3d5493146103915780636a6278421461039a57600080fd5b8063313ce5671461031d5780633644e515146103375780634870dd9a14610340578063502afb041461034857600080fd5b806318160ddd116101e457806318160ddd146102c357806324092669146102da57806328d28b5b146102e857806330adf81f146102f657600080fd5b8063022c0d9f1461021657806306fdde031461022b5780630902f1ac146102645780630dfe168114610298575b600080fd5b610229610224366004611ac1565b61051e565b005b61024e604051806040016040528060048152602001630537761760e41b81525081565b60405161025b9190611b7b565b60405180910390f35b61026c610a14565b604080516001600160701b03948516815293909216602084015263ffffffff169082015260600161025b565b6008546102ab906001600160a01b031681565b6040516001600160a01b03909116815260200161025b565b6102cc60005481565b60405190815260200161025b565b6102cc66b1a2bc2ec5000081565b6102cc6611c37937e0800081565b6102cc7f6e71edae12b1b97f4d1f60370fef10105fa2faae0126114a169c64845d6126c981565b610325601281565b60405160ff909116815260200161025b565b6102cc60035481565b6102cc60c881565b610351610bb881565b60405163ffffffff909116815260200161025b565b6007546102ab906001600160a01b031681565b6102cc6714d1120d7b16000081565b6102cc600b5481565b6102cc600c5481565b6102cc6103a8366004611bae565b610a3e565b6102cc6103bb366004611bae565b60016020526000908152604090205481565b6102cc670de0b6b3a764000081565b6006546102ab906001600160a01b031681565b6102cc670f43fc2c04ee000081565b6102cc61040c366004611bae565b60046020526000908152604090205481565b6005546102ab906001600160a01b031681565b6102cc680ad78ebc5ac620000081565b61024e604051806040016040528060048152602001630535741560e41b81525081565b6102cc6103e881565b61022961047b366004611bae565b610c9d565b6009546102ab906001600160a01b031681565b610351610db1565b6102cc6104a9366004611bd2565b600260209081526000928352604080842090915290825290205481565b6104d96104d4366004611c0b565b611038565b60408051948552602085019390935291830152606082015260800161025b565b610351620f424081565b610229610511366004611c46565b611431565b6102296114ac565b600d54600003610541576040516303cb96db60e21b815260040160405180910390fd5b6000600d5561054e6115d1565b8415801561055a575083155b15610578576040516342301c2360e01b815260040160405180910390fd5b600a546001600160701b03168511806105a25750600a54600160701b90046001600160701b031684115b156105c05760405163bb55fd2760e01b815260040160405180910390fd5b60085460095460009182916001600160a01b03918216919081169087168214806105fb5750806001600160a01b0316876001600160a01b0316145b1561061957604051630521f43160e31b815260040160405180910390fd5b881561062a5761062a82888b6115fe565b871561063b5761063b81888a6115fe565b84156106a857604051631bf35dcd60e31b81526001600160a01b0388169063df9aee68906106759033908d908d908c908c90600401611ca2565b600060405180830381600087803b15801561068f57600080fd5b505af11580156106a3573d6000803e3d6000fd5b505050505b6040516370a0823160e01b81523060048201526001600160a01b038316906370a0823190602401602060405180830381865afa1580156106ec573d6000803e3d6000fd5b505050506040513d601f19601f820116820180604052508101906107109190611cee565b6040516370a0823160e01b81523060048201529094506001600160a01b038216906370a0823190602401602060405180830381865afa158015610757573d6000803e3d6000fd5b505050506040513d601f19601f8201168201806040525081019061077b9190611cee565b600a549093506000925061079a915089906001600160701b0316611d1d565b83116107a75760006107c8565b600a546107be9089906001600160701b0316611d1d565b6107c89084611d1d565b600a549091506000906107ec908990600160701b90046001600160701b0316611d1d565b83116107f9576000610821565b600a54610817908990600160701b90046001600160701b0316611d1d565b6108219084611d1d565b90508115801561082f575080155b1561084d5760405163098fb56160e01b815260040160405180910390fd5b6000306001600160a01b031663d4cadf686040518163ffffffff1660e01b8152600401602060405180830381865afa15801561088d573d6000803e3d6000fd5b505050506040513d601f19601f820116820180604052508101906108b19190611d30565b905060006108c563ffffffff831685611d56565b6108d2620f424088611d56565b6108dc9190611d1d565b905060006108f063ffffffff841685611d56565b6108fd620f424088611d56565b6109079190611d1d565b90506109176002620f4240611e7e565b600a5463ffffffff9190911690610940906001600160701b03600160701b820481169116611e93565b61094a9190611e93565b6001600160701b031661095d8284611d56565b101561097c5760405163a932492f60e01b815260040160405180910390fd5b5050600a546109a290869086906001600160701b0380821691600160701b900416611720565b60408051848152602081018490529081018b9052606081018a905263ffffffff821660808201526001600160a01b0389169033907f485fd455f44df610bbdb723335bb24947ffc723ae537fb9f82dc8e5ee6f63b019060a00160405180910390a350506001600d555050505050505050565b600a546001600160701b0380821692600160701b830490911691600160e01b900463ffffffff1690565b6000600d54600003610a63576040516303cb96db60e21b815260040160405180910390fd5b6000600d55610a706115d1565b600080610a7b610a14565b506008546040516370a0823160e01b81523060048201529294509092506000916001600160a01b03909116906370a0823190602401602060405180830381865afa158015610acd573d6000803e3d6000fd5b505050506040513d601f19601f82011682018060405250810190610af19190611cee565b6009546040516370a0823160e01b81523060048201529192506000916001600160a01b03909116906370a0823190602401602060405180830381865afa158015610b3f573d6000803e3d6000fd5b505050506040513d601f19601f82011682018060405250810190610b639190611cee565b90506000610b7a6001600160701b03861684611d1d565b90506000610b916001600160701b03861684611d1d565b60008054919250819003610bd2576103e8610bb4610baf8486611d56565b6118e5565b610bbe9190611d1d565b9750610bcd60006103e8611955565b610c19565b610c166001600160701b038816610be98386611d56565b610bf39190611ed4565b6001600160701b038816610c078486611d56565b610c119190611ed4565b6119de565b97505b87600003610c3a57604051633489be7560e21b815260040160405180910390fd5b610c448989611955565b610c5085858989611720565b604080518481526020810184905233917f4c209b5fc8ad50758f13e2e1088ba56a560dff690a1c6fef26394f4c03821c4f910160405180910390a250506001600d55509395945050505050565b600d54600003610cc0576040516303cb96db60e21b815260040160405180910390fd5b6000600d55600854600954600a546040516370a0823160e01b81523060048201526001600160a01b039384169390921691610d5f91849186916001600160701b03169083906370a08231906024015b602060405180830381865afa158015610d2c573d6000803e3d6000fd5b505050506040513d601f19601f82011682018060405250810190610d509190611cee565b610d5a9190611d1d565b6115fe565b600a546040516370a0823160e01b8152306004820152610da79183918691600160701b90046001600160701b0316906001600160a01b038416906370a0823190602401610d0f565b50506001600d5550565b600080600760009054906101000a90046001600160a01b03166001600160a01b0316631bd817c96040518163ffffffff1660e01b8152600401602060405180830381865afa158015610e07573d6000803e3d6000fd5b505050506040513d601f19601f82011682018060405250810190610e2b9190611ee8565b6008549091506000906001600160a01b03808416911614610e57576008546001600160a01b0316610e64565b6009546001600160a01b03165b600754604051633803473960e01b81526001600160a01b038084166004830152929350911690633803473990602401602060405180830381865afa158015610eb0573d6000803e3d6000fd5b505050506040513d601f19601f82011682018060405250810190610ed49190611f05565b610ee257610bb89250505090565b6006546040516341976e0960e01b81526001600160a01b03838116600483015260009216906341976e0990602401602060405180830381865afa158015610f2d573d6000803e3d6000fd5b505050506040513d601f19601f82011682018060405250810190610f519190611cee565b6008549091506000906001600160a01b03848116911614610fa457600a546001600160701b03600160701b8204811691610f9591670de0b6b3a76400009116611d56565b610f9f9190611ed4565b610fd8565b600a546001600160701b0380821691610fce91670de0b6b3a764000091600160701b900416611d56565b610fd89190611ed4565b905080821015610fee57610bb894505050505090565b600081611003670de0b6b3a764000085611d56565b61100d9190611ed4565b9050670de0b6b3a7640000611024610bb883611d56565b61102e9190611ed4565b9550505050505090565b600080600080600d54600003611061576040516303cb96db60e21b815260040160405180910390fd5b6000600d5561106e6115d1565b600080611079610a14565b506008546040516370a0823160e01b81523060048201529294509092506000916001600160a01b03909116906370a0823190602401602060405180830381865afa1580156110cb573d6000803e3d6000fd5b505050506040513d601f19601f820116820180604052508101906110ef9190611cee565b6009546040516370a0823160e01b81523060048201529192506000916001600160a01b03909116906370a0823190602401602060405180830381865afa15801561113d573d6000803e3d6000fd5b505050506040513d601f19601f820116820180604052508101906111619190611cee565b60005490915080611172848e611d56565b61117c9190611ed4565b985080611189838e611d56565b6111939190611ed4565b97508815806111a0575087155b156111be5760405163749383ad60e01b815260040160405180910390fd5b6111c88d8d6119f8565b506111d38a896119de565b95506111df89886119de565b9450851561124c57600854604051632770a7eb60e21b8152306004820152602481018890526001600160a01b0390911690639dc29fac90604401600060405180830381600087803b15801561123357600080fd5b505af1158015611247573d6000803e3d6000fd5b505050505b84156112b757600954604051632770a7eb60e21b8152306004820152602481018790526001600160a01b0390911690639dc29fac90604401600060405180830381600087803b15801561129e57600080fd5b505af11580156112b2573d6000803e3d6000fd5b505050505b6008546112d2906001600160a01b03168d610d5a898c611d1d565b6009546112ed906001600160a01b03168d610d5a888b611d1d565b6008546040516370a0823160e01b81523060048201526001600160a01b03909116906370a0823190602401602060405180830381865afa158015611335573d6000803e3d6000fd5b505050506040513d601f19601f820116820180604052508101906113599190611cee565b6009546040516370a0823160e01b81523060048201529193506001600160a01b0316906370a0823190602401602060405180830381865afa1580156113a2573d6000803e3d6000fd5b505050506040513d601f19601f820116820180604052508101906113c69190611cee565b90506113d482828686611720565b60408051898152602081018990526001600160a01b038e169133917fdccd412f0b1252819cb1fd330b93224ca42612892bb3f4f789976e6d81936496910160405180910390a3505050506001600d81905550945094509450949050565b6005546001600160a01b0316331461145c57604051631dd2188d60e31b815260040160405180910390fd5b600880546001600160a01b039586166001600160a01b0319918216179091556009805494861694821694909417909355600780549285169284169290921790915560068054919093169116179055565b600d546000036114cf576040516303cb96db60e21b815260040160405180910390fd5b6000600d556008546040516370a0823160e01b81523060048201526115ca916001600160a01b0316906370a0823190602401602060405180830381865afa15801561151e573d6000803e3d6000fd5b505050506040513d601f19601f820116820180604052508101906115429190611cee565b6009546040516370a0823160e01b81523060048201526001600160a01b03909116906370a0823190602401602060405180830381865afa15801561158a573d6000803e3d6000fd5b505050506040513d601f19601f820116820180604052508101906115ae9190611cee565b600a546001600160701b0380821691600160701b900416611720565b6001600d55565b6005546001600160a01b031633146115fc5760405163091664d760e11b815260040160405180910390fd5b565b604080518082018252601981527f7472616e7366657228616464726573732c75696e74323536290000000000000060209182015281516001600160a01b0385811660248301526044808301869052845180840390910181526064909201845291810180516001600160e01b031663a9059cbb60e01b1790529151600092839287169161168a9190611f27565b6000604051808303816000865af19150503d80600081146116c7576040519150601f19603f3d011682016040523d82523d6000602084013e6116cc565b606091505b50915091508115806116fb5750600081511180156116fb5750808060200190518101906116f99190611f05565b155b15611719576040516312171d8360e31b815260040160405180910390fd5b5050505050565b6001600160701b0384118061173b57506001600160701b0383115b1561175957604051631a93c68960e11b815260040160405180910390fd5b600061176a64010000000042611f43565b600a5490915060009061178a90600160e01b900463ffffffff1683611f57565b905060008163ffffffff161180156117aa57506001600160701b03841615155b80156117be57506001600160701b03831615155b1561184d578063ffffffff166117e6856117d786611a7b565b6001600160e01b031690611a94565b6001600160e01b03166117f99190611d56565b600b600082825461180a9190611f7b565b909155505063ffffffff8116611823846117d787611a7b565b6001600160e01b03166118369190611d56565b600c60008282546118479190611f7b565b90915550505b600a805463ffffffff8416600160e01b026001600160e01b036001600160701b03898116600160701b9081026001600160e01b03199095168c83161794909417918216831794859055604080519382169282169290921783529290930490911660208201527f1c411e9a96e071241c2f21f7726b17ae89e3cab4c78be50e062b03a9fffbbad1910160405180910390a1505050505050565b6000600382111561194657508060006118ff600283611ed4565b61190a906001611f7b565b90505b81811015611940579050806002816119258186611ed4565b61192f9190611f7b565b6119399190611ed4565b905061190d565b50919050565b8115611950575060015b919050565b806000808282546119669190611f7b565b90915550506001600160a01b03821660009081526001602052604081208054839290611993908490611f7b565b90915550506040518181526001600160a01b038316906000907fddf252ad1be2c89b69c2b068fc378daa952ba7f163c4a11628f55a4df523b3ef906020015b60405180910390a35050565b60008183106119ed57816119ef565b825b90505b92915050565b6001600160a01b03821660009081526001602052604081208054839290611a20908490611d1d565b9250508190555080600080828254611a389190611d1d565b90915550506040518181526000906001600160a01b038416907fddf252ad1be2c89b69c2b068fc378daa952ba7f163c4a11628f55a4df523b3ef906020016119d2565b60006119f2600160701b6001600160701b038416611f8e565b60006119ef6001600160701b03831684611fc0565b6001600160a01b0381168114611abe57600080fd5b50565b600080600080600060808688031215611ad957600080fd5b85359450602086013593506040860135611af281611aa9565b9250606086013567ffffffffffffffff80821115611b0f57600080fd5b818801915088601f830112611b2357600080fd5b813581811115611b3257600080fd5b896020828501011115611b4457600080fd5b9699959850939650602001949392505050565b60005b83811015611b72578181015183820152602001611b5a565b50506000910152565b6020815260008251806020840152611b9a816040850160208701611b57565b601f01601f19169190910160400192915050565b600060208284031215611bc057600080fd5b8135611bcb81611aa9565b9392505050565b60008060408385031215611be557600080fd5b8235611bf081611aa9565b91506020830135611c0081611aa9565b809150509250929050565b60008060008060808587031215611c2157600080fd5b8435611c2c81611aa9565b966020860135965060408601359560600135945092505050565b60008060008060808587031215611c5c57600080fd5b8435611c6781611aa9565b93506020850135611c7781611aa9565b92506040850135611c8781611aa9565b91506060850135611c9781611aa9565b939692955090935050565b60018060a01b038616815284602082015283604082015260806060820152816080820152818360a0830137600081830160a090810191909152601f909201601f19160101949350505050565b600060208284031215611d0057600080fd5b5051919050565b634e487b7160e01b600052601160045260246000fd5b818103818111156119f2576119f2611d07565b600060208284031215611d4257600080fd5b815163ffffffff81168114611bcb57600080fd5b80820281158282048414176119f2576119f2611d07565b600181815b80851115611daa578163ffffffff04821115611d9057611d90611d07565b80851615611d9d57918102915b93841c9390800290611d72565b509250929050565b600082611dc1575060016119f2565b81611dce575060006119f2565b8160018114611de45760028114611dee57611e1f565b60019150506119f2565b60ff841115611dff57611dff611d07565b6001841b915063ffffffff821115611e1957611e19611d07565b506119f2565b5060208310610133831016604e8410600b8410161715611e56575081810a63ffffffff811115611e5157611e51611d07565b6119f2565b611e608383611d6d565b8063ffffffff04821115611e7657611e76611d07565b029392505050565b60006119ef60ff841663ffffffff8416611db2565b6001600160701b03818116838216028082169190828114611eb657611eb6611d07565b505092915050565b634e487b7160e01b600052601260045260246000fd5b600082611ee357611ee3611ebe565b500490565b600060208284031215611efa57600080fd5b8151611bcb81611aa9565b600060208284031215611f1757600080fd5b81518015158114611bcb57600080fd5b60008251611f39818460208701611b57565b9190910192915050565b600082611f5257611f52611ebe565b500690565b63ffffffff828116828216039080821115611f7457611f74611d07565b5092915050565b808201808211156119f2576119f2611d07565b6001600160e01b03828116828216818102831692918115828504821417611fb757611fb7611d07565b50505092915050565b60006001600160e01b0383811680611fda57611fda611ebe565b9216919091049291505056fea2646970667358221220c08ad3bb98df300c540313d160ba8e76f6404d265fdde7063cab5ce5c33bfe4764736f6c63430008140033a2646970667358221220fa81b47fcf7f5aa45760c4f7d78d5921771da63b07e862c7ae2365305787772264736f6c63430008140033",
  "devdoc": {
    "errors": {
      "OwnableInvalidOwner(address)": [
        {
          "details": "The owner is not a valid owner account. (eg. `address(0)`)"
        }
      ],
      "OwnableUnauthorizedAccount(address)": [
        {
          "details": "The caller account is not authorized to perform an operation."
        }
      ]
    },
    "kind": "dev",
    "methods": {
      "owner()": {
        "details": "Returns the address of the current owner."
      },
      "renounceOwnership()": {
        "details": "Leaves the contract without owner. It will not be possible to call `onlyOwner` functions. Can only be called by the current owner. NOTE: Renouncing ownership will leave the contract without an owner, thereby disabling any functionality that is only available to the owner."
      },
      "transferOwnership(address)": {
        "details": "Transfers ownership of the contract to a new account (`newOwner`). Can only be called by the current owner."
      }
    },
    "version": 1
  },
  "userdoc": {
    "kind": "user",
    "methods": {},
    "version": 1
  },
  "storageLayout": {
    "storage": [
      {
        "astId": 8,
        "contract": "contracts/SwapOperations.sol:SwapOperations",
        "label": "_owner",
        "offset": 0,
        "slot": "0",
        "type": "t_address"
      },
      {
        "astId": 16083,
        "contract": "contracts/SwapOperations.sol:SwapOperations",
        "label": "troveManager",
        "offset": 0,
        "slot": "1",
        "type": "t_contract(ITroveManager)8742"
      },
      {
        "astId": 16086,
        "contract": "contracts/SwapOperations.sol:SwapOperations",
        "label": "borrowerOperations",
        "offset": 0,
        "slot": "2",
        "type": "t_contract(IBorrowerOperations)6870"
      },
      {
        "astId": 16088,
        "contract": "contracts/SwapOperations.sol:SwapOperations",
        "label": "priceFeedAddress",
        "offset": 0,
        "slot": "3",
        "type": "t_address"
      },
      {
        "astId": 16091,
        "contract": "contracts/SwapOperations.sol:SwapOperations",
        "label": "debtTokenManager",
        "offset": 0,
        "slot": "4",
        "type": "t_contract(IDebtTokenManager)7138"
      },
      {
        "astId": 16097,
        "contract": "contracts/SwapOperations.sol:SwapOperations",
        "label": "getPair",
        "offset": 0,
        "slot": "5",
        "type": "t_mapping(t_address,t_mapping(t_address,t_address))"
      },
      {
        "astId": 16100,
        "contract": "contracts/SwapOperations.sol:SwapOperations",
        "label": "allPairs",
        "offset": 0,
        "slot": "6",
        "type": "t_array(t_address)dyn_storage"
      }
    ],
    "types": {
      "t_address": {
        "encoding": "inplace",
        "label": "address",
        "numberOfBytes": "20"
      },
      "t_array(t_address)dyn_storage": {
        "base": "t_address",
        "encoding": "dynamic_array",
        "label": "address[]",
        "numberOfBytes": "32"
      },
      "t_contract(IBorrowerOperations)6870": {
        "encoding": "inplace",
        "label": "contract IBorrowerOperations",
        "numberOfBytes": "20"
      },
      "t_contract(IDebtTokenManager)7138": {
        "encoding": "inplace",
        "label": "contract IDebtTokenManager",
        "numberOfBytes": "20"
      },
      "t_contract(ITroveManager)8742": {
        "encoding": "inplace",
        "label": "contract ITroveManager",
        "numberOfBytes": "20"
      },
      "t_mapping(t_address,t_address)": {
        "encoding": "mapping",
        "key": "t_address",
        "label": "mapping(address => address)",
        "numberOfBytes": "32",
        "value": "t_address"
      },
      "t_mapping(t_address,t_mapping(t_address,t_address))": {
        "encoding": "mapping",
        "key": "t_address",
        "label": "mapping(address => mapping(address => address))",
        "numberOfBytes": "32",
        "value": "t_mapping(t_address,t_address)"
      }
    }
  }
}