{
  "_format": "hh-sol-artifact-1",
  "contractName": "StoragePool",
  "sourceName": "contracts/StoragePool.sol",
  "abi": [
    {
      "inputs": [],
      "name": "FeeExceedMaxPercentage",
      "type": "error"
    },
    {
      "inputs": [],
      "name": "NotContract",
      "type": "error"
    },
    {
      "inputs": [],
      "name": "NotFromBOorTroveMorSP",
      "type": "error"
    },
    {
      "inputs": [],
      "name": "ZeroAddress",
      "type": "error"
    },
    {
      "anonymous": false,
      "inputs": [
        {
          "indexed": false,
          "internalType": "address",
          "name": "_newBorrowerOperationsAddress",
          "type": "address"
        }
      ],
      "name": "BorrowerOperationsAddressChanged",
      "type": "event"
    },
    {
      "anonymous": false,
      "inputs": [
        {
          "indexed": true,
          "internalType": "address",
          "name": "previousOwner",
          "type": "address"
        },
        {
          "indexed": true,
          "internalType": "address",
          "name": "newOwner",
          "type": "address"
        }
      ],
      "name": "OwnershipTransferred",
      "type": "event"
    },
    {
      "anonymous": false,
      "inputs": [
        {
          "indexed": false,
          "internalType": "address",
          "name": "_tokenAddress",
          "type": "address"
        },
        {
          "indexed": false,
          "internalType": "bool",
          "name": "_isColl",
          "type": "bool"
        },
        {
          "indexed": false,
          "internalType": "enum IBase.PoolType",
          "name": "_poolType",
          "type": "uint8"
        },
        {
          "indexed": false,
          "internalType": "uint256",
          "name": "_updatedAmount",
          "type": "uint256"
        }
      ],
      "name": "PoolValueUpdated",
      "type": "event"
    },
    {
      "anonymous": false,
      "inputs": [
        {
          "indexed": false,
          "internalType": "address",
          "name": "_priceFeedAddress",
          "type": "address"
        }
      ],
      "name": "PriceFeedAddressChanged",
      "type": "event"
    },
    {
      "anonymous": false,
      "inputs": [
        {
          "indexed": false,
          "internalType": "address",
          "name": "_newStabilityPoolAddress",
          "type": "address"
        }
      ],
      "name": "StabilityPoolManagerAddressChanged",
      "type": "event"
    },
    {
      "anonymous": false,
      "inputs": [
        {
          "indexed": false,
          "internalType": "address",
          "name": "_newTroveManagerAddress",
          "type": "address"
        }
      ],
      "name": "TroveManagerAddressChanged",
      "type": "event"
    },
    {
      "inputs": [],
      "name": "BORROWING_FEE_FLOOR",
      "outputs": [
        {
          "internalType": "uint256",
          "name": "",
          "type": "uint256"
        }
      ],
      "stateMutability": "view",
      "type": "function"
    },
    {
      "inputs": [],
      "name": "CCR",
      "outputs": [
        {
          "internalType": "uint256",
          "name": "",
          "type": "uint256"
        }
      ],
      "stateMutability": "view",
      "type": "function"
    },
    {
      "inputs": [],
      "name": "MCR",
      "outputs": [
        {
          "internalType": "uint256",
          "name": "",
          "type": "uint256"
        }
      ],
      "stateMutability": "view",
      "type": "function"
    },
    {
      "inputs": [],
      "name": "NAME",
      "outputs": [
        {
          "internalType": "string",
          "name": "",
          "type": "string"
        }
      ],
      "stateMutability": "view",
      "type": "function"
    },
    {
      "inputs": [],
      "name": "PERCENT_DIVISOR",
      "outputs": [
        {
          "internalType": "uint256",
          "name": "",
          "type": "uint256"
        }
      ],
      "stateMutability": "view",
      "type": "function"
    },
    {
      "inputs": [],
      "name": "STABLE_COIN_GAS_COMPENSATION",
      "outputs": [
        {
          "internalType": "uint256",
          "name": "",
          "type": "uint256"
        }
      ],
      "stateMutability": "view",
      "type": "function"
    },
    {
      "inputs": [],
      "name": "_100pct",
      "outputs": [
        {
          "internalType": "uint256",
          "name": "",
          "type": "uint256"
        }
      ],
      "stateMutability": "view",
      "type": "function"
    },
    {
      "inputs": [
        {
          "internalType": "address",
          "name": "_tokenAddress",
          "type": "address"
        },
        {
          "internalType": "bool",
          "name": "_isColl",
          "type": "bool"
        },
        {
          "internalType": "enum IBase.PoolType",
          "name": "_poolType",
          "type": "uint8"
        },
        {
          "internalType": "uint256",
          "name": "_amount",
          "type": "uint256"
        }
      ],
      "name": "addValue",
      "outputs": [],
      "stateMutability": "nonpayable",
      "type": "function"
    },
    {
      "inputs": [],
      "name": "borrowerOperationsAddress",
      "outputs": [
        {
          "internalType": "address",
          "name": "",
          "type": "address"
        }
      ],
      "stateMutability": "view",
      "type": "function"
    },
    {
      "inputs": [],
      "name": "checkRecoveryMode",
      "outputs": [
        {
          "internalType": "bool",
          "name": "isInRecoveryMode",
          "type": "bool"
        },
        {
          "internalType": "uint256",
          "name": "TCR",
          "type": "uint256"
        },
        {
          "internalType": "uint256",
          "name": "entireSystemColl",
          "type": "uint256"
        },
        {
          "internalType": "uint256",
          "name": "entireSystemDebt",
          "type": "uint256"
        }
      ],
      "stateMutability": "view",
      "type": "function"
    },
    {
      "inputs": [
        {
          "internalType": "uint256",
          "name": "",
          "type": "uint256"
        }
      ],
      "name": "collTokenAddresses",
      "outputs": [
        {
          "internalType": "address",
          "name": "",
          "type": "address"
        }
      ],
      "stateMutability": "view",
      "type": "function"
    },
    {
      "inputs": [
        {
          "internalType": "uint256",
          "name": "",
          "type": "uint256"
        }
      ],
      "name": "debtTokenAddresses",
      "outputs": [
        {
          "internalType": "address",
          "name": "",
          "type": "address"
        }
      ],
      "stateMutability": "view",
      "type": "function"
    },
    {
      "inputs": [],
      "name": "getEntireSystemColl",
      "outputs": [
        {
          "internalType": "uint256",
          "name": "entireSystemColl",
          "type": "uint256"
        }
      ],
      "stateMutability": "view",
      "type": "function"
    },
    {
      "inputs": [],
      "name": "getEntireSystemDebt",
      "outputs": [
        {
          "internalType": "uint256",
          "name": "entireSystemDebt",
          "type": "uint256"
        }
      ],
      "stateMutability": "view",
      "type": "function"
    },
    {
      "inputs": [
        {
          "internalType": "address",
          "name": "_tokenAddress",
          "type": "address"
        },
        {
          "internalType": "bool",
          "name": "_isColl",
          "type": "bool"
        },
        {
          "internalType": "enum IBase.PoolType",
          "name": "_poolType",
          "type": "uint8"
        }
      ],
      "name": "getValue",
      "outputs": [
        {
          "internalType": "uint256",
          "name": "",
          "type": "uint256"
        }
      ],
      "stateMutability": "view",
      "type": "function"
    },
    {
      "inputs": [],
      "name": "owner",
      "outputs": [
        {
          "internalType": "address",
          "name": "",
          "type": "address"
        }
      ],
      "stateMutability": "view",
      "type": "function"
    },
    {
      "inputs": [],
      "name": "priceFeed",
      "outputs": [
        {
          "internalType": "contract IPriceFeed",
          "name": "",
          "type": "address"
        }
      ],
      "stateMutability": "view",
      "type": "function"
    },
    {
      "inputs": [],
      "name": "renounceOwnership",
      "outputs": [],
      "stateMutability": "nonpayable",
      "type": "function"
    },
    {
      "inputs": [
        {
          "internalType": "address",
          "name": "_borrowerOperationsAddress",
          "type": "address"
        },
        {
          "internalType": "address",
          "name": "_troveManagerAddress",
          "type": "address"
        },
        {
          "internalType": "address",
          "name": "_stabilityPoolManagerAddress",
          "type": "address"
        },
        {
          "internalType": "address",
          "name": "_priceFeedAddress",
          "type": "address"
        }
      ],
      "name": "setAddresses",
      "outputs": [],
      "stateMutability": "nonpayable",
      "type": "function"
    },
    {
      "inputs": [],
      "name": "stabilityPoolManagerAddress",
      "outputs": [
        {
          "internalType": "address",
          "name": "",
          "type": "address"
        }
      ],
      "stateMutability": "view",
      "type": "function"
    },
    {
      "inputs": [
        {
          "internalType": "address",
          "name": "_tokenAddress",
          "type": "address"
        },
        {
          "internalType": "bool",
          "name": "_isColl",
          "type": "bool"
        },
        {
          "internalType": "enum IBase.PoolType",
          "name": "_poolType",
          "type": "uint8"
        },
        {
          "internalType": "uint256",
          "name": "_amount",
          "type": "uint256"
        }
      ],
      "name": "subtractValue",
      "outputs": [],
      "stateMutability": "nonpayable",
      "type": "function"
    },
    {
      "inputs": [
        {
          "internalType": "address",
          "name": "_tokenAddress",
          "type": "address"
        },
        {
          "internalType": "bool",
          "name": "_isColl",
          "type": "bool"
        },
        {
          "internalType": "enum IBase.PoolType",
          "name": "_fromType",
          "type": "uint8"
        },
        {
          "internalType": "enum IBase.PoolType",
          "name": "_toType",
          "type": "uint8"
        },
        {
          "internalType": "uint256",
          "name": "_amount",
          "type": "uint256"
        }
      ],
      "name": "transferBetweenTypes",
      "outputs": [],
      "stateMutability": "nonpayable",
      "type": "function"
    },
    {
      "inputs": [
        {
          "internalType": "address",
          "name": "newOwner",
          "type": "address"
        }
      ],
      "name": "transferOwnership",
      "outputs": [],
      "stateMutability": "nonpayable",
      "type": "function"
    },
    {
      "inputs": [],
      "name": "troveManagerAddress",
      "outputs": [
        {
          "internalType": "address",
          "name": "",
          "type": "address"
        }
      ],
      "stateMutability": "view",
      "type": "function"
    },
    {
      "inputs": [
        {
          "internalType": "address",
          "name": "_receiver",
          "type": "address"
        },
        {
          "internalType": "address",
          "name": "_tokenAddress",
          "type": "address"
        },
        {
          "internalType": "bool",
          "name": "_isColl",
          "type": "bool"
        },
        {
          "internalType": "enum IBase.PoolType",
          "name": "_poolType",
          "type": "uint8"
        },
        {
          "internalType": "uint256",
          "name": "_amount",
          "type": "uint256"
        }
      ],
      "name": "withdrawalValue",
      "outputs": [],
      "stateMutability": "nonpayable",
      "type": "function"
    }
  ],
  "bytecode": "0x608060405234801561001057600080fd5b5061001a3361001f565b61006f565b600080546001600160a01b038381166001600160a01b0319831681178455604051919092169283917f8be0079c531659141344cd1fd0a4f28419497f9722a3daafe3b4186f6b6457e09190a35050565b6114458061007e6000396000f3fe608060405234801561001057600080fd5b50600436106101735760003560e01c8063795d26c3116100de578063a3f4df7e11610097578063d05f350011610071578063d05f350014610332578063e244048414610345578063f2fde38b14610358578063f92d34331461036b57600080fd5b8063a3f4df7e146102d5578063b403b9971461030c578063b7f8cf9b1461031f57600080fd5b8063795d26c31461027e578063887105d3146102865780638d63c6651461028e5780638da5cb5b1461029e5780638e2f0dcf146102af578063a33d8e14146102c257600080fd5b80635ebdb11a116101305780635ebdb11a1461021f578063715018a61461023257806371a9d4181461023a57806372fe25aa1461024d578063741bef1a1461025c578063794e57241461026f57600080fd5b806312e1aab41461017857806343a124fa1461018d5780634870dd9a146101bc5780634a945f8d146101d25780635733d58f146101e55780635a4d28bb146101f4575b600080fd5b61018b610186366004611086565b610373565b005b61019561038d565b60408051941515855260208501939093529183015260608201526080015b60405180910390f35b6101c460c881565b6040519081526020016101b3565b61018b6101e03660046110d3565b61047a565b6101c46714d1120d7b16000081565b600254610207906001600160a01b031681565b6040516001600160a01b0390911681526020016101b3565b61018b61022d366004611127565b6105f2565b61018b6107d8565b610207610248366004611185565b6107ec565b6101c4670de0b6b3a764000081565b600454610207906001600160a01b031681565b6101c4670f43fc2c04ee000081565b6101c4610816565b6101c4610946565b6101c4680ad78ebc5ac620000081565b6000546001600160a01b0316610207565b600354610207906001600160a01b031681565b6102076102d0366004611185565b610a72565b6102ff6040518060400160405280600b81526020016a14dd1bdc9859d9541bdbdb60aa1b81525081565b6040516101b3919061119e565b61018b61031a3660046111ec565b610a82565b600154610207906001600160a01b031681565b6101c461034036600461122b565b610b11565b61018b610353366004611086565b610b78565b61018b610366366004611270565b610d7c565b6101c4610df5565b61037b610e17565b61038784848484610e72565b50505050565b600080600080306001600160a01b031663887105d36040518163ffffffff1660e01b8152600401602060405180830381865afa1580156103d1573d6000803e3d6000fd5b505050506040513d601f19601f820116820180604052508101906103f59190611292565b9150306001600160a01b031663795d26c36040518163ffffffff1660e01b8152600401602060405180830381865afa158015610435573d6000803e3d6000fd5b505050506040513d601f19601f820116820180604052508101906104599190611292565b90506104658282610f1d565b92506714d1120d7b1600008310935090919293565b610482610f54565b61048b84610fae565b61049483610fae565b61049d82610fae565b6104a681610fae565b600180546001600160a01b0319166001600160a01b0386169081179091556040519081527f3ca631ffcd2a9b5d9ae18543fc82f58eb4ca33af9e6ab01b7a8e95331e6ed9859060200160405180910390a1600280546001600160a01b0319166001600160a01b0385169081179091556040519081527f143219c9e69b09e07e095fcc889b43d8f46ca892bba65f08dc3a0050869a56789060200160405180910390a1600380546001600160a01b0319166001600160a01b0384169081179091556040519081527fdc4ff81a44a1e315987e71744c18899edae2c92311656e4102a5bc791462c6f19060200160405180910390a1600480546001600160a01b0319166001600160a01b0383169081179091556040519081527f8c537274438aa850a330284665d81a85dd38267d09e4050d416bfc94142db2649060200160405180910390a16103876107d8565b6105fa610e17565b6001600160a01b038516600090815260056020908152604080832087151584529091529020600381015460ff1661064c5760405162461bcd60e51b8152600401610643906112ab565b60405180910390fd5b81816002016000866002811115610665576106656112f0565b6002811115610676576106766112f0565b81526020019081526020016000206000828254610693919061131c565b925050819055507f87d86bd2d9c6f198554f4fc5361207aadb64832a358b903b2aefbecfa64a965b8686868460020160008960028111156106d6576106d66112f0565b60028111156106e7576106e76112f0565b815260200190815260200160002054604051610706949392919061132f565b60405180910390a181816002016000856002811115610727576107276112f0565b6002811115610738576107386112f0565b815260200190815260200160002060008282546107559190611377565b925050819055507f87d86bd2d9c6f198554f4fc5361207aadb64832a358b903b2aefbecfa64a965b868685846002016000886002811115610798576107986112f0565b60028111156107a9576107a96112f0565b8152602001908152602001600020546040516107c8949392919061132f565b60405180910390a1505050505050565b6107e0610f54565b6107ea6000610ffd565b565b600681815481106107fc57600080fd5b6000918252602090912001546001600160a01b0316905081565b6004546000906001600160a01b0316815b60075481101561094157816001600160a01b031663fa76dcf2600783815481106108535761085361138a565b9060005260206000200160009054906101000a90046001600160a01b031660056000600786815481106108885761088861138a565b6000918252602080832091909101546001600160a01b0390811684528382019490945260409283018220828052905281902060010154905160e085901b6001600160e01b03191681529290911660048301526024820152604401602060405180830381865afa1580156108ff573d6000803e3d6000fd5b505050506040513d601f19601f820116820180604052508101906109239190611292565b61092d9084611377565b925080610939816113a0565b915050610827565b505090565b6004546000906001600160a01b0316815b60065481101561094157816001600160a01b031663fa76dcf2600683815481106109835761098361138a565b9060005260206000200160009054906101000a90046001600160a01b031660056000600686815481106109b8576109b861138a565b6000918252602080832091909101546001600160a01b039081168452838201949094526040928301822060018084529152908290200154905160e085901b6001600160e01b03191681529290911660048301526024820152604401602060405180830381865afa158015610a30573d6000803e3d6000fd5b505050506040513d601f19601f82011682018060405250810190610a549190611292565b610a5e9084611377565b925080610a6a816113a0565b915050610957565b600781815481106107fc57600080fd5b610a8a610e17565b610a9684848484610e72565b60405163a9059cbb60e01b81526001600160a01b0386811660048301526024820183905285169063a9059cbb906044016020604051808303816000875af1158015610ae5573d6000803e3d6000fd5b505050506040513d601f19601f82011682018060405250810190610b0991906113b9565b505050505050565b6001600160a01b03831660009081526005602090815260408083208515158452909152812060029081019082908490811115610b4f57610b4f6112f0565b6002811115610b6057610b606112f0565b81526020019081526020016000205490509392505050565b610b80610e17565b6001600160a01b038416600090815260056020908152604080832086151584529091529020600381015460ff16610c98576001600160a01b0385166000818152600560209081526040808320881580158552925290912060038101805460ff1916600117905580546001600160a01b031916909217909155610c4c57600680546001810182556000919091527ff652222313e28459528d920b65115c16c04f3efc82aaedc97be59f3f377c0d3f0180546001600160a01b0319166001600160a01b038716179055610c98565b600780546001810182556000919091527fa66cc928b5edb82af9bd49922954155ab7b0942694bea4ce44661d9a8736c6880180546001600160a01b0319166001600160a01b0387161790555b81816002016000856002811115610cb157610cb16112f0565b6002811115610cc257610cc26112f0565b81526020019081526020016000206000828254610cdf9190611377565b9250508190555081816001016000828254610cfa9190611377565b925050819055507f87d86bd2d9c6f198554f4fc5361207aadb64832a358b903b2aefbecfa64a965b858585846002016000886002811115610d3d57610d3d6112f0565b6002811115610d4e57610d4e6112f0565b815260200190815260200160002054604051610d6d949392919061132f565b60405180910390a15050505050565b610d84610f54565b6001600160a01b038116610de95760405162461bcd60e51b815260206004820152602660248201527f4f776e61626c653a206e6577206f776e657220697320746865207a65726f206160448201526564647265737360d01b6064820152608401610643565b610df281610ffd565b50565b610e096103e8670de0b6b3a76400006113d6565b610e149060056113f8565b81565b6001546001600160a01b03163314801590610e3d57506002546001600160a01b03163314155b8015610e5457506003546001600160a01b03163314155b156107ea5760405163229a92c760e21b815260040160405180910390fd5b6001600160a01b038416600090815260056020908152604080832086151584529091529020600381015460ff16610ebb5760405162461bcd60e51b8152600401610643906112ab565b81816002016000856002811115610ed457610ed46112f0565b6002811115610ee557610ee56112f0565b81526020019081526020016000206000828254610f02919061131c565b9250508190555081816001016000828254610cfa919061131c565b60008115610f495781610f38670de0b6b3a7640000856113f8565b610f4291906113d6565b9050610f4e565b506000195b92915050565b6000546001600160a01b031633146107ea5760405162461bcd60e51b815260206004820181905260248201527f4f776e61626c653a2063616c6c6572206973206e6f7420746865206f776e65726044820152606401610643565b6001600160a01b038116610fd55760405163d92e233d60e01b815260040160405180910390fd5b803b6000819003610ff957604051636f7c43f160e01b815260040160405180910390fd5b5050565b600080546001600160a01b038381166001600160a01b0319831681178455604051919092169283917f8be0079c531659141344cd1fd0a4f28419497f9722a3daafe3b4186f6b6457e09190a35050565b80356001600160a01b038116811461106457600080fd5b919050565b8015158114610df257600080fd5b80356003811061106457600080fd5b6000806000806080858703121561109c57600080fd5b6110a58561104d565b935060208501356110b581611069565b92506110c360408601611077565b9396929550929360600135925050565b600080600080608085870312156110e957600080fd5b6110f28561104d565b93506111006020860161104d565b925061110e6040860161104d565b915061111c6060860161104d565b905092959194509250565b600080600080600060a0868803121561113f57600080fd5b6111488661104d565b9450602086013561115881611069565b935061116660408701611077565b925061117460608701611077565b949793965091946080013592915050565b60006020828403121561119757600080fd5b5035919050565b600060208083528351808285015260005b818110156111cb578581018301518582016040015282016111af565b506000604082860101526040601f19601f8301168501019250505092915050565b600080600080600060a0868803121561120457600080fd5b61120d8661104d565b945061121b6020870161104d565b9350604086013561116681611069565b60008060006060848603121561124057600080fd5b6112498461104d565b9250602084013561125981611069565b915061126760408501611077565b90509250925092565b60006020828403121561128257600080fd5b61128b8261104d565b9392505050565b6000602082840312156112a457600080fd5b5051919050565b60208082526025908201527f53746f72616765506f6f6c3a20506f6f6c456e74727920646f6573206e6f7420604082015264195e1a5cdd60da1b606082015260800190565b634e487b7160e01b600052602160045260246000fd5b634e487b7160e01b600052601160045260246000fd5b81810381811115610f4e57610f4e611306565b6001600160a01b03851681528315156020820152608081016003841061136557634e487b7160e01b600052602160045260246000fd5b60408201939093526060015292915050565b80820180821115610f4e57610f4e611306565b634e487b7160e01b600052603260045260246000fd5b6000600182016113b2576113b2611306565b5060010190565b6000602082840312156113cb57600080fd5b815161128b81611069565b6000826113f357634e487b7160e01b600052601260045260246000fd5b500490565b8082028115828204841417610f4e57610f4e61130656fea264697066735822122017c63fa0ed60e7dcd8de55338c27a91952b24bd49a8b238c68039f919d9d48d064736f6c63430008140033",
  "linkReferences": {},
  "deployedLinkReferences": {}
}